{"abi":[{"type":"constructor","inputs":[{"name":"_poolManager","type":"address","internalType":"address"},{"name":"_factory","type":"address","internalType":"address"},{"name":"_locker","type":"address","internalType":"address"},{"name":"_weth","type":"address","internalType":"address"}],"stateMutability":"nonpayable"},{"type":"function","name":"BPS_DENOMINATOR","inputs":[],"outputs":[{"name":"","type":"uint24","internalType":"uint24"}],"stateMutability":"view"},{"type":"function","name":"FEE_CONTROL_DENOMINATOR","inputs":[],"outputs":[{"name":"","type":"uint24","internalType":"uint24"}],"stateMutability":"view"},{"type":"function","name":"FEE_DENOMINATOR","inputs":[],"outputs":[{"name":"","type":"int128","internalType":"int128"}],"stateMutability":"view"},{"type":"function","name":"MAX_DECAY_FILTER_BPS","inputs":[],"outputs":[{"name":"","type":"uint256","internalType":"uint256"}],"stateMutability":"view"},{"type":"function","name":"MAX_LP_FEE","inputs":[],"outputs":[{"name":"","type":"uint24","internalType":"uint24"}],"stateMutability":"view"},{"type":"function","name":"MAX_MEV_MODULE_DELAY","inputs":[],"outputs":[{"name":"","type":"uint256","internalType":"uint256"}],"stateMutability":"view"},{"type":"function","name":"MIN_BASE_FEE","inputs":[],"outputs":[{"name":"","type":"uint24","internalType":"uint24"}],"stateMutability":"view"},{"type":"function","name":"PROTOCOL_FEE_NUMERATOR","inputs":[],"outputs":[{"name":"","type":"uint256","internalType":"uint256"}],"stateMutability":"view"},{"type":"function","name":"afterAddLiquidity","inputs":[{"name":"sender","type":"address","internalType":"address"},{"name":"key","type":"tuple","internalType":"struct PoolKey","components":[{"name":"currency0","type":"address","internalType":"Currency"},{"name":"currency1","type":"address","internalType":"Currency"},{"name":"fee","type":"uint24","internalType":"uint24"},{"name":"tickSpacing","type":"int24","internalType":"int24"},{"name":"hooks","type":"address","internalType":"contract IHooks"}]},{"name":"params","type":"tuple","internalType":"struct IPoolManager.ModifyLiquidityParams","components":[{"name":"tickLower","type":"int24","internalType":"int24"},{"name":"tickUpper","type":"int24","internalType":"int24"},{"name":"liquidityDelta","type":"int256","internalType":"int256"},{"name":"salt","type":"bytes32","internalType":"bytes32"}]},{"name":"delta","type":"int256","internalType":"BalanceDelta"},{"name":"feesAccrued","type":"int256","internalType":"BalanceDelta"},{"name":"hookData","type":"bytes","internalType":"bytes"}],"outputs":[{"name":"","type":"bytes4","internalType":"bytes4"},{"name":"","type":"int256","internalType":"BalanceDelta"}],"stateMutability":"nonpayable"},{"type":"function","name":"afterDonate","inputs":[{"name":"sender","type":"address","internalType":"address"},{"name":"key","type":"tuple","internalType":"struct PoolKey","components":[{"name":"currency0","type":"address","internalType":"Currency"},{"name":"currency1","type":"address","internalType":"Currency"},{"name":"fee","type":"uint24","internalType":"uint24"},{"name":"tickSpacing","type":"int24","internalType":"int24"},{"name":"hooks","type":"address","internalType":"contract IHooks"}]},{"name":"amount0","type":"uint256","internalType":"uint256"},{"name":"amount1","type":"uint256","internalType":"uint256"},{"name":"hookData","type":"bytes","internalType":"bytes"}],"outputs":[{"name":"","type":"bytes4","internalType":"bytes4"}],"stateMutability":"nonpayable"},{"type":"function","name":"afterInitialize","inputs":[{"name":"sender","type":"address","internalType":"address"},{"name":"key","type":"tuple","internalType":"struct PoolKey","components":[{"name":"currency0","type":"address","internalType":"Currency"},{"name":"currency1","type":"address","internalType":"Currency"},{"name":"fee","type":"uint24","internalType":"uint24"},{"name":"tickSpacing","type":"int24","internalType":"int24"},{"name":"hooks","type":"address","internalType":"contract IHooks"}]},{"name":"sqrtPriceX96","type":"uint160","internalType":"uint160"},{"name":"tick","type":"int24","internalType":"int24"}],"outputs":[{"name":"","type":"bytes4","internalType":"bytes4"}],"stateMutability":"nonpayable"},{"type":"function","name":"afterRemoveLiquidity","inputs":[{"name":"sender","type":"address","internalType":"address"},{"name":"key","type":"tuple","internalType":"struct PoolKey","components":[{"name":"currency0","type":"address","internalType":"Currency"},{"name":"currency1","type":"address","internalType":"Currency"},{"name":"fee","type":"uint24","internalType":"uint24"},{"name":"tickSpacing","type":"int24","internalType":"int24"},{"name":"hooks","type":"address","internalType":"contract IHooks"}]},{"name":"params","type":"tuple","internalType":"struct IPoolManager.ModifyLiquidityParams","components":[{"name":"tickLower","type":"int24","internalType":"int24"},{"name":"tickUpper","type":"int24","internalType":"int24"},{"name":"liquidityDelta","type":"int256","internalType":"int256"},{"name":"salt","type":"bytes32","internalType":"bytes32"}]},{"name":"delta","type":"int256","internalType":"BalanceDelta"},{"name":"feesAccrued","type":"int256","internalType":"BalanceDelta"},{"name":"hookData","type":"bytes","internalType":"bytes"}],"outputs":[{"name":"","type":"bytes4","internalType":"bytes4"},{"name":"","type":"int256","internalType":"BalanceDelta"}],"stateMutability":"nonpayable"},{"type":"function","name":"afterSwap","inputs":[{"name":"sender","type":"address","internalType":"address"},{"name":"key","type":"tuple","internalType":"struct PoolKey","components":[{"name":"currency0","type":"address","internalType":"Currency"},{"name":"currency1","type":"address","internalType":"Currency"},{"name":"fee","type":"uint24","internalType":"uint24"},{"name":"tickSpacing","type":"int24","internalType":"int24"},{"name":"hooks","type":"address","internalType":"contract IHooks"}]},{"name":"params","type":"tuple","internalType":"struct IPoolManager.SwapParams","components":[{"name":"zeroForOne","type":"bool","internalType":"bool"},{"name":"amountSpecified","type":"int256","internalType":"int256"},{"name":"sqrtPriceLimitX96","type":"uint160","internalType":"uint160"}]},{"name":"delta","type":"int256","internalType":"BalanceDelta"},{"name":"hookData","type":"bytes","internalType":"bytes"}],"outputs":[{"name":"","type":"bytes4","internalType":"bytes4"},{"name":"","type":"int128","internalType":"int128"}],"stateMutability":"nonpayable"},{"type":"function","name":"beforeAddLiquidity","inputs":[{"name":"sender","type":"address","internalType":"address"},{"name":"key","type":"tuple","internalType":"struct PoolKey","components":[{"name":"currency0","type":"address","internalType":"Currency"},{"name":"currency1","type":"address","internalType":"Currency"},{"name":"fee","type":"uint24","internalType":"uint24"},{"name":"tickSpacing","type":"int24","internalType":"int24"},{"name":"hooks","type":"address","internalType":"contract IHooks"}]},{"name":"params","type":"tuple","internalType":"struct IPoolManager.ModifyLiquidityParams","components":[{"name":"tickLower","type":"int24","internalType":"int24"},{"name":"tickUpper","type":"int24","internalType":"int24"},{"name":"liquidityDelta","type":"int256","internalType":"int256"},{"name":"salt","type":"bytes32","internalType":"bytes32"}]},{"name":"hookData","type":"bytes","internalType":"bytes"}],"outputs":[{"name":"","type":"bytes4","internalType":"bytes4"}],"stateMutability":"nonpayable"},{"type":"function","name":"beforeDonate","inputs":[{"name":"sender","type":"address","internalType":"address"},{"name":"key","type":"tuple","internalType":"struct PoolKey","components":[{"name":"currency0","type":"address","internalType":"Currency"},{"name":"currency1","type":"address","internalType":"Currency"},{"name":"fee","type":"uint24","internalType":"uint24"},{"name":"tickSpacing","type":"int24","internalType":"int24"},{"name":"hooks","type":"address","internalType":"contract IHooks"}]},{"name":"amount0","type":"uint256","internalType":"uint256"},{"name":"amount1","type":"uint256","internalType":"uint256"},{"name":"hookData","type":"bytes","internalType":"bytes"}],"outputs":[{"name":"","type":"bytes4","internalType":"bytes4"}],"stateMutability":"nonpayable"},{"type":"function","name":"beforeInitialize","inputs":[{"name":"sender","type":"address","internalType":"address"},{"name":"key","type":"tuple","internalType":"struct PoolKey","components":[{"name":"currency0","type":"address","internalType":"Currency"},{"name":"currency1","type":"address","internalType":"Currency"},{"name":"fee","type":"uint24","internalType":"uint24"},{"name":"tickSpacing","type":"int24","internalType":"int24"},{"name":"hooks","type":"address","internalType":"contract IHooks"}]},{"name":"sqrtPriceX96","type":"uint160","internalType":"uint160"}],"outputs":[{"name":"","type":"bytes4","internalType":"bytes4"}],"stateMutability":"nonpayable"},{"type":"function","name":"beforeRemoveLiquidity","inputs":[{"name":"sender","type":"address","internalType":"address"},{"name":"key","type":"tuple","internalType":"struct PoolKey","components":[{"name":"currency0","type":"address","internalType":"Currency"},{"name":"currency1","type":"address","internalType":"Currency"},{"name":"fee","type":"uint24","internalType":"uint24"},{"name":"tickSpacing","type":"int24","internalType":"int24"},{"name":"hooks","type":"address","internalType":"contract IHooks"}]},{"name":"params","type":"tuple","internalType":"struct IPoolManager.ModifyLiquidityParams","components":[{"name":"tickLower","type":"int24","internalType":"int24"},{"name":"tickUpper","type":"int24","internalType":"int24"},{"name":"liquidityDelta","type":"int256","internalType":"int256"},{"name":"salt","type":"bytes32","internalType":"bytes32"}]},{"name":"hookData","type":"bytes","internalType":"bytes"}],"outputs":[{"name":"","type":"bytes4","internalType":"bytes4"}],"stateMutability":"nonpayable"},{"type":"function","name":"beforeSwap","inputs":[{"name":"sender","type":"address","internalType":"address"},{"name":"key","type":"tuple","internalType":"struct PoolKey","components":[{"name":"currency0","type":"address","internalType":"Currency"},{"name":"currency1","type":"address","internalType":"Currency"},{"name":"fee","type":"uint24","internalType":"uint24"},{"name":"tickSpacing","type":"int24","internalType":"int24"},{"name":"hooks","type":"address","internalType":"contract IHooks"}]},{"name":"params","type":"tuple","internalType":"struct IPoolManager.SwapParams","components":[{"name":"zeroForOne","type":"bool","internalType":"bool"},{"name":"amountSpecified","type":"int256","internalType":"int256"},{"name":"sqrtPriceLimitX96","type":"uint160","internalType":"uint160"}]},{"name":"hookData","type":"bytes","internalType":"bytes"}],"outputs":[{"name":"","type":"bytes4","internalType":"bytes4"},{"name":"","type":"int256","internalType":"BeforeSwapDelta"},{"name":"","type":"uint24","internalType":"uint24"}],"stateMutability":"nonpayable"},{"type":"function","name":"factory","inputs":[],"outputs":[{"name":"","type":"address","internalType":"address"}],"stateMutability":"view"},{"type":"function","name":"getHookPermissions","inputs":[],"outputs":[{"name":"","type":"tuple","internalType":"struct Hooks.Permissions","components":[{"name":"beforeInitialize","type":"bool","internalType":"bool"},{"name":"afterInitialize","type":"bool","internalType":"bool"},{"name":"beforeAddLiquidity","type":"bool","internalType":"bool"},{"name":"afterAddLiquidity","type":"bool","internalType":"bool"},{"name":"beforeRemoveLiquidity","type":"bool","internalType":"bool"},{"name":"afterRemoveLiquidity","type":"bool","internalType":"bool"},{"name":"beforeSwap","type":"bool","internalType":"bool"},{"name":"afterSwap","type":"bool","internalType":"bool"},{"name":"beforeDonate","type":"bool","internalType":"bool"},{"name":"afterDonate","type":"bool","internalType":"bool"},{"name":"beforeSwapReturnDelta","type":"bool","internalType":"bool"},{"name":"afterSwapReturnDelta","type":"bool","internalType":"bool"},{"name":"afterAddLiquidityReturnDelta","type":"bool","internalType":"bool"},{"name":"afterRemoveLiquidityReturnDelta","type":"bool","internalType":"bool"}]}],"stateMutability":"pure"},{"type":"function","name":"initializeMevModule","inputs":[{"name":"poolKey","type":"tuple","internalType":"struct PoolKey","components":[{"name":"currency0","type":"address","internalType":"Currency"},{"name":"currency1","type":"address","internalType":"Currency"},{"name":"fee","type":"uint24","internalType":"uint24"},{"name":"tickSpacing","type":"int24","internalType":"int24"},{"name":"hooks","type":"address","internalType":"contract IHooks"}]},{"name":"mevModuleData","type":"bytes","internalType":"bytes"}],"outputs":[],"stateMutability":"nonpayable"},{"type":"function","name":"initializePool","inputs":[{"name":"clanker","type":"address","internalType":"address"},{"name":"pairedToken","type":"address","internalType":"address"},{"name":"tickIfToken0IsClanker","type":"int24","internalType":"int24"},{"name":"tickSpacing","type":"int24","internalType":"int24"},{"name":"_mevModule","type":"address","internalType":"address"},{"name":"poolData","type":"bytes","internalType":"bytes"}],"outputs":[{"name":"","type":"tuple","internalType":"struct PoolKey","components":[{"name":"currency0","type":"address","internalType":"Currency"},{"name":"currency1","type":"address","internalType":"Currency"},{"name":"fee","type":"uint24","internalType":"uint24"},{"name":"tickSpacing","type":"int24","internalType":"int24"},{"name":"hooks","type":"address","internalType":"contract IHooks"}]}],"stateMutability":"nonpayable"},{"type":"function","name":"initializePoolOpen","inputs":[{"name":"clanker","type":"address","internalType":"address"},{"name":"pairedToken","type":"address","internalType":"address"},{"name":"tickIfToken0IsClanker","type":"int24","internalType":"int24"},{"name":"tickSpacing","type":"int24","internalType":"int24"},{"name":"poolData","type":"bytes","internalType":"bytes"}],"outputs":[{"name":"","type":"tuple","internalType":"struct PoolKey","components":[{"name":"currency0","type":"address","internalType":"Currency"},{"name":"currency1","type":"address","internalType":"Currency"},{"name":"fee","type":"uint24","internalType":"uint24"},{"name":"tickSpacing","type":"int24","internalType":"int24"},{"name":"hooks","type":"address","internalType":"contract IHooks"}]}],"stateMutability":"nonpayable"},{"type":"function","name":"locker","inputs":[],"outputs":[{"name":"","type":"address","internalType":"contract IClankerLpLocker"}],"stateMutability":"view"},{"type":"function","name":"mevModule","inputs":[{"name":"","type":"bytes32","internalType":"PoolId"}],"outputs":[{"name":"","type":"address","internalType":"address"}],"stateMutability":"view"},{"type":"function","name":"mevModuleEnabled","inputs":[{"name":"","type":"bytes32","internalType":"PoolId"}],"outputs":[{"name":"","type":"bool","internalType":"bool"}],"stateMutability":"view"},{"type":"function","name":"owner","inputs":[],"outputs":[{"name":"","type":"address","internalType":"address"}],"stateMutability":"view"},{"type":"function","name":"poolConfigVars","inputs":[{"name":"","type":"bytes32","internalType":"PoolId"}],"outputs":[{"name":"baseFee","type":"uint24","internalType":"uint24"},{"name":"maxLpFee","type":"uint24","internalType":"uint24"},{"name":"referenceTickFilterPeriod","type":"uint256","internalType":"uint256"},{"name":"resetPeriod","type":"uint256","internalType":"uint256"},{"name":"resetTickFilter","type":"int24","internalType":"int24"},{"name":"feeControlNumerator","type":"uint24","internalType":"uint24"},{"name":"decayFilterBps","type":"uint24","internalType":"uint24"}],"stateMutability":"view"},{"type":"function","name":"poolCreationTimestamp","inputs":[{"name":"","type":"bytes32","internalType":"PoolId"}],"outputs":[{"name":"","type":"uint256","internalType":"uint256"}],"stateMutability":"view"},{"type":"function","name":"poolFeeVars","inputs":[{"name":"","type":"bytes32","internalType":"PoolId"}],"outputs":[{"name":"referenceTick","type":"int24","internalType":"int24"},{"name":"resetTick","type":"int24","internalType":"int24"},{"name":"resetTickTimestamp","type":"uint256","internalType":"uint256"},{"name":"lastSwapTimestamp","type":"uint256","internalType":"uint256"},{"name":"appliedVR","type":"uint24","internalType":"uint24"},{"name":"prevVA","type":"uint24","internalType":"uint24"}],"stateMutability":"view"},{"type":"function","name":"poolManager","inputs":[],"outputs":[{"name":"","type":"address","internalType":"contract IPoolManager"}],"stateMutability":"view"},{"type":"function","name":"protocolFee","inputs":[],"outputs":[{"name":"","type":"uint24","internalType":"uint24"}],"stateMutability":"view"},{"type":"function","name":"renounceOwnership","inputs":[],"outputs":[],"stateMutability":"nonpayable"},{"type":"function","name":"simulateSwap","inputs":[{"name":"poolKey","type":"tuple","internalType":"struct PoolKey","components":[{"name":"currency0","type":"address","internalType":"Currency"},{"name":"currency1","type":"address","internalType":"Currency"},{"name":"fee","type":"uint24","internalType":"uint24"},{"name":"tickSpacing","type":"int24","internalType":"int24"},{"name":"hooks","type":"address","internalType":"contract IHooks"}]},{"name":"swapParams","type":"tuple","internalType":"struct IPoolManager.SwapParams","components":[{"name":"zeroForOne","type":"bool","internalType":"bool"},{"name":"amountSpecified","type":"int256","internalType":"int256"},{"name":"sqrtPriceLimitX96","type":"uint160","internalType":"uint160"}]}],"outputs":[],"stateMutability":"nonpayable"},{"type":"function","name":"supportsInterface","inputs":[{"name":"interfaceId","type":"bytes4","internalType":"bytes4"}],"outputs":[{"name":"","type":"bool","internalType":"bool"}],"stateMutability":"pure"},{"type":"function","name":"transferOwnership","inputs":[{"name":"newOwner","type":"address","internalType":"address"}],"outputs":[],"stateMutability":"nonpayable"},{"type":"function","name":"weth","inputs":[],"outputs":[{"name":"","type":"address","internalType":"address"}],"stateMutability":"view"},{"type":"event","name":"ClaimProtocolFees","inputs":[{"name":"token","type":"address","indexed":true,"internalType":"address"},{"name":"amount","type":"uint256","indexed":false,"internalType":"uint256"}],"anonymous":false},{"type":"event","name":"EstimatedTickDifference","inputs":[{"name":"beforeTick","type":"int24","indexed":false,"internalType":"int24"},{"name":"afterTick","type":"int24","indexed":false,"internalType":"int24"}],"anonymous":false},{"type":"event","name":"MevModuleDisabled","inputs":[{"name":"","type":"bytes32","indexed":false,"internalType":"PoolId"}],"anonymous":false},{"type":"event","name":"OwnershipTransferred","inputs":[{"name":"previousOwner","type":"address","indexed":true,"internalType":"address"},{"name":"newOwner","type":"address","indexed":true,"internalType":"address"}],"anonymous":false},{"type":"event","name":"PoolCreatedFactory","inputs":[{"name":"pairedToken","type":"address","indexed":true,"internalType":"address"},{"name":"clanker","type":"address","indexed":true,"internalType":"address"},{"name":"poolId","type":"bytes32","indexed":false,"internalType":"PoolId"},{"name":"tickIfToken0IsClanker","type":"int24","indexed":false,"internalType":"int24"},{"name":"tickSpacing","type":"int24","indexed":false,"internalType":"int24"},{"name":"mevModule","type":"address","indexed":false,"internalType":"address"}],"anonymous":false},{"type":"event","name":"PoolCreatedOpen","inputs":[{"name":"pairedToken","type":"address","indexed":true,"internalType":"address"},{"name":"clanker","type":"address","indexed":true,"internalType":"address"},{"name":"poolId","type":"bytes32","indexed":false,"internalType":"PoolId"},{"name":"tickIfToken0IsClanker","type":"int24","indexed":false,"internalType":"int24"},{"name":"tickSpacing","type":"int24","indexed":false,"internalType":"int24"}],"anonymous":false},{"type":"event","name":"PoolInitialized","inputs":[{"name":"poolId","type":"bytes32","indexed":false,"internalType":"PoolId"},{"name":"baseFee","type":"uint24","indexed":false,"internalType":"uint24"},{"name":"maxLpFee","type":"uint24","indexed":false,"internalType":"uint24"},{"name":"referenceTickFilterPeriod","type":"uint256","indexed":false,"internalType":"uint256"},{"name":"resetPeriod","type":"uint256","indexed":false,"internalType":"uint256"},{"name":"resetTickFilter","type":"int24","indexed":false,"internalType":"int24"},{"name":"feeControlNumerator","type":"uint256","indexed":false,"internalType":"uint256"},{"name":"decayFilterBps","type":"uint24","indexed":false,"internalType":"uint24"}],"anonymous":false},{"type":"error","name":"BaseFeeGreaterThanMaxLpFee","inputs":[]},{"type":"error","name":"BaseFeeTooLow","inputs":[]},{"type":"error","name":"ETHPoolNotAllowed","inputs":[]},{"type":"error","name":"HookNotImplemented","inputs":[]},{"type":"error","name":"MaxLpFeeTooHigh","inputs":[]},{"type":"error","name":"MevModuleEnabled","inputs":[]},{"type":"error","name":"NotPoolManager","inputs":[]},{"type":"error","name":"OnlyFactory","inputs":[]},{"type":"error","name":"OwnableInvalidOwner","inputs":[{"name":"owner","type":"address","internalType":"address"}]},{"type":"error","name":"OwnableUnauthorizedAccount","inputs":[{"name":"account","type":"address","internalType":"address"}]},{"type":"error","name":"PastCreationTimestamp","inputs":[]},{"type":"error","name":"TickReturned","inputs":[{"name":"tick","type":"int24","internalType":"int24"}]},{"type":"error","name":"UnsupportedInitializePath","inputs":[]},{"type":"error","name":"WethCannotBeClanker","inputs":[]}],"bytecode":{"object":"0x6101006040523461038f57604051601f61422938819003918201601f19168301916001600160401b038311848410176103935780849260809460405283398101031261038f5761004e816103c7565b61005a602083016103c7565b91610073606061006c604084016103c7565b92016103c7565b6001600160a01b039092166080525f6101a061008d6103a7565b8281528260208201528260408201528260608201528260808201528260a08201528260c08201528260e0820152826101008201528261012082015282610140820152826101608201528261018082015201525f6101a06100eb6103a7565b60018152826020820152600160408201528260608201528260808201528260a0820152600160c0820152600160e082015282610100820152826101208201526001610140820152600161016082015282610180820152015261200030161515600114801590610382575b8015610371575b8015610364575b8015610357575b801561034a575b801561033a575b801561032a575b801561031e575b8015610312575b8015610302575b80156102f2575b80156102e6575b80156102da575b6102c75733156102b4575f8054336001600160a01b0319821681178355604051959290916001600160a01b0316907f8be0079c531659141344cd1fd0a4f28419497f9722a3daafe3b4186f6b6457e09080a360c0526001600160a01b031660a05260e052613e4d90816103dc82396080518181816105db0152818161067b01528181610ad401528181610f1c01528181610fbe0152818161133a015281816115380152818161183a01528181611bc501528181611c31015281816123e201528181612dc801526134e8015260a051818181611b750152613765015260c05181818161031f015281816111b1015281816118ee015261361a015260e051818181610800015261092b0152f35b631e4fbdf760e01b5f525f60045260245ffd5b630732d7b560e51b5f523060045260245ffd5b506001301615156101a9565b506002301615156101a2565b506004301615156001141561019b565b5060083016151560011415610194565b5060103016151561018d565b50602030161515610186565b506040301615156001141561017f565b5060803016151560011415610178565b5061010030161515610171565b506102003016151561016a565b5061040030161515610163565b50610800301615156001141561015c565b5061100030161515610155565b5f80fd5b634e487b7160e01b5f52604160045260245ffd5b604051906101c082016001600160401b0381118382101761039357604052565b51906001600160a01b038216820361038f5756fe60806040526004361015610011575f80fd5b5f3560e01c8063015e3c291461025557806301ffc9a71461025057806321d0ee701461024b578063259982e5146102465780632b887e0f14610241578063334e83671461023c5780633fc48eba146102375780633fc8cef3146102325780634c2b28761461022d5780635339b03b146101d8578063575e24b41461022857806369b84eb1146102235780636c2bbe7e146102055780636fe7e6eb1461021e578063715018a614610219578063844dbde6146102145780638da5cb5b1461020f57806394191b631461020a5780639f063efc14610205578063b0e21e8a14610200578063b3066515146101fb578063b47b2fb1146101f6578063b6a8b0fa146101bf578063bdf22863146101f1578063c45a0155146101ec578063c4e833ce146101e7578063ca946313146101e2578063ccc8dc43146101dd578063d73792a9146101d8578063d7b96d4e146101d3578063dc4c90d3146101ce578063dc98354e146101c9578063e1a45218146101c4578063e1b4af69146101bf578063ea78e61a146101ba578063ee4d96cf146101b55763f2fde38b146101b0575f80fd5b611cdb565b611cb7565b611c9b565b61180f565b611c7f565b611be9565b611b99565b611b49565b6109ee565b611b2e565b611abf565b6119cd565b6118c2565b611888565b6114ca565b611306565b6112e2565b610ef0565b61111f565b6110ed565b611088565b61100c565b610f6a565b610e54565b610a69565b61088c565b6107d4565b6107b7565b61079a565b610767565b610651565b6105b1565b61048f565b6102cc565b60031960a091011261026b57600490565b5f80fd5b7fffffffffffffffffffffffffffffffffffffffffffffffffffffffffffffffdc60a091011261026b57602490565b9181601f8401121561026b5782359167ffffffffffffffff831161026b576020838186019501011161026b57565b3461026b5760c060031936011261026b576102e63661025a565b60a43567ffffffffffffffff811161026b5761030690369060040161029e565b919073ffffffffffffffffffffffffffffffffffffffff7f00000000000000000000000000000000000000000000000000000000000000001633036104675760a06103513684611ea1565b205f52600360205261039a61038161038160405f2073ffffffffffffffffffffffffffffffffffffffff90541690565b73ffffffffffffffffffffffffffffffffffffffff1690565b92833b1561026b576103df935f92836040518097819582947f645a15340000000000000000000000000000000000000000000000000000000084528960048501611fce565b03925af19182156104625761040661041b9261040d9261044695610448575b503690611ea1565b60a0902090565b5f52600460205260405f2090565b60017fffffffffffffffffffffffffffffffffffffffffffffffffffffffffffffff00825416179055565b005b806104565f61045c93611e34565b80610790565b5f6103fe565b611fef565b7f0c6d42ae000000000000000000000000000000000000000000000000000000005f5260045ffd5b3461026b57602060031936011261026b576004357fffffffff00000000000000000000000000000000000000000000000000000000811680910361026b576020907fd893c69b0000000000000000000000000000000000000000000000000000000060405191148152f35b73ffffffffffffffffffffffffffffffffffffffff81160361026b57565b9061016060031983011261026b57600435610532816104fa565b9160a07fffffffffffffffffffffffffffffffffffffffffffffffffffffffffffffffdc82011261026b5760249160807fffffffffffffffffffffffffffffffffffffffffffffffffffffffffffffff3c83011261026b5760c491610144359067ffffffffffffffff821161026b576105ad9160040161029e565b9091565b3461026b576105bf36610518565b505050505073ffffffffffffffffffffffffffffffffffffffff7f0000000000000000000000000000000000000000000000000000000000000000163303610629577f0a85dc29000000000000000000000000000000000000000000000000000000005f5260045ffd5b7fae18210a000000000000000000000000000000000000000000000000000000005f5260045ffd5b3461026b5761065f36610518565b505050905073ffffffffffffffffffffffffffffffffffffffff7f00000000000000000000000000000000000000000000000000000000000000001633036106295760a06106ad3683611ea1565b205f52600460205260ff60405f2054169081610721575b506106f9576040517f259982e500000000000000000000000000000000000000000000000000000000815280602081015b0390f35b7f678a240e000000000000000000000000000000000000000000000000000000005f5260045ffd5b60a09150610730903690611ea1565b205f52600560205260405f2054607881018091116107505742105f6106c4565b6120e4565b600319602091011261026b5760043590565b3461026b5761077536610755565b5f526004602052602060ff60405f2054166040519015158152f35b5f91031261026b57565b3461026b575f60031936011261026b57602060405162030d408152f35b3461026b575f60031936011261026b576020604051620c35008152f35b3461026b575f60031936011261026b57602060405173ffffffffffffffffffffffffffffffffffffffff7f0000000000000000000000000000000000000000000000000000000000000000168152f35b8060020b0361026b57565b61088a9092919260a081019373ffffffffffffffffffffffffffffffffffffffff6080809282815116855282602082015116602086015262ffffff6040820151166040860152606081015160020b6060860152015116910152565b565b3461026b5760a060031936011261026b576004356108a9816104fa565b602435906108b6826104fa565b604435906108c382610824565b606435916108d083610824565b60843567ffffffffffffffff811161026b576108f090369060040161029e565b6108fb939193611ffa565b5073ffffffffffffffffffffffffffffffffffffffff82169373ffffffffffffffffffffffffffffffffffffffff7f00000000000000000000000000000000000000000000000000000000000000001685146109c6578661099b60609373ffffffffffffffffffffffffffffffffffffffff9389886106f59c7f09cc09ed021cf0d9112cf6d1bdc8689bfedd367df1ac5a550dfd6a07955b8d199961226e565b9660a088209560405196875260020b602087015260020b60408601521692a36040519182918261082f565b7f60456f43000000000000000000000000000000000000000000000000000000005f5260045ffd5b3461026b575f60031936011261026b576020604051620f42408152f35b7fffffffffffffffffffffffffffffffffffffffffffffffffffffffffffffff3c606091011261026b5760c490565b7fffffffffffffffffffffffffffffffffffffffffffffffffffffffffffffff5c606091011261026b5760a490565b3461026b5761014060031936011261026b57610a866004356104fa565b610a8f3661026f565b610a9836610a0b565b906101243567ffffffffffffffff811161026b57610aba90369060040161029e565b92909173ffffffffffffffffffffffffffffffffffffffff7f0000000000000000000000000000000000000000000000000000000000000000169384330361062957610b25905f94610b0c8585612d92565b610b15846134ad565b610b1e846136fe565b8484613842565b610b4d610b46610b386104063685611ea1565b5f52600160205260405f2090565b5460ff1690565b916020610b59826124cd565b910135901515831515145f82128080610e4c575b610d4a575b159081610d42575b50610bbb575b604080517f575e24b4000000000000000000000000000000000000000000000000000000008152602081018690525f91810191909152606090f35b610c9291929350610c80610c8691610c52610c0b610be9610c03610bf1610be95f5462ffffff9060a01c1690565b62ffffff1690565b610bfd60648204612111565b906124e7565b612710900490565b7fffffffffffffffffff000000ffffffffffffffffffffffffffffffffffffffff76ffffff00000000000000000000000000000000000000005f549260a01b169116175f55565b610c7a610c74610c695f5462ffffff9060a01c1690565b62ffffff1660020b90565b60020b90565b906124fa565b600f0b90565b620f424090600f0b0590565b90610c9d8260801b90565b9215610d31576103816020610cb29201612538565b833b1561026b576040517f156e29f60000000000000000000000000000000000000000000000000000000081523060048201526024810191909152600f9190910b6044820152915f908390606490829084905af1918215610462576106f592610d1d575b8080610b80565b806104565f610d2b93611e34565b5f610d16565b610381610d3d91612538565b610cb2565b90505f610b7a565b9450610d78610c0b610be9610c03610d6c610be95f5462ffffff9060a01c1690565b610bfd606482046124d7565b610da6610c86610c80610da0610c74610d9b610c695f5462ffffff9060a01c1690565b61213c565b856124fa565b94610db18660801b90565b958515610e3a57610dc761038160208701612538565b905b883b1561026b576040517f156e29f60000000000000000000000000000000000000000000000000000000081523060048201526024810192909252600f0b60448201525f81606481838c5af1801561046257610e26575b50610b72565b806104565f610e3493611e34565b5f610e20565b610e4661038186612538565b90610dc9565b508115610b6d565b3461026b575f60031936011261026b5760206040516175308152f35b906101a060031983011261026b57600435610e8a816104fa565b9160a07fffffffffffffffffffffffffffffffffffffffffffffffffffffffffffffffdc82011261026b57602491608060c483031261026b5760c49161014435916101643591610184359067ffffffffffffffff821161026b576105ad9160040161029e565b3461026b57610efe36610e70565b5050505050505073ffffffffffffffffffffffffffffffffffffffff7f0000000000000000000000000000000000000000000000000000000000000000163303610629577f0a85dc29000000000000000000000000000000000000000000000000000000005f5260045ffd5b3461026b5761010060031936011261026b57610f876004356104fa565b610f903661026f565b50610f9c60c4356104fa565b610fa760e435610824565b73ffffffffffffffffffffffffffffffffffffffff7f0000000000000000000000000000000000000000000000000000000000000000163303610629577f0a85dc29000000000000000000000000000000000000000000000000000000005f5260045ffd5b3461026b575f60031936011261026b57611024612542565b5f73ffffffffffffffffffffffffffffffffffffffff81547fffffffffffffffffffffffff000000000000000000000000000000000000000081168355167f8be0079c531659141344cd1fd0a4f28419497f9722a3daafe3b4186f6b6457e08280a3005b3461026b5761109636610755565b5f52600660205260c060405f2062ffffff8154916001810154906003600282015491015491604051948060020b865260181c60020b602086015260408501526060840152818116608084015260181c1660a0820152f35b3461026b575f60031936011261026b57602073ffffffffffffffffffffffffffffffffffffffff5f5416604051908152f35b3461026b5760c060031936011261026b5760043561113c816104fa565b602435611148816104fa565b6044359061115582610824565b6064359161116283610824565b6084359361116f856104fa565b60a43567ffffffffffffffff811161026b5761118f90369060040161029e565b9095611199611ffa565b5073ffffffffffffffffffffffffffffffffffffffff7f00000000000000000000000000000000000000000000000000000000000000001633036104675773ffffffffffffffffffffffffffffffffffffffff838180936112246080966106f59c8c8b8d7fe43fa691fff173f5bc7acd795055b455311869649e1c9dae49411d4f327217729c61226e565b9960a08b205f52600260205260405f2060017fffffffffffffffffffffffffffffffffffffffffffffffffffffffffffffff0082541617905560a08b205f5260036020526112b08260405f209073ffffffffffffffffffffffffffffffffffffffff167fffffffffffffffffffffffff0000000000000000000000000000000000000000825416179055565b60a08b2098604051998a5260020b60208a015260020b604089015216606087015216941692a36040519182918261082f565b3461026b575f60031936011261026b57602062ffffff5f5460a01c16604051908152f35b3461026b5761010060031936011261026b576113213661025a565b61132a36610a3a565b90303303611445576113a09160207f000000000000000000000000000000000000000000000000000000000000000091604051905f825261136b8383611e34565b60405195869283927ff3cd914c000000000000000000000000000000000000000000000000000000008452876004850161207a565b03815f73ffffffffffffffffffffffffffffffffffffffff86165af1928315610462576104066113e4936113de926114159661141857503690611ea1565b9061258e565b50507f34ceaf9e000000000000000000000000000000000000000000000000000000005f5260020b60045250602490565b5ffd5b6114399060203d60201161143e575b6114318183611e34565b810190612024565b6103fe565b503d611427565b6040517f08c379a000000000000000000000000000000000000000000000000000000000815260206004820152602b60248201527f73696d756c617465537761702063616e206f6e6c792062652063616c6c65642060448201527f62792074686520686f6f6b0000000000000000000000000000000000000000006064820152608490fd5b3461026b5761016060031936011261026b576114e76004356104fa565b6114f03661026f565b6114f936610a0b565b61012435906101443567ffffffffffffffff811161026b5761151f90369060040161029e565b505073ffffffffffffffffffffffffffffffffffffffff7f00000000000000000000000000000000000000000000000000000000000000001692833303610629575f92611575610b46610b386104063686611ea1565b925f6020611582836124cd565b151586151514920135128080611799575b6116c6575b1590816116bd575b506115d9575b604080517fb47b2fb1000000000000000000000000000000000000000000000000000000008152600f86900b6020820152f35b61160f91929350610c8690845f146116b557600f0b5b611609610c74610d9b610c695f5462ffffff9060a01c1690565b9061266e565b91156116a35761038160206116249201612538565b915b803b1561026b576040517f156e29f60000000000000000000000000000000000000000000000000000000081523060048201526024810193909352600f82900b60448401525f908390606490829084905af1918215610462576106f59261168f575b80806115a6565b806104565f61169d93611e34565b5f611688565b6103816116af91612538565b91611626565b60801d6115ef565b9050155f6115a0565b9450831561178a576116f0610c8683600f0b5b611609610c74610c695f5462ffffff9060a01c1690565b9484156117795761170661038160208601612538565b873b1561026b576040517f156e29f60000000000000000000000000000000000000000000000000000000081523060048201526024810191909152600f87900b60448201525f81606481838c5af1801561046257611765575b50611598565b806104565f61177393611e34565b5f61175f565b61178561038185612538565b611706565b6116f0610c868360801d6116d9565b5081611593565b61012060031982011261026b576004356117b9816104fa565b9160a07fffffffffffffffffffffffffffffffffffffffffffffffffffffffffffffffdc83011261026b5760249160c4359160e43591610104359067ffffffffffffffff821161026b576105ad9160040161029e565b3461026b5761181d366117a0565b50505050505073ffffffffffffffffffffffffffffffffffffffff7f0000000000000000000000000000000000000000000000000000000000000000163303610629577f0a85dc29000000000000000000000000000000000000000000000000000000005f5260045ffd5b3461026b5761189636610755565b5f526003602052602073ffffffffffffffffffffffffffffffffffffffff60405f205416604051908152f35b3461026b575f60031936011261026b57602060405173ffffffffffffffffffffffffffffffffffffffff7f0000000000000000000000000000000000000000000000000000000000000000168152f35b61088a909291926101a0806101c083019561192f84825115159052565b60208181015115159085015260408181015115159085015260608181015115159085015260808181015115159085015260a08181015115159085015260c08181015115159085015260e081810151151590850152610100818101511515908501526101208181015115159085015261014081810151151590850152610160818101511515908501526101808181015115159085015201511515910152565b3461026b575f60031936011261026b575f6101a06040516119ed81611dda565b8281528260208201528260408201528260608201528260808201528260a08201528260c08201528260e0820152826101008201528261012082015282610140820152826101608201528261018082015201526106f5611a4a611e75565b600181525f6020820152600160408201525f60608201525f60808201525f60a0820152611a7a60c0820160019052565b600160e08201525f6101008201525f610120820152611a9d610140820160019052565b60016101608201525f6101808201525f6101a082015260405191829182611912565b3461026b57611acd36610755565b5f52600760205260e060405f2062ffffff81549160018101549060036002820154910154918360405195818116875260181c166020860152604085015260608401528060020b6080840152818160181c1660a084015260301c1660c0820152f35b3461026b575f60031936011261026b57602060405160788152f35b3461026b575f60031936011261026b57602060405173ffffffffffffffffffffffffffffffffffffffff7f0000000000000000000000000000000000000000000000000000000000000000168152f35b3461026b575f60031936011261026b57602060405173ffffffffffffffffffffffffffffffffffffffff7f0000000000000000000000000000000000000000000000000000000000000000168152f35b3461026b5760e060031936011261026b57611c056004356104fa565b611c0e3661026f565b50611c1a60c4356104fa565b73ffffffffffffffffffffffffffffffffffffffff7f0000000000000000000000000000000000000000000000000000000000000000163303610629577f4a58ec19000000000000000000000000000000000000000000000000000000005f5260045ffd5b3461026b575f60031936011261026b5760206040516127108152f35b3461026b575f60031936011261026b5760206040516109c48152f35b3461026b57611cc536610755565b5f526005602052602060405f2054604051908152f35b3461026b57602060031936011261026b5773ffffffffffffffffffffffffffffffffffffffff600435611d0d816104fa565b611d15612542565b168015611d815773ffffffffffffffffffffffffffffffffffffffff5f54827fffffffffffffffffffffffff00000000000000000000000000000000000000008216175f55167f8be0079c531659141344cd1fd0a4f28419497f9722a3daafe3b4186f6b6457e05f80a3005b7f1e4fbdf7000000000000000000000000000000000000000000000000000000005f525f60045260245ffd5b7f4e487b71000000000000000000000000000000000000000000000000000000005f52604160045260245ffd5b6101c0810190811067ffffffffffffffff821117611df757604052565b611dad565b60a0810190811067ffffffffffffffff821117611df757604052565b60e0810190811067ffffffffffffffff821117611df757604052565b90601f7fffffffffffffffffffffffffffffffffffffffffffffffffffffffffffffffe0910116810190811067ffffffffffffffff821117611df757604052565b6040519061088a6101c083611e34565b6040519061088a60a083611e34565b62ffffff81160361026b57565b91908260a091031261026b57604051611eb981611dfc565b60808082948035611ec9816104fa565b84526020810135611ed9816104fa565b60208501526040810135611eec81611e94565b60408501526060810135611eff81610824565b6060850152013591611f10836104fa565b0152565b73ffffffffffffffffffffffffffffffffffffffff60808092828135611f39816104fa565b168552826020820135611f4b816104fa565b16602086015262ffffff6040820135611f6381611e94565b1660408601526060810135611f7781610824565b60020b60608601520135611f8a816104fa565b16910152565b601f82602094937fffffffffffffffffffffffffffffffffffffffffffffffffffffffffffffffe093818652868601375f8582860101520116010190565b80611fdf60c092611fec9694611f14565b8160a08201520191611f90565b90565b6040513d5f823e3d90fd5b6040519061200782611dfc565b5f6080838281528260208201528260408201528260608201520152565b9081602091031261026b575190565b8015150361026b57565b73ffffffffffffffffffffffffffffffffffffffff60408092803561206181612033565b15158552602081013560208601520135611f8a816104fa565b916020610140946120bc601f936120b2877fffffffffffffffffffffffffffffffffffffffffffffffffffffffffffffffe097611f14565b60a087019061203d565b610120610100860152805191829182610120880152018686015e5f8582860101520116010190565b7f4e487b71000000000000000000000000000000000000000000000000000000005f52601160045260245ffd5b6127100190816127101161075057565b906078820180921161075057565b9190820180921161075057565b60020b7fffffffffffffffffffffffffffffffffffffffffffffffffffffffffff8000008114610750575f0390565b519061088a82610824565b9081602091031261026b5751611fec81610824565b90929173ffffffffffffffffffffffffffffffffffffffff60a091611f8a8460c081019773ffffffffffffffffffffffffffffffffffffffff6080809282815116855282602082015116602086015262ffffff6040820151166040860152606081015160020b6060860152015116910152565b67ffffffffffffffff8111611df757601f017fffffffffffffffffffffffffffffffffffffffffffffffffffffffffffffffe01660200190565b929192612244826121fe565b916122526040519384611e34565b82948184528183011161026b578281602093845f960137010152565b9492909493919361227d611ffa565b5073ffffffffffffffffffffffffffffffffffffffff861694851580156124af575b6124875773ffffffffffffffffffffffffffffffffffffffff9661233b6020946123288a8661230b6123c89c836123949a161096875f1461248057825b88156124785750915b6122ed611e85565b9e8f911673ffffffffffffffffffffffffffffffffffffffff169052565b1673ffffffffffffffffffffffffffffffffffffffff16878c0152565b6280000060408b015260020b60608a0152565b30608089015261238a8161235a60a08b205f52600160205260405f2090565b9060ff7fffffffffffffffffffffffffffffffffffffffffffffffffffffffffffffff0083541691151516179055565b1561246a57612685565b604051809581927f6276cbbe000000000000000000000000000000000000000000000000000000008352886004840161218b565b03815f73ffffffffffffffffffffffffffffffffffffffff7f0000000000000000000000000000000000000000000000000000000000000000165af191821561046257611fec936124379361243d575b504261242f60a087205f52600560205260405f2090565b553691612238565b82612bac565b61245e9060203d602011612463575b6124568183611e34565b810190612176565b612418565b503d61244c565b6124739061213c565b612685565b9050916122e5565b80926122dc565b7ff4a44333000000000000000000000000000000000000000000000000000000005f5260045ffd5b5073ffffffffffffffffffffffffffffffffffffffff82161561229f565b35611fec81612033565b6127100390612710821161075057565b8181029291811591840414171561075057565b81810292915f82127f800000000000000000000000000000000000000000000000000000000000000082141661075057818405149015171561075057565b35611fec816104fa565b73ffffffffffffffffffffffffffffffffffffffff5f5416330361256257565b7f118cdaa7000000000000000000000000000000000000000000000000000000005f523360045260245ffd5b61260760209173ffffffffffffffffffffffffffffffffffffffff949360405184810191825260066040820152604081526125ca606082611e34565b5190206040519586809481937f1e2eaeaf000000000000000000000000000000000000000000000000000000008352600483019190602083019252565b0392165afa918215610462575f9261264d575b5073ffffffffffffffffffffffffffffffffffffffff8216918060a01c60020b9162ffffff808360b81c169260d01c1690565b61266791925060203d60201161143e576114318183611e34565b905f61261a565b90600f0b90600f0b029081600f0b91820361075057565b60020b908160ff1d82810118620d89e881116129cb5763ffffffff9192600182167001fffcb933bd6fad37aa2d162d1a594001027001000000000000000000000000000000001891600281166129af575b60048116612993575b60088116612977575b6010811661295b575b6020811661293f575b60408116612923575b60808116612907575b61010081166128eb575b61020081166128cf575b61040081166128b3575b6108008116612897575b611000811661287b575b612000811661285f575b6140008116612843575b6180008116612827575b62010000811661280b575b6202000081166127f0575b6204000081166127d5575b62080000166127bc575b5f12612795575b0160201c90565b7fffffffffffffffffffffffffffffffffffffffffffffffffffffffffffffffff0461278e565b6b048a170391f7dc42444e8fa290910260801c90612787565b6d2216e584f5fa1ea926041bedfe9890920260801c9161277d565b916e5d6af8dedb81196699c329225ee6040260801c91612772565b916f09aa508b5b7a84e1c677de54f3e99bc90260801c91612767565b916f31be135f97d08fd981231505542fcfa60260801c9161275c565b916f70d869a156d2a1b890bb3df62baf32f70260801c91612752565b916fa9f746462d870fdf8a65dc1f90e061e50260801c91612748565b916fd097f3bdfd2022b8845ad8f792aa58250260801c9161273e565b916fe7159475a2c29b7443b29c7fa6e889d90260801c91612734565b916ff3392b0822b70005940c7a398e4b70f30260801c9161272a565b916ff987a7253ac413176f2b074cf7815e540260801c91612720565b916ffcbe86c7900a88aedcffc83b479aa3a40260801c91612716565b916ffe5dee046a99a2a811c461f1969c30530260801c9161270c565b916fff2ea16466c96a3843ec78b326b528610260801c91612703565b916fff973b41fa98c081472e6896dfb254c00260801c916126fa565b916fffcb9843d60f6159c9db58835c9266440260801c916126f1565b916fffe5caca7e10e4e61c3624eaa0941cd00260801c916126e8565b916ffff2e50f5f656932ef12357cf3c7fdcc0260801c916126df565b916ffff97272373d413259a46990580e213a0260801c916126d6565b82613a00565b519061088a82611e94565b908160e091031261026b57612a5560c0604051926129f984611e18565b8051612a0481611e94565b84526020810151612a1481611e94565b60208501526040810151604085015260608101516060850152612a396080820161216b565b6080850152612a4a60a082016129d1565b60a0850152016129d1565b60c082015290565b90612b7360c0600361088a94612aa362ffffff865116829062ffffff167fffffffffffffffffffffffffffffffffffffffffffffffffffffffffff000000825416179055565b602085015181547fffffffffffffffffffffffffffffffffffffffffffffffffffff000000ffffff1660189190911b65ffffff0000001617815560408501516001820155606085015160028201550192612b2f608082015160020b85907fffffffffffffffffffffffffffffffffffffffffffffffffffffffffff0000008254169062ffffff16179055565b60a081015184547fffffffffffffffffffffffffffffffffffffffffffffffffffff000000ffffff1660189190911b65ffffff00000016178455015162ffffff1690565b7fffffffffffffffffffffffffffffffffffffffffffffff000000ffffffffffff68ffffff00000000000083549260301b169116179055565b90612bc090602080825183010191016129dc565b6109c462ffffff612bd4835162ffffff1690565b1610612d52576020810191620c350062ffffff612bf4855162ffffff1690565b1611612d2a57815162ffffff1662ffffff612c15610be9865162ffffff1690565b911611612d025760a0817f432632506f74db6583b1c612fbc7f00dc5ed2b2cdb9aeb8080ce8dca32dca49d61088a9583612cfd9520612ceb612c67612c5d895162ffffff1690565b935162ffffff1690565b604089015190612c7c888b015162ffffff1690565b908a612c8e60c082015162ffffff1690565b93612ca26080606084015193015160020b90565b6040805198895262ffffff998a1660208a0152938916938801939093526060870152608086015260020b60a0850152841660c084015290921660e0820152908190610100820190565b0390a1205f52600760205260405f2090565b612a5d565b7f1d875955000000000000000000000000000000000000000000000000000000005f5260045ffd5b7f70f07d34000000000000000000000000000000000000000000000000000000005f5260045ffd5b7f23bba199000000000000000000000000000000000000000000000000000000005f5260045ffd5b90929162ffffff60a091611f8a8460c0810197611f14565b612d9f6104063683611ea1565b91612db2835f52600660205260405f2090565b90612dc5845f52600760205260405f2090565b907f000000000000000000000000000000000000000000000000000000000000000094612df2818761258e565b50509490506002810191612e0c835460018701549061212f565b4211156131f15781929394612e4f87612f2794907fffffffffffffffffffffffffffffffffffffffffffffffffffffffffff0000008254169062ffffff16179055565b83547fffffffffffffffffffffffffffffffffffffffffffffffffffff000000ffffff16601888901b65ffffff000000161784554260018501558454612e9b429160028401549061212f565b11156131c157612ed6610c036003860192610bfd610be96003612ec8610be9885462ffffff9060181c1690565b93015460301c62ffffff1690565b9062ffffff8211156131855780547fffffffffffffffffffffffffffffffffffffffffffffffffffffffffff0000001662ffffff179055505b612f22610be9600385015462ffffff1690565b613b19565b612f3081613b74565b73ffffffffffffffffffffffffffffffffffffffff8716803b1561026b57612f8c5f929183926040519485809481937f527596510000000000000000000000000000000000000000000000000000000083528d60048401612d7a565b03925af194851561046257612fea6130ae9561309b957f98185ee38983c6cdd0d24b51d3401877d4098922144329a08d2ce3cbd38e49a39473ffffffffffffffffffffffffffffffffffffffff99613171575b505b42905588613c9d565b9061303c6003612ffb865460020b90565b845f6130078284613a2e565b60020b131561315e57610be99061301d92613a2e565b955b019462ffffff613035610be9885462ffffff1690565b911661212f565b62ffffff81111561311c575083547fffffffffffffffffffffffffffffffffffffffffffffffffffff000000ffffff1665ffffff0000001790935562ffffff925b60408051600292830b81529290910b602083015290a162ffffff1690565b6130a86104063686611ea1565b90613b19565b926130b884613b74565b1691823b1561026b576130fd925f92836040518096819582947f5275965100000000000000000000000000000000000000000000000000000000845260048401612d7a565b03925af180156104625761310e5750565b806104565f61088a93611e34565b84547fffffffffffffffffffffffffffffffffffffffffffffffffffff000000ffffff16601882901b65ffffff000000161790945562ffffff9093169261307d565b61316b91610be991613a2e565b9561301f565b806104565f61317f93611e34565b5f612fdf565b62ffffff6131bc921662ffffff167fffffffffffffffffffffffffffffffffffffffffffffffffffffffffff000000825416179055565b612f0f565b506131bc600384017fffffffffffffffffffffffffffffffffffffffffffffffffffffffffff0000008154169055565b50926001840190815461320a429160028401549061212f565b1061325a575b5050917f98185ee38983c6cdd0d24b51d3401877d4098922144329a08d2ce3cbd38e49a373ffffffffffffffffffffffffffffffffffffffff94612fea61309b946130ae96612fe1565b845460181c60020b86818160020b135f1461349f579061327991613a2e565b61328a610c74600384015460020b90565b9060020b135f14613322575083547fffffffffffffffffffffffffffffffffffffffffffffffffffff000000ffffff16601886901b65ffffff0000001617845573ffffffffffffffffffffffffffffffffffffffff946130ae9461309b9490937f98185ee38983c6cdd0d24b51d3401877d4098922144329a08d2ce3cbd38e49a393612fea9291904290555b94965094505094613210565b6133cd9161335e8787959697907fffffffffffffffffffffffffffffffffffffffffffffffffffffffffff0000008254169062ffffff16179055565b83547fffffffffffffffffffffffffffffffffffffffffffffffffffff000000ffffff16601888901b65ffffff000000161784554290556133c4600384017fffffffffffffffffffffffffffffffffffffffffffffffffffffffffff0000008154169055565b5462ffffff1690565b6133d681613b74565b73ffffffffffffffffffffffffffffffffffffffff8716803b1561026b576134325f929183926040519485809481937f527596510000000000000000000000000000000000000000000000000000000083528d60048401612d7a565b03925af194851561046257612fea6130ae9561309b957f98185ee38983c6cdd0d24b51d3401877d4098922144329a08d2ce3cbd38e49a39473ffffffffffffffffffffffffffffffffffffffff9961348b575b50613316565b806104565f61349993611e34565b5f613485565b6134a891613a2e565b613279565b6134c0610b46610b386104063685611ea1565b156136f05760206134d19101612538565b73ffffffffffffffffffffffffffffffffffffffff7f00000000000000000000000000000000000000000000000000000000000000001661352b6103816103818473ffffffffffffffffffffffffffffffffffffffff1690565b6040517efdd58e000000000000000000000000000000000000000000000000000000008152306004820152602481018290529290602084604481865afa938415610462575f946136cf575b50823b1561026b576040517ff5298aca0000000000000000000000000000000000000000000000000000000081523060048201526024810191909152604481018490525f8160648183875af18015610462576136bb575b50813b1561026b576040517f0b0d9c0900000000000000000000000000000000000000000000000000000000815273ffffffffffffffffffffffffffffffffffffffff82811660048301527f000000000000000000000000000000000000000000000000000000000000000016602482015260448101849052915f908390606490829084905af1908115610462577f175b790d44599ca70432cc8d1406504cb3a28fc13ff995c06dde6663412b211a9273ffffffffffffffffffffffffffffffffffffffff926136a7575b506040519384521691602090a2565b806104565f6136b593611e34565b5f613698565b806104565f6136c993611e34565b5f6135cd565b6136e991945060203d60201161143e576114318183611e34565b925f613576565b6136f990612538565b6134d1565b613726613722610b466137146104063686611ea1565b5f52600260205260405f2090565b1590565b6137f35761373d610b46610b386104063685611ea1565b156137df5761038161374e91612538565b73ffffffffffffffffffffffffffffffffffffffff7f000000000000000000000000000000000000000000000000000000000000000016803b1561026b576040517f86b0c83f00000000000000000000000000000000000000000000000000000000815273ffffffffffffffffffffffffffffffffffffffff90921660048301525f908290818381602481016130fd565b61038160206137ee9201612538565b61374e565b50565b9081602091031261026b5751611fec81612033565b909261382c6101409361382284611fec9997611f14565b60a084019061203d565b1515610100820152816101208201520191611f90565b9291613857610b4661040d6104063688611ea1565b806139d1575b613868575b50505050565b6020916138ac610381610381613892613884610406368b611ea1565b5f52600360205260405f2090565b5473ffffffffffffffffffffffffffffffffffffffff1690565b905f6138c1610b46610b38610406368b611ea1565b916138fc604051978896879586947f831d7dd20000000000000000000000000000000000000000000000000000000086528c6004870161380b565b03925af1908115610462575f916139a2575b5061391c575b808080613862565b6139996139896104067f5fd57032db0db564bdfe22ff91033c11d319a1e6b3677e723545a7ba3e304b939361398261395a61040d6104063685611ea1565b7fffffffffffffffffffffffffffffffffffffffffffffffffffffffffffffff008154169055565b3690611ea1565b6040519081529081906020820190565b0390a15f613914565b6139c4915060203d6020116139ca575b6139bc8183611e34565b8101906137f6565b5f61390e565b503d6139b2565b506139f96139f36139e56104063688611ea1565b5f52600560205260405f2090565b54612121565b421061385d565b7f8b86327a000000000000000000000000000000000000000000000000000000005f5260020b60045260245ffd5b9060020b9060020b0390627fffff82137fffffffffffffffffffffffffffffffffffffffffffffffffffffffffff80000083121761075057565b5f8115613b13578180600114613b0b57600214613b045760016101338310166001600b84101617613af7575060017fffffffffffffffffffffffffffffffffffffffffffffffffffffffffffffffff60025b60018111613ad057508290048111610750570290565b9280820481116107505760018416613aee575b80029260011c613aba565b80920291613ae3565b91906002900a9161075057565b5050600490565b505050600190565b50505f90565b905f526007602052620f4240613b4360405f2092610bfd62ffffff600386015460181c1691613a68565b0490549062ffffff821681018091116107505762ffffff9160181c82169081811115613b6e57501690565b90501690565b62ffffff1662030d4081029080820462030d4014901517156107505762ffffff620f424061088a9204167fffffffffffffffffff000000ffffffffffffffffffffffffffffffffffffffff76ffffff00000000000000000000000000000000000000005f549260a01b169116175f55565b9160a061088a929493613bfd81610100810197611f14565b019061203d565b3d15613c2e573d90613c15826121fe565b91613c236040519384611e34565b82523d5f602084013e565b606090565b90602082519201517fffffffff0000000000000000000000000000000000000000000000000000000081169260048110613c6b575050565b7fffffffff00000000000000000000000000000000000000000000000000000000929350829060040360031b1b161690565b303b1561026b57613cde915f9160405193849283927fb306651500000000000000000000000000000000000000000000000000000000845260048401613be5565b038183305af19081613e39575b50613dda57613cf8613c04565b7f34ceaf9e000000000000000000000000000000000000000000000000000000007fffffffff00000000000000000000000000000000000000000000000000000000613d4383613c33565b1603613d55578051015162ffffff1690565b6040517f08c379a000000000000000000000000000000000000000000000000000000000815260206004820152602860248201527f72657475726e65642073656c6563746f722073686f756c64206265205469636b60448201527f52657475726e65640000000000000000000000000000000000000000000000006064820152608490fd5b6040517f08c379a000000000000000000000000000000000000000000000000000000000815260206004820152601960248201527f73696d756c61746520737761702073686f756c64206661696c000000000000006044820152606490fd5b806104565f613e4793611e34565b5f613ceb56","linkReferences":{}},"methodIdentifiers":{"BPS_DENOMINATOR()":"e1a45218","FEE_CONTROL_DENOMINATOR()":"5339b03b","FEE_DENOMINATOR()":"d73792a9","MAX_DECAY_FILTER_BPS()":"69b84eb1","MAX_LP_FEE()":"3fc48eba","MAX_MEV_MODULE_DELAY()":"ccc8dc43","MIN_BASE_FEE()":"ea78e61a","PROTOCOL_FEE_NUMERATOR()":"334e8367","afterAddLiquidity(address,(address,address,uint24,int24,address),(int24,int24,int256,bytes32),int256,int256,bytes)":"9f063efc","afterDonate(address,(address,address,uint24,int24,address),uint256,uint256,bytes)":"e1b4af69","afterInitialize(address,(address,address,uint24,int24,address),uint160,int24)":"6fe7e6eb","afterRemoveLiquidity(address,(address,address,uint24,int24,address),(int24,int24,int256,bytes32),int256,int256,bytes)":"6c2bbe7e","afterSwap(address,(address,address,uint24,int24,address),(bool,int256,uint160),int256,bytes)":"b47b2fb1","beforeAddLiquidity(address,(address,address,uint24,int24,address),(int24,int24,int256,bytes32),bytes)":"259982e5","beforeDonate(address,(address,address,uint24,int24,address),uint256,uint256,bytes)":"b6a8b0fa","beforeInitialize(address,(address,address,uint24,int24,address),uint160)":"dc98354e","beforeRemoveLiquidity(address,(address,address,uint24,int24,address),(int24,int24,int256,bytes32),bytes)":"21d0ee70","beforeSwap(address,(address,address,uint24,int24,address),(bool,int256,uint160),bytes)":"575e24b4","factory()":"c45a0155","getHookPermissions()":"c4e833ce","initializeMevModule((address,address,uint24,int24,address),bytes)":"015e3c29","initializePool(address,address,int24,int24,address,bytes)":"94191b63","initializePoolOpen(address,address,int24,int24,bytes)":"4c2b2876","locker()":"d7b96d4e","mevModule(bytes32)":"bdf22863","mevModuleEnabled(bytes32)":"2b887e0f","owner()":"8da5cb5b","poolConfigVars(bytes32)":"ca946313","poolCreationTimestamp(bytes32)":"ee4d96cf","poolFeeVars(bytes32)":"844dbde6","poolManager()":"dc4c90d3","protocolFee()":"b0e21e8a","renounceOwnership()":"715018a6","simulateSwap((address,address,uint24,int24,address),(bool,int256,uint160))":"b3066515","supportsInterface(bytes4)":"01ffc9a7","transferOwnership(address)":"f2fde38b","weth()":"3fc8cef3"},"id":125}