{"abi":[{"type":"constructor","inputs":[{"name":"owner_","type":"address","internalType":"address"}],"stateMutability":"nonpayable"},{"type":"function","name":"BPS","inputs":[],"outputs":[{"name":"","type":"uint256","internalType":"uint256"}],"stateMutability":"view"},{"type":"function","name":"MAX_EXTENSIONS","inputs":[],"outputs":[{"name":"","type":"uint256","internalType":"uint256"}],"stateMutability":"view"},{"type":"function","name":"MAX_EXTENSION_BPS","inputs":[],"outputs":[{"name":"","type":"uint16","internalType":"uint16"}],"stateMutability":"view"},{"type":"function","name":"TOKEN_SUPPLY","inputs":[],"outputs":[{"name":"","type":"uint256","internalType":"uint256"}],"stateMutability":"view"},{"type":"function","name":"admins","inputs":[{"name":"","type":"address","internalType":"address"}],"outputs":[{"name":"","type":"bool","internalType":"bool"}],"stateMutability":"view"},{"type":"function","name":"claimTeamFees","inputs":[{"name":"token","type":"address","internalType":"address"}],"outputs":[],"stateMutability":"nonpayable"},{"type":"function","name":"deployToken","inputs":[{"name":"deploymentConfig","type":"tuple","internalType":"struct IClanker.DeploymentConfig","components":[{"name":"tokenConfig","type":"tuple","internalType":"struct IClanker.TokenConfig","components":[{"name":"tokenAdmin","type":"address","internalType":"address"},{"name":"name","type":"string","internalType":"string"},{"name":"symbol","type":"string","internalType":"string"},{"name":"salt","type":"bytes32","internalType":"bytes32"},{"name":"image","type":"string","internalType":"string"},{"name":"metadata","type":"string","internalType":"string"},{"name":"context","type":"string","internalType":"string"},{"name":"originatingChainId","type":"uint256","internalType":"uint256"}]},{"name":"poolConfig","type":"tuple","internalType":"struct IClanker.PoolConfig","components":[{"name":"hook","type":"address","internalType":"address"},{"name":"pairedToken","type":"address","internalType":"address"},{"name":"tickIfToken0IsClanker","type":"int24","internalType":"int24"},{"name":"tickSpacing","type":"int24","internalType":"int24"},{"name":"poolData","type":"bytes","internalType":"bytes"}]},{"name":"lockerConfig","type":"tuple","internalType":"struct IClanker.LockerConfig","components":[{"name":"locker","type":"address","internalType":"address"},{"name":"rewardAdmins","type":"address[]","internalType":"address[]"},{"name":"rewardRecipients","type":"address[]","internalType":"address[]"},{"name":"rewardBps","type":"uint16[]","internalType":"uint16[]"},{"name":"tickLower","type":"int24[]","internalType":"int24[]"},{"name":"tickUpper","type":"int24[]","internalType":"int24[]"},{"name":"positionBps","type":"uint16[]","internalType":"uint16[]"},{"name":"lockerData","type":"bytes","internalType":"bytes"}]},{"name":"mevModuleConfig","type":"tuple","internalType":"struct IClanker.MevModuleConfig","components":[{"name":"mevModule","type":"address","internalType":"address"},{"name":"mevModuleData","type":"bytes","internalType":"bytes"}]},{"name":"extensionConfigs","type":"tuple[]","internalType":"struct IClanker.ExtensionConfig[]","components":[{"name":"extension","type":"address","internalType":"address"},{"name":"msgValue","type":"uint256","internalType":"uint256"},{"name":"extensionBps","type":"uint16","internalType":"uint16"},{"name":"extensionData","type":"bytes","internalType":"bytes"}]}]}],"outputs":[{"name":"tokenAddress","type":"address","internalType":"address"}],"stateMutability":"payable"},{"type":"function","name":"deployTokenZeroSupply","inputs":[{"name":"tokenConfig","type":"tuple","internalType":"struct IClanker.TokenConfig","components":[{"name":"tokenAdmin","type":"address","internalType":"address"},{"name":"name","type":"string","internalType":"string"},{"name":"symbol","type":"string","internalType":"string"},{"name":"salt","type":"bytes32","internalType":"bytes32"},{"name":"image","type":"string","internalType":"string"},{"name":"metadata","type":"string","internalType":"string"},{"name":"context","type":"string","internalType":"string"},{"name":"originatingChainId","type":"uint256","internalType":"uint256"}]}],"outputs":[{"name":"tokenAddress","type":"address","internalType":"address"}],"stateMutability":"nonpayable"},{"type":"function","name":"deploymentInfoForToken","inputs":[{"name":"token","type":"address","internalType":"address"}],"outputs":[{"name":"token","type":"address","internalType":"address"},{"name":"hook","type":"address","internalType":"address"},{"name":"locker","type":"address","internalType":"address"}],"stateMutability":"view"},{"type":"function","name":"deprecated","inputs":[],"outputs":[{"name":"","type":"bool","internalType":"bool"}],"stateMutability":"view"},{"type":"function","name":"enabledLockers","inputs":[{"name":"locker","type":"address","internalType":"address"},{"name":"pool","type":"address","internalType":"address"}],"outputs":[{"name":"enabled","type":"bool","internalType":"bool"}],"stateMutability":"view"},{"type":"function","name":"initialize","inputs":[{"name":"teamFeeRecipient_","type":"address","internalType":"address"}],"outputs":[],"stateMutability":"nonpayable"},{"type":"function","name":"owner","inputs":[],"outputs":[{"name":"","type":"address","internalType":"address"}],"stateMutability":"view"},{"type":"function","name":"renounceOwnership","inputs":[],"outputs":[],"stateMutability":"nonpayable"},{"type":"function","name":"setAdmin","inputs":[{"name":"admin","type":"address","internalType":"address"},{"name":"enabled","type":"bool","internalType":"bool"}],"outputs":[],"stateMutability":"nonpayable"},{"type":"function","name":"setDeprecated","inputs":[{"name":"deprecated_","type":"bool","internalType":"bool"}],"outputs":[],"stateMutability":"nonpayable"},{"type":"function","name":"setExtension","inputs":[{"name":"extension","type":"address","internalType":"address"},{"name":"enabled","type":"bool","internalType":"bool"}],"outputs":[],"stateMutability":"nonpayable"},{"type":"function","name":"setHook","inputs":[{"name":"hook","type":"address","internalType":"address"},{"name":"enabled","type":"bool","internalType":"bool"}],"outputs":[],"stateMutability":"nonpayable"},{"type":"function","name":"setLocker","inputs":[{"name":"locker","type":"address","internalType":"address"},{"name":"pool","type":"address","internalType":"address"},{"name":"enabled","type":"bool","internalType":"bool"}],"outputs":[],"stateMutability":"nonpayable"},{"type":"function","name":"setMevModule","inputs":[{"name":"mevModule","type":"address","internalType":"address"},{"name":"enabled","type":"bool","internalType":"bool"}],"outputs":[],"stateMutability":"nonpayable"},{"type":"function","name":"setTeamFeeRecipient","inputs":[{"name":"teamFeeRecipient_","type":"address","internalType":"address"}],"outputs":[],"stateMutability":"nonpayable"},{"type":"function","name":"teamFeeRecipient","inputs":[],"outputs":[{"name":"","type":"address","internalType":"address"}],"stateMutability":"view"},{"type":"function","name":"tokenDeploymentInfo","inputs":[{"name":"token","type":"address","internalType":"address"}],"outputs":[{"name":"","type":"tuple","internalType":"struct IClanker.DeploymentInfo","components":[{"name":"token","type":"address","internalType":"address"},{"name":"hook","type":"address","internalType":"address"},{"name":"locker","type":"address","internalType":"address"},{"name":"extensions","type":"address[]","internalType":"address[]"}]}],"stateMutability":"view"},{"type":"function","name":"transferOwnership","inputs":[{"name":"newOwner","type":"address","internalType":"address"}],"outputs":[],"stateMutability":"nonpayable"},{"type":"event","name":"ClaimTeamFees","inputs":[{"name":"token","type":"address","indexed":true,"internalType":"address"},{"name":"recipient","type":"address","indexed":true,"internalType":"address"},{"name":"amount","type":"uint256","indexed":false,"internalType":"uint256"}],"anonymous":false},{"type":"event","name":"ExtensionTriggered","inputs":[{"name":"extension","type":"address","indexed":false,"internalType":"address"},{"name":"extensionSupply","type":"uint256","indexed":false,"internalType":"uint256"},{"name":"msgValue","type":"uint256","indexed":false,"internalType":"uint256"}],"anonymous":false},{"type":"event","name":"OwnershipTransferred","inputs":[{"name":"previousOwner","type":"address","indexed":true,"internalType":"address"},{"name":"newOwner","type":"address","indexed":true,"internalType":"address"}],"anonymous":false},{"type":"event","name":"SetAdmin","inputs":[{"name":"admin","type":"address","indexed":true,"internalType":"address"},{"name":"enabled","type":"bool","indexed":false,"internalType":"bool"}],"anonymous":false},{"type":"event","name":"SetDeprecated","inputs":[{"name":"deprecated","type":"bool","indexed":false,"internalType":"bool"}],"anonymous":false},{"type":"event","name":"SetExtension","inputs":[{"name":"extension","type":"address","indexed":false,"internalType":"address"},{"name":"enabled","type":"bool","indexed":false,"internalType":"bool"}],"anonymous":false},{"type":"event","name":"SetHook","inputs":[{"name":"hook","type":"address","indexed":false,"internalType":"address"},{"name":"enabled","type":"bool","indexed":false,"internalType":"bool"}],"anonymous":false},{"type":"event","name":"SetLocker","inputs":[{"name":"locker","type":"address","indexed":false,"internalType":"address"},{"name":"pool","type":"address","indexed":false,"internalType":"address"},{"name":"enabled","type":"bool","indexed":false,"internalType":"bool"}],"anonymous":false},{"type":"event","name":"SetMevModule","inputs":[{"name":"mevModule","type":"address","indexed":false,"internalType":"address"},{"name":"enabled","type":"bool","indexed":false,"internalType":"bool"}],"anonymous":false},{"type":"event","name":"SetTeamFeeRecipient","inputs":[{"name":"oldTeamFeeRecipient","type":"address","indexed":false,"internalType":"address"},{"name":"newTeamFeeRecipient","type":"address","indexed":false,"internalType":"address"}],"anonymous":false},{"type":"event","name":"TokenCreated","inputs":[{"name":"msgSender","type":"address","indexed":false,"internalType":"address"},{"name":"tokenAddress","type":"address","indexed":true,"internalType":"address"},{"name":"tokenAdmin","type":"address","indexed":true,"internalType":"address"},{"name":"tokenImage","type":"string","indexed":false,"internalType":"string"},{"name":"tokenName","type":"string","indexed":false,"internalType":"string"},{"name":"tokenSymbol","type":"string","indexed":false,"internalType":"string"},{"name":"tokenMetadata","type":"string","indexed":false,"internalType":"string"},{"name":"tokenContext","type":"string","indexed":false,"internalType":"string"},{"name":"startingTick","type":"int24","indexed":false,"internalType":"int24"},{"name":"poolHook","type":"address","indexed":false,"internalType":"address"},{"name":"poolId","type":"bytes32","indexed":false,"internalType":"PoolId"},{"name":"pairedToken","type":"address","indexed":false,"internalType":"address"},{"name":"locker","type":"address","indexed":false,"internalType":"address"},{"name":"mevModule","type":"address","indexed":false,"internalType":"address"},{"name":"extensionsSupply","type":"uint256","indexed":false,"internalType":"uint256"},{"name":"extensions","type":"address[]","indexed":false,"internalType":"address[]"}],"anonymous":false},{"type":"error","name":"Deprecated","inputs":[]},{"type":"error","name":"ExtensionMsgValueMismatch","inputs":[]},{"type":"error","name":"ExtensionNotEnabled","inputs":[]},{"type":"error","name":"HookNotEnabled","inputs":[]},{"type":"error","name":"InvalidExtension","inputs":[]},{"type":"error","name":"InvalidHook","inputs":[]},{"type":"error","name":"InvalidLocker","inputs":[]},{"type":"error","name":"InvalidMevModule","inputs":[]},{"type":"error","name":"LockerNotEnabled","inputs":[]},{"type":"error","name":"MaxExtensionBpsExceeded","inputs":[]},{"type":"error","name":"MaxExtensionsExceeded","inputs":[]},{"type":"error","name":"MevModuleNotEnabled","inputs":[]},{"type":"error","name":"NotFound","inputs":[]},{"type":"error","name":"OnlyNonOriginatingChains","inputs":[]},{"type":"error","name":"OnlyOriginatingChain","inputs":[]},{"type":"error","name":"OwnableInvalidOwner","inputs":[{"name":"owner","type":"address","internalType":"address"}]},{"type":"error","name":"OwnableUnauthorizedAccount","inputs":[{"name":"account","type":"address","internalType":"address"}]},{"type":"error","name":"ReentrancyGuardReentrantCall","inputs":[]},{"type":"error","name":"Unauthorized","inputs":[]}],"bytecode":{"object":"0x60803460ca57601f6131a838819003918201601f19168301916001600160401b0383118484101760ce5780849260209460405283398101031260ca57516001600160a01b0381169081900360ca57801560b7575f80546001600160a01b031981168317825560405192916001600160a01b03909116907f8be0079c531659141344cd1fd0a4f28419497f9722a3daafe3b4186f6b6457e09080a36001600255600160ff1960035416176003556130c590816100e38239f35b631e4fbdf760e01b5f525f60045260245ffd5b5f80fd5b634e487b7160e01b5f52604160045260245ffdfe6080806040526004361015610012575f80fd5b5f3560e01c908163031bc1ba146125815750806306562980146124f75780630e136b19146124d55780630f0f3a2f14612324578063228871c5146122ee57806322adcdb114612174578063249d39e9146121585780633c909e39146120e5578063429b62e51461209b5780634b0bddd214611fed578063715018a614611f71578063833e8db114611deb5780638da5cb5b14611db9578063926ff25514611d07578063a238f07f14611be9578063b152f6cf14611bc2578063c07780f614611ba7578063c4d66de814611acd578063cca91a7014611ab1578063d848dee714611a31578063dbb0b1c714611881578063df40224a14610405578063f2fde38b146103375763fc1b602214610124575f80fd5b346103335760606003193601126103335761013d612705565b610145612728565b604435918215159081840361033357335f52600160205260ff60405f2054161580610312575b6102ea5773ffffffffffffffffffffffffffffffffffffffff16906040517f01ffc9a70000000000000000000000000000000000000000000000000000000081527f0ab976c0000000000000000000000000000000000000000000000000000000006004820152602081602481865afa9081156102df575f916102b0575b50156102885773ffffffffffffffffffffffffffffffffffffffff6060936102747fa42b595aa29ec637074f31538fbf673587d74ba490265a33cf04ed41d27a9ddc96855f52600660205260405f208484165f5260205260405f209060ff7fffffffffffffffffffffffffffffffffffffffffffffffffffffffffffffff0083541691151516179055565b6040519384521660208301526040820152a1005b7fab54b813000000000000000000000000000000000000000000000000000000005f5260045ffd5b6102d2915060203d6020116102d8575b6102ca8183612819565b810190612b27565b5f6101e9565b503d6102c0565b6040513d5f823e3d90fd5b7f82b42900000000000000000000000000000000000000000000000000000000005f5260045ffd5b5073ffffffffffffffffffffffffffffffffffffffff5f541633141561016b565b5f80fd5b346103335760206003193601126103335773ffffffffffffffffffffffffffffffffffffffff610365612705565b61036d612d37565b1680156103d95773ffffffffffffffffffffffffffffffffffffffff5f54827fffffffffffffffffffffffff00000000000000000000000000000000000000008216175f55167f8be0079c531659141344cd1fd0a4f28419497f9722a3daafe3b4186f6b6457e05f80a3005b7f1e4fbdf7000000000000000000000000000000000000000000000000000000005f525f60045260245ffd5b60206003193601126103335760043567ffffffffffffffff81116103335760a060031982360301126103335760405161043d816127e0565b816004013567ffffffffffffffff81116103335761046190600436918501016128cc565b8152602482013567ffffffffffffffff81116103335782019060a060031983360301126103335760405191610495836127e0565b6104a16004820161274b565b83526104af6024820161274b565b60208401526104c0604482016129c3565b60408401526104d1606482016129c3565b606084015260848101359067ffffffffffffffff82116103335760046104fa923692010161285a565b608083015260208101918252604483013567ffffffffffffffff81116103335783019261010060031985360301126103335760405193610539856127fc565b6105456004820161274b565b8552602481013567ffffffffffffffff81116103335761056b90600436918401016129e9565b6020860152604481013567ffffffffffffffff81116103335761059490600436918401016129e9565b6040860152606481013567ffffffffffffffff8111610333576105bd9060043691840101612a5d565b6060860152608481013567ffffffffffffffff8111610333576105e69060043691840101612ac2565b608086015260a481013567ffffffffffffffff81116103335761060f9060043691840101612ac2565b60a086015260c481013567ffffffffffffffff8111610333576106389060043691840101612a5d565b60c086015260e48101359067ffffffffffffffff8211610333576004610661923692010161285a565b60e085015260408201938452606481013567ffffffffffffffff8111610333578101906040600319833603011261033357604051916040830183811067ffffffffffffffff82111761156f576040526106bc6004820161274b565b835260248101359067ffffffffffffffff82116103335760046106e2923692010161285a565b60208301526060830191825260848101359067ffffffffffffffff82116103335701903660238301121561033357600482013561071e816129d1565b9261072c6040519485612819565b818452602060048186019360051b83010101903682116103335760248101925b8284106117d057505050506080830191825260028054146117a8576002805560ff600354166117805760e0835101514603611758576107bc9360208451604051809781927f0a99d86e00000000000000000000000000000000000000000000000000000000835260048301612bb2565b038173__$0ce6e2afcf8c1fb4ba48b139ed5e0b25ee$__5af49485156102df575f9561171c575b506107ee8351612d90565b94856c01431e0fae6d7217caa000000003906c01431e0fae6d7217caa000000082116110425782519173ffffffffffffffffffffffffffffffffffffffff895151169173ffffffffffffffffffffffffffffffffffffffff865151165f6080604051610859816127e0565b828152826020820152826040820152826060820152015273ffffffffffffffffffffffffffffffffffffffff8551165f52600560205260ff60405f205416156116f45760a09173ffffffffffffffffffffffffffffffffffffffff5f818851169261093b8360208b0151169860408b015160020b96608060608d015160020b9c0151916040519c8d998a9889977f564d49e7000000000000000000000000000000000000000000000000000000008952169d8e6004890152602488015260448701526064860152608485015260a484015260e060c484015260e4830190612b6f565b03925af19283156102df575f93611646575b508851845173ffffffffffffffffffffffffffffffffffffffff8251165f52600660205260405f2073ffffffffffffffffffffffffffffffffffffffff80835116165f5260205260ff60405f2054161561161e5781516040517f095ea7b300000000000000000000000000000000000000000000000000000000815273ffffffffffffffffffffffffffffffffffffffff909116600482015260248101849052926020846044815f895af19384156102df575f602094610a6a92610a7c97611603575b5073ffffffffffffffffffffffffffffffffffffffff81511693604051978896879586947fea2892630000000000000000000000000000000000000000000000000000000086526101206004870152610124860190612fa0565b90600319858303016024860152613058565b8a5173ffffffffffffffffffffffffffffffffffffffff908116604485015260208c01518116606485015260408c015162ffffff16608485015260608c015160020b60a485015260808c01511660c48401529060e48301528861010483015203925af180156102df576115d4575b505f5b8551805182101561106f576040610b078361ffff93612cf6565b510151166c01431e0fae6d7217caa00000008102908082046c01431e0fae6d7217caa0000000149015171561104257612710900490610bbc60208373ffffffffffffffffffffffffffffffffffffffff610b62858c51612cf6565b51511660405193849283927f095ea7b3000000000000000000000000000000000000000000000000000000008452600484016020909392919373ffffffffffffffffffffffffffffffffffffffff60408201951681520152565b03815f885af180156102df57611026575b5073ffffffffffffffffffffffffffffffffffffffff610bee828951612cf6565b5151166020610bfe838a51612cf6565b51015190803b156103335789610db292610e3f610de48f6040519687957ff7fdb28000000000000000000000000000000000000000000000000000000000875261012060048801525160a061012488015273ffffffffffffffffffffffffffffffffffffffff8151166101c488015260e0610d77610d42610d0d610ccd610c988c6102c46020890151916101006101e48201520190612b6f565b60408701518d82037ffffffffffffffffffffffffffffffffffffffffffffffffffffffffffffffe3c016102048f0152612b6f565b60608601516102248d015260808601518c82037ffffffffffffffffffffffffffffffffffffffffffffffffffffffffffffffe3c016102448e0152612b6f565b60a08501517ffffffffffffffffffffffffffffffffffffffffffffffffffffffffffffffe3c8c8303016102648d0152612b6f565b60c08401517ffffffffffffffffffffffffffffffffffffffffffffffffffffffffffffffe3c8b8303016102848c0152612b6f565b9101516102a48801528d517ffffffffffffffffffffffffffffffffffffffffffffffffffffffffffffffedc88830301610144890152613058565b90517ffffffffffffffffffffffffffffffffffffffffffffffffffffffffffffffedc86830301610164870152612fa0565b604060208d517ffffffffffffffffffffffffffffffffffffffffffffffffffffffffffffffedc8785030161018488015273ffffffffffffffffffffffffffffffffffffffff81511684520151918160208201520190612b6f565b8b51907ffffffffffffffffffffffffffffffffffffffffffffffffffffffffffffffedc848203016101a4850152815180825260208201906020808260051b8501019401925f5b828110610f965750505050505f9391838092610eef602483018d73ffffffffffffffffffffffffffffffffffffffff6080809282815116855282602082015116602086015262ffffff6040820151166040860152606081015160020b6060860152015116910152565b8a60c48301528960e48301528861010483015203925af180156102df576001937fe80ed94c33183ba307727bf230f18d40178975f51b301a8415b90f4c9f549b7f92606092610f86575b5073ffffffffffffffffffffffffffffffffffffffff610f5a858c51612cf6565b515116906020610f6b868d51612cf6565b5101519060405192835260208301526040820152a101610aed565b5f610f9091612819565b8d610f39565b91939596509193602080611013837fffffffffffffffffffffffffffffffffffffffffffffffffffffffffffffffe08760019603018952608060608b5173ffffffffffffffffffffffffffffffffffffffff8151168452858101518685015261ffff60408201511660408501520151918160608201520190612b6f565b9701950191019188969594939192610e86565b61103d9060203d81116102d8576102ca8183612819565b610bcd565b7f4e487b71000000000000000000000000000000000000000000000000000000005f52601160045260245ffd5b505087879273ffffffffffffffffffffffffffffffffffffffff865151165f52600860205260ff60405f205416156115ac5773ffffffffffffffffffffffffffffffffffffffff8551511660208751015190803b15610333576111645f929183926040519485809481937f015e3c29000000000000000000000000000000000000000000000000000000008352611153600484018b73ffffffffffffffffffffffffffffffffffffffff6080809282815116855282602082015116602086015262ffffff6040820151166040860152606081015160020b6060860152015116910152565b60c060a484015260c4830190612b6f565b03925af180156102df5761159c575b508651519561119a611184886129d1565b97611192604051998a612819565b8089526129d1565b947fffffffffffffffffffffffffffffffffffffffffffffffffffffffffffffffe06020890196013687375f5b89518051821015611208579073ffffffffffffffffffffffffffffffffffffffff6111f482600194612cf6565b515116611201828c612cf6565b52016111c7565b50508790878b87600373ffffffffffffffffffffffffffffffffffffffff8951511673ffffffffffffffffffffffffffffffffffffffff8086515116918160405193611253856127c4565b868552602085019081526040850192835260608501968b88525f526004602052818060405f20965116167fffffffffffffffffffffffff00000000000000000000000000000000000000008654161785555116826001850191167fffffffffffffffffffffffff0000000000000000000000000000000000000000825416179055511673ffffffffffffffffffffffffffffffffffffffff6002830191167fffffffffffffffffffffffff00000000000000000000000000000000000000008254161790550190519081519167ffffffffffffffff831161156f5768010000000000000000831161156f578154838355808410611549575b50602001905f5260205f205f5b83811061151f57505050505193845173ffffffffffffffffffffffffffffffffffffffff169660a08601519560808101519760208201519460408301519260c00151905198895173ffffffffffffffffffffffffffffffffffffffff169260a090209360408b015160020b9a6020015173ffffffffffffffffffffffffffffffffffffffff1695515173ffffffffffffffffffffffffffffffffffffffff1696515173ffffffffffffffffffffffffffffffffffffffff16976040519c8d3390528d602081016101c090526101c00161143091612b6f565b8d810360408f015261144191612b6f565b8c810360608e015261145291612b6f565b8b810360808d015261146391612b6f565b8a810360a08c015261147491612b6f565b9760c08a015260e08901526101008801526101208701526101408601526101608501526101808401528282036101a0840152519081815260200194905f5b8181106114f3575050507f9299d1d1a88d8e1abdc591ae7a167a6bc63a8f17d695804e9091ee33aa89fb678184926020960390a36001600255604051908152f35b825173ffffffffffffffffffffffffffffffffffffffff168752602096870196909201916001016114b2565b600190602073ffffffffffffffffffffffffffffffffffffffff8551169401938184015501611358565b825f528360205f2091820191015b818110611564575061134b565b5f8155600101611557565b7f4e487b71000000000000000000000000000000000000000000000000000000005f52604160045260245ffd5b5f6115a691612819565b88611173565b7f4b292da4000000000000000000000000000000000000000000000000000000005f5260045ffd5b6115f59060203d6020116115fc575b6115ed8183612819565b810190612b3f565b5088610aea565b503d6115e3565b61161990873d89116102d8576102ca8183612819565b610a10565b7fa3f8a275000000000000000000000000000000000000000000000000000000005f5260045ffd5b90925060a0813d60a0116116ec575b8161166260a09383612819565b810103126103335760405190611677826127e0565b61168081612b4e565b825261168e60208201612b4e565b6020830152604081015162ffffff811681036103335760408301526060810151908160020b8203610333576080916060840152015173ffffffffffffffffffffffffffffffffffffffff81168103610333576080820152918961094d565b3d9150611655565b7f7e5ba1ad000000000000000000000000000000000000000000000000000000005f5260045ffd5b9094506020813d602011611750575b8161173860209383612819565b810103126103335761174990612b4e565b93866107e3565b3d915061172b565b7fc0112c87000000000000000000000000000000000000000000000000000000005f5260045ffd5b7fc73b9d7c000000000000000000000000000000000000000000000000000000005f5260045ffd5b7f3ee5aeb5000000000000000000000000000000000000000000000000000000005f5260045ffd5b833567ffffffffffffffff81116103335760049083010160807fffffffffffffffffffffffffffffffffffffffffffffffffffffffffffffffe082360301126103335760405191611820836127c4565b61182c6020830161274b565b83526040820135602084015261184460608301612a4e565b604084015260808201359267ffffffffffffffff841161033357611871602094938580953692010161285a565b606082015281520193019261074c565b346103335760406003193601126103335761189a612705565b6118a261276c565b335f52600160205260ff60405f2054161580611a10575b6102ea5773ffffffffffffffffffffffffffffffffffffffff8216916040517f01ffc9a70000000000000000000000000000000000000000000000000000000081527fe6b8a141000000000000000000000000000000000000000000000000000000006004820152602081602481875afa9081156102df575f916119f1575b50156119c9577fc4bf3ad397ab835bf8aefef70e7e1c35a0cfad7be9c060049050303ace20605c925f52600860205261199f8260405f209060ff7fffffffffffffffffffffffffffffffffffffffffffffffffffffffffffffff0083541691151516179055565b6040805173ffffffffffffffffffffffffffffffffffffffff9290921682529115156020820152a1005b7f1b06723d000000000000000000000000000000000000000000000000000000005f5260045ffd5b611a0a915060203d6020116102d8576102ca8183612819565b84611938565b5073ffffffffffffffffffffffffffffffffffffffff5f54163314156118b9565b34610333576020600319360112610333576004358015158091036103335760207f20db9067ad1976f7d6ee4ee07eea48c1139e0716fd856ec6edf203236c37db8291611a7b612d37565b7fffffffffffffffffffffffffffffffffffffffffffffffffffffffffffffff006003541660ff821617600355604051908152a1005b34610333575f6003193601126103335760206040516123288152f35b34610333576020600319360112610333577fb4a70636e7a4c9d224bbe13304010ccb0ac964b3cc46c612d9abaeacfa204bd96040611b09612705565b611b11612d37565b7fffffffffffffffffffffff00000000000000000000000000000000000000000074ffffffffffffffffffffffffffffffffffffffff006003549260081b16911617806003557f20db9067ad1976f7d6ee4ee07eea48c1139e0716fd856ec6edf203236c37db82602083515f8152a173ffffffffffffffffffffffffffffffffffffffff8251915f835260081c166020820152a1005b34610333575f600319360112610333576020604051600a8152f35b34610333575f6003193601126103335760206040516c01431e0fae6d7217caa00000008152f35b346103335760206003193601126103335760043567ffffffffffffffff811161033357611c1a9036906004016128cc565b60e08101514614611cdf576020611c5e91604051809381927f0a99d86e00000000000000000000000000000000000000000000000000000000835260048301612bb2565b038173__$0ce6e2afcf8c1fb4ba48b139ed5e0b25ee$__5af480156102df575f90611ca5575b60209073ffffffffffffffffffffffffffffffffffffffff60405191168152f35b506020813d602011611cd7575b81611cbf60209383612819565b8101031261033357611cd2602091612b4e565b611c84565b3d9150611cb2565b7f01468d7c000000000000000000000000000000000000000000000000000000005f5260045ffd5b34610333576020600319360112610333577fb4a70636e7a4c9d224bbe13304010ccb0ac964b3cc46c612d9abaeacfa204bd96040611d43612705565b611d4b612d37565b73ffffffffffffffffffffffffffffffffffffffff6003549174ffffffffffffffffffffffffffffffffffffffff008160081b167fffffffffffffffffffffff0000000000000000000000000000000000000000ff8416176003558184519360081c168352166020820152a1005b34610333575f60031936011261033357602073ffffffffffffffffffffffffffffffffffffffff5f5416604051908152f35b3461033357604060031936011261033357611e04612705565b611e0c61276c565b335f52600160205260ff60405f2054161580611f50575b6102ea5773ffffffffffffffffffffffffffffffffffffffff8216916040517f01ffc9a70000000000000000000000000000000000000000000000000000000081527f1ac7941f000000000000000000000000000000000000000000000000000000006004820152602081602481875afa9081156102df575f91611f31575b5015611f09577f3e7510e93c4fe81ab57ed70b4eaa9a407eeced9cdb0954a360b36947f38ccda0925f52600560205261199f8260405f209060ff7fffffffffffffffffffffffffffffffffffffffffffffffffffffffffffffff0083541691151516179055565b7f9c9d8823000000000000000000000000000000000000000000000000000000005f5260045ffd5b611f4a915060203d6020116102d8576102ca8183612819565b84611ea2565b5073ffffffffffffffffffffffffffffffffffffffff5f5416331415611e23565b34610333575f60031936011261033357611f89612d37565b5f73ffffffffffffffffffffffffffffffffffffffff81547fffffffffffffffffffffffff000000000000000000000000000000000000000081168355167f8be0079c531659141344cd1fd0a4f28419497f9722a3daafe3b4186f6b6457e08280a3005b3461033357604060031936011261033357612006612705565b7f55a5194bc0174fcaf12b2978bef43911466bf63b34db8d1dd1a0d5dcd5c41bea602073ffffffffffffffffffffffffffffffffffffffff61204661276c565b9361204f612d37565b1692835f52600182526120908160405f209060ff7fffffffffffffffffffffffffffffffffffffffffffffffffffffffffffffff0083541691151516179055565b6040519015158152a2005b346103335760206003193601126103335773ffffffffffffffffffffffffffffffffffffffff6120c9612705565b165f526001602052602060ff60405f2054166040519015158152f35b34610333576040600319360112610333576120fe612705565b73ffffffffffffffffffffffffffffffffffffffff61211b612728565b91165f52600660205273ffffffffffffffffffffffffffffffffffffffff60405f2091165f52602052602060ff60405f2054166040519015158152f35b34610333575f6003193601126103335760206040516127108152f35b346103335760206003193601126103335773ffffffffffffffffffffffffffffffffffffffff6121a2612705565b6060806040516121b1816127c4565b5f81525f60208201525f60408201520152165f52600460205260405f206040516121da816127c4565b73ffffffffffffffffffffffffffffffffffffffff825416815273ffffffffffffffffffffffffffffffffffffffff6001830154169160208201928352600373ffffffffffffffffffffffffffffffffffffffff600283015416916040840192835201926040519384602082549182815201915f5260205f20905f5b8181106122c25773ffffffffffffffffffffffffffffffffffffffff876122be8a838a818b612287858d0386612819565b60608701948552604051978897602089525116602088015251166040860152511660608401525160808084015260a083019061277b565b0390f35b825473ffffffffffffffffffffffffffffffffffffffff16845260209093019260019283019201612256565b34610333575f60031936011261033357602073ffffffffffffffffffffffffffffffffffffffff60035460081c16604051908152f35b346103335760206003193601126103335761233d612705565b335f52600160205260ff60405f20541615806124b4575b6102ea5773ffffffffffffffffffffffffffffffffffffffff16604051907f70a08231000000000000000000000000000000000000000000000000000000008252306004830152602082602481845afa9182156102df575f92612480575b506003546040517fa9059cbb00000000000000000000000000000000000000000000000000000000815260089190911c73ffffffffffffffffffffffffffffffffffffffff166004820152602481018390526020816044815f865af180156102df57612463575b507fe5b9f4d1f6cf7c3238f0c0b48597a9ccd3ff3d2309f3ccd30bd46aad5e06a638602073ffffffffffffffffffffffffffffffffffffffff60035460081c1693604051908152a3005b61247b9060203d6020116102d8576102ca8183612819565b612419565b9091506020813d6020116124ac575b8161249c60209383612819565b81010312610333575190826123b2565b3d915061248f565b5073ffffffffffffffffffffffffffffffffffffffff5f5416331415612354565b34610333575f60031936011261033357602060ff600354166040519015158152f35b346103335760206003193601126103335773ffffffffffffffffffffffffffffffffffffffff612525612705565b165f526004602052606060405f2073ffffffffffffffffffffffffffffffffffffffff8154169073ffffffffffffffffffffffffffffffffffffffff600281600184015416920154169060405192835260208301526040820152f35b346103335760406003193601126103335761259a612705565b6125a261276c565b90335f52600160205260ff60405f20541615806126e4575b6102ea5773ffffffffffffffffffffffffffffffffffffffff8116927f01ffc9a70000000000000000000000000000000000000000000000000000000081527ff7fdb280000000000000000000000000000000000000000000000000000000006004820152602081602481875afa9081156102df575f916126c5575b501561269d577fb393434b606480a39b9a3b6f498a7f5312283d75b93f92d1dffc0dae86425ea2925f52600760205261199f8260405f209060ff7fffffffffffffffffffffffffffffffffffffffffffffffffffffffffffffff0083541691151516179055565b7f05d3b44e000000000000000000000000000000000000000000000000000000005f5260045ffd5b6126de915060203d6020116102d8576102ca8183612819565b84612636565b5073ffffffffffffffffffffffffffffffffffffffff5f54163314156125ba565b6004359073ffffffffffffffffffffffffffffffffffffffff8216820361033357565b6024359073ffffffffffffffffffffffffffffffffffffffff8216820361033357565b359073ffffffffffffffffffffffffffffffffffffffff8216820361033357565b60243590811515820361033357565b90602080835192838152019201905f5b8181106127985750505090565b825173ffffffffffffffffffffffffffffffffffffffff1684526020938401939092019160010161278b565b6080810190811067ffffffffffffffff82111761156f57604052565b60a0810190811067ffffffffffffffff82111761156f57604052565b610100810190811067ffffffffffffffff82111761156f57604052565b90601f7fffffffffffffffffffffffffffffffffffffffffffffffffffffffffffffffe0910116810190811067ffffffffffffffff82111761156f57604052565b81601f820112156103335760208135910167ffffffffffffffff821161156f57604051926128b0601f84017fffffffffffffffffffffffffffffffffffffffffffffffffffffffffffffffe01660200185612819565b8284528282011161033357815f92602092838601378301015290565b9190916101008184031261033357604051906128e7826127fc565b81936128f28261274b565b8352602082013567ffffffffffffffff8111610333578161291491840161285a565b6020840152604082013567ffffffffffffffff8111610333578161293991840161285a565b604084015260608201356060840152608082013567ffffffffffffffff8111610333578161296891840161285a565b608084015260a082013567ffffffffffffffff8111610333578161298d91840161285a565b60a084015260c08201359167ffffffffffffffff8311610333576129b760e093928493830161285a565b60c08501520135910152565b35908160020b820361033357565b67ffffffffffffffff811161156f5760051b60200190565b9080601f83011215610333578135612a00816129d1565b92612a0e6040519485612819565b81845260208085019260051b82010192831161033357602001905b828210612a365750505090565b60208091612a438461274b565b815201910190612a29565b359061ffff8216820361033357565b9080601f83011215610333578135612a74816129d1565b92612a826040519485612819565b81845260208085019260051b82010192831161033357602001905b828210612aaa5750505090565b60208091612ab784612a4e565b815201910190612a9d565b9080601f83011215610333578135612ad9816129d1565b92612ae76040519485612819565b81845260208085019260051b82010192831161033357602001905b828210612b0f5750505090565b60208091612b1c846129c3565b815201910190612b02565b90816020910312610333575180151581036103335790565b90816020910312610333575190565b519073ffffffffffffffffffffffffffffffffffffffff8216820361033357565b907fffffffffffffffffffffffffffffffffffffffffffffffffffffffffffffffe0601f602080948051918291828752018686015e5f8582860101520116010190565b919060206c01431e0fae6d7217caa0000000916040855273ffffffffffffffffffffffffffffffffffffffff815116604086015260e0612ce8612cb3612c80612c42612c0e8787015161010060608d01526101408c0190612b6f565b60408701517fffffffffffffffffffffffffffffffffffffffffffffffffffffffffffffffc08c83030160808d0152612b6f565b606086015160a08b015260808601517fffffffffffffffffffffffffffffffffffffffffffffffffffffffffffffffc08b83030160c08c0152612b6f565b60a08501517fffffffffffffffffffffffffffffffffffffffffffffffffffffffffffffffc08a830301858b0152612b6f565b60c08401517fffffffffffffffffffffffffffffffffffffffffffffffffffffffffffffffc0898303016101008a0152612b6f565b910151610120860152930152565b8051821015612d0a5760209160051b010190565b7f4e487b71000000000000000000000000000000000000000000000000000000005f52603260045260245ffd5b73ffffffffffffffffffffffffffffffffffffffff5f54163303612d5757565b7f118cdaa7000000000000000000000000000000000000000000000000000000005f523360045260245ffd5b9190820180921161104257565b9081518015612f2d57600a10612f05575f91825b8151841015612dd457612dcc60019161ffff6040612dc28887612cf6565b5101511690612d83565b930192612da4565b92506123288311612edd575f92835b8251851015612e0f57612e076001916020612dfe8887612cf6565b51015190612d83565b940193612de3565b9093509190913403612eb5575f5b8251811015612e8c5773ffffffffffffffffffffffffffffffffffffffff612e458285612cf6565b5151165f52600760205260ff60405f20541615612e6457600101612e1d565b7f5c9e702e000000000000000000000000000000000000000000000000000000005f5260045ffd5b50916c01431e0fae6d7217caa00000008082029250811591830414171561104257612710900490565b7fbc9b8348000000000000000000000000000000000000000000000000000000005f5260045ffd5b7f4505155c000000000000000000000000000000000000000000000000000000005f5260045ffd5b7f33e26b3f000000000000000000000000000000000000000000000000000000005f5260045ffd5b505f9150565b90602080835192838152019201905f5b818110612f505750505090565b825161ffff16845260209384019390920191600101612f43565b90602080835192838152019201905f5b818110612f875750505090565b825160020b845260209384019390920191600101612f7a565b6130559173ffffffffffffffffffffffffffffffffffffffff825116815260e061304461303261302061300e612ffc612fea602089015161010060208a015261010089019061277b565b604089015188820360408a015261277b565b60608801518782036060890152612f33565b60808701518682036080880152612f6a565b60a086015185820360a0870152612f6a565b60c085015184820360c0860152612f33565b9201519060e0818403910152612b6f565b90565b9060a060806130559373ffffffffffffffffffffffffffffffffffffffff815116845273ffffffffffffffffffffffffffffffffffffffff6020820151166020850152604081015160020b6040850152606081015160020b60608501520151918160808201520190612b6f56","linkReferences":{"src/utils/ClankerDeployer.sol":{"ClankerDeployer":[{"start":2211,"length":20},{"start":7493,"length":20}]}}},"methodIdentifiers":{"BPS()":"249d39e9","MAX_EXTENSIONS()":"c07780f6","MAX_EXTENSION_BPS()":"cca91a70","TOKEN_SUPPLY()":"b152f6cf","admins(address)":"429b62e5","claimTeamFees(address)":"0f0f3a2f","deployToken(((address,string,string,bytes32,string,string,string,uint256),(address,address,int24,int24,bytes),(address,address[],address[],uint16[],int24[],int24[],uint16[],bytes),(address,bytes),(address,uint256,uint16,bytes)[]))":"df40224a","deployTokenZeroSupply((address,string,string,bytes32,string,string,string,uint256))":"a238f07f","deploymentInfoForToken(address)":"06562980","deprecated()":"0e136b19","enabledLockers(address,address)":"3c909e39","initialize(address)":"c4d66de8","owner()":"8da5cb5b","renounceOwnership()":"715018a6","setAdmin(address,bool)":"4b0bddd2","setDeprecated(bool)":"d848dee7","setExtension(address,bool)":"031bc1ba","setHook(address,bool)":"833e8db1","setLocker(address,address,bool)":"fc1b6022","setMevModule(address,bool)":"dbb0b1c7","setTeamFeeRecipient(address)":"926ff255","teamFeeRecipient()":"228871c5","tokenDeploymentInfo(address)":"22adcdb1","transferOwnership(address)":"f2fde38b"},"id":115}