{"abi":[{"type":"constructor","inputs":[{"name":"owner_","type":"address","internalType":"address"}],"stateMutability":"nonpayable"},{"type":"function","name":"BPS","inputs":[],"outputs":[{"name":"","type":"uint256","internalType":"uint256"}],"stateMutability":"view"},{"type":"function","name":"MAX_EXTENSIONS","inputs":[],"outputs":[{"name":"","type":"uint256","internalType":"uint256"}],"stateMutability":"view"},{"type":"function","name":"MAX_EXTENSION_BPS","inputs":[],"outputs":[{"name":"","type":"uint16","internalType":"uint16"}],"stateMutability":"view"},{"type":"function","name":"TOKEN_SUPPLY","inputs":[],"outputs":[{"name":"","type":"uint256","internalType":"uint256"}],"stateMutability":"view"},{"type":"function","name":"admins","inputs":[{"name":"","type":"address","internalType":"address"}],"outputs":[{"name":"","type":"bool","internalType":"bool"}],"stateMutability":"view"},{"type":"function","name":"claimTeamFees","inputs":[{"name":"token","type":"address","internalType":"address"}],"outputs":[],"stateMutability":"nonpayable"},{"type":"function","name":"deployToken","inputs":[{"name":"deploymentConfig","type":"tuple","internalType":"struct IClanker.DeploymentConfig","components":[{"name":"tokenConfig","type":"tuple","internalType":"struct IClanker.TokenConfig","components":[{"name":"tokenAdmin","type":"address","internalType":"address"},{"name":"name","type":"string","internalType":"string"},{"name":"symbol","type":"string","internalType":"string"},{"name":"salt","type":"bytes32","internalType":"bytes32"},{"name":"image","type":"string","internalType":"string"},{"name":"metadata","type":"string","internalType":"string"},{"name":"context","type":"string","internalType":"string"},{"name":"originatingChainId","type":"uint256","internalType":"uint256"}]},{"name":"poolConfig","type":"tuple","internalType":"struct IClanker.PoolConfig","components":[{"name":"hook","type":"address","internalType":"address"},{"name":"pairedToken","type":"address","internalType":"address"},{"name":"tickIfToken0IsClanker","type":"int24","internalType":"int24"},{"name":"tickSpacing","type":"int24","internalType":"int24"},{"name":"poolData","type":"bytes","internalType":"bytes"}]},{"name":"lockerConfig","type":"tuple","internalType":"struct IClanker.LockerConfig","components":[{"name":"rewardAdmins","type":"address[]","internalType":"address[]"},{"name":"rewardRecipients","type":"address[]","internalType":"address[]"},{"name":"rewardBps","type":"uint16[]","internalType":"uint16[]"},{"name":"tickLower","type":"int24[]","internalType":"int24[]"},{"name":"tickUpper","type":"int24[]","internalType":"int24[]"},{"name":"positionBps","type":"uint16[]","internalType":"uint16[]"}]},{"name":"mevModuleConfig","type":"tuple","internalType":"struct IClanker.MevModuleConfig","components":[{"name":"mevModule","type":"address","internalType":"address"},{"name":"mevModuleData","type":"bytes","internalType":"bytes"}]},{"name":"extensionConfigs","type":"tuple[]","internalType":"struct IClanker.ExtensionConfig[]","components":[{"name":"extension","type":"address","internalType":"address"},{"name":"msgValue","type":"uint256","internalType":"uint256"},{"name":"extensionBps","type":"uint16","internalType":"uint16"},{"name":"extensionData","type":"bytes","internalType":"bytes"}]}]}],"outputs":[{"name":"tokenAddress","type":"address","internalType":"address"}],"stateMutability":"payable"},{"type":"function","name":"deployTokenZeroSupply","inputs":[{"name":"tokenConfig","type":"tuple","internalType":"struct IClanker.TokenConfig","components":[{"name":"tokenAdmin","type":"address","internalType":"address"},{"name":"name","type":"string","internalType":"string"},{"name":"symbol","type":"string","internalType":"string"},{"name":"salt","type":"bytes32","internalType":"bytes32"},{"name":"image","type":"string","internalType":"string"},{"name":"metadata","type":"string","internalType":"string"},{"name":"context","type":"string","internalType":"string"},{"name":"originatingChainId","type":"uint256","internalType":"uint256"}]}],"outputs":[{"name":"tokenAddress","type":"address","internalType":"address"}],"stateMutability":"nonpayable"},{"type":"function","name":"deploymentInfoForToken","inputs":[{"name":"token","type":"address","internalType":"address"}],"outputs":[{"name":"token","type":"address","internalType":"address"},{"name":"hook","type":"address","internalType":"address"}],"stateMutability":"view"},{"type":"function","name":"deprecated","inputs":[],"outputs":[{"name":"","type":"bool","internalType":"bool"}],"stateMutability":"view"},{"type":"function","name":"initialize","inputs":[{"name":"locker_","type":"address","internalType":"address"},{"name":"teamFeeRecipient_","type":"address","internalType":"address"}],"outputs":[],"stateMutability":"nonpayable"},{"type":"function","name":"owner","inputs":[],"outputs":[{"name":"","type":"address","internalType":"address"}],"stateMutability":"view"},{"type":"function","name":"renounceOwnership","inputs":[],"outputs":[],"stateMutability":"nonpayable"},{"type":"function","name":"setAdmin","inputs":[{"name":"admin","type":"address","internalType":"address"},{"name":"enabled","type":"bool","internalType":"bool"}],"outputs":[],"stateMutability":"nonpayable"},{"type":"function","name":"setDeprecated","inputs":[{"name":"deprecated_","type":"bool","internalType":"bool"}],"outputs":[],"stateMutability":"nonpayable"},{"type":"function","name":"setExtension","inputs":[{"name":"extension","type":"address","internalType":"address"},{"name":"enabled","type":"bool","internalType":"bool"}],"outputs":[],"stateMutability":"nonpayable"},{"type":"function","name":"setHook","inputs":[{"name":"hook","type":"address","internalType":"address"},{"name":"enabled","type":"bool","internalType":"bool"}],"outputs":[],"stateMutability":"nonpayable"},{"type":"function","name":"setMevModule","inputs":[{"name":"mevModule","type":"address","internalType":"address"},{"name":"enabled","type":"bool","internalType":"bool"}],"outputs":[],"stateMutability":"nonpayable"},{"type":"function","name":"setTeamFeeRecipient","inputs":[{"name":"teamFeeRecipient_","type":"address","internalType":"address"}],"outputs":[],"stateMutability":"nonpayable"},{"type":"function","name":"teamFeeRecipient","inputs":[],"outputs":[{"name":"","type":"address","internalType":"address"}],"stateMutability":"view"},{"type":"function","name":"transferOwnership","inputs":[{"name":"newOwner","type":"address","internalType":"address"}],"outputs":[],"stateMutability":"nonpayable"},{"type":"event","name":"ClaimTeamFees","inputs":[{"name":"token","type":"address","indexed":true,"internalType":"address"},{"name":"recipient","type":"address","indexed":true,"internalType":"address"},{"name":"amount","type":"uint256","indexed":false,"internalType":"uint256"}],"anonymous":false},{"type":"event","name":"ExtensionTriggered","inputs":[{"name":"extension","type":"address","indexed":false,"internalType":"address"},{"name":"extensionSupply","type":"uint256","indexed":false,"internalType":"uint256"},{"name":"msgValue","type":"uint256","indexed":false,"internalType":"uint256"}],"anonymous":false},{"type":"event","name":"OwnershipTransferred","inputs":[{"name":"previousOwner","type":"address","indexed":true,"internalType":"address"},{"name":"newOwner","type":"address","indexed":true,"internalType":"address"}],"anonymous":false},{"type":"event","name":"SetAdmin","inputs":[{"name":"admin","type":"address","indexed":true,"internalType":"address"},{"name":"enabled","type":"bool","indexed":false,"internalType":"bool"}],"anonymous":false},{"type":"event","name":"SetDeprecated","inputs":[{"name":"deprecated","type":"bool","indexed":false,"internalType":"bool"}],"anonymous":false},{"type":"event","name":"SetExtension","inputs":[{"name":"extension","type":"address","indexed":false,"internalType":"address"},{"name":"enabled","type":"bool","indexed":false,"internalType":"bool"}],"anonymous":false},{"type":"event","name":"SetHook","inputs":[{"name":"hook","type":"address","indexed":false,"internalType":"address"},{"name":"enabled","type":"bool","indexed":false,"internalType":"bool"}],"anonymous":false},{"type":"event","name":"SetMevModule","inputs":[{"name":"mevModule","type":"address","indexed":false,"internalType":"address"},{"name":"enabled","type":"bool","indexed":false,"internalType":"bool"}],"anonymous":false},{"type":"event","name":"SetTeamFeeRecipient","inputs":[{"name":"oldTeamFeeRecipient","type":"address","indexed":false,"internalType":"address"},{"name":"newTeamFeeRecipient","type":"address","indexed":false,"internalType":"address"}],"anonymous":false},{"type":"event","name":"TokenCreated","inputs":[{"name":"msgSender","type":"address","indexed":false,"internalType":"address"},{"name":"tokenAddress","type":"address","indexed":true,"internalType":"address"},{"name":"tokenAdmin","type":"address","indexed":true,"internalType":"address"},{"name":"tokenImage","type":"string","indexed":false,"internalType":"string"},{"name":"tokenName","type":"string","indexed":false,"internalType":"string"},{"name":"tokenSymbol","type":"string","indexed":false,"internalType":"string"},{"name":"tokenMetadata","type":"string","indexed":false,"internalType":"string"},{"name":"tokenContext","type":"string","indexed":false,"internalType":"string"},{"name":"startingTick","type":"int24","indexed":false,"internalType":"int24"},{"name":"poolHook","type":"address","indexed":false,"internalType":"address"},{"name":"poolId","type":"bytes32","indexed":false,"internalType":"PoolId"},{"name":"pairedToken","type":"address","indexed":false,"internalType":"address"},{"name":"mevModule","type":"address","indexed":false,"internalType":"address"},{"name":"extensionsSupply","type":"uint256","indexed":false,"internalType":"uint256"},{"name":"extensions","type":"address[]","indexed":false,"internalType":"address[]"}],"anonymous":false},{"type":"error","name":"AlreadyInitialized","inputs":[]},{"type":"error","name":"Deprecated","inputs":[]},{"type":"error","name":"ExtensionMsgValueMismatch","inputs":[]},{"type":"error","name":"ExtensionNotEnabled","inputs":[]},{"type":"error","name":"HookNotEnabled","inputs":[]},{"type":"error","name":"InvalidExtension","inputs":[]},{"type":"error","name":"InvalidHook","inputs":[]},{"type":"error","name":"InvalidLocker","inputs":[]},{"type":"error","name":"InvalidMevModule","inputs":[]},{"type":"error","name":"MaxExtensionBpsExceeded","inputs":[]},{"type":"error","name":"MaxExtensionsExceeded","inputs":[]},{"type":"error","name":"MevModuleNotEnabled","inputs":[]},{"type":"error","name":"NotFound","inputs":[]},{"type":"error","name":"OnlyNonOriginatingChains","inputs":[]},{"type":"error","name":"OnlyOriginatingChain","inputs":[]},{"type":"error","name":"OwnableInvalidOwner","inputs":[{"name":"owner","type":"address","internalType":"address"}]},{"type":"error","name":"OwnableUnauthorizedAccount","inputs":[{"name":"account","type":"address","internalType":"address"}]},{"type":"error","name":"ReentrancyGuardReentrantCall","inputs":[]},{"type":"error","name":"Unauthorized","inputs":[]}],"bytecode":{"object":"0x60803460ca57601f612c7438819003918201601f19168301916001600160401b0383118484101760ce5780849260209460405283398101031260ca57516001600160a01b0381169081900360ca57801560b7575f80546001600160a01b031981168317825560405192916001600160a01b03909116907f8be0079c531659141344cd1fd0a4f28419497f9722a3daafe3b4186f6b6457e09080a36001600255600160ff196003541617600355612b9190816100e38239f35b631e4fbdf760e01b5f525f60045260245ffd5b5f80fd5b634e487b7160e01b5f52604160045260245ffdfe6080806040526004361015610012575f80fd5b5f3560e01c908163031bc1ba146120ce57508063065629801461203c5780630e136b191461201a5780630f0f3a2f14611e6d578063228871c514611e3a578063249d39e914611e1e578063429b62e514611dd4578063485cc95514611cd75780634b0bddd214611c29578063715018a614611bad578063833e8db114611a275780638da5cb5b146119f5578063926ff2551461193b578063a238f07f1461181d578063b152f6cf146117f6578063c07780f6146117db578063cca91a70146117bf578063d848dee71461173f578063dbb0b1c714611560578063f168599c146101d55763f2fde38b14610103575f80fd5b346101d15760206003193601126101d15773ffffffffffffffffffffffffffffffffffffffff610131612252565b61013961283a565b1680156101a55773ffffffffffffffffffffffffffffffffffffffff5f54827fffffffffffffffffffffffff00000000000000000000000000000000000000008216175f55167f8be0079c531659141344cd1fd0a4f28419497f9722a3daafe3b4186f6b6457e05f80a3005b7f1e4fbdf7000000000000000000000000000000000000000000000000000000005f525f60045260245ffd5b5f80fd5b60206003193601126101d15760043567ffffffffffffffff81116101d15760a060031982360301126101d15760405161020d816122a5565b816004013567ffffffffffffffff81116101d1576102319060043691850101612374565b8152602482013567ffffffffffffffff81116101d15782019060a060031983360301126101d15760405191610265836122a5565b61027160048201612275565b835261027f60248201612275565b60208401526102906044820161247d565b60408401526102a16064820161247d565b606084015260848101359067ffffffffffffffff82116101d15760046102ca9236920101612302565b608083015260208101918252604483013567ffffffffffffffff81116101d15783019260c060031985360301126101d1576040519360c0850185811067ffffffffffffffff82111761126057604052600481013567ffffffffffffffff81116101d15761033d90600436918401016124a3565b8552602481013567ffffffffffffffff81116101d15761036390600436918401016124a3565b6020860152604481013567ffffffffffffffff81116101d15761038c9060043691840101612517565b6040860152606481013567ffffffffffffffff81116101d1576103b5906004369184010161257c565b6060860152608481013567ffffffffffffffff81116101d1576103de906004369184010161257c565b608086015260a48101359067ffffffffffffffff82116101d15760046104079236920101612517565b60a085015260408201938452606481013567ffffffffffffffff81116101d157810190604060031983360301126101d157604051916040830183811067ffffffffffffffff8211176112605760405261046260048201612275565b835260248101359067ffffffffffffffff82116101d15760046104889236920101612302565b60208301526060830191825260848101359067ffffffffffffffff82116101d1570190366023830112156101d15760048201356104c48161248b565b926104d260405194856122c1565b818452602060048186019360051b83010101903682116101d15760248101925b82841061149e5750505050608083019182526002805414611476576002805560ff6003541661144e5760e0835101514603611426576105629360208451604051809781927f0a99d86e0000000000000000000000000000000000000000000000000000000083526004830161266c565b038173__$0ce6e2afcf8c1fb4ba48b139ed5e0b25ee$__5af4948515610cef575f956113ea575b506105948351612893565b94856c01431e0fae6d7217caa000000003906c01431e0fae6d7217caa00000008211610db65782519173ffffffffffffffffffffffffffffffffffffffff855151165f60806040516105e5816122a5565b828152826020820152826040820152826060820152015273ffffffffffffffffffffffffffffffffffffffff8451165f52600660205260ff60405f205416156113c25760a09073ffffffffffffffffffffffffffffffffffffffff85511673ffffffffffffffffffffffffffffffffffffffff5f81602089015116966106d560408a015160020b95608060608c015160020b9b0151906040519b8c98899788967f94191b63000000000000000000000000000000000000000000000000000000008852169c8d6004880152602487015260448601526064850152608484015260c060a484015260c4830190612629565b03925af1928315610cef575f9361130f575b50885184516003546040517f095ea7b300000000000000000000000000000000000000000000000000000000815260089190911c73ffffffffffffffffffffffffffffffffffffffff166004820152602481018490529260208480604481015b03815f895af1938415610cef575f6020946107c3926107d5976112f4575b5073ffffffffffffffffffffffffffffffffffffffff60035460081c1693604051978896879586947f22135faa0000000000000000000000000000000000000000000000000000000086526101206004870152610124860190612aa3565b90600319858303016024860152612b24565b8a5173ffffffffffffffffffffffffffffffffffffffff908116604485015260208c01518116606485015260408c015162ffffff16608485015260608c015160020b60a485015260808c01511660c48401529060e48301528861010483015203925af18015610cef576112c5575b505f5b85518051821015610de35760406108608361ffff936127b0565b510151166c01431e0fae6d7217caa00000008102908082046c01431e0fae6d7217caa00000001490151715610db65761271090049061091560208373ffffffffffffffffffffffffffffffffffffffff6108bb858c516127b0565b51511660405193849283927f095ea7b3000000000000000000000000000000000000000000000000000000008452600484016020909392919373ffffffffffffffffffffffffffffffffffffffff60408201951681520152565b03815f885af18015610cef57610d8a575b5073ffffffffffffffffffffffffffffffffffffffff6109478289516127b0565b5151166020610957838a516127b0565b51015190803b156101d15789610b0b92610b98610b3d8f6040519687957f16f6d76b00000000000000000000000000000000000000000000000000000000875261012060048801525160a061012488015273ffffffffffffffffffffffffffffffffffffffff8151166101c488015260e0610ad0610a9b610a66610a266109f18c6102c46020890151916101006101e48201520190612629565b60408701518d82037ffffffffffffffffffffffffffffffffffffffffffffffffffffffffffffffe3c016102048f0152612629565b60608601516102248d015260808601518c82037ffffffffffffffffffffffffffffffffffffffffffffffffffffffffffffffe3c016102448e0152612629565b60a08501517ffffffffffffffffffffffffffffffffffffffffffffffffffffffffffffffe3c8c8303016102648d0152612629565b60c08401517ffffffffffffffffffffffffffffffffffffffffffffffffffffffffffffffe3c8b8303016102848c0152612629565b9101516102a48801528d517ffffffffffffffffffffffffffffffffffffffffffffffffffffffffffffffedc88830301610144890152612b24565b90517ffffffffffffffffffffffffffffffffffffffffffffffffffffffffffffffedc86830301610164870152612aa3565b604060208d517ffffffffffffffffffffffffffffffffffffffffffffffffffffffffffffffedc8785030161018488015273ffffffffffffffffffffffffffffffffffffffff81511684520151918160208201520190612629565b8b51907ffffffffffffffffffffffffffffffffffffffffffffffffffffffffffffffedc848203016101a4850152815180825260208201906020808260051b8501019401925f5b828110610cfa5750505050505f9391838092610c48602483018d73ffffffffffffffffffffffffffffffffffffffff6080809282815116855282602082015116602086015262ffffff6040820151166040860152606081015160020b6060860152015116910152565b8a60c48301528960e48301528861010483015203925af18015610cef576001937fe80ed94c33183ba307727bf230f18d40178975f51b301a8415b90f4c9f549b7f92606092610cdf575b5073ffffffffffffffffffffffffffffffffffffffff610cb3858c516127b0565b515116906020610cc4868d516127b0565b5101519060405192835260208301526040820152a101610846565b5f610ce9916122c1565b8d610c92565b6040513d5f823e3d90fd5b91939596509193602080610d77837fffffffffffffffffffffffffffffffffffffffffffffffffffffffffffffffe08760019603018952608060608b5173ffffffffffffffffffffffffffffffffffffffff8151168452858101518685015261ffff60408201511660408501520151918160608201520190612629565b9701950191019188969594939192610bdf565b610daa9060203d8111610daf575b610da281836122c1565b8101906125e1565b610926565b503d610d98565b7f4e487b71000000000000000000000000000000000000000000000000000000005f52601160045260245ffd5b8587868a868d8973ffffffffffffffffffffffffffffffffffffffff875151165f52600860205260ff60405f2054161561129d5773ffffffffffffffffffffffffffffffffffffffff8551511660208851015190803b156101d157610eda5f929183926040519485809481937f015e3c29000000000000000000000000000000000000000000000000000000008352610ec9600484018b73ffffffffffffffffffffffffffffffffffffffff6080809282815116855282602082015116602086015262ffffff6040820151166040860152606081015160020b6060860152015116910152565b60c060a484015260c4830190612629565b03925af18015610cef5761128d575b50855151967fffffffffffffffffffffffffffffffffffffffffffffffffffffffffffffffe0610f31610f1b8a61248b565b99610f296040519b8c6122c1565b808b5261248b565b013660208a01375f5b87518051821015610f7b579073ffffffffffffffffffffffffffffffffffffffff610f67826001946127b0565b515116610f74828c6127b0565b5201610f3a565b5050878673ffffffffffffffffffffffffffffffffffffffff8151511696604051606081019080821067ffffffffffffffff8311176112605760029160405288815260208101998a5273ffffffffffffffffffffffffffffffffffffffff604082019a868c528a5f526005602052818060405f20945116167fffffffffffffffffffffffff0000000000000000000000000000000000000000845416178355511673ffffffffffffffffffffffffffffffffffffffff6001830191167fffffffffffffffffffffffff000000000000000000000000000000000000000082541617905501975180519067ffffffffffffffff821161126057680100000000000000008211611260578954828b5580831061123a575b50602001985f5260205f20985f5b828110611210575050508697509594955195865173ffffffffffffffffffffffffffffffffffffffff169660a08101519460808201519560208301519760408401519360c00151955195865173ffffffffffffffffffffffffffffffffffffffff169160a0902092604088015160020b976020015173ffffffffffffffffffffffffffffffffffffffff1694515173ffffffffffffffffffffffffffffffffffffffff16956040519b8c9b338d5260208d016101a090526101a08d0161116391612629565b8c810360408e015261117491612629565b8b810360608d015261118591612629565b8a810360808c015261119691612629565b89810360a08b01526111a791612629565b9560c089015260e08801526101008701526101208601526101408501526101608401528281036101808401526111dc916127f1565b037f3f419cf2e5a8a49a7fea99c3723fc2d0de2a8041f0ea12540cf3562f5ac69c3691a36001600255604051908152602090f35b600190602073ffffffffffffffffffffffffffffffffffffffff845116930192818d01550161109e565b8a5f528260205f2091820191015b8181106112555750611090565b5f8155600101611248565b7f4e487b71000000000000000000000000000000000000000000000000000000005f52604160045260245ffd5b5f611297916122c1565b87610ee9565b7f4b292da4000000000000000000000000000000000000000000000000000000005f5260045ffd5b6112e69060203d6020116112ed575b6112de81836122c1565b8101906125f9565b5088610843565b503d6112d4565b61130a90873d8911610daf57610da281836122c1565b610765565b90925060a0813d60a0116113ba575b8161132b60a093836122c1565b810103126101d15760405190611340826122a5565b61134981612608565b825261135760208201612608565b6020830152604081015162ffffff811681036101d15760408301526060810151908160020b82036101d157608091606084015201519073ffffffffffffffffffffffffffffffffffffffff821682036101d15761074791608082015292906106e7565b3d915061131e565b7f7e5ba1ad000000000000000000000000000000000000000000000000000000005f5260045ffd5b9094506020813d60201161141e575b81611406602093836122c1565b810103126101d15761141790612608565b9386610589565b3d91506113f9565b7fc0112c87000000000000000000000000000000000000000000000000000000005f5260045ffd5b7fc73b9d7c000000000000000000000000000000000000000000000000000000005f5260045ffd5b7f3ee5aeb5000000000000000000000000000000000000000000000000000000005f5260045ffd5b833567ffffffffffffffff81116101d15760049083010160807fffffffffffffffffffffffffffffffffffffffffffffffffffffffffffffffe082360301126101d157604051916080830183811067ffffffffffffffff8211176112605760405261150b60208301612275565b83526040820135602084015261152360608301612508565b604084015260808201359267ffffffffffffffff84116101d1576115506020949385809536920101612302565b60608201528152019301926104f2565b346101d15760406003193601126101d157611579612252565b611581612296565b335f52600160205260ff60405f205416158061171e575b6116f65773ffffffffffffffffffffffffffffffffffffffff8216916040517f01ffc9a70000000000000000000000000000000000000000000000000000000081527fe6b8a141000000000000000000000000000000000000000000000000000000006004820152602081602481875afa908115610cef575f916116d7575b50156116af577fc4bf3ad397ab835bf8aefef70e7e1c35a0cfad7be9c060049050303ace20605c925f52600860205261167e8260405f209060ff7fffffffffffffffffffffffffffffffffffffffffffffffffffffffffffffff0083541691151516179055565b6040805173ffffffffffffffffffffffffffffffffffffffff9092168252911515602082015290819081015b0390a1005b7f1b06723d000000000000000000000000000000000000000000000000000000005f5260045ffd5b6116f0915060203d602011610daf57610da281836122c1565b84611617565b7f82b42900000000000000000000000000000000000000000000000000000000005f5260045ffd5b5073ffffffffffffffffffffffffffffffffffffffff5f5416331415611598565b346101d15760206003193601126101d1576004358015158091036101d15760207f20db9067ad1976f7d6ee4ee07eea48c1139e0716fd856ec6edf203236c37db829161178961283a565b7fffffffffffffffffffffffffffffffffffffffffffffffffffffffffffffff006003541660ff821617600355604051908152a1005b346101d1575f6003193601126101d15760206040516123288152f35b346101d1575f6003193601126101d1576020604051600a8152f35b346101d1575f6003193601126101d15760206040516c01431e0fae6d7217caa00000008152f35b346101d15760206003193601126101d15760043567ffffffffffffffff81116101d15761184e903690600401612374565b60e0810151461461191357602061189291604051809381927f0a99d86e0000000000000000000000000000000000000000000000000000000083526004830161266c565b038173__$0ce6e2afcf8c1fb4ba48b139ed5e0b25ee$__5af48015610cef575f906118d9575b60209073ffffffffffffffffffffffffffffffffffffffff60405191168152f35b506020813d60201161190b575b816118f3602093836122c1565b810103126101d157611906602091612608565b6118b8565b3d91506118e6565b7f01468d7c000000000000000000000000000000000000000000000000000000005f5260045ffd5b346101d15760206003193601126101d1577fb4a70636e7a4c9d224bbe13304010ccb0ac964b3cc46c612d9abaeacfa204bd973ffffffffffffffffffffffffffffffffffffffff61198a612252565b61199261283a565b6116aa600454918381167fffffffffffffffffffffffff0000000000000000000000000000000000000000841617600455604051938493168390929173ffffffffffffffffffffffffffffffffffffffff60209181604085019616845216910152565b346101d1575f6003193601126101d157602073ffffffffffffffffffffffffffffffffffffffff5f5416604051908152f35b346101d15760406003193601126101d157611a40612252565b611a48612296565b335f52600160205260ff60405f2054161580611b8c575b6116f65773ffffffffffffffffffffffffffffffffffffffff8216916040517f01ffc9a70000000000000000000000000000000000000000000000000000000081527fd893c69b000000000000000000000000000000000000000000000000000000006004820152602081602481875afa908115610cef575f91611b6d575b5015611b45577f3e7510e93c4fe81ab57ed70b4eaa9a407eeced9cdb0954a360b36947f38ccda0925f52600660205261167e8260405f209060ff7fffffffffffffffffffffffffffffffffffffffffffffffffffffffffffffff0083541691151516179055565b7f9c9d8823000000000000000000000000000000000000000000000000000000005f5260045ffd5b611b86915060203d602011610daf57610da281836122c1565b84611ade565b5073ffffffffffffffffffffffffffffffffffffffff5f5416331415611a5f565b346101d1575f6003193601126101d157611bc561283a565b5f73ffffffffffffffffffffffffffffffffffffffff81547fffffffffffffffffffffffff000000000000000000000000000000000000000081168355167f8be0079c531659141344cd1fd0a4f28419497f9722a3daafe3b4186f6b6457e08280a3005b346101d15760406003193601126101d157611c42612252565b7f55a5194bc0174fcaf12b2978bef43911466bf63b34db8d1dd1a0d5dcd5c41bea602073ffffffffffffffffffffffffffffffffffffffff611c82612296565b93611c8b61283a565b1692835f5260018252611ccc8160405f209060ff7fffffffffffffffffffffffffffffffffffffffffffffffffffffffffffffff0083541691151516179055565b6040519015158152a2005b346101d15760406003193601126101d157611cf0612252565b6024359073ffffffffffffffffffffffffffffffffffffffff82168092036101d157611d1a61283a565b6003549173ffffffffffffffffffffffffffffffffffffffff8360081c16611dac577fffffffffffffffffffffff0000000000000000000000000000000000000000009174ffffffffffffffffffffffffffffffffffffffff00917fffffffffffffffffffffffff0000000000000000000000000000000000000000600454161760045560081b169116176003555f80f35b7f0dc149f0000000000000000000000000000000000000000000000000000000005f5260045ffd5b346101d15760206003193601126101d15773ffffffffffffffffffffffffffffffffffffffff611e02612252565b165f526001602052602060ff60405f2054166040519015158152f35b346101d1575f6003193601126101d15760206040516127108152f35b346101d1575f6003193601126101d157602073ffffffffffffffffffffffffffffffffffffffff60045416604051908152f35b346101d15760206003193601126101d157611e86612252565b335f52600160205260ff60405f2054161580611ff9575b6116f65773ffffffffffffffffffffffffffffffffffffffff16604051907f70a08231000000000000000000000000000000000000000000000000000000008252306004830152602082602481845afa918215610cef575f92611fc5575b50600480546040517fa9059cbb00000000000000000000000000000000000000000000000000000000815273ffffffffffffffffffffffffffffffffffffffff90911691810191909152602481018390526020816044815f865af18015610cef57611fa8575b507fe5b9f4d1f6cf7c3238f0c0b48597a9ccd3ff3d2309f3ccd30bd46aad5e06a638602073ffffffffffffffffffffffffffffffffffffffff6004541693604051908152a3005b611fc09060203d602011610daf57610da281836122c1565b611f61565b9091506020813d602011611ff1575b81611fe1602093836122c1565b810103126101d157519082611efb565b3d9150611fd4565b5073ffffffffffffffffffffffffffffffffffffffff5f5416331415611e9d565b346101d1575f6003193601126101d157602060ff600354166040519015158152f35b346101d15760206003193601126101d15773ffffffffffffffffffffffffffffffffffffffff61206a612252565b165f52600560205260405f2073ffffffffffffffffffffffffffffffffffffffff60018183541692015416906120ca6040519283928390929173ffffffffffffffffffffffffffffffffffffffff60209181604085019616845216910152565b0390f35b346101d15760406003193601126101d1576120e7612252565b6120ef612296565b90335f52600160205260ff60405f2054161580612231575b6116f65773ffffffffffffffffffffffffffffffffffffffff8116927f01ffc9a70000000000000000000000000000000000000000000000000000000081527f16f6d76b000000000000000000000000000000000000000000000000000000006004820152602081602481875afa908115610cef575f91612212575b50156121ea577fb393434b606480a39b9a3b6f498a7f5312283d75b93f92d1dffc0dae86425ea2925f52600760205261167e8260405f209060ff7fffffffffffffffffffffffffffffffffffffffffffffffffffffffffffffff0083541691151516179055565b7f05d3b44e000000000000000000000000000000000000000000000000000000005f5260045ffd5b61222b915060203d602011610daf57610da281836122c1565b84612183565b5073ffffffffffffffffffffffffffffffffffffffff5f5416331415612107565b6004359073ffffffffffffffffffffffffffffffffffffffff821682036101d157565b359073ffffffffffffffffffffffffffffffffffffffff821682036101d157565b6024359081151582036101d157565b60a0810190811067ffffffffffffffff82111761126057604052565b90601f7fffffffffffffffffffffffffffffffffffffffffffffffffffffffffffffffe0910116810190811067ffffffffffffffff82111761126057604052565b81601f820112156101d15760208135910167ffffffffffffffff82116112605760405192612358601f84017fffffffffffffffffffffffffffffffffffffffffffffffffffffffffffffffe016602001856122c1565b828452828201116101d157815f92602092838601378301015290565b919091610100818403126101d15760405190610100820182811067ffffffffffffffff8211176112605760405281936123ac82612275565b8352602082013567ffffffffffffffff81116101d157816123ce918401612302565b6020840152604082013567ffffffffffffffff81116101d157816123f3918401612302565b604084015260608201356060840152608082013567ffffffffffffffff81116101d15781612422918401612302565b608084015260a082013567ffffffffffffffff81116101d15781612447918401612302565b60a084015260c08201359167ffffffffffffffff83116101d15761247160e0939284938301612302565b60c08501520135910152565b35908160020b82036101d157565b67ffffffffffffffff81116112605760051b60200190565b9080601f830112156101d15781356124ba8161248b565b926124c860405194856122c1565b81845260208085019260051b8201019283116101d157602001905b8282106124f05750505090565b602080916124fd84612275565b8152019101906124e3565b359061ffff821682036101d157565b9080601f830112156101d157813561252e8161248b565b9261253c60405194856122c1565b81845260208085019260051b8201019283116101d157602001905b8282106125645750505090565b6020809161257184612508565b815201910190612557565b9080601f830112156101d15781356125938161248b565b926125a160405194856122c1565b81845260208085019260051b8201019283116101d157602001905b8282106125c95750505090565b602080916125d68461247d565b8152019101906125bc565b908160209103126101d1575180151581036101d15790565b908160209103126101d1575190565b519073ffffffffffffffffffffffffffffffffffffffff821682036101d157565b907fffffffffffffffffffffffffffffffffffffffffffffffffffffffffffffffe0601f602080948051918291828752018686015e5f8582860101520116010190565b919060206c01431e0fae6d7217caa0000000916040855273ffffffffffffffffffffffffffffffffffffffff815116604086015260e06127a261276d61273a6126fc6126c88787015161010060608d01526101408c0190612629565b60408701517fffffffffffffffffffffffffffffffffffffffffffffffffffffffffffffffc08c83030160808d0152612629565b606086015160a08b015260808601517fffffffffffffffffffffffffffffffffffffffffffffffffffffffffffffffc08b83030160c08c0152612629565b60a08501517fffffffffffffffffffffffffffffffffffffffffffffffffffffffffffffffc08a830301858b0152612629565b60c08401517fffffffffffffffffffffffffffffffffffffffffffffffffffffffffffffffc0898303016101008a0152612629565b910151610120860152930152565b80518210156127c45760209160051b010190565b7f4e487b71000000000000000000000000000000000000000000000000000000005f52603260045260245ffd5b90602080835192838152019201905f5b81811061280e5750505090565b825173ffffffffffffffffffffffffffffffffffffffff16845260209384019390920191600101612801565b73ffffffffffffffffffffffffffffffffffffffff5f5416330361285a57565b7f118cdaa7000000000000000000000000000000000000000000000000000000005f523360045260245ffd5b91908201809211610db657565b9081518015612a3057600a10612a08575f91825b81518410156128d7576128cf60019161ffff60406128c588876127b0565b5101511690612886565b9301926128a7565b925061232883116129e0575f92835b82518510156129125761290a600191602061290188876127b0565b51015190612886565b9401936128e6565b90935091909134036129b8575f5b825181101561298f5773ffffffffffffffffffffffffffffffffffffffff61294882856127b0565b5151165f52600760205260ff60405f2054161561296757600101612920565b7f5c9e702e000000000000000000000000000000000000000000000000000000005f5260045ffd5b50916c01431e0fae6d7217caa000000080820292508115918304141715610db657612710900490565b7fbc9b8348000000000000000000000000000000000000000000000000000000005f5260045ffd5b7f4505155c000000000000000000000000000000000000000000000000000000005f5260045ffd5b7f33e26b3f000000000000000000000000000000000000000000000000000000005f5260045ffd5b505f9150565b90602080835192838152019201905f5b818110612a535750505090565b825161ffff16845260209384019390920191600101612a46565b90602080835192838152019201905f5b818110612a8a5750505090565b825160020b845260209384019390920191600101612a7d565b612b219160a0612b10612afe612aec612ada612ac8875160c0885260c08801906127f1565b602088015187820360208901526127f1565b60408701518682036040880152612a36565b60608601518582036060870152612a6d565b60808501518482036080860152612a6d565b9201519060a0818403910152612a36565b90565b9060a06080612b219373ffffffffffffffffffffffffffffffffffffffff815116845273ffffffffffffffffffffffffffffffffffffffff6020820151166020850152604081015160020b6040850152606081015160020b6060850152015191816080820152019061262956","linkReferences":{"src/utils/ClankerDeployer.sol":{"ClankerDeployer":[{"start":1609,"length":20},{"start":6521,"length":20}]}}},"methodIdentifiers":{"BPS()":"249d39e9","MAX_EXTENSIONS()":"c07780f6","MAX_EXTENSION_BPS()":"cca91a70","TOKEN_SUPPLY()":"b152f6cf","admins(address)":"429b62e5","claimTeamFees(address)":"0f0f3a2f","deployToken(((address,string,string,bytes32,string,string,string,uint256),(address,address,int24,int24,bytes),(address[],address[],uint16[],int24[],int24[],uint16[]),(address,bytes),(address,uint256,uint16,bytes)[]))":"f168599c","deployTokenZeroSupply((address,string,string,bytes32,string,string,string,uint256))":"a238f07f","deploymentInfoForToken(address)":"06562980","deprecated()":"0e136b19","initialize(address,address)":"485cc955","owner()":"8da5cb5b","renounceOwnership()":"715018a6","setAdmin(address,bool)":"4b0bddd2","setDeprecated(bool)":"d848dee7","setExtension(address,bool)":"031bc1ba","setHook(address,bool)":"833e8db1","setMevModule(address,bool)":"dbb0b1c7","setTeamFeeRecipient(address)":"926ff255","teamFeeRecipient()":"228871c5","transferOwnership(address)":"f2fde38b"},"id":112}