{"abi":[{"type":"constructor","inputs":[{"name":"owner_","type":"address","internalType":"address"}],"stateMutability":"nonpayable"},{"type":"function","name":"addDepositor","inputs":[{"name":"depositor","type":"address","internalType":"address"}],"outputs":[],"stateMutability":"nonpayable"},{"type":"function","name":"allowedDepositors","inputs":[{"name":"depositor","type":"address","internalType":"address"}],"outputs":[{"name":"isAllowed","type":"bool","internalType":"bool"}],"stateMutability":"view"},{"type":"function","name":"availableFees","inputs":[{"name":"feeOwner","type":"address","internalType":"address"},{"name":"token","type":"address","internalType":"address"}],"outputs":[{"name":"","type":"uint256","internalType":"uint256"}],"stateMutability":"view"},{"type":"function","name":"claim","inputs":[{"name":"feeOwner","type":"address","internalType":"address"},{"name":"token","type":"address","internalType":"address"}],"outputs":[],"stateMutability":"nonpayable"},{"type":"function","name":"feesToClaim","inputs":[{"name":"feeOwner","type":"address","internalType":"address"},{"name":"token","type":"address","internalType":"address"}],"outputs":[{"name":"balance","type":"uint256","internalType":"uint256"}],"stateMutability":"view"},{"type":"function","name":"owner","inputs":[],"outputs":[{"name":"","type":"address","internalType":"address"}],"stateMutability":"view"},{"type":"function","name":"renounceOwnership","inputs":[],"outputs":[],"stateMutability":"nonpayable"},{"type":"function","name":"storeFees","inputs":[{"name":"feeOwner","type":"address","internalType":"address"},{"name":"token","type":"address","internalType":"address"},{"name":"amount","type":"uint256","internalType":"uint256"}],"outputs":[],"stateMutability":"nonpayable"},{"type":"function","name":"supportsInterface","inputs":[{"name":"interfaceId","type":"bytes4","internalType":"bytes4"}],"outputs":[{"name":"","type":"bool","internalType":"bool"}],"stateMutability":"pure"},{"type":"function","name":"transferOwnership","inputs":[{"name":"newOwner","type":"address","internalType":"address"}],"outputs":[],"stateMutability":"nonpayable"},{"type":"event","name":"AddDepositor","inputs":[{"name":"depositor","type":"address","indexed":true,"internalType":"address"}],"anonymous":false},{"type":"event","name":"ClaimTokens","inputs":[{"name":"feeOwner","type":"address","indexed":true,"internalType":"address"},{"name":"token","type":"address","indexed":true,"internalType":"address"},{"name":"amountClaimed","type":"uint256","indexed":false,"internalType":"uint256"}],"anonymous":false},{"type":"event","name":"ClaimTokensPermissioned","inputs":[{"name":"feeOwner","type":"address","indexed":true,"internalType":"address"},{"name":"token","type":"address","indexed":true,"internalType":"address"},{"name":"recipient","type":"address","indexed":false,"internalType":"address"},{"name":"amountClaimed","type":"uint256","indexed":false,"internalType":"uint256"}],"anonymous":false},{"type":"event","name":"OwnershipTransferred","inputs":[{"name":"previousOwner","type":"address","indexed":true,"internalType":"address"},{"name":"newOwner","type":"address","indexed":true,"internalType":"address"}],"anonymous":false},{"type":"event","name":"StoreTokens","inputs":[{"name":"feeOwner","type":"address","indexed":true,"internalType":"address"},{"name":"token","type":"address","indexed":true,"internalType":"address"},{"name":"balance","type":"uint256","indexed":false,"internalType":"uint256"},{"name":"amount","type":"uint256","indexed":false,"internalType":"uint256"}],"anonymous":false},{"type":"error","name":"ClaimAmountTooHigh","inputs":[]},{"type":"error","name":"InvalidRecipient","inputs":[]},{"type":"error","name":"NoFeesToClaim","inputs":[]},{"type":"error","name":"OwnableInvalidOwner","inputs":[{"name":"owner","type":"address","internalType":"address"}]},{"type":"error","name":"OwnableUnauthorizedAccount","inputs":[{"name":"account","type":"address","internalType":"address"}]},{"type":"error","name":"ReentrancyGuardReentrantCall","inputs":[]},{"type":"error","name":"TransferFailed","inputs":[]},{"type":"error","name":"Unauthorized","inputs":[]}],"bytecode":{"object":"0x60803460bb57601f610a4e38819003918201601f19168301916001600160401b0383118484101760bf5780849260209460405283398101031260bb57516001600160a01b0381169081900360bb5760015f55801560a857600180546001600160a01b03198116831790915560405191906001600160a01b03167f8be0079c531659141344cd1fd0a4f28419497f9722a3daafe3b4186f6b6457e05f80a361097a90816100d48239f35b631e4fbdf760e01b5f525f60045260245ffd5b5f80fd5b634e487b7160e01b5f52604160045260245ffdfe6080806040526004361015610012575f80fd5b5f3560e01c90816301ffc9a7146107a45750806321c0b3421461061857806342237c361461040d578063483c2ef0146103a5578063715018a6146103095780638296535a1461027d5780638417645e1461027d5780638da5cb5b1461022c578063f2fde38b1461013e5763fc8acba21461008a575f80fd5b3461013a5760207ffffffffffffffffffffffffffffffffffffffffffffffffffffffffffffffffc36011261013a5773ffffffffffffffffffffffffffffffffffffffff6100d661082a565b6100de61092d565b16805f52600360205260405f2060017fffffffffffffffffffffffffffffffffffffffffffffffffffffffffffffff008254161790557f32ccee5821fc13074280b4c90e7d870fd94637ab13c472612f8e62d2f0bfa73f5f80a2005b5f80fd5b3461013a5760207ffffffffffffffffffffffffffffffffffffffffffffffffffffffffffffffffc36011261013a5773ffffffffffffffffffffffffffffffffffffffff61018a61082a565b61019261092d565b1680156102005773ffffffffffffffffffffffffffffffffffffffff600154827fffffffffffffffffffffffff0000000000000000000000000000000000000000821617600155167f8be0079c531659141344cd1fd0a4f28419497f9722a3daafe3b4186f6b6457e05f80a3005b7f1e4fbdf7000000000000000000000000000000000000000000000000000000005f525f60045260245ffd5b3461013a575f7ffffffffffffffffffffffffffffffffffffffffffffffffffffffffffffffffc36011261013a57602073ffffffffffffffffffffffffffffffffffffffff60015416604051908152f35b3461013a5760407ffffffffffffffffffffffffffffffffffffffffffffffffffffffffffffffffc36011261013a576102b461082a565b73ffffffffffffffffffffffffffffffffffffffff6102d161084d565b91165f52600260205273ffffffffffffffffffffffffffffffffffffffff60405f2091165f52602052602060405f2054604051908152f35b3461013a575f7ffffffffffffffffffffffffffffffffffffffffffffffffffffffffffffffffc36011261013a5761033f61092d565b5f73ffffffffffffffffffffffffffffffffffffffff6001547fffffffffffffffffffffffff00000000000000000000000000000000000000008116600155167f8be0079c531659141344cd1fd0a4f28419497f9722a3daafe3b4186f6b6457e08280a3005b3461013a5760207ffffffffffffffffffffffffffffffffffffffffffffffffffffffffffffffffc36011261013a5773ffffffffffffffffffffffffffffffffffffffff6103f161082a565b165f526003602052602060ff60405f2054166040519015158152f35b3461013a5760607ffffffffffffffffffffffffffffffffffffffffffffffffffffffffffffffffc36011261013a5761044461082a565b61044c61084d565b604435906104586108f6565b335f52600360205260ff60405f205416156105f05773ffffffffffffffffffffffffffffffffffffffff16916040517f23b872dd0000000000000000000000000000000000000000000000000000000081523360048201523060248201528260448201526020816064815f885af19081156105e5575f916105b6575b501561058e5773ffffffffffffffffffffffffffffffffffffffff1690815f52600260205260405f20835f5260205260405f20805491808301809311610561577fe260503c6dd59fde47a75e4dbaee6daead748ae8e032a13d0d367394679561a39260409255835f526002602052815f20855f52602052815f20549082519182526020820152a360015f55005b7f4e487b71000000000000000000000000000000000000000000000000000000005f52601160045260245ffd5b7f90b8ec18000000000000000000000000000000000000000000000000000000005f5260045ffd5b6105d8915060203d6020116105de575b6105d08183610870565b8101906108de565b846104d4565b503d6105c6565b6040513d5f823e3d90fd5b7f82b42900000000000000000000000000000000000000000000000000000000005f5260045ffd5b3461013a5760407ffffffffffffffffffffffffffffffffffffffffffffffffffffffffffffffffc36011261013a5761064f61082a565b73ffffffffffffffffffffffffffffffffffffffff61066c61084d565b916106756108f6565b16805f52600260205260405f2073ffffffffffffffffffffffffffffffffffffffff83165f5260205260405f205491821561077c5773ffffffffffffffffffffffffffffffffffffffff90825f52600260205260405f208282165f526020525f604081205516916040517fa9059cbb0000000000000000000000000000000000000000000000000000000081528260048201528160248201526020816044815f885af19081156105e5575f9161075d575b501561058e5760207ff98eaa9c1f790e5c18b1f227bd5bade62600f9f3e3587c7644b90c50b9bf13c591604051908152a360015f55005b610776915060203d6020116105de576105d08183610870565b84610726565b7f846d8c5c000000000000000000000000000000000000000000000000000000005f5260045ffd5b3461013a5760207ffffffffffffffffffffffffffffffffffffffffffffffffffffffffffffffffc36011261013a57600435907fffffffff00000000000000000000000000000000000000000000000000000000821680920361013a577f1c009e2b00000000000000000000000000000000000000000000000000000000602092148152f35b6004359073ffffffffffffffffffffffffffffffffffffffff8216820361013a57565b6024359073ffffffffffffffffffffffffffffffffffffffff8216820361013a57565b90601f7fffffffffffffffffffffffffffffffffffffffffffffffffffffffffffffffe0910116810190811067ffffffffffffffff8211176108b157604052565b7f4e487b71000000000000000000000000000000000000000000000000000000005f52604160045260245ffd5b9081602091031261013a5751801515810361013a5790565b60025f54146109055760025f55565b7f3ee5aeb5000000000000000000000000000000000000000000000000000000005f5260045ffd5b73ffffffffffffffffffffffffffffffffffffffff60015416330361094e57565b7f118cdaa7000000000000000000000000000000000000000000000000000000005f523360045260245ffd","linkReferences":{}},"methodIdentifiers":{"addDepositor(address)":"fc8acba2","allowedDepositors(address)":"483c2ef0","availableFees(address,address)":"8296535a","claim(address,address)":"21c0b342","feesToClaim(address,address)":"8417645e","owner()":"8da5cb5b","renounceOwnership()":"715018a6","storeFees(address,address,uint256)":"42237c36","supportsInterface(bytes4)":"01ffc9a7","transferOwnership(address)":"f2fde38b"},"id":113}