{"abi":[{"type":"constructor","inputs":[{"name":"_poolManager","type":"address","internalType":"address"},{"name":"_factory","type":"address","internalType":"address"},{"name":"_weth","type":"address","internalType":"address"}],"stateMutability":"nonpayable"},{"type":"function","name":"FEE_DENOMINATOR","inputs":[],"outputs":[{"name":"","type":"int128","internalType":"int128"}],"stateMutability":"view"},{"type":"function","name":"MAX_LP_FEE","inputs":[],"outputs":[{"name":"","type":"uint24","internalType":"uint24"}],"stateMutability":"view"},{"type":"function","name":"MAX_MEV_LP_FEE","inputs":[],"outputs":[{"name":"","type":"uint24","internalType":"uint24"}],"stateMutability":"view"},{"type":"function","name":"MAX_MEV_MODULE_DELAY","inputs":[],"outputs":[{"name":"","type":"uint256","internalType":"uint256"}],"stateMutability":"view"},{"type":"function","name":"PROTOCOL_FEE_NUMERATOR","inputs":[],"outputs":[{"name":"","type":"uint256","internalType":"uint256"}],"stateMutability":"view"},{"type":"function","name":"_runPoolExtensionHelper","inputs":[{"name":"poolKey","type":"tuple","internalType":"struct PoolKey","components":[{"name":"currency0","type":"address","internalType":"Currency"},{"name":"currency1","type":"address","internalType":"Currency"},{"name":"fee","type":"uint24","internalType":"uint24"},{"name":"tickSpacing","type":"int24","internalType":"int24"},{"name":"hooks","type":"address","internalType":"contract IHooks"}]},{"name":"swapParams","type":"tuple","internalType":"struct IPoolManager.SwapParams","components":[{"name":"zeroForOne","type":"bool","internalType":"bool"},{"name":"amountSpecified","type":"int256","internalType":"int256"},{"name":"sqrtPriceLimitX96","type":"uint160","internalType":"uint160"}]},{"name":"delta","type":"int256","internalType":"BalanceDelta"},{"name":"swapData","type":"bytes","internalType":"bytes"}],"outputs":[],"stateMutability":"nonpayable"},{"type":"function","name":"afterAddLiquidity","inputs":[{"name":"sender","type":"address","internalType":"address"},{"name":"key","type":"tuple","internalType":"struct PoolKey","components":[{"name":"currency0","type":"address","internalType":"Currency"},{"name":"currency1","type":"address","internalType":"Currency"},{"name":"fee","type":"uint24","internalType":"uint24"},{"name":"tickSpacing","type":"int24","internalType":"int24"},{"name":"hooks","type":"address","internalType":"contract IHooks"}]},{"name":"params","type":"tuple","internalType":"struct IPoolManager.ModifyLiquidityParams","components":[{"name":"tickLower","type":"int24","internalType":"int24"},{"name":"tickUpper","type":"int24","internalType":"int24"},{"name":"liquidityDelta","type":"int256","internalType":"int256"},{"name":"salt","type":"bytes32","internalType":"bytes32"}]},{"name":"delta","type":"int256","internalType":"BalanceDelta"},{"name":"feesAccrued","type":"int256","internalType":"BalanceDelta"},{"name":"hookData","type":"bytes","internalType":"bytes"}],"outputs":[{"name":"","type":"bytes4","internalType":"bytes4"},{"name":"","type":"int256","internalType":"BalanceDelta"}],"stateMutability":"nonpayable"},{"type":"function","name":"afterDonate","inputs":[{"name":"sender","type":"address","internalType":"address"},{"name":"key","type":"tuple","internalType":"struct PoolKey","components":[{"name":"currency0","type":"address","internalType":"Currency"},{"name":"currency1","type":"address","internalType":"Currency"},{"name":"fee","type":"uint24","internalType":"uint24"},{"name":"tickSpacing","type":"int24","internalType":"int24"},{"name":"hooks","type":"address","internalType":"contract IHooks"}]},{"name":"amount0","type":"uint256","internalType":"uint256"},{"name":"amount1","type":"uint256","internalType":"uint256"},{"name":"hookData","type":"bytes","internalType":"bytes"}],"outputs":[{"name":"","type":"bytes4","internalType":"bytes4"}],"stateMutability":"nonpayable"},{"type":"function","name":"afterInitialize","inputs":[{"name":"sender","type":"address","internalType":"address"},{"name":"key","type":"tuple","internalType":"struct PoolKey","components":[{"name":"currency0","type":"address","internalType":"Currency"},{"name":"currency1","type":"address","internalType":"Currency"},{"name":"fee","type":"uint24","internalType":"uint24"},{"name":"tickSpacing","type":"int24","internalType":"int24"},{"name":"hooks","type":"address","internalType":"contract IHooks"}]},{"name":"sqrtPriceX96","type":"uint160","internalType":"uint160"},{"name":"tick","type":"int24","internalType":"int24"}],"outputs":[{"name":"","type":"bytes4","internalType":"bytes4"}],"stateMutability":"nonpayable"},{"type":"function","name":"afterRemoveLiquidity","inputs":[{"name":"sender","type":"address","internalType":"address"},{"name":"key","type":"tuple","internalType":"struct PoolKey","components":[{"name":"currency0","type":"address","internalType":"Currency"},{"name":"currency1","type":"address","internalType":"Currency"},{"name":"fee","type":"uint24","internalType":"uint24"},{"name":"tickSpacing","type":"int24","internalType":"int24"},{"name":"hooks","type":"address","internalType":"contract IHooks"}]},{"name":"params","type":"tuple","internalType":"struct IPoolManager.ModifyLiquidityParams","components":[{"name":"tickLower","type":"int24","internalType":"int24"},{"name":"tickUpper","type":"int24","internalType":"int24"},{"name":"liquidityDelta","type":"int256","internalType":"int256"},{"name":"salt","type":"bytes32","internalType":"bytes32"}]},{"name":"delta","type":"int256","internalType":"BalanceDelta"},{"name":"feesAccrued","type":"int256","internalType":"BalanceDelta"},{"name":"hookData","type":"bytes","internalType":"bytes"}],"outputs":[{"name":"","type":"bytes4","internalType":"bytes4"},{"name":"","type":"int256","internalType":"BalanceDelta"}],"stateMutability":"nonpayable"},{"type":"function","name":"afterSwap","inputs":[{"name":"sender","type":"address","internalType":"address"},{"name":"key","type":"tuple","internalType":"struct PoolKey","components":[{"name":"currency0","type":"address","internalType":"Currency"},{"name":"currency1","type":"address","internalType":"Currency"},{"name":"fee","type":"uint24","internalType":"uint24"},{"name":"tickSpacing","type":"int24","internalType":"int24"},{"name":"hooks","type":"address","internalType":"contract IHooks"}]},{"name":"params","type":"tuple","internalType":"struct IPoolManager.SwapParams","components":[{"name":"zeroForOne","type":"bool","internalType":"bool"},{"name":"amountSpecified","type":"int256","internalType":"int256"},{"name":"sqrtPriceLimitX96","type":"uint160","internalType":"uint160"}]},{"name":"delta","type":"int256","internalType":"BalanceDelta"},{"name":"hookData","type":"bytes","internalType":"bytes"}],"outputs":[{"name":"","type":"bytes4","internalType":"bytes4"},{"name":"","type":"int128","internalType":"int128"}],"stateMutability":"nonpayable"},{"type":"function","name":"beforeAddLiquidity","inputs":[{"name":"sender","type":"address","internalType":"address"},{"name":"key","type":"tuple","internalType":"struct PoolKey","components":[{"name":"currency0","type":"address","internalType":"Currency"},{"name":"currency1","type":"address","internalType":"Currency"},{"name":"fee","type":"uint24","internalType":"uint24"},{"name":"tickSpacing","type":"int24","internalType":"int24"},{"name":"hooks","type":"address","internalType":"contract IHooks"}]},{"name":"params","type":"tuple","internalType":"struct IPoolManager.ModifyLiquidityParams","components":[{"name":"tickLower","type":"int24","internalType":"int24"},{"name":"tickUpper","type":"int24","internalType":"int24"},{"name":"liquidityDelta","type":"int256","internalType":"int256"},{"name":"salt","type":"bytes32","internalType":"bytes32"}]},{"name":"hookData","type":"bytes","internalType":"bytes"}],"outputs":[{"name":"","type":"bytes4","internalType":"bytes4"}],"stateMutability":"nonpayable"},{"type":"function","name":"beforeDonate","inputs":[{"name":"sender","type":"address","internalType":"address"},{"name":"key","type":"tuple","internalType":"struct PoolKey","components":[{"name":"currency0","type":"address","internalType":"Currency"},{"name":"currency1","type":"address","internalType":"Currency"},{"name":"fee","type":"uint24","internalType":"uint24"},{"name":"tickSpacing","type":"int24","internalType":"int24"},{"name":"hooks","type":"address","internalType":"contract IHooks"}]},{"name":"amount0","type":"uint256","internalType":"uint256"},{"name":"amount1","type":"uint256","internalType":"uint256"},{"name":"hookData","type":"bytes","internalType":"bytes"}],"outputs":[{"name":"","type":"bytes4","internalType":"bytes4"}],"stateMutability":"nonpayable"},{"type":"function","name":"beforeInitialize","inputs":[{"name":"sender","type":"address","internalType":"address"},{"name":"key","type":"tuple","internalType":"struct PoolKey","components":[{"name":"currency0","type":"address","internalType":"Currency"},{"name":"currency1","type":"address","internalType":"Currency"},{"name":"fee","type":"uint24","internalType":"uint24"},{"name":"tickSpacing","type":"int24","internalType":"int24"},{"name":"hooks","type":"address","internalType":"contract IHooks"}]},{"name":"sqrtPriceX96","type":"uint160","internalType":"uint160"}],"outputs":[{"name":"","type":"bytes4","internalType":"bytes4"}],"stateMutability":"nonpayable"},{"type":"function","name":"beforeRemoveLiquidity","inputs":[{"name":"sender","type":"address","internalType":"address"},{"name":"key","type":"tuple","internalType":"struct PoolKey","components":[{"name":"currency0","type":"address","internalType":"Currency"},{"name":"currency1","type":"address","internalType":"Currency"},{"name":"fee","type":"uint24","internalType":"uint24"},{"name":"tickSpacing","type":"int24","internalType":"int24"},{"name":"hooks","type":"address","internalType":"contract IHooks"}]},{"name":"params","type":"tuple","internalType":"struct IPoolManager.ModifyLiquidityParams","components":[{"name":"tickLower","type":"int24","internalType":"int24"},{"name":"tickUpper","type":"int24","internalType":"int24"},{"name":"liquidityDelta","type":"int256","internalType":"int256"},{"name":"salt","type":"bytes32","internalType":"bytes32"}]},{"name":"hookData","type":"bytes","internalType":"bytes"}],"outputs":[{"name":"","type":"bytes4","internalType":"bytes4"}],"stateMutability":"nonpayable"},{"type":"function","name":"beforeSwap","inputs":[{"name":"sender","type":"address","internalType":"address"},{"name":"key","type":"tuple","internalType":"struct PoolKey","components":[{"name":"currency0","type":"address","internalType":"Currency"},{"name":"currency1","type":"address","internalType":"Currency"},{"name":"fee","type":"uint24","internalType":"uint24"},{"name":"tickSpacing","type":"int24","internalType":"int24"},{"name":"hooks","type":"address","internalType":"contract IHooks"}]},{"name":"params","type":"tuple","internalType":"struct IPoolManager.SwapParams","components":[{"name":"zeroForOne","type":"bool","internalType":"bool"},{"name":"amountSpecified","type":"int256","internalType":"int256"},{"name":"sqrtPriceLimitX96","type":"uint160","internalType":"uint160"}]},{"name":"hookData","type":"bytes","internalType":"bytes"}],"outputs":[{"name":"","type":"bytes4","internalType":"bytes4"},{"name":"","type":"int256","internalType":"BeforeSwapDelta"},{"name":"","type":"uint24","internalType":"uint24"}],"stateMutability":"nonpayable"},{"type":"function","name":"clankerFee","inputs":[{"name":"","type":"bytes32","internalType":"PoolId"}],"outputs":[{"name":"","type":"uint24","internalType":"uint24"}],"stateMutability":"view"},{"type":"function","name":"clankerIsToken0","inputs":[{"name":"","type":"bytes32","internalType":"PoolId"}],"outputs":[{"name":"","type":"bool","internalType":"bool"}],"stateMutability":"view"},{"type":"function","name":"factory","inputs":[],"outputs":[{"name":"","type":"address","internalType":"address"}],"stateMutability":"view"},{"type":"function","name":"getHookPermissions","inputs":[],"outputs":[{"name":"","type":"tuple","internalType":"struct Hooks.Permissions","components":[{"name":"beforeInitialize","type":"bool","internalType":"bool"},{"name":"afterInitialize","type":"bool","internalType":"bool"},{"name":"beforeAddLiquidity","type":"bool","internalType":"bool"},{"name":"afterAddLiquidity","type":"bool","internalType":"bool"},{"name":"beforeRemoveLiquidity","type":"bool","internalType":"bool"},{"name":"afterRemoveLiquidity","type":"bool","internalType":"bool"},{"name":"beforeSwap","type":"bool","internalType":"bool"},{"name":"afterSwap","type":"bool","internalType":"bool"},{"name":"beforeDonate","type":"bool","internalType":"bool"},{"name":"afterDonate","type":"bool","internalType":"bool"},{"name":"beforeSwapReturnDelta","type":"bool","internalType":"bool"},{"name":"afterSwapReturnDelta","type":"bool","internalType":"bool"},{"name":"afterAddLiquidityReturnDelta","type":"bool","internalType":"bool"},{"name":"afterRemoveLiquidityReturnDelta","type":"bool","internalType":"bool"}]}],"stateMutability":"pure"},{"type":"function","name":"initializeMevModule","inputs":[{"name":"poolKey","type":"tuple","internalType":"struct PoolKey","components":[{"name":"currency0","type":"address","internalType":"Currency"},{"name":"currency1","type":"address","internalType":"Currency"},{"name":"fee","type":"uint24","internalType":"uint24"},{"name":"tickSpacing","type":"int24","internalType":"int24"},{"name":"hooks","type":"address","internalType":"contract IHooks"}]},{"name":"mevModuleData","type":"bytes","internalType":"bytes"}],"outputs":[],"stateMutability":"nonpayable"},{"type":"function","name":"initializePool","inputs":[{"name":"clanker","type":"address","internalType":"address"},{"name":"pairedToken","type":"address","internalType":"address"},{"name":"tickIfToken0IsClanker","type":"int24","internalType":"int24"},{"name":"tickSpacing","type":"int24","internalType":"int24"},{"name":"_locker","type":"address","internalType":"address"},{"name":"_mevModule","type":"address","internalType":"address"},{"name":"poolData","type":"bytes","internalType":"bytes"}],"outputs":[{"name":"","type":"tuple","internalType":"struct PoolKey","components":[{"name":"currency0","type":"address","internalType":"Currency"},{"name":"currency1","type":"address","internalType":"Currency"},{"name":"fee","type":"uint24","internalType":"uint24"},{"name":"tickSpacing","type":"int24","internalType":"int24"},{"name":"hooks","type":"address","internalType":"contract IHooks"}]}],"stateMutability":"nonpayable"},{"type":"function","name":"initializePoolOpen","inputs":[{"name":"clanker","type":"address","internalType":"address"},{"name":"pairedToken","type":"address","internalType":"address"},{"name":"tickIfToken0IsClanker","type":"int24","internalType":"int24"},{"name":"tickSpacing","type":"int24","internalType":"int24"},{"name":"poolData","type":"bytes","internalType":"bytes"}],"outputs":[{"name":"","type":"tuple","internalType":"struct PoolKey","components":[{"name":"currency0","type":"address","internalType":"Currency"},{"name":"currency1","type":"address","internalType":"Currency"},{"name":"fee","type":"uint24","internalType":"uint24"},{"name":"tickSpacing","type":"int24","internalType":"int24"},{"name":"hooks","type":"address","internalType":"contract IHooks"}]}],"stateMutability":"nonpayable"},{"type":"function","name":"locker","inputs":[{"name":"","type":"bytes32","internalType":"PoolId"}],"outputs":[{"name":"","type":"address","internalType":"address"}],"stateMutability":"view"},{"type":"function","name":"mevModule","inputs":[{"name":"","type":"bytes32","internalType":"PoolId"}],"outputs":[{"name":"","type":"address","internalType":"address"}],"stateMutability":"view"},{"type":"function","name":"mevModuleEnabled","inputs":[{"name":"","type":"bytes32","internalType":"PoolId"}],"outputs":[{"name":"","type":"bool","internalType":"bool"}],"stateMutability":"view"},{"type":"function","name":"mevModuleOperational","inputs":[{"name":"poolId","type":"bytes32","internalType":"PoolId"}],"outputs":[{"name":"","type":"bool","internalType":"bool"}],"stateMutability":"nonpayable"},{"type":"function","name":"mevModuleSetFee","inputs":[{"name":"poolKey","type":"tuple","internalType":"struct PoolKey","components":[{"name":"currency0","type":"address","internalType":"Currency"},{"name":"currency1","type":"address","internalType":"Currency"},{"name":"fee","type":"uint24","internalType":"uint24"},{"name":"tickSpacing","type":"int24","internalType":"int24"},{"name":"hooks","type":"address","internalType":"contract IHooks"}]},{"name":"fee","type":"uint24","internalType":"uint24"}],"outputs":[],"stateMutability":"nonpayable"},{"type":"function","name":"pairedFee","inputs":[{"name":"","type":"bytes32","internalType":"PoolId"}],"outputs":[{"name":"","type":"uint24","internalType":"uint24"}],"stateMutability":"view"},{"type":"function","name":"poolCreationTimestamp","inputs":[{"name":"","type":"bytes32","internalType":"PoolId"}],"outputs":[{"name":"","type":"uint256","internalType":"uint256"}],"stateMutability":"view"},{"type":"function","name":"poolExtension","inputs":[{"name":"","type":"bytes32","internalType":"PoolId"}],"outputs":[{"name":"","type":"address","internalType":"address"}],"stateMutability":"view"},{"type":"function","name":"poolManager","inputs":[],"outputs":[{"name":"","type":"address","internalType":"contract IPoolManager"}],"stateMutability":"view"},{"type":"function","name":"protocolFee","inputs":[],"outputs":[{"name":"","type":"uint24","internalType":"uint24"}],"stateMutability":"view"},{"type":"function","name":"supportsInterface","inputs":[{"name":"interfaceId","type":"bytes4","internalType":"bytes4"}],"outputs":[{"name":"","type":"bool","internalType":"bool"}],"stateMutability":"pure"},{"type":"function","name":"weth","inputs":[],"outputs":[{"name":"","type":"address","internalType":"address"}],"stateMutability":"view"},{"type":"event","name":"ClaimProtocolFees","inputs":[{"name":"token","type":"address","indexed":true,"internalType":"address"},{"name":"amount","type":"uint256","indexed":false,"internalType":"uint256"}],"anonymous":false},{"type":"event","name":"MevModuleDisabled","inputs":[{"name":"","type":"bytes32","indexed":false,"internalType":"PoolId"}],"anonymous":false},{"type":"event","name":"MevModuleSetFee","inputs":[{"name":"poolId","type":"bytes32","indexed":false,"internalType":"PoolId"},{"name":"fee","type":"uint24","indexed":false,"internalType":"uint24"}],"anonymous":false},{"type":"event","name":"PoolCreatedFactory","inputs":[{"name":"pairedToken","type":"address","indexed":true,"internalType":"address"},{"name":"clanker","type":"address","indexed":true,"internalType":"address"},{"name":"poolId","type":"bytes32","indexed":false,"internalType":"PoolId"},{"name":"tickIfToken0IsClanker","type":"int24","indexed":false,"internalType":"int24"},{"name":"tickSpacing","type":"int24","indexed":false,"internalType":"int24"},{"name":"locker","type":"address","indexed":false,"internalType":"address"},{"name":"mevModule","type":"address","indexed":false,"internalType":"address"}],"anonymous":false},{"type":"event","name":"PoolCreatedOpen","inputs":[{"name":"pairedToken","type":"address","indexed":true,"internalType":"address"},{"name":"clanker","type":"address","indexed":true,"internalType":"address"},{"name":"poolId","type":"bytes32","indexed":false,"internalType":"PoolId"},{"name":"tickIfToken0IsClanker","type":"int24","indexed":false,"internalType":"int24"},{"name":"tickSpacing","type":"int24","indexed":false,"internalType":"int24"}],"anonymous":false},{"type":"event","name":"PoolExtensionFailed","inputs":[{"name":"poolId","type":"bytes32","indexed":false,"internalType":"PoolId"},{"name":"swapParams","type":"tuple","indexed":false,"internalType":"struct IPoolManager.SwapParams","components":[{"name":"zeroForOne","type":"bool","internalType":"bool"},{"name":"amountSpecified","type":"int256","internalType":"int256"},{"name":"sqrtPriceLimitX96","type":"uint160","internalType":"uint160"}]}],"anonymous":false},{"type":"event","name":"PoolExtensionRegistered","inputs":[{"name":"poolId","type":"bytes32","indexed":true,"internalType":"PoolId"},{"name":"extension","type":"address","indexed":true,"internalType":"address"}],"anonymous":false},{"type":"event","name":"PoolExtensionSuccess","inputs":[{"name":"poolId","type":"bytes32","indexed":false,"internalType":"PoolId"}],"anonymous":false},{"type":"event","name":"PoolInitialized","inputs":[{"name":"poolId","type":"bytes32","indexed":false,"internalType":"PoolId"},{"name":"clankerFee","type":"uint24","indexed":false,"internalType":"uint24"},{"name":"pairedFee","type":"uint24","indexed":false,"internalType":"uint24"}],"anonymous":false},{"type":"error","name":"ClankerFeeTooHigh","inputs":[]},{"type":"error","name":"ETHPoolNotAllowed","inputs":[]},{"type":"error","name":"HookNotImplemented","inputs":[]},{"type":"error","name":"MevModuleEnabled","inputs":[]},{"type":"error","name":"MevModuleNotOperational","inputs":[]},{"type":"error","name":"NotPoolManager","inputs":[]},{"type":"error","name":"OnlyFactory","inputs":[]},{"type":"error","name":"OnlyFactoryPoolsCanHaveExtensions","inputs":[]},{"type":"error","name":"OnlyThis","inputs":[]},{"type":"error","name":"PairedFeeTooHigh","inputs":[]},{"type":"error","name":"PastCreationTimestamp","inputs":[]},{"type":"error","name":"Unauthorized","inputs":[]},{"type":"error","name":"UnsupportedInitializePath","inputs":[]},{"type":"error","name":"WethCannotBeClanker","inputs":[]}],"bytecode":{"object":"0x60e06040523461030157604051601f61415438819003918201601f19168301916001600160401b03831184841017610305578084926060946040528339810103126103015761004d81610339565b90610066604061005f60208401610339565b9201610339565b6001600160a01b039092166080525f6101a0610080610319565b8281528260208201528260408201528260608201528260808201528260a08201528260c08201528260e0820152826101008201528261012082015282610140820152826101608201528261018082015201525f6101a06100de610319565b60018152826020820152600160408201528260608201528260808201528260a0820152600160c0820152600160e0820152826101008201528261012082015260016101408201526001610160820152826101808201520152612000301615156001148015906102f4575b80156102e3575b80156102d6575b80156102c9575b80156102bc575b80156102ac575b801561029c575b8015610290575b8015610284575b8015610274575b8015610264575b8015610258575b801561024c575b6102395760a05260c052604051613e06908161034e82396080518181816103f1015281816104c9015281816105410152818161084801528181610ed701528181610fe70152818161110301528181611df901528181611edb01528181612bc6015281816130c701526139b4015260a051818181610737015281816118d7015281816120480152613ad0015260c051818181611b430152611d100152f35b630732d7b560e51b5f523060045260245ffd5b5060013016151561019c565b50600230161515610195565b506004301615156001141561018e565b5060083016151560011415610187565b50601030161515610180565b50602030161515610179565b5060403016151560011415610172565b506080301615156001141561016b565b5061010030161515610164565b506102003016151561015d565b5061040030161515610156565b50610800301615156001141561014f565b5061100030161515610148565b5f80fd5b634e487b7160e01b5f52604160045260245ffd5b604051906101c082016001600160401b0381118382101761030557604052565b51906001600160a01b03821682036103015756fe60806040526004361015610011575f80fd5b5f5f3560e01c8063015e3c2914611ff757806301ffc9a714611f5557806307eda3da14611f2657806321d0ee7014611ead578063259982e514611dce5780632b887e0f14611d9f5780632c78f49314611d70578063334e836714611d525780633fc48eba14611d345780633fc8cef314611ce35780634468979e14611ca35780634c2b287614611ab6578063564d49e714611820578063575e24b41461105b57806358f8cd54146110325780636c2bbe7e14610ea75780636fe7e6eb14610f755780637f5464f414610f40578063949d32e014610f225780639f063efc14610ea7578063ac3e6ec914610e67578063b0e21e8a14610e45578063b47b2fb11461079b578063b6a8b0fa146103c2578063bdf228631461075b578063c45a01551461070a578063c4e833ce1461059f578063ccc8dc4314610583578063d73792a914610565578063dc4c90d314610514578063dc98354e14610461578063e1b4af69146103c2578063e98a4297146101f6578063ee4d96cf146101cc5763f732b64e1461019b575f80fd5b346101c95760206003193601126101c95762ffffff6040602092600435815260088452205416604051908152f35b80fd5b50346101c95760206003193601126101c95760406020916004358152600583522054604051908152f35b50346101c957600319360161014081126103be5760a0136101c95760607fffffffffffffffffffffffffffffffffffffffffffffffffffffffffffffff5c3601126101c9576101243567ffffffffffffffff81116103be5761025c9036906004016122b9565b919030330361039657819260a061027236612665565b208352600660205273ffffffffffffffffffffffffffffffffffffffff6040842054169060a06102a136612665565b208452600160205260ff60408520541691803b1561039257604051937f4f00cb2b0000000000000000000000000000000000000000000000000000000085526102ec60048601612848565b60a43580151580910361038e5760a486015260c43560c486015260e4359273ffffffffffffffffffffffffffffffffffffffff841680940361038e57856103618195938997938894849660e48601526101043561010486015215156101248501526101606101448501526101648401916129ec565b03925af18015610383576103725750f35b8161037c91612624565b6101c95780f35b6040513d84823e3d90fd5b8680fd5b8480fd5b6004827ff8d8ab0e000000000000000000000000000000000000000000000000000000008152fd5b5080fd5b50346101c9576004906103d43661251f565b50505050505073ffffffffffffffffffffffffffffffffffffffff7f000000000000000000000000000000000000000000000000000000000000000016330361043c577f0a85dc29000000000000000000000000000000000000000000000000000000008152fd5b7fae18210a000000000000000000000000000000000000000000000000000000008152fd5b50346101c95760e06003193601126101c95761047b6122e7565b5060a07fffffffffffffffffffffffffffffffffffffffffffffffffffffffffffffffdc3601126101c9576004906104b16124ec565b5073ffffffffffffffffffffffffffffffffffffffff7f000000000000000000000000000000000000000000000000000000000000000016330361043c577f4a58ec19000000000000000000000000000000000000000000000000000000008152fd5b50346101c957806003193601126101c957602060405173ffffffffffffffffffffffffffffffffffffffff7f0000000000000000000000000000000000000000000000000000000000000000168152f35b50346101c957806003193601126101c9576020604051620f42408152f35b50346101c957806003193601126101c957602060405160788152f35b50346101c957806003193601126101c9576020816101c0926101a06040516105c6816125eb565b82815282858201528260408201528260608201528260808201528260a08201528260c08201528260e08201528261010082015282610120820152826101408201528261016082015282610180820152015280604051610624816125eb565b600181528381018281526040820160018152606083018481526080840185815260a0850186815260c08601906001825260e0870192600184526101008801948986526101208901968a88526101408a019860018a526101a06101608c019b60018d5261018081019d8e52019c8d526040519d8e916001835251151591015251151560408d015251151560608c015251151560808b015251151560a08a015251151560c089015251151560e08801525115156101008701525115156101208601525115156101408501525115156101608401525115156101808301525115156101a0820152f35b50346101c957806003193601126101c957602060405173ffffffffffffffffffffffffffffffffffffffff7f0000000000000000000000000000000000000000000000000000000000000000168152f35b50346101c95760206003193601126101c95773ffffffffffffffffffffffffffffffffffffffff6040602092600435815260038452205416604051908152f35b50346101c9576101606003193601126101c9576107b66122e7565b5060a07fffffffffffffffffffffffffffffffffffffffffffffffffffffffffffffffdc3601126101c95760607fffffffffffffffffffffffffffffffffffffffffffffffffffffffffffffff3c3601126101c957610124356101443567ffffffffffffffff8111610a7e576108309036906004016122b9565b9073ffffffffffffffffffffffffffffffffffffffff7f00000000000000000000000000000000000000000000000000000000000000001691823303610e1d578392859460a061087f36612713565b208752600160205260ff60408820541691610898613772565b83151590151514801560e435948a861294858096610e16575b610cce575b508415938480610cc7575b610b75575b505083610b6d575b508215610b54575b5050610af1575b5060a06108e936612713565b208552600660205273ffffffffffffffffffffffffffffffffffffffff604086205416610944575b6040848151907fb47b2fb1000000000000000000000000000000000000000000000000000000008252600f0b6020820152f35b90849161094f613d01565b508015610a825781610965916020930190613d1a565b0151303b156103be576109cf9260405193849283927fe98a42970000000000000000000000000000000000000000000000000000000084526109a9600485016128e1565b6109b560a48501612d55565b610104840152610140610124840152610144830190613913565b038183305af19081610a69575b5060409250610a2f577f1ed105724e1c937013022b0f3e0fd03e1d6e10fc55a253b385fdc849b5996dca608060a0610a1336612713565b208451908152610a2560208201612d55565ba15b5f8080610911565b7f3aa5ddf1cdba33927c6f6efe9f23b36d189d8534f7ef5fd9453b89eb8a8889c0602060a0610a5d36612713565b208451908152a1610a27565b610a74848092612624565b610a7e57826109dc565b8280fd5b5050508260208060405190610a978183612624565b8382527fffffffffffffffffffffffffffffffffffffffffffffffffffffffffffffffe081019081368285013760405191610ad28284612624565b858352368284013760405192610ae7846125a2565b8352820152610965565b60a0610aff94929436612713565b2086526001602052604086205460ff1615610b36576fffffffffffffffffffffffffffffffff169060801d60801b17915b5f6108dd565b906fffffffffffffffffffffffffffffffff169060801b1791610b30565b90915081610b65575b505f806108d6565b90505f610b5d565b92505f6108ce565b90995090978915610cb6578a620f4240610ba883600f0b5b610b9f62ffffff85541660020b612d95565b60020b906138ec565b600f0b0592839b5f14610c925773ffffffffffffffffffffffffffffffffffffffff610bd2613879565b16905b803b15610a7e576040517f156e29f60000000000000000000000000000000000000000000000000000000081523060048201526024810192909252600f85900b604483015282908290606490829084905af1801561038357610c79575b508160801d600f0b125f14610c5757610c4e9160801b90613d93565b965b5f806108c6565b610c73916fffffffffffffffffffffffffffffffff1690613d93565b96610c50565b81610c8391612624565b610c8e578a5f610c32565b8a80fd5b73ffffffffffffffffffffffffffffffffffffffff610caf613856565b1690610bd5565b8a620f4240610ba88360801d610b8d565b50826108c1565b9950978815610e0057620f4240610cf48c62ffffff8d600f0b915b541660020b906138ec565b600f0b0590819a8a5f14610ddc578c73ffffffffffffffffffffffffffffffffffffffff610d20613879565b165b873b156103be576040517f156e29f60000000000000000000000000000000000000000000000000000000081523060048201526024810191909152600f85900b60448201528181606481838c5af1801561038357610dc3575b508160801d600f0b135f14610da05750610d989160801b90613d93565b975b5f6108b6565b610dbd926fffffffffffffffffffffffffffffffff169150613d93565b97610d9a565b81610dcd91612624565b610dd8578c5f610d7b565b8c80fd5b8c73ffffffffffffffffffffffffffffffffffffffff610dfa613856565b16610d22565b620f4240610cf48c62ffffff8d60801d91610ce9565b50836108b1565b6004857fae18210a000000000000000000000000000000000000000000000000000000008152fd5b50346101c957806003193601126101c95762ffffff6020915416604051908152f35b50346101c95760206003193601126101c95773ffffffffffffffffffffffffffffffffffffffff6040602092600435815260068452205416604051908152f35b50346101c957600490610eb936612439565b5050505050505073ffffffffffffffffffffffffffffffffffffffff7f000000000000000000000000000000000000000000000000000000000000000016330361043c577f0a85dc29000000000000000000000000000000000000000000000000000000008152fd5b50346101c957806003193601126101c9576020604051620c35008152f35b50346101c957600319360160c081126103be5760a0136101c95760a43562ffffff811681036103be57610f7290612b22565b80f35b50346101c9576101006003193601126101c957610f906122e7565b5060a07fffffffffffffffffffffffffffffffffffffffffffffffffffffffffffffffdc3601126101c957600490610fc66124ec565b50610fcf61241b565b5073ffffffffffffffffffffffffffffffffffffffff7f000000000000000000000000000000000000000000000000000000000000000016330361043c577f0a85dc29000000000000000000000000000000000000000000000000000000008152fd5b50346101c95760206003193601126101c9576020611051600435612a54565b6040519015158152f35b50346101c9576101406003193601126101c9576110766122e7565b5060a07fffffffffffffffffffffffffffffffffffffffffffffffffffffffffffffffdc3601126101c95760607fffffffffffffffffffffffffffffffffffffffffffffffffffffffffffffff3c3601126101c9576101243567ffffffffffffffff81116103be576110ec9036906004016122b9565b73ffffffffffffffffffffffffffffffffffffffff7f000000000000000000000000000000000000000000000000000000000000000016908133036117f8578392611135613772565b60a061114036612713565b208652600160205260ff604087205416151590151514155f146117d55760a061116836612713565b20855260086020528462ffffff6040822054165b6111858161389c565b843b156103be5762ffffff604051917f527596510000000000000000000000000000000000000000000000000000000083526111c560048401602461297a565b1660a4820152818160c48183895af18015610383576117c0575b50506111e9613956565b6111f1613bbf565b61120560a06111ff36612713565b20612a54565b6115a3575b505060a061121736612713565b208352600160205260ff60408420541690611230613772565b60e43590151583151514858212808061159b575b6113f5575b1590816113ed575b5061128e575b60608486604051917f575e24b400000000000000000000000000000000000000000000000000000000835260208301526040820152f35b9091925062ffffff8454166112a281613781565b90620f42400362ffffff81116113c05785926fffffffffffffffffffffffffffffffff6112e1670de0b6b3a76400009462ffffff6112eb9516906137bb565b16600f0b90613818565b05918260801b935f1461139c5773ffffffffffffffffffffffffffffffffffffffff611315613879565b16905b803b15610a7e576040517f156e29f60000000000000000000000000000000000000000000000000000000081523060048201526024810192909252600f9390930b6044820152918290606490829084905af180156113915761137c575b8080611257565b611387838092612624565b6103be575f611375565b6040513d85823e3d90fd5b73ffffffffffffffffffffffffffffffffffffffff6113b9613856565b1690611318565b6024867f4e487b710000000000000000000000000000000000000000000000000000000081526011600452fd5b90505f611251565b945062ffffff86541661140781613781565b90620f42400162ffffff811161156e576fffffffffffffffffffffffffffffffff9162ffffff6114389216906137bb565b16600f0b7fffffffffffffffffffffffffffffffff8000000000000000000000000000000081146115415761147b670de0b6b3a7640000918803600f0b84613818565b0594868660801b96865f1461151d5773ffffffffffffffffffffffffffffffffffffffff6114a7613879565b16905b863b15610a7e576040517f156e29f60000000000000000000000000000000000000000000000000000000081523060048201526024810192909252600f0b60448201528181606481838a5af1801561038357611508575b5050611249565b8161151291612624565b61038e57865f611501565b73ffffffffffffffffffffffffffffffffffffffff61153a613856565b16906114aa565b6024877f4e487b710000000000000000000000000000000000000000000000000000000081526011600452fd5b6024887f4e487b710000000000000000000000000000000000000000000000000000000081526011600452fd5b508115611244565b6115ab613d01565b508115611750576115c48161166f936020930190613d1a565b60a06115cf36612713565b2086526003825273ffffffffffffffffffffffffffffffffffffffff60408720541660a06115fc36612713565b2087526001835260ff604088205416915191876040518096819582947f831d7dd2000000000000000000000000000000000000000000000000000000008452611647600485016128e1565b61165360a48501612d55565b1515610104840152610140610124840152610144830190613913565b03925af1908115611745578491611706575b5061168e575b5f8061120a565b60a061169936612713565b2083526004602052604083207fffffffffffffffffffffffffffffffffffffffffffffffffffffffffffffff0081541690557f5fd57032db0db564bdfe22ff91033c11d319a1e6b3677e723545a7ba3e304b93602060a06116f936612713565b20604051908152a1611687565b90506020813d60201161173d575b8161172160209383612624565b8101031261173957518015158103611739575f611681565b8380fd5b3d9150611714565b6040513d86823e3d90fd5b505061166f602080604051906117668183612624565b8682527fffffffffffffffffffffffffffffffffffffffffffffffffffffffffffffffe0810190813682850137604051916117a18284612624565b8883523682840137604051926117b6846125a2565b83528201526115c4565b816117ca91612624565b61039257845f6111df565b60a06117e036612713565b20855260076020528462ffffff60408220541661117c565b6004847fae18210a000000000000000000000000000000000000000000000000000000008152fd5b50346101c95760e06003193601126101c95761183a6122e7565b61184261230a565b61184a6123fb565b61185261240b565b9260843573ffffffffffffffffffffffffffffffffffffffff8116809103611ab25760a4359073ffffffffffffffffffffffffffffffffffffffff821680920361038e5760c43567ffffffffffffffff8111611aae576118b69036906004016122b9565b906118bf612a2a565b5073ffffffffffffffffffffffffffffffffffffffff7f0000000000000000000000000000000000000000000000000000000000000000163303611a8657888888887fc2cc0ae95873d7fa4e50998bc075ab443517931580a05c3f76d9fc983c666a5c60a073ffffffffffffffffffffffffffffffffffffffff808c8c849c6119707f5da295020d1815e72a1c7edab0a1441cc519104e4eafca359c3b01c76feadf079d611a849d8c8b8d88612e38565b99868b208c52600260205260408c20827fffffffffffffffffffffffff0000000000000000000000000000000000000000825416179055868b208c52600360205260408c20837fffffffffffffffffffffffff0000000000000000000000000000000000000000825416179055868b2098604051998a5260020b60208a015260020b60408901526060880152608087015216941692a3848120808352600660205273ffffffffffffffffffffffffffffffffffffffff6040842054169060405195848795a373ffffffffffffffffffffffffffffffffffffffff6080809282815116855282602082015116602086015262ffffff6040820151166040860152606081015160020b6060860152015116910152565bf35b6004897f0c6d42ae000000000000000000000000000000000000000000000000000000008152fd5b8780fd5b8580fd5b50346101c95760a06003193601126101c957611ad06122e7565b90611ad961230a565b91611ae26123fb565b611aea61240b565b60843567ffffffffffffffff811161039257611b0a9036906004016122b9565b90611b13612a2a565b5073ffffffffffffffffffffffffffffffffffffffff85169473ffffffffffffffffffffffffffffffffffffffff7f0000000000000000000000000000000000000000000000000000000000000000168614611c7b5790838589611b779594612e38565b9360a085208152600660205273ffffffffffffffffffffffffffffffffffffffff604082205416611c535750606073ffffffffffffffffffffffffffffffffffffffff60a0967f09cc09ed021cf0d9112cf6d1bdc8689bfedd367df1ac5a550dfd6a07955b8d19938888209560405196875260020b602087015260020b60408601521692a3611a84604051809273ffffffffffffffffffffffffffffffffffffffff6080809282815116855282602082015116602086015262ffffff6040820151166040860152606081015160020b6060860152015116910152565b807fdc8e26b50000000000000000000000000000000000000000000000000000000060049252fd5b6004877f60456f43000000000000000000000000000000000000000000000000000000008152fd5b50346101c95760206003193601126101c95773ffffffffffffffffffffffffffffffffffffffff6040602092600435815260028452205416604051908152f35b50346101c957806003193601126101c957602060405173ffffffffffffffffffffffffffffffffffffffff7f0000000000000000000000000000000000000000000000000000000000000000168152f35b50346101c957806003193601126101c9576020604051620186a08152f35b50346101c957806003193601126101c957602060405162030d408152f35b50346101c95760206003193601126101c95762ffffff6040602092600435815260078452205416604051908152f35b50346101c95760206003193601126101c95760ff60406020926004358152600484522054166040519015158152f35b50346101c957611ddd3661234e565b505050905073ffffffffffffffffffffffffffffffffffffffff7f0000000000000000000000000000000000000000000000000000000000000000163303611e855760a06111ff611e2f9236906127df565b611e5d5760206040517f259982e5000000000000000000000000000000000000000000000000000000008152f35b807f678a240e0000000000000000000000000000000000000000000000000000000060049252fd5b6004827fae18210a000000000000000000000000000000000000000000000000000000008152fd5b50346101c957600490611ebf3661234e565b505050505073ffffffffffffffffffffffffffffffffffffffff7f000000000000000000000000000000000000000000000000000000000000000016330361043c577f0a85dc29000000000000000000000000000000000000000000000000000000008152fd5b50346101c95760206003193601126101c95760ff60406020926004358152600184522054166040519015158152f35b50346101c95760206003193601126101c9576004357fffffffff0000000000000000000000000000000000000000000000000000000081168091036103be57807f1ac7941f0000000000000000000000000000000000000000000000000000000060209214908115611fcd575b506040519015158152f35b7f85f821790000000000000000000000000000000000000000000000000000000091501482611fc2565b503461228d57600319360160c0811261228d5760a01361228d5760a43567ffffffffffffffff811161228d576120319036906004016122b9565b73ffffffffffffffffffffffffffffffffffffffff7f00000000000000000000000000000000000000000000000000000000000000001633036122915760a061207936612665565b205f52600360205273ffffffffffffffffffffffffffffffffffffffff60405f20541691823b1561228d576120f4925f92836040518096819582947f645a15340000000000000000000000000000000000000000000000000000000084526120e360048501612848565b60c060a485015260c48401916129ec565b03925af180156122825761226f575b5060a061210f36612665565b208152600660205273ffffffffffffffffffffffffffffffffffffffff60408220541661217a575b60a061214236612665565b20815260046020526040812060017fffffffffffffffffffffffffffffffffffffffffffffffffffffffffffffff0082541617905580f35b60a061218536612665565b20815260066020528073ffffffffffffffffffffffffffffffffffffffff60408220541660a06121b436612665565b208252600260205273ffffffffffffffffffffffffffffffffffffffff60408320541660a06121e236612665565b208352600160205260ff604084205416823b1561226a5760e484928360405195869485937f99e1ebae00000000000000000000000000000000000000000000000000000000855261223560048601612848565b60a4850152151560c48401525af1801561038357612255575b5050612137565b8161225f91612624565b6101c957805f61224e565b505050fd5b61227b91505f90612624565b5f5f612103565b6040513d5f823e3d90fd5b5f80fd5b7f0c6d42ae000000000000000000000000000000000000000000000000000000005f5260045ffd5b9181601f8401121561228d5782359167ffffffffffffffff831161228d576020838186019501011161228d57565b6004359073ffffffffffffffffffffffffffffffffffffffff8216820361228d57565b6024359073ffffffffffffffffffffffffffffffffffffffff8216820361228d57565b359073ffffffffffffffffffffffffffffffffffffffff8216820361228d57565b9061016060031983011261228d5760043573ffffffffffffffffffffffffffffffffffffffff8116810361228d579160a07fffffffffffffffffffffffffffffffffffffffffffffffffffffffffffffffdc82011261228d5760249160807fffffffffffffffffffffffffffffffffffffffffffffffffffffffffffffff3c83011261228d5760c491610144359067ffffffffffffffff821161228d576123f7916004016122b9565b9091565b604435908160020b820361228d57565b606435908160020b820361228d57565b60e435908160020b820361228d57565b35908160020b820361228d57565b906101a060031983011261228d5760043573ffffffffffffffffffffffffffffffffffffffff8116810361228d579160a07fffffffffffffffffffffffffffffffffffffffffffffffffffffffffffffffdc82011261228d5760249160807fffffffffffffffffffffffffffffffffffffffffffffffffffffffffffffff3c83011261228d5760c49161014435916101643591610184359067ffffffffffffffff821161228d576123f7916004016122b9565b60c4359073ffffffffffffffffffffffffffffffffffffffff8216820361228d57565b359062ffffff8216820361228d57565b61012060031982011261228d5760043573ffffffffffffffffffffffffffffffffffffffff8116810361228d579160a07fffffffffffffffffffffffffffffffffffffffffffffffffffffffffffffffdc83011261228d5760249160c4359160e43591610104359067ffffffffffffffff821161228d576123f7916004016122b9565b6040810190811067ffffffffffffffff8211176125be57604052565b7f4e487b71000000000000000000000000000000000000000000000000000000005f52604160045260245ffd5b6101c0810190811067ffffffffffffffff8211176125be57604052565b60a0810190811067ffffffffffffffff8211176125be57604052565b90601f7fffffffffffffffffffffffffffffffffffffffffffffffffffffffffffffffe0910116810190811067ffffffffffffffff8211176125be57604052565b60031960a091011261228d576040519061267e82612608565b8160043573ffffffffffffffffffffffffffffffffffffffff8116810361228d57815260243573ffffffffffffffffffffffffffffffffffffffff8116810361228d57602082015260443562ffffff8116810361228d5760408201526064358060020b810361228d5760608201526084359073ffffffffffffffffffffffffffffffffffffffff8216820361228d5760800152565b7fffffffffffffffffffffffffffffffffffffffffffffffffffffffffffffffdc60a091011261228d576040519061274a82612608565b8160243573ffffffffffffffffffffffffffffffffffffffff8116810361228d57815260443573ffffffffffffffffffffffffffffffffffffffff8116810361228d57602082015260643562ffffff8116810361228d5760408201526084358060020b810361228d57606082015260a4359073ffffffffffffffffffffffffffffffffffffffff8216820361228d5760800152565b91908260a091031261228d576040516127f781612608565b60806128438183956128088161232d565b85526128166020820161232d565b60208601526128276040820161250f565b60408601526128386060820161242b565b60608601520161232d565b910152565b60043573ffffffffffffffffffffffffffffffffffffffff811680910361228d57815260243573ffffffffffffffffffffffffffffffffffffffff811680910361228d57602082015260443562ffffff811680910361228d5760408201526064358060020b80910361228d5760608201526084359073ffffffffffffffffffffffffffffffffffffffff821680920361228d5760800152565b60243573ffffffffffffffffffffffffffffffffffffffff811680910361228d57815260443573ffffffffffffffffffffffffffffffffffffffff811680910361228d57602082015260643562ffffff811680910361228d5760408201526084358060020b80910361228d57606082015260a4359073ffffffffffffffffffffffffffffffffffffffff821680920361228d5760800152565b73ffffffffffffffffffffffffffffffffffffffff6129e660808093836129a08261232d565b168652836129b06020830161232d565b16602087015262ffffff6129c66040830161250f565b1660408701526129d86060820161242b565b60020b60608701520161232d565b16910152565b601f82602094937fffffffffffffffffffffffffffffffffffffffffffffffffffffffffffffffe093818652868601375f8582860101520116010190565b60405190612a3782612608565b5f6080838281528260208201528260408201528260608201520152565b805f52600460205260ff60405f205416155f14612a7057505f90565b805f52600560205260405f205460788101809111612af557421015612a955750600190565b6020817f5fd57032db0db564bdfe22ff91033c11d319a1e6b3677e723545a7ba3e304b93925f526004825260405f207fffffffffffffffffffffffffffffffffffffffffffffffffffffffffffffff008154169055604051908152a15f90565b7f4e487b71000000000000000000000000000000000000000000000000000000005f52601160045260245ffd5b60a0612b2f3660046127df565b205f52600360205273ffffffffffffffffffffffffffffffffffffffff60405f2054163303612d2d57612b6860a06111ff3660046127df565b15612d2a5762ffffff8116620c35008111612d265760a0612b8a3660046127df565b20604051602081019182526006604082015260408152612bab606082612624565b5190209073ffffffffffffffffffffffffffffffffffffffff7f00000000000000000000000000000000000000000000000000000000000000001691604051907f1e2eaeaf0000000000000000000000000000000000000000000000000000000082526004820152602081602481865afa8015612282575f90612cf1575b62ffffff915060d01c16811115612cec57813b1561228d575f809260c4604051809581937f52759651000000000000000000000000000000000000000000000000000000008352612c7e60048401600461297a565b8660a48401525af18015612282577f05275af3b70c3443abf635099e048f0c9808e8553eb2c8d8ba5ba5e827df209593604093612cc092612cdc575b5061389c565b60a0612ccd3660046127df565b209082519182526020820152a1565b5f612ce691612624565b5f612cba565b505050565b506020813d602011612d1e575b81612d0b60209383612624565b8101031261228d5762ffffff9051612c29565b3d9150612cfe565b5050565b50565b7f82b42900000000000000000000000000000000000000000000000000000000005f5260045ffd5b60c43580151580910361228d57815260e4356020820152610104359073ffffffffffffffffffffffffffffffffffffffff821680920361228d5760400152565b60020b7fffffffffffffffffffffffffffffffffffffffffffffffffffffffffff8000008114612af5575f0390565b81601f8201121561228d5780359067ffffffffffffffff82116125be5760405192612e17601f84017fffffffffffffffffffffffffffffffffffffffffffffffffffffffffffffffe01660200185612624565b8284526020838301011161228d57815f926020809301838601378301015290565b949190612e43612a2a565b505f9373ffffffffffffffffffffffffffffffffffffffff821680158015613754575b61372c5773ffffffffffffffffffffffffffffffffffffffff908189161092835f1461372557885b841561371e57505b8160405199612ea48b612608565b16895216602088015262800000604088015260020b606087015230608087015260a086205f52600160205260405f207fffffffffffffffffffffffffffffffffffffffffffffffffffffffffffffff0081541660ff83161790555f14613710575b60020b8060ff1d8181011890620d89e882116136e557600182167001fffcb933bd6fad37aa2d162d1a594001027001000000000000000000000000000000001891600281166136c9575b600481166136ad575b60088116613691575b60108116613675575b60208116613659575b6040811661363d575b60808116613621575b6101008116613605575b61020081166135e9575b61040081166135cd575b61080081166135b1575b6110008116613595575b6120008116613579575b614000811661355d575b6180008116613541575b620100008116613525575b62020000811661350a575b6204000081166134ef575b62080000166134d6575b5f126134af575b73ffffffffffffffffffffffffffffffffffffffff63ffffffff604051927f6276cbbe00000000000000000000000000000000000000000000000000000000845261309f600485018973ffffffffffffffffffffffffffffffffffffffff6080809282815116855282602082015116602086015262ffffff6040820151166040860152606081015160020b6060860152015116910152565b0160201c1660a482015260208160c4815f73ffffffffffffffffffffffffffffffffffffffff7f0000000000000000000000000000000000000000000000000000000000000000165af1801561228257613476575b5060a084205f5260056020524260405f205582019160208184031261228d5780359067ffffffffffffffff821161228d570160608184031261228d57604051906060820182811067ffffffffffffffff8211176125be576040526131578161232d565b8252602081013567ffffffffffffffff811161228d5784613179918301612dc4565b9360208301948552604082013567ffffffffffffffff811161228d5761319f9201612dc4565b9081604082015260408280518101031261228d576040516131bf816125a2565b620186a062ffffff6131e260406131d860208801613903565b9687865201613903565b9460208401958652161161344e57620186a062ffffff845116116134265760608173ffffffffffffffffffffffffffffffffffffffff9462ffffff7fde0cc41485843685947cd8856be361f8038580ba3916da280a9e36d8cc49998294511660a08a205f52600760205262ffffff60405f2091167fffffffffffffffffffffffffffffffffffffffffffffffffffffffffff00000082541617905562ffffff81511660a08a205f52600860205262ffffff60405f2091167fffffffffffffffffffffffffffffffffffffffffffffffffffffffffff00000082541617905562ffffff8060a08b209351169151169060405192835260208301526040820152a151169151826132f1575b50505090565b60a084205f52600160205260ff60405f205416833b1561228d576133ab915f9160405193849283927fd513493a000000000000000000000000000000000000000000000000000000008452613393600485018b73ffffffffffffffffffffffffffffffffffffffff6080809282815116855282602082015116602086015262ffffff6040820151166040860152606081015160020b6060860152015116910152565b151560a484015260e060c484015260e4830190613913565b038183875af1801561228257613412575b50604073ffffffffffffffffffffffffffffffffffffffff9160a08520815260066020522091167fffffffffffffffffffffffff00000000000000000000000000000000000000008254161790555f80806132eb565b61341e91505f90612624565b5f60406133bc565b7fb2bb455f000000000000000000000000000000000000000000000000000000005f5260045ffd5b7f3cb6e333000000000000000000000000000000000000000000000000000000005f5260045ffd5b6020813d6020116134a7575b8161348f60209383612624565b8101031261228d57518060020b8103156130f4575f80fd5b3d9150613482565b7fffffffffffffffffffffffffffffffffffffffffffffffffffffffffffffffff04613007565b6b048a170391f7dc42444e8fa290910260801c90613000565b6d2216e584f5fa1ea926041bedfe9890920260801c91612ff6565b916e5d6af8dedb81196699c329225ee6040260801c91612feb565b916f09aa508b5b7a84e1c677de54f3e99bc90260801c91612fe0565b916f31be135f97d08fd981231505542fcfa60260801c91612fd5565b916f70d869a156d2a1b890bb3df62baf32f70260801c91612fcb565b916fa9f746462d870fdf8a65dc1f90e061e50260801c91612fc1565b916fd097f3bdfd2022b8845ad8f792aa58250260801c91612fb7565b916fe7159475a2c29b7443b29c7fa6e889d90260801c91612fad565b916ff3392b0822b70005940c7a398e4b70f30260801c91612fa3565b916ff987a7253ac413176f2b074cf7815e540260801c91612f99565b916ffcbe86c7900a88aedcffc83b479aa3a40260801c91612f8f565b916ffe5dee046a99a2a811c461f1969c30530260801c91612f85565b916fff2ea16466c96a3843ec78b326b528610260801c91612f7c565b916fff973b41fa98c081472e6896dfb254c00260801c91612f73565b916fffcb9843d60f6159c9db58835c9266440260801c91612f6a565b916fffe5caca7e10e4e61c3624eaa0941cd00260801c91612f61565b916ffff2e50f5f656932ef12357cf3c7fdcc0260801c91612f58565b916ffff97272373d413259a46990580e213a0260801c91612f4f565b7f8b86327a000000000000000000000000000000000000000000000000000000005f5260045260245ffd5b61371990612d95565b612f05565b9050612e96565b8098612e8e565b7ff4a44333000000000000000000000000000000000000000000000000000000005f5260045ffd5b5073ffffffffffffffffffffffffffffffffffffffff881615612e66565b60c435801515810361228d5790565b6fffffffffffffffffffffffffffffffff670de0b6b3a7640000911602906fffffffffffffffffffffffffffffffff8216918203612af557565b906fffffffffffffffffffffffffffffffff169081156137eb576fffffffffffffffffffffffffffffffff160490565b7f4e487b71000000000000000000000000000000000000000000000000000000005f52601260045260245ffd5b81810292915f82127f8000000000000000000000000000000000000000000000000000000000000000821416612af5578184051490151715612af557565b60243573ffffffffffffffffffffffffffffffffffffffff8116810361228d5790565b60443573ffffffffffffffffffffffffffffffffffffffff8116810361228d5790565b62ffffff1662030d4081029080820462030d401490151715612af557620f424062ffffff9104167fffffffffffffffffffffffffffffffffffffffffffffffffffffffffff0000005f5416175f55565b90600f0b90600f0b029081600f0b918203612af557565b519062ffffff8216820361228d57565b907fffffffffffffffffffffffffffffffffffffffffffffffffffffffffffffffe0601f602080948051918291828752018686015e5f8582860101520116010190565b6139613660246127df565b60a05f91205f52600160205260ff60405f2054165f14613b9b5760443573ffffffffffffffffffffffffffffffffffffffff8116810361228d575b73ffffffffffffffffffffffffffffffffffffffff807f000000000000000000000000000000000000000000000000000000000000000016911691604051917efdd58e000000000000000000000000000000000000000000000000000000008352306004840152836024840152602083604481845afa928315612282575f93613b67575b508215613b6157803b1561228d576040517ff5298aca00000000000000000000000000000000000000000000000000000000815230600482015260248101859052604481018490525f8160648183865af1801561228257613b4c575b50803b156103be578180916064604051809481937f0b0d9c0900000000000000000000000000000000000000000000000000000000835289600484015273ffffffffffffffffffffffffffffffffffffffff7f00000000000000000000000000000000000000000000000000000000000000001660248401528860448401525af1801561038357613b37575b505060207f175b790d44599ca70432cc8d1406504cb3a28fc13ff995c06dde6663412b211a91604051908152a2565b613b42828092612624565b6101c95780613b08565b613b599192505f90612624565b5f905f613a7c565b50505050565b9092506020813d602011613b93575b81613b8360209383612624565b8101031261228d5751915f613a20565b3d9150613b76565b60243573ffffffffffffffffffffffffffffffffffffffff8116811461399c575f80fd5b60a0613bcc3660246127df565b205f52600260205273ffffffffffffffffffffffffffffffffffffffff60405f20541615613cd75760a0613c013660246127df565b205f52600160205260ff60405f2054165f14613cd95760243573ffffffffffffffffffffffffffffffffffffffff81169081810361228d57505b60a0613c483660246127df565b205f52600260205273ffffffffffffffffffffffffffffffffffffffff60405f20541690813b1561228d5773ffffffffffffffffffffffffffffffffffffffff60245f928360405195869485937f86b0c83f0000000000000000000000000000000000000000000000000000000085521660048401525af1801561228257613ccd5750565b5f613cd791612624565b565b60443573ffffffffffffffffffffffffffffffffffffffff81169081810361228d5750613c3b565b60405190613d0e826125a2565b60606020838281520152565b60208183031261228d5780359067ffffffffffffffff821161228d570160408183031261228d5760405191613d4e836125a2565b813567ffffffffffffffff811161228d5781613d6b918401612dc4565b8352602082013567ffffffffffffffff811161228d57613d8b9201612dc4565b602082015290565b613db690613da88360801d8260801d03613dd0565b92600f0b90600f0b03613dd0565b6fffffffffffffffffffffffffffffffff169060801b1790565b9081600f0b918203613dde57565b7f93dafdf1000000000000000000000000000000000000000000000000000000005f5260045ffd","linkReferences":{}},"methodIdentifiers":{"FEE_DENOMINATOR()":"d73792a9","MAX_LP_FEE()":"3fc48eba","MAX_MEV_LP_FEE()":"949d32e0","MAX_MEV_MODULE_DELAY()":"ccc8dc43","PROTOCOL_FEE_NUMERATOR()":"334e8367","_runPoolExtensionHelper((address,address,uint24,int24,address),(bool,int256,uint160),int256,bytes)":"e98a4297","afterAddLiquidity(address,(address,address,uint24,int24,address),(int24,int24,int256,bytes32),int256,int256,bytes)":"9f063efc","afterDonate(address,(address,address,uint24,int24,address),uint256,uint256,bytes)":"e1b4af69","afterInitialize(address,(address,address,uint24,int24,address),uint160,int24)":"6fe7e6eb","afterRemoveLiquidity(address,(address,address,uint24,int24,address),(int24,int24,int256,bytes32),int256,int256,bytes)":"6c2bbe7e","afterSwap(address,(address,address,uint24,int24,address),(bool,int256,uint160),int256,bytes)":"b47b2fb1","beforeAddLiquidity(address,(address,address,uint24,int24,address),(int24,int24,int256,bytes32),bytes)":"259982e5","beforeDonate(address,(address,address,uint24,int24,address),uint256,uint256,bytes)":"b6a8b0fa","beforeInitialize(address,(address,address,uint24,int24,address),uint160)":"dc98354e","beforeRemoveLiquidity(address,(address,address,uint24,int24,address),(int24,int24,int256,bytes32),bytes)":"21d0ee70","beforeSwap(address,(address,address,uint24,int24,address),(bool,int256,uint160),bytes)":"575e24b4","clankerFee(bytes32)":"2c78f493","clankerIsToken0(bytes32)":"07eda3da","factory()":"c45a0155","getHookPermissions()":"c4e833ce","initializeMevModule((address,address,uint24,int24,address),bytes)":"015e3c29","initializePool(address,address,int24,int24,address,address,bytes)":"564d49e7","initializePoolOpen(address,address,int24,int24,bytes)":"4c2b2876","locker(bytes32)":"4468979e","mevModule(bytes32)":"bdf22863","mevModuleEnabled(bytes32)":"2b887e0f","mevModuleOperational(bytes32)":"58f8cd54","mevModuleSetFee((address,address,uint24,int24,address),uint24)":"7f5464f4","pairedFee(bytes32)":"f732b64e","poolCreationTimestamp(bytes32)":"ee4d96cf","poolExtension(bytes32)":"ac3e6ec9","poolManager()":"dc4c90d3","protocolFee()":"b0e21e8a","supportsInterface(bytes4)":"01ffc9a7","weth()":"3fc8cef3"},"id":130}