{"abi":[{"type":"constructor","inputs":[{"name":"owner_","type":"address","internalType":"address"},{"name":"_clankerFactory","type":"address","internalType":"address"},{"name":"_feeLocker","type":"address","internalType":"address"},{"name":"_weth","type":"address","internalType":"address"}],"stateMutability":"nonpayable"},{"type":"function","name":"BPS","inputs":[],"outputs":[{"name":"","type":"uint256","internalType":"uint256"}],"stateMutability":"view"},{"type":"function","name":"FACTORY_PORTION","inputs":[],"outputs":[{"name":"","type":"uint256","internalType":"uint256"}],"stateMutability":"view"},{"type":"function","name":"beforeSwap","inputs":[{"name":"poolKey","type":"tuple","internalType":"struct PoolKey","components":[{"name":"currency0","type":"address","internalType":"Currency"},{"name":"currency1","type":"address","internalType":"Currency"},{"name":"fee","type":"uint24","internalType":"uint24"},{"name":"tickSpacing","type":"int24","internalType":"int24"},{"name":"hooks","type":"address","internalType":"contract IHooks"}]},{"name":"","type":"tuple","internalType":"struct IPoolManager.SwapParams","components":[{"name":"zeroForOne","type":"bool","internalType":"bool"},{"name":"amountSpecified","type":"int256","internalType":"int256"},{"name":"sqrtPriceLimitX96","type":"uint160","internalType":"uint160"}]},{"name":"clankerIsToken0","type":"bool","internalType":"bool"},{"name":"auctionData","type":"bytes","internalType":"bytes"}],"outputs":[{"name":"disableMevModule","type":"bool","internalType":"bool"}],"stateMutability":"nonpayable"},{"type":"function","name":"blocksBetweenAuction","inputs":[],"outputs":[{"name":"","type":"uint256","internalType":"uint256"}],"stateMutability":"view"},{"type":"function","name":"blocksBetweenDeploymentAndFirstAuction","inputs":[],"outputs":[{"name":"","type":"uint256","internalType":"uint256"}],"stateMutability":"view"},{"type":"function","name":"clankerFactory","inputs":[],"outputs":[{"name":"","type":"address","internalType":"contract IClanker"}],"stateMutability":"view"},{"type":"function","name":"feeConfig","inputs":[{"name":"poolId","type":"bytes32","internalType":"PoolId"}],"outputs":[{"name":"startingFee","type":"uint24","internalType":"uint24"},{"name":"endingFee","type":"uint24","internalType":"uint24"},{"name":"secondsToDecay","type":"uint256","internalType":"uint256"}],"stateMutability":"view"},{"type":"function","name":"feeLocker","inputs":[],"outputs":[{"name":"","type":"address","internalType":"contract IClankerFeeLocker"}],"stateMutability":"view"},{"type":"function","name":"gasPeg","inputs":[{"name":"","type":"bytes32","internalType":"PoolId"}],"outputs":[{"name":"gasPeg","type":"uint256","internalType":"uint256"}],"stateMutability":"view"},{"type":"function","name":"getFee","inputs":[{"name":"poolId","type":"bytes32","internalType":"PoolId"}],"outputs":[{"name":"","type":"uint24","internalType":"uint24"}],"stateMutability":"view"},{"type":"function","name":"initialize","inputs":[{"name":"poolKey","type":"tuple","internalType":"struct PoolKey","components":[{"name":"currency0","type":"address","internalType":"Currency"},{"name":"currency1","type":"address","internalType":"Currency"},{"name":"fee","type":"uint24","internalType":"uint24"},{"name":"tickSpacing","type":"int24","internalType":"int24"},{"name":"hooks","type":"address","internalType":"contract IHooks"}]},{"name":"descendingFeeConfig","type":"bytes","internalType":"bytes"}],"outputs":[],"stateMutability":"nonpayable"},{"type":"function","name":"maxRounds","inputs":[],"outputs":[{"name":"","type":"uint256","internalType":"uint256"}],"stateMutability":"view"},{"type":"function","name":"nextAuctionBlock","inputs":[{"name":"","type":"bytes32","internalType":"PoolId"}],"outputs":[{"name":"nextAuctionBlock","type":"uint256","internalType":"uint256"}],"stateMutability":"view"},{"type":"function","name":"owner","inputs":[],"outputs":[{"name":"","type":"address","internalType":"address"}],"stateMutability":"view"},{"type":"function","name":"paymentPerGasUnit","inputs":[],"outputs":[{"name":"","type":"uint256","internalType":"uint256"}],"stateMutability":"view"},{"type":"function","name":"poolDecayStartTime","inputs":[{"name":"poolId","type":"bytes32","internalType":"PoolId"}],"outputs":[{"name":"poolDecayStartTime","type":"uint256","internalType":"uint256"}],"stateMutability":"view"},{"type":"function","name":"renounceOwnership","inputs":[],"outputs":[],"stateMutability":"nonpayable"},{"type":"function","name":"round","inputs":[{"name":"","type":"bytes32","internalType":"PoolId"}],"outputs":[{"name":"round","type":"uint256","internalType":"uint256"}],"stateMutability":"view"},{"type":"function","name":"setBlocksBetweenAuction","inputs":[{"name":"_blocksBetweenAuction","type":"uint256","internalType":"uint256"}],"outputs":[],"stateMutability":"nonpayable"},{"type":"function","name":"setBlocksBetweenDeploymentAndFirstAuction","inputs":[{"name":"_blocksBetweenDeploymentAndFirstAuction","type":"uint256","internalType":"uint256"}],"outputs":[],"stateMutability":"nonpayable"},{"type":"function","name":"setMaxRounds","inputs":[{"name":"_maxRounds","type":"uint256","internalType":"uint256"}],"outputs":[],"stateMutability":"nonpayable"},{"type":"function","name":"setPaymentPerGasUnit","inputs":[{"name":"_paymentPerGasUnit","type":"uint256","internalType":"uint256"}],"outputs":[],"stateMutability":"nonpayable"},{"type":"function","name":"supportsInterface","inputs":[{"name":"interfaceId","type":"bytes4","internalType":"bytes4"}],"outputs":[{"name":"","type":"bool","internalType":"bool"}],"stateMutability":"pure"},{"type":"function","name":"transferOwnership","inputs":[{"name":"newOwner","type":"address","internalType":"address"}],"outputs":[],"stateMutability":"nonpayable"},{"type":"function","name":"weth","inputs":[],"outputs":[{"name":"","type":"address","internalType":"address"}],"stateMutability":"view"},{"type":"event","name":"AuctionEnded","inputs":[{"name":"poolId","type":"bytes32","indexed":true,"internalType":"PoolId"}],"anonymous":false},{"type":"event","name":"AuctionExpired","inputs":[{"name":"poolId","type":"bytes32","indexed":true,"internalType":"PoolId"},{"name":"round","type":"uint256","indexed":false,"internalType":"uint256"}],"anonymous":false},{"type":"event","name":"AuctionInitialized","inputs":[{"name":"poolId","type":"bytes32","indexed":true,"internalType":"PoolId"},{"name":"gasPeg","type":"uint256","indexed":false,"internalType":"uint256"},{"name":"auctionBlock","type":"uint256","indexed":true,"internalType":"uint256"},{"name":"round","type":"uint256","indexed":false,"internalType":"uint256"}],"anonymous":false},{"type":"event","name":"AuctionReset","inputs":[{"name":"poolId","type":"bytes32","indexed":true,"internalType":"PoolId"},{"name":"gasPeg","type":"uint256","indexed":false,"internalType":"uint256"},{"name":"auctionBlock","type":"uint256","indexed":true,"internalType":"uint256"},{"name":"round","type":"uint256","indexed":false,"internalType":"uint256"}],"anonymous":false},{"type":"event","name":"AuctionRewardsTransferred","inputs":[{"name":"poolId","type":"bytes32","indexed":true,"internalType":"PoolId"},{"name":"lpPayment","type":"uint256","indexed":false,"internalType":"uint256"},{"name":"factoryPayment","type":"uint256","indexed":false,"internalType":"uint256"}],"anonymous":false},{"type":"event","name":"AuctionWon","inputs":[{"name":"poolId","type":"bytes32","indexed":true,"internalType":"PoolId"},{"name":"payee","type":"address","indexed":true,"internalType":"address"},{"name":"paymentAmount","type":"uint256","indexed":false,"internalType":"uint256"},{"name":"round","type":"uint256","indexed":false,"internalType":"uint256"}],"anonymous":false},{"type":"event","name":"DecayPeriodOver","inputs":[{"name":"poolId","type":"bytes32","indexed":false,"internalType":"PoolId"}],"anonymous":false},{"type":"event","name":"FeeConfigSet","inputs":[{"name":"poolId","type":"bytes32","indexed":false,"internalType":"PoolId"},{"name":"startingFee","type":"uint24","indexed":false,"internalType":"uint24"},{"name":"endingFee","type":"uint24","indexed":false,"internalType":"uint24"},{"name":"secondsToDecay","type":"uint256","indexed":false,"internalType":"uint256"}],"anonymous":false},{"type":"event","name":"OwnershipTransferred","inputs":[{"name":"previousOwner","type":"address","indexed":true,"internalType":"address"},{"name":"newOwner","type":"address","indexed":true,"internalType":"address"}],"anonymous":false},{"type":"event","name":"SetBlocksBetweenAuction","inputs":[{"name":"oldBlocksBetweenAuction","type":"uint256","indexed":false,"internalType":"uint256"},{"name":"newBlocksBetweenAuction","type":"uint256","indexed":false,"internalType":"uint256"}],"anonymous":false},{"type":"event","name":"SetBlocksBetweenDeploymentAndFirstAuction","inputs":[{"name":"oldBlocksBetweenDeploymentAndFirstAuction","type":"uint256","indexed":false,"internalType":"uint256"},{"name":"newBlocksBetweenDeploymentAndFirstAuction","type":"uint256","indexed":false,"internalType":"uint256"}],"anonymous":false},{"type":"event","name":"SetMaxRounds","inputs":[{"name":"oldMaxRounds","type":"uint256","indexed":false,"internalType":"uint256"},{"name":"newMaxRounds","type":"uint256","indexed":false,"internalType":"uint256"}],"anonymous":false},{"type":"event","name":"SetPaymentPerGasUnit","inputs":[{"name":"oldPaymentPerGasUnit","type":"uint256","indexed":false,"internalType":"uint256"},{"name":"newPaymentPerGasUnit","type":"uint256","indexed":false,"internalType":"uint256"}],"anonymous":false},{"type":"error","name":"GasSignalNegative","inputs":[]},{"type":"error","name":"NotAuctionBlock","inputs":[]},{"type":"error","name":"OnlyClankerHookV2","inputs":[]},{"type":"error","name":"OnlyHook","inputs":[]},{"type":"error","name":"OwnableInvalidOwner","inputs":[{"name":"owner","type":"address","internalType":"address"}]},{"type":"error","name":"OwnableUnauthorizedAccount","inputs":[{"name":"account","type":"address","internalType":"address"}]},{"type":"error","name":"PoolAlreadyInitialized","inputs":[]},{"type":"error","name":"PoolLocked","inputs":[]},{"type":"error","name":"ReentrancyGuardReentrantCall","inputs":[]},{"type":"error","name":"SafeERC20FailedOperation","inputs":[{"name":"token","type":"address","internalType":"address"}]},{"type":"error","name":"SameSecondAsDeployment","inputs":[]},{"type":"error","name":"StartingFeeGreaterThanMaxLpFee","inputs":[]},{"type":"error","name":"StartingFeeMustBeGreaterThanEndingFee","inputs":[]},{"type":"error","name":"StartingFeeMustBeGreaterThanZero","inputs":[]},{"type":"error","name":"TimeDecayLongerThanMaxMevDelay","inputs":[]},{"type":"error","name":"TimeDecayMustBeGreaterThanZero","inputs":[]}],"bytecode":{"object":"0x60e03461014d57601f61223338819003918201601f19168301916001600160401b038311848410176101515780849260809460405283398101031261014d5761004781610165565b61005360208301610165565b9161006c606061006560408401610165565b9201610165565b60015f556001600160a01b0390921692831561013a57600180546001600160a01b03198116861790915560405194906001600160a01b03167f8be0079c531659141344cd1fd0a4f28419497f9722a3daafe3b4186f6b6457e05f80a36001600160a01b0390811660a0521660c05260805260026005818155600691909155600755655af3107a40006008556120b9908161017a8239608051818181610c24015281816111630152611662015260a051818181610cf2015261162f015260c05181818161052401526118ca0152f35b631e4fbdf760e01b5f525f60045260245ffd5b5f80fd5b634e487b7160e01b5f52604160045260245ffd5b51906001600160a01b038216820361014d5756fe6080806040526004361015610012575f80fd5b5f3560e01c90816301ffc9a714610db3575080630dd5127d14610d895780631162293114610d6c5780631faf969b14610d4f578063202aea0b14610d32578063249d39e914610d165780632c08670a14610cc6578063383048ca14610c9c5780633fa3434c14610c485780633fc8cef314610bf85780634bbec3e014610bce5780635121726e14610bb157806358a8ba9414610b5d578063645a15341461054857806370e9d244146104f8578063715018a61461047a57806372027ad11461045e578063831d7dd21461037b5780638da5cb5b14610348578063af9dc652146102f4578063b9629a41146102af578063c78390121461025b578063caf1a68014610231578063e5f3d3a5146102065763f2fde38b1461012f575f80fd5b346102025760206003193601126102025760043573ffffffffffffffffffffffffffffffffffffffff81168091036102025761016961133a565b80156101d65773ffffffffffffffffffffffffffffffffffffffff600154827fffffffffffffffffffffffff0000000000000000000000000000000000000000821617600155167f8be0079c531659141344cd1fd0a4f28419497f9722a3daafe3b4186f6b6457e05f80a3005b7f1e4fbdf7000000000000000000000000000000000000000000000000000000005f525f60045260245ffd5b5f80fd5b346102025760206003193601126102025760206102246004356112c8565b62ffffff60405191168152f35b34610202576020600319360112610202576004355f526002602052602060405f2054604051908152f35b34610202576020600319360112610202577f693b514935029a7507a936f5749ce3dcff24c5a0b4a330f81f2d63809493eac5604060043561029a61133a565b600554908060055582519182526020820152a1005b34610202576020600319360112610202576004355f526009602052606060405f206001815491015462ffffff60405192818116845260181c1660208301526040820152f35b34610202576020600319360112610202577f2e34ae02a72a5f1298ee00a00d53709bc0787ac7d80b09f9a23ed3c7e46c7c8f604060043561033361133a565b600854908060085582519182526020820152a1005b34610202575f60031936011261020257602073ffffffffffffffffffffffffffffffffffffffff60015416604051908152f35b3461020257600319360161014081126102025760a0136102025760607fffffffffffffffffffffffffffffffffffffffffffffffffffffffffffffff5c36011261020257610104358015158103610202576101243567ffffffffffffffff8111610202576103ed903690600401610e1b565b6103f8929192611387565b73ffffffffffffffffffffffffffffffffffffffff610415610e6a565b1633036104365760209261042892610fab565b60015f556040519015158152f35b7f5a91834f000000000000000000000000000000000000000000000000000000005f5260045ffd5b34610202575f6003193601126102025760206040516107d08152f35b34610202575f6003193601126102025761049261133a565b5f73ffffffffffffffffffffffffffffffffffffffff6001547fffffffffffffffffffffffff00000000000000000000000000000000000000008116600155167f8be0079c531659141344cd1fd0a4f28419497f9722a3daafe3b4186f6b6457e08280a3005b34610202575f60031936011261020257602060405173ffffffffffffffffffffffffffffffffffffffff7f0000000000000000000000000000000000000000000000000000000000000000168152f35b3461020257600319360160c081126102025760a0136102025760a43567ffffffffffffffff811161020257610581903690600401610e1b565b9061058a611387565b73ffffffffffffffffffffffffffffffffffffffff6105a7610e6a565b163303610436576040516105ba81610e8d565b60043573ffffffffffffffffffffffffffffffffffffffff8116810361020257815260243573ffffffffffffffffffffffffffffffffffffffff8116810361020257602082015260443562ffffff811681036102025760408201526064358060020b81036102025760608201526084359073ffffffffffffffffffffffffffffffffffffffff821682036102025760a09160808201522091825f52600260205260405f2054610b355781606091610672600554611408565b855f52600260205260405f205561068b60055443610f71565b5f868152600360209081526040808320938455600480835281842060019081905560028452938290205494549083528151948552918401929092529187917f176cc986e6995c5872fc36534f279215f7d45149c89e3fa68ca7f0cf2b5aa17891a381010312610202576040516060810181811067ffffffffffffffff821117610b085760405261071a82610eea565b8152604061072a60208401610eea565b92602083019384520135604082019080825215610ae05762ffffff82511615610ab85762ffffff82511662ffffff84511611610a90576024602073ffffffffffffffffffffffffffffffffffffffff610781610e6a565b16604051928380927f01ffc9a70000000000000000000000000000000000000000000000000000000082527f85f821790000000000000000000000000000000000000000000000000000000060048301525afa9081156109be575f91610a55575b5015610a2d5762ffffff8251166004602073ffffffffffffffffffffffffffffffffffffffff610810610e6a565b16604051928380927f949d32e00000000000000000000000000000000000000000000000000000000082525afa80156109be575f906109f1575b62ffffff915016106109c95760048151602073ffffffffffffffffffffffffffffffffffffffff610879610e6a565b16604051938480927fccc8dc430000000000000000000000000000000000000000000000000000000082525afa9182156109be575f9261098a575b501161096257600162ffffff7fc0515a1e6791bef54bf6f7c7b020e9481b5eab55c06e702ac0c542cb8c993d4c94608094875f5260096020528260405f20915116948154925192867fffffffffffffffffffffffffffffffffffffffffffffffffffff00000000000065ffffff0000008660181b169216171782555193849101556040519387855260208501521660408301526060820152a15f52600b6020524260405f205560015f555f80f35b7ffdc767f7000000000000000000000000000000000000000000000000000000005f5260045ffd5b9091506020813d6020116109b6575b816109a660209383610ea9565b81010312610202575190866108b4565b3d9150610999565b6040513d5f823e3d90fd5b7f0f54c6aa000000000000000000000000000000000000000000000000000000005f5260045ffd5b506020813d602011610a25575b81610a0b60209383610ea9565b8101031261020257610a2062ffffff9161142d565b61084a565b3d91506109fe565b7f47030148000000000000000000000000000000000000000000000000000000005f5260045ffd5b90506020813d602011610a88575b81610a7060209383610ea9565b810103126102025751801515810361020257856107e2565b3d9150610a63565b7f11ce4d92000000000000000000000000000000000000000000000000000000005f5260045ffd5b7f14b97fbc000000000000000000000000000000000000000000000000000000005f5260045ffd5b7f401a4b7c000000000000000000000000000000000000000000000000000000005f5260045ffd5b7f4e487b71000000000000000000000000000000000000000000000000000000005f52604160045260245ffd5b7f7983c051000000000000000000000000000000000000000000000000000000005f5260045ffd5b34610202576020600319360112610202577f58a2eb628b72335e7f35beb36fcadef187a12ddffc615fd2118fdf31d7323f776040600435610b9c61133a565b600754908060075582519182526020820152a1005b34610202575f600319360112610202576020600654604051908152f35b34610202576020600319360112610202576004355f52600a602052602060405f2054604051908152f35b34610202575f60031936011261020257602060405173ffffffffffffffffffffffffffffffffffffffff7f0000000000000000000000000000000000000000000000000000000000000000168152f35b34610202576020600319360112610202577f36af155d3d9465180c77dc6c2e6c208a29c190e41a4475824122fe898714fcc66040600435610c8761133a565b600654908060065582519182526020820152a1005b34610202576020600319360112610202576004355f526003602052602060405f2054604051908152f35b34610202575f60031936011261020257602060405173ffffffffffffffffffffffffffffffffffffffff7f0000000000000000000000000000000000000000000000000000000000000000168152f35b34610202575f6003193601126102025760206040516127108152f35b34610202575f600319360112610202576020600554604051908152f35b34610202575f600319360112610202576020600754604051908152f35b34610202575f600319360112610202576020600854604051908152f35b34610202576020600319360112610202576004355f526004602052602060405f2054604051908152f35b3461020257602060031936011261020257600435907fffffffff000000000000000000000000000000000000000000000000000000008216809203610202577fe6b8a14100000000000000000000000000000000000000000000000000000000602092148152f35b9181601f840112156102025782359167ffffffffffffffff8311610202576020838186019501011161020257565b359073ffffffffffffffffffffffffffffffffffffffff8216820361020257565b60843573ffffffffffffffffffffffffffffffffffffffff811681036102025790565b60a0810190811067ffffffffffffffff821117610b0857604052565b90601f7fffffffffffffffffffffffffffffffffffffffffffffffffffffffffffffffe0910116810190811067ffffffffffffffff821117610b0857604052565b359062ffffff8216820361020257565b35908160020b820361020257565b91908260a091031261020257604051610f2081610e8d565b6080610f6c818395610f3181610e49565b8552610f3f60208201610e49565b6020860152610f5060408201610eea565b6040860152610f6160608201610efa565b606086015201610e49565b910152565b91908201809211610f7e57565b7f4e487b71000000000000000000000000000000000000000000000000000000005f52601160045260245ffd5b919060a0610fba366004610f08565b205f908152600a602052604090205415610fde57505050610fdb600461143d565b90565b60a0610feb366004610f08565b205f52600360205260405f205443105f14611028577fd7bf71df000000000000000000000000000000000000000000000000000000005f5260045ffd5b60a0611035366004610f08565b205f52600360205260405f205443116112355760208160a0611058366004610f08565b20938101031261020257359173ffffffffffffffffffffffffffffffffffffffff831680930361020257815f52600260205260405f2054925f843a0394123a85128116903a861390151617610f7e575f841261120d576110be6111ca94600854906113be565b6040517f23b872dd00000000000000000000000000000000000000000000000000000000602082015273ffffffffffffffffffffffffffffffffffffffff83166024820152306044820152606481018290529093906111889061114c81608481015b037fffffffffffffffffffffffffffffffffffffffffffffffffffffffffffffffe08101835282610ea9565b73ffffffffffffffffffffffffffffffffffffffff7f000000000000000000000000000000000000000000000000000000000000000016612032565b805f5260046020527fe04531dd1a58ec42a539bacca9922b8dfb9787388d1393fdbe5ecbbcf075ab9f6040805f20548151908782526020820152a360046115c7565b60a06111d7366004610f08565b205f5260096020526111f362ffffff60405f2054166004611da1565b61120960a0611203366004610f08565b20611e6d565b5f90565b7f9a985090000000000000000000000000000000000000000000000000000000005f5260045ffd5b50505060a0611245366004610f08565b2060a0611253366004610f08565b205f5260046020527f7e084355d30ee8e5a1599841a0fc9a5d77ab0cf5862a15bdab0064a3d154519c602060405f2054604051908152a260a0611297366004610f08565b205f52600b60205260405f205460a06112b1366004610f08565b205f52600a60205260405f2055610fdb600461143d565b805f52600260205260405f20541561132157805f52600a60205260405f20541561132657805f52600a60205261131260405f2054825f526009602052600160405f20015490610f71565b421161132157610fdb90611f5d565b505f90565b5f52600960205262ffffff60405f20541690565b73ffffffffffffffffffffffffffffffffffffffff60015416330361135b57565b7f118cdaa7000000000000000000000000000000000000000000000000000000005f523360045260245ffd5b60025f54146113965760025f55565b7f3ee5aeb5000000000000000000000000000000000000000000000000000000005f5260045ffd5b81810292918115918404141715610f7e57565b81156113db570490565b7f4e487b71000000000000000000000000000000000000000000000000000000005f52601260045260245ffd5b60198111610f7e5780611422610fdb926104650a486113be565b906103e80a906113d1565b519062ffffff8216820361020257565b60a06114493683610f08565b2090815f52600a60205261147160405f2054835f526009602052600160405f20015490610f71565b42116114895761148361120992611f5d565b90611da1565b5060207f9842d4551fd02d8d61f565c7fd8fe7ee93ab1dbd794827138850d94109c6a38991604051908152a1600190565b91908203918211610f7e57565b3573ffffffffffffffffffffffffffffffffffffffff811681036102025790565b519073ffffffffffffffffffffffffffffffffffffffff8216820361020257565b67ffffffffffffffff8111610b085760051b60200190565b9080601f8301121561020257815161153881611509565b926115466040519485610ea9565b81845260208085019260051b82010192831161020257602001905b82821061156e5750505090565b6020809161157b846114e8565b815201910190611561565b805182101561159a5760209160051b010190565b7f4e487b71000000000000000000000000000000000000000000000000000000005f52603260045260245ffd5b9192908315611d9b576107d084028481046107d003610f7e576127106115ef910480956114ba565b6040517fa9059cbb00000000000000000000000000000000000000000000000000000000602082015273ffffffffffffffffffffffffffffffffffffffff7f00000000000000000000000000000000000000000000000000000000000000008116602483018190526044830188905292937f0000000000000000000000000000000000000000000000000000000000000000929183169161169d906116978160648101611120565b83612032565b15611d725773ffffffffffffffffffffffffffffffffffffffff5f816116c2896114c7565b165b6024604051809481937f22adcdb100000000000000000000000000000000000000000000000000000000835216978860048301525afa9081156109be575f91611ca6575b5073ffffffffffffffffffffffffffffffffffffffff60405f92015116936024604051809681937f30bd3eeb00000000000000000000000000000000000000000000000000000000835260048301525afa9283156109be575f93611ab1575b506080830192835151957fffffffffffffffffffffffffffffffffffffffffffffffffffffffffffffffe06117b461179e89611509565b986117ac6040519a8b610ea9565b808a52611509565b013660208901375f98895b8651517fffffffffffffffffffffffffffffffffffffffffffffffffffffffffffffffff8101908111610f7e578b101561183c576118346001918c61182261271061181a8d61ffff6118138f879051611586565b51166113be565b04918d611586565b5261182d8d8c611586565b5190610f71565b9a01996117bf565b61184f91949793969992959a50836114ba565b8851517fffffffffffffffffffffffffffffffffffffffffffffffffffffffffffffffff8101908111610f7e576118869089611586565b526040517f095ea7b300000000000000000000000000000000000000000000000000000000602080830191825273ffffffffffffffffffffffffffffffffffffffff7f00000000000000000000000000000000000000000000000000000000000000001660248401819052604480850187905284529892915f9061190b606485610ea9565b83519082865af15f513d82611a95575b505015611a38575b50505f5b8851518110156119ec5773ffffffffffffffffffffffffffffffffffffffff6119548260c0890151611586565b511690611961818a611586565b5191883b15610202576040517f42237c3600000000000000000000000000000000000000000000000000000000815273ffffffffffffffffffffffffffffffffffffffff9182166004820152908c16602482015260448101929092525f82606481838c5af19182156109be576001926119dc575b5001611927565b5f6119e691610ea9565b5f6119d5565b5090935060a0929750611a299196507f2001b9eceb538108ac9eb8e5786be123dfb1374c532063b92e8f6d24ef94877d9550604094503690610f08565b209382519182526020820152a2565b611a8e91611a896040517f095ea7b30000000000000000000000000000000000000000000000000000000060208201528a60248201525f604482015260448152611a83606482610ea9565b82612032565b612032565b5f80611923565b909150611aa95750813b15155b5f8061191b565b600114611aa2565b9092503d805f833e611ac38183610ea9565b8101906020818303126102025780519067ffffffffffffffff82116102025701808203916101608312610202576040519260e0840184811067ffffffffffffffff821117610b085760a0917fffffffffffffffffffffffffffffffffffffffffffffffffffffffffffffffe091604052611b3c856114e8565b8652011261020257604051611b5081610e8d565b611b5c602084016114e8565b8152611b6a604084016114e8565b6020820152611b7b6060840161142d565b604082015260808301518060020b810361020257606082015260a083015173ffffffffffffffffffffffffffffffffffffffff81168103610202576080820152602084015260c0820151604084015260e0820151606084015261010082015167ffffffffffffffff811161020257820181601f82011215610202578051611c0181611509565b91611c0f6040519384610ea9565b81835260208084019260051b8201019084821161020257602001915b818310611c8b57505050608084015261012082015167ffffffffffffffff81116102025781611c5b918401611521565b60a084015261014082015167ffffffffffffffff811161020257611c7f9201611521565b60c0820152915f611767565b825161ffff8116810361020257815260209283019201611c2b565b90503d805f833e611cb78183610ea9565b8101906020818303126102025780519067ffffffffffffffff8211610202570190608082820312610202576040516080810181811067ffffffffffffffff821117610b0857604052611d08836114e8565b8152611d16602084016114e8565b6020820152611d27604084016114e8565b604082015260608301519067ffffffffffffffff821161020257611d6573ffffffffffffffffffffffffffffffffffffffff936040935f9601611521565b6060820152925050611708565b73ffffffffffffffffffffffffffffffffffffffff5f81611d9560208a016114c7565b166116c4565b50915050565b90333b156102025762ffffff9073ffffffffffffffffffffffffffffffffffffffff611e3f6080604051957f7f5464f400000000000000000000000000000000000000000000000000000000875283611df982610e49565b16600488015283611e0c60208301610e49565b16602488015285611e1f60408301610eea565b166044880152611e3160608201610efa565b60020b606488015201610e49565b1660848401521660a48201525f8160c48183335af180156109be57611e615750565b5f611e6b91610ea9565b565b805f52600460205260405f205460018101809111610f7e575f828152600460208181526040808420948555600b825290922042905590525460075410611f2957611eb8600654611408565b815f52600260205260405f2055611ed160065443610f71565b5f82815260036020908152604080832084905560028252808320546004835292819020548151938452918301919091529192917ff9a4566a0eb5aabefcc7dfb947976336b8903010deee9a8eaa215f700d9a181591a3565b805f52600a6020524260405f20557f447d0298e6e2716a4343195759c35b277a60b76e628284d93262fa9869db99215f80a2565b805f526009602052611f8c600160405f200154825f52600a602052611f8660405f2054426114ba565b906114ba565b5f8281526009602052604090205462ffffff601882901c81169181169190910392908311610f7e57670de0b6b3a7640000820291808304670de0b6b3a76400001490151715610f7e57670de0b6b3a764000061201662ffffff94858361200e61200861202e98885f526009602052600160405f200154906113d1565b806113be565b0491166113be565b04905f5260096020528260405f205460181c16610f71565b1690565b905f602091828151910182855af1156109be575f513d6120b0575073ffffffffffffffffffffffffffffffffffffffff81163b155b61206e5750565b73ffffffffffffffffffffffffffffffffffffffff907f5274afe7000000000000000000000000000000000000000000000000000000005f521660045260245ffd5b6001141561206756","linkReferences":{}},"methodIdentifiers":{"BPS()":"249d39e9","FACTORY_PORTION()":"72027ad1","beforeSwap((address,address,uint24,int24,address),(bool,int256,uint160),bool,bytes)":"831d7dd2","blocksBetweenAuction()":"5121726e","blocksBetweenDeploymentAndFirstAuction()":"202aea0b","clankerFactory()":"2c08670a","feeConfig(bytes32)":"b9629a41","feeLocker()":"70e9d244","gasPeg(bytes32)":"caf1a680","getFee(bytes32)":"e5f3d3a5","initialize((address,address,uint24,int24,address),bytes)":"645a1534","maxRounds()":"1faf969b","nextAuctionBlock(bytes32)":"383048ca","owner()":"8da5cb5b","paymentPerGasUnit()":"11622931","poolDecayStartTime(bytes32)":"4bbec3e0","renounceOwnership()":"715018a6","round(bytes32)":"0dd5127d","setBlocksBetweenAuction(uint256)":"3fa3434c","setBlocksBetweenDeploymentAndFirstAuction(uint256)":"c7839012","setMaxRounds(uint256)":"58a8ba94","setPaymentPerGasUnit(uint256)":"af9dc652","supportsInterface(bytes4)":"01ffc9a7","transferOwnership(address)":"f2fde38b","weth()":"3fc8cef3"},"id":142}