{"abi":[{"type":"constructor","inputs":[{"name":"_clankerSniperAuction","type":"address","internalType":"address"},{"name":"_universalRouter","type":"address","internalType":"address"},{"name":"_permit2","type":"address","internalType":"address"},{"name":"_weth","type":"address","internalType":"address"}],"stateMutability":"nonpayable"},{"type":"function","name":"bidInAuction","inputs":[{"name":"swapParams","type":"tuple","internalType":"struct IV4Router.ExactInputSingleParams","components":[{"name":"poolKey","type":"tuple","internalType":"struct PoolKey","components":[{"name":"currency0","type":"address","internalType":"Currency"},{"name":"currency1","type":"address","internalType":"Currency"},{"name":"fee","type":"uint24","internalType":"uint24"},{"name":"tickSpacing","type":"int24","internalType":"int24"},{"name":"hooks","type":"address","internalType":"contract IHooks"}]},{"name":"zeroForOne","type":"bool","internalType":"bool"},{"name":"amountIn","type":"uint128","internalType":"uint128"},{"name":"amountOutMinimum","type":"uint128","internalType":"uint128"},{"name":"hookData","type":"bytes","internalType":"bytes"}]},{"name":"round","type":"uint256","internalType":"uint256"}],"outputs":[],"stateMutability":"payable"},{"type":"function","name":"getTxGasPriceForBidAmount","inputs":[{"name":"auctionGasPeg","type":"uint256","internalType":"uint256"},{"name":"desiredBidAmount","type":"uint256","internalType":"uint256"}],"outputs":[{"name":"txGasPrice","type":"uint256","internalType":"uint256"}],"stateMutability":"view"},{"type":"event","name":"AuctionSuccessful","inputs":[{"name":"poolId","type":"bytes32","indexed":true,"internalType":"PoolId"},{"name":"round","type":"uint256","indexed":true,"internalType":"uint256"},{"name":"payee","type":"address","indexed":true,"internalType":"address"},{"name":"paymentAmount","type":"uint256","indexed":false,"internalType":"uint256"},{"name":"amountIn","type":"uint256","indexed":false,"internalType":"uint256"},{"name":"amountOut","type":"uint256","indexed":false,"internalType":"uint256"}],"anonymous":false},{"type":"error","name":"AuctionDidNotAdvance","inputs":[]},{"type":"error","name":"GasPriceTooLow","inputs":[]},{"type":"error","name":"InvalidBidAmount","inputs":[]},{"type":"error","name":"InvalidBlock","inputs":[]},{"type":"error","name":"InvalidRound","inputs":[]},{"type":"error","name":"ReentrancyGuardReentrantCall","inputs":[]},{"type":"error","name":"SafeERC20FailedOperation","inputs":[{"name":"token","type":"address","internalType":"address"}]},{"type":"error","name":"ValueBidMismatch","inputs":[]}],"bytecode":{"object":"0x610100346100c657601f6117c738819003918201601f19168301916001600160401b038311848410176100ca578084926080946040528339810103126100c657610048816100de565b90610055602082016100de565b61006d6060610066604085016100de565b93016100de565b60015f556001600160a01b0393841660805290831660a052911660c05260e0526040516116d490816100f3823960805181818160810152610473015260a05181610cdf015260c05181610c4c015260e051816105fd0152f35b5f80fd5b634e487b7160e01b5f52604160045260245ffd5b51906001600160a01b03821682036100c65756fe6080806040526004361015610012575f80fd5b5f905f3560e01c908163c5f00f2814610279575063e4fc58cf14610034575f80fd5b346102765760407ffffffffffffffffffffffffffffffffffffffffffffffffffffffffffffffffc360112610276576004359060243573ffffffffffffffffffffffffffffffffffffffff7f0000000000000000000000000000000000000000000000000000000000000000166040517f11622931000000000000000000000000000000000000000000000000000000008152602081600481855afa90811561026b578491610239575b50801561020c5782066101e457906020600492604051938480927f116229310000000000000000000000000000000000000000000000000000000082525afa9182156101d95783926101a1575b5081156101745704820180921161014757602082604051908152f35b807f4e487b7100000000000000000000000000000000000000000000000000000000602492526011600452fd5b6024837f4e487b710000000000000000000000000000000000000000000000000000000081526012600452fd5b9091506020813d6020116101d1575b816101bd602093836114a3565b810103126101cd5751905f61012b565b5f80fd5b3d91506101b0565b6040513d85823e3d90fd5b6004837fe83664ea000000000000000000000000000000000000000000000000000000008152fd5b6024847f4e487b710000000000000000000000000000000000000000000000000000000081526012600452fd5b90506020813d602011610263575b81610254602093836114a3565b810103126101cd57515f6100de565b3d9150610247565b6040513d86823e3d90fd5b80fd5b905060407ffffffffffffffffffffffffffffffffffffffffffffffffffffffffffffffffc3601126101cd5760043567ffffffffffffffff81116101cd577ffffffffffffffffffffffffffffffffffffffffffffffffffffffffffffffffc8136030161012081126101cd5760a0906102f184611487565b126101cd5760405161030281611487565b61030e826004016114e4565b815261031c602483016114e4565b6020820152604482013562ffffff811681036101cd57604082015260648201358060020b81036101cd576060820152608482013573ffffffffffffffffffffffffffffffffffffffff811681036101cd576080820152825260a48101359081151582036101cd576020830191825261039660c48201611505565b604084019081526103a960e48301611505565b91606085019283526101048101359067ffffffffffffffff82116101cd570191366023840112156101cd57600483013567ffffffffffffffff81116110c9576040519361041e601f83017fffffffffffffffffffffffffffffffffffffffffffffffffffffffffffffffe016602001866114a3565b81855236602482840101116101cd57815f926024602093018388013785010152608085019283526024359360025f541461145f5760025f5560a08651209373ffffffffffffffffffffffffffffffffffffffff7f000000000000000000000000000000000000000000000000000000000000000016966040517f0dd5127d0000000000000000000000000000000000000000000000000000000081528660048201526020816024818c5afa908115611247575f9161142d575b5087148015906113b5575b61138d576040517f383048ca0000000000000000000000000000000000000000000000000000000081528660048201526020816024818c5afa908115611247575f9161135b575b504303611333576040517fcaf1a6800000000000000000000000000000000000000000000000000000000081528660048201526020816024818c5afa908115611247575f91611301575b505f813a0391123a82128116903a83139015161761127a575f81126112d9576040517f116229310000000000000000000000000000000000000000000000000000000081526020816004818d5afa908115611247575f916112a7575b5081810291818304149015171561127a5734036112525773ffffffffffffffffffffffffffffffffffffffff7f000000000000000000000000000000000000000000000000000000000000000016803b156101cd576040517fd0e30db00000000000000000000000000000000000000000000000000000000081525f8160048134865af180156112475761122e575b506040517f095ea7b300000000000000000000000000000000000000000000000000000000815273ffffffffffffffffffffffffffffffffffffffff8a166004820152346024820152906020908290818d81604481015b03925af1801561122357611206575b508251156111db5780519361076d73ffffffffffffffffffffffffffffffffffffffff60208188511697015116955b73ffffffffffffffffffffffffffffffffffffffff6fffffffffffffffffffffffffffffffff89511691604051927f23b872dd0000000000000000000000000000000000000000000000000000000060208501523360248501523060448501526064840152606483526107676084846114a3565b1661164d565b604051306020820152602081526107856040826114a3565b83526024602073ffffffffffffffffffffffffffffffffffffffff60808551015116604051928380927f01ffc9a70000000000000000000000000000000000000000000000000000000082527f85f821790000000000000000000000000000000000000000000000000000000060048301525afa9081156111d0578b916111b1575b501561119257604051306020820152602081526108256040826114a3565b604051906040820182811067ffffffffffffffff82111761116557916108e4916108879360405281526108b88d604051906108616020836114a3565b81526020830190815260405194859360208086015251604080860152608085019061153a565b90517fffffffffffffffffffffffffffffffffffffffffffffffffffffffffffffffc084830301606085015261153a565b037fffffffffffffffffffffffffffffffffffffffffffffffffffffffffffffffe081018352826114a3565b83525b604051927f10000000000000000000000000000000000000000000000000000000000000006020850152600184526109206021856114a3565b604051917f060000000000000000000000000000000000000000000000000000000000000060208401527f0c0000000000000000000000000000000000000000000000000000000000000060218401527f0f000000000000000000000000000000000000000000000000000000000000006022840152600383526109a56023846114a3565b6040519360806109b581876114a3565b600386528991907fffffffffffffffffffffffffffffffffffffffffffffffffffffffffffffffe0018e5b81811061114f5750508751156110f657805197885173ffffffffffffffffffffffffffffffffffffffff16986020015173ffffffffffffffffffffffffffffffffffffffff16946fffffffffffffffffffffffffffffffff60809581610acc966108b8955b73ffffffffffffffffffffffffffffffffffffffff6040519a8b996020808c0152518281511660408c01528260208201511660608c015262ffffff604082015116828c0152606081015160020b60a08c015201511660c089015251151560e0880152511661010086015251166101208401525161012061014084015261016083019061153a565b610ad58461157d565b52610adf8361157d565b506fffffffffffffffffffffffffffffffff8751169473ffffffffffffffffffffffffffffffffffffffff604051911695866020830152604082015260408152610b2a6060826114a3565b610b33846115b7565b52610b3d836115b7565b5073ffffffffffffffffffffffffffffffffffffffff604051911660208201526001604082015260408152610b736060826114a3565b610b7c836115c7565b52610b86826115c7565b50604080519290610b9781856114a3565b600184528b9594939291907fffffffffffffffffffffffffffffffffffffffffffffffffffffffffffffffe001865b8181106110b3575050610bf1916108b8610c219260405194859360406020860152606085019061153a565b907fffffffffffffffffffffffffffffffffffffffffffffffffffffffffffffffe08483030160408501526115d7565b610c2a8261157d565b52610c348161157d565b5073ffffffffffffffffffffffffffffffffffffffff7f0000000000000000000000000000000000000000000000000000000000000000166fffffffffffffffffffffffffffffffff875116604051907f095ea7b3000000000000000000000000000000000000000000000000000000008252826004830152602482015260208160448189895af180156110a85761107b575b5073ffffffffffffffffffffffffffffffffffffffff7f000000000000000000000000000000000000000000000000000000000000000016936fffffffffffffffffffffffffffffffff885116823b1561107757608487928360405195869485937f87517c4500000000000000000000000000000000000000000000000000000000855260048501528a6024850152604484015265ffffffffffff421660648401525af190811561106c578591611057575b5050823b1561105357610dfa92610dca858094604051968795869485937f3593564c00000000000000000000000000000000000000000000000000000000855260606004860152606485019061153a565b907ffffffffffffffffffffffffffffffffffffffffffffffffffffffffffffffffc8483030160248501526115d7565b42604483015203925af180156110485761102f575b505073ffffffffffffffffffffffffffffffffffffffff1693604051947f70a08231000000000000000000000000000000000000000000000000000000008652306004870152602086602481845afa958615610fc1578796610ff9575b506040517fa9059cbb00000000000000000000000000000000000000000000000000000000602082015233602482015260448082018890528152610eba91610eb56064836114a3565b61164d565b6001840190818511610fcc57906020602492604051938480927f0dd5127d0000000000000000000000000000000000000000000000000000000082528860048301525afa918215610fc1578792610f8d575b5003610f65576fffffffffffffffffffffffffffffffff9051169260405193348552602085015260408401527fccf94465bfba95d43b734055ac04ab289c9a66d39a2d4a337edcd2896ce2012b60603394a46001815580f35b6004857fc5e961e1000000000000000000000000000000000000000000000000000000008152fd5b9091506020813d602011610fb9575b81610fa9602093836114a3565b810103126101cd5751905f610f0c565b3d9150610f9c565b6040513d89823e3d90fd5b6024877f4e487b710000000000000000000000000000000000000000000000000000000081526011600452fd5b9095506020813d602011611027575b81611015602093836114a3565b810103126101cd575194610eba610e6c565b3d9150611008565b81611039916114a3565b61104457855f610e0f565b8580fd5b6040513d84823e3d90fd5b8380fd5b81611061916114a3565b61105357835f610d79565b6040513d87823e3d90fd5b8680fd5b61109c9060203d6020116110a1575b61109481836114a3565b810190611522565b610cc7565b503d61108a565b6040513d88823e3d90fd5b606060208683018101919091528e985001610bc6565b7f4e487b71000000000000000000000000000000000000000000000000000000005f52604160045260245ffd5b805197602089015173ffffffffffffffffffffffffffffffffffffffff16985173ffffffffffffffffffffffffffffffffffffffff16946fffffffffffffffffffffffffffffffff60809581610acc966108b895610a45565b60606020828a018101919091528c9450016109e0565b60248d7f4e487b710000000000000000000000000000000000000000000000000000000081526041600452fd5b604051306020820152602081526111aa6040826114a3565b83526108e7565b6111ca915060203d6020116110a15761109481836114a3565b5f610807565b6040513d8d823e3d90fd5b80519361076d73ffffffffffffffffffffffffffffffffffffffff80602088015116965116956106f3565b61121e9060203d6020116110a15761109481836114a3565b6106c4565b6040513d8c823e3d90fd5b6106b59a505f61123d916114a3565b60205f9a5061065e565b6040513d5f823e3d90fd5b7f370ecebd000000000000000000000000000000000000000000000000000000005f5260045ffd5b7f4e487b71000000000000000000000000000000000000000000000000000000005f52601160045260245ffd5b90506020813d6020116112d1575b816112c2602093836114a3565b810103126101cd57515f6105cf565b3d91506112b5565b7f8c19df83000000000000000000000000000000000000000000000000000000005f5260045ffd5b90506020813d60201161132b575b8161131c602093836114a3565b810103126101cd57515f610573565b3d915061130f565b7fbe5a36cf000000000000000000000000000000000000000000000000000000005f5260045ffd5b90506020813d602011611385575b81611376602093836114a3565b810103126101cd57515f610529565b3d9150611369565b7fa2b52a54000000000000000000000000000000000000000000000000000000005f5260045ffd5b506040517f1faf969b0000000000000000000000000000000000000000000000000000000081526020816004818c5afa908115611247575f916113fb575b5087116104e2565b90506020813d602011611425575b81611416602093836114a3565b810103126101cd57515f6113f3565b3d9150611409565b90506020813d602011611457575b81611448602093836114a3565b810103126101cd57515f6104d7565b3d915061143b565b7f3ee5aeb5000000000000000000000000000000000000000000000000000000005f5260045ffd5b60a0810190811067ffffffffffffffff8211176110c957604052565b90601f7fffffffffffffffffffffffffffffffffffffffffffffffffffffffffffffffe0910116810190811067ffffffffffffffff8211176110c957604052565b359073ffffffffffffffffffffffffffffffffffffffff821682036101cd57565b35906fffffffffffffffffffffffffffffffff821682036101cd57565b908160209103126101cd575180151581036101cd5790565b907fffffffffffffffffffffffffffffffffffffffffffffffffffffffffffffffe0601f602080948051918291828752018686015e5f8582860101520116010190565b80511561158a5760200190565b7f4e487b71000000000000000000000000000000000000000000000000000000005f52603260045260245ffd5b80516001101561158a5760400190565b80516002101561158a5760600190565b9080602083519182815201916020808360051b8301019401925f915b83831061160257505050505090565b909192939460208061163e837fffffffffffffffffffffffffffffffffffffffffffffffffffffffffffffffe08660019603018752895161153a565b970193019301919392906115f3565b905f602091828151910182855af115611247575f513d6116cb575073ffffffffffffffffffffffffffffffffffffffff81163b155b6116895750565b73ffffffffffffffffffffffffffffffffffffffff907f5274afe7000000000000000000000000000000000000000000000000000000005f521660045260245ffd5b6001141561168256","linkReferences":{}},"methodIdentifiers":{"bidInAuction(((address,address,uint24,int24,address),bool,uint128,uint128,bytes),uint256)":"c5f00f28","getTxGasPriceForBidAmount(uint256,uint256)":"e4fc58cf"},"id":156}