{"abi":[{"type":"constructor","inputs":[{"name":"_poolManager","type":"address","internalType":"address"},{"name":"_factory","type":"address","internalType":"address"},{"name":"_weth","type":"address","internalType":"address"}],"stateMutability":"nonpayable"},{"type":"function","name":"BPS_DENOMINATOR","inputs":[],"outputs":[{"name":"","type":"uint24","internalType":"uint24"}],"stateMutability":"view"},{"type":"function","name":"FEE_CONTROL_DENOMINATOR","inputs":[],"outputs":[{"name":"","type":"uint256","internalType":"uint256"}],"stateMutability":"view"},{"type":"function","name":"FEE_DENOMINATOR","inputs":[],"outputs":[{"name":"","type":"int128","internalType":"int128"}],"stateMutability":"view"},{"type":"function","name":"MAX_DECAY_FILTER_BPS","inputs":[],"outputs":[{"name":"","type":"uint256","internalType":"uint256"}],"stateMutability":"view"},{"type":"function","name":"MAX_LP_FEE","inputs":[],"outputs":[{"name":"","type":"uint24","internalType":"uint24"}],"stateMutability":"view"},{"type":"function","name":"MAX_MEV_LP_FEE","inputs":[],"outputs":[{"name":"","type":"uint24","internalType":"uint24"}],"stateMutability":"view"},{"type":"function","name":"MAX_MEV_MODULE_DELAY","inputs":[],"outputs":[{"name":"","type":"uint256","internalType":"uint256"}],"stateMutability":"view"},{"type":"function","name":"MIN_BASE_FEE","inputs":[],"outputs":[{"name":"","type":"uint24","internalType":"uint24"}],"stateMutability":"view"},{"type":"function","name":"PROTOCOL_FEE_NUMERATOR","inputs":[],"outputs":[{"name":"","type":"uint256","internalType":"uint256"}],"stateMutability":"view"},{"type":"function","name":"_runPoolExtensionHelper","inputs":[{"name":"poolKey","type":"tuple","internalType":"struct PoolKey","components":[{"name":"currency0","type":"address","internalType":"Currency"},{"name":"currency1","type":"address","internalType":"Currency"},{"name":"fee","type":"uint24","internalType":"uint24"},{"name":"tickSpacing","type":"int24","internalType":"int24"},{"name":"hooks","type":"address","internalType":"contract IHooks"}]},{"name":"swapParams","type":"tuple","internalType":"struct IPoolManager.SwapParams","components":[{"name":"zeroForOne","type":"bool","internalType":"bool"},{"name":"amountSpecified","type":"int256","internalType":"int256"},{"name":"sqrtPriceLimitX96","type":"uint160","internalType":"uint160"}]},{"name":"delta","type":"int256","internalType":"BalanceDelta"},{"name":"swapData","type":"bytes","internalType":"bytes"}],"outputs":[],"stateMutability":"nonpayable"},{"type":"function","name":"afterAddLiquidity","inputs":[{"name":"sender","type":"address","internalType":"address"},{"name":"key","type":"tuple","internalType":"struct PoolKey","components":[{"name":"currency0","type":"address","internalType":"Currency"},{"name":"currency1","type":"address","internalType":"Currency"},{"name":"fee","type":"uint24","internalType":"uint24"},{"name":"tickSpacing","type":"int24","internalType":"int24"},{"name":"hooks","type":"address","internalType":"contract IHooks"}]},{"name":"params","type":"tuple","internalType":"struct IPoolManager.ModifyLiquidityParams","components":[{"name":"tickLower","type":"int24","internalType":"int24"},{"name":"tickUpper","type":"int24","internalType":"int24"},{"name":"liquidityDelta","type":"int256","internalType":"int256"},{"name":"salt","type":"bytes32","internalType":"bytes32"}]},{"name":"delta","type":"int256","internalType":"BalanceDelta"},{"name":"feesAccrued","type":"int256","internalType":"BalanceDelta"},{"name":"hookData","type":"bytes","internalType":"bytes"}],"outputs":[{"name":"","type":"bytes4","internalType":"bytes4"},{"name":"","type":"int256","internalType":"BalanceDelta"}],"stateMutability":"nonpayable"},{"type":"function","name":"afterDonate","inputs":[{"name":"sender","type":"address","internalType":"address"},{"name":"key","type":"tuple","internalType":"struct PoolKey","components":[{"name":"currency0","type":"address","internalType":"Currency"},{"name":"currency1","type":"address","internalType":"Currency"},{"name":"fee","type":"uint24","internalType":"uint24"},{"name":"tickSpacing","type":"int24","internalType":"int24"},{"name":"hooks","type":"address","internalType":"contract IHooks"}]},{"name":"amount0","type":"uint256","internalType":"uint256"},{"name":"amount1","type":"uint256","internalType":"uint256"},{"name":"hookData","type":"bytes","internalType":"bytes"}],"outputs":[{"name":"","type":"bytes4","internalType":"bytes4"}],"stateMutability":"nonpayable"},{"type":"function","name":"afterInitialize","inputs":[{"name":"sender","type":"address","internalType":"address"},{"name":"key","type":"tuple","internalType":"struct PoolKey","components":[{"name":"currency0","type":"address","internalType":"Currency"},{"name":"currency1","type":"address","internalType":"Currency"},{"name":"fee","type":"uint24","internalType":"uint24"},{"name":"tickSpacing","type":"int24","internalType":"int24"},{"name":"hooks","type":"address","internalType":"contract IHooks"}]},{"name":"sqrtPriceX96","type":"uint160","internalType":"uint160"},{"name":"tick","type":"int24","internalType":"int24"}],"outputs":[{"name":"","type":"bytes4","internalType":"bytes4"}],"stateMutability":"nonpayable"},{"type":"function","name":"afterRemoveLiquidity","inputs":[{"name":"sender","type":"address","internalType":"address"},{"name":"key","type":"tuple","internalType":"struct PoolKey","components":[{"name":"currency0","type":"address","internalType":"Currency"},{"name":"currency1","type":"address","internalType":"Currency"},{"name":"fee","type":"uint24","internalType":"uint24"},{"name":"tickSpacing","type":"int24","internalType":"int24"},{"name":"hooks","type":"address","internalType":"contract IHooks"}]},{"name":"params","type":"tuple","internalType":"struct IPoolManager.ModifyLiquidityParams","components":[{"name":"tickLower","type":"int24","internalType":"int24"},{"name":"tickUpper","type":"int24","internalType":"int24"},{"name":"liquidityDelta","type":"int256","internalType":"int256"},{"name":"salt","type":"bytes32","internalType":"bytes32"}]},{"name":"delta","type":"int256","internalType":"BalanceDelta"},{"name":"feesAccrued","type":"int256","internalType":"BalanceDelta"},{"name":"hookData","type":"bytes","internalType":"bytes"}],"outputs":[{"name":"","type":"bytes4","internalType":"bytes4"},{"name":"","type":"int256","internalType":"BalanceDelta"}],"stateMutability":"nonpayable"},{"type":"function","name":"afterSwap","inputs":[{"name":"sender","type":"address","internalType":"address"},{"name":"key","type":"tuple","internalType":"struct PoolKey","components":[{"name":"currency0","type":"address","internalType":"Currency"},{"name":"currency1","type":"address","internalType":"Currency"},{"name":"fee","type":"uint24","internalType":"uint24"},{"name":"tickSpacing","type":"int24","internalType":"int24"},{"name":"hooks","type":"address","internalType":"contract IHooks"}]},{"name":"params","type":"tuple","internalType":"struct IPoolManager.SwapParams","components":[{"name":"zeroForOne","type":"bool","internalType":"bool"},{"name":"amountSpecified","type":"int256","internalType":"int256"},{"name":"sqrtPriceLimitX96","type":"uint160","internalType":"uint160"}]},{"name":"delta","type":"int256","internalType":"BalanceDelta"},{"name":"hookData","type":"bytes","internalType":"bytes"}],"outputs":[{"name":"","type":"bytes4","internalType":"bytes4"},{"name":"","type":"int128","internalType":"int128"}],"stateMutability":"nonpayable"},{"type":"function","name":"beforeAddLiquidity","inputs":[{"name":"sender","type":"address","internalType":"address"},{"name":"key","type":"tuple","internalType":"struct PoolKey","components":[{"name":"currency0","type":"address","internalType":"Currency"},{"name":"currency1","type":"address","internalType":"Currency"},{"name":"fee","type":"uint24","internalType":"uint24"},{"name":"tickSpacing","type":"int24","internalType":"int24"},{"name":"hooks","type":"address","internalType":"contract IHooks"}]},{"name":"params","type":"tuple","internalType":"struct IPoolManager.ModifyLiquidityParams","components":[{"name":"tickLower","type":"int24","internalType":"int24"},{"name":"tickUpper","type":"int24","internalType":"int24"},{"name":"liquidityDelta","type":"int256","internalType":"int256"},{"name":"salt","type":"bytes32","internalType":"bytes32"}]},{"name":"hookData","type":"bytes","internalType":"bytes"}],"outputs":[{"name":"","type":"bytes4","internalType":"bytes4"}],"stateMutability":"nonpayable"},{"type":"function","name":"beforeDonate","inputs":[{"name":"sender","type":"address","internalType":"address"},{"name":"key","type":"tuple","internalType":"struct PoolKey","components":[{"name":"currency0","type":"address","internalType":"Currency"},{"name":"currency1","type":"address","internalType":"Currency"},{"name":"fee","type":"uint24","internalType":"uint24"},{"name":"tickSpacing","type":"int24","internalType":"int24"},{"name":"hooks","type":"address","internalType":"contract IHooks"}]},{"name":"amount0","type":"uint256","internalType":"uint256"},{"name":"amount1","type":"uint256","internalType":"uint256"},{"name":"hookData","type":"bytes","internalType":"bytes"}],"outputs":[{"name":"","type":"bytes4","internalType":"bytes4"}],"stateMutability":"nonpayable"},{"type":"function","name":"beforeInitialize","inputs":[{"name":"sender","type":"address","internalType":"address"},{"name":"key","type":"tuple","internalType":"struct PoolKey","components":[{"name":"currency0","type":"address","internalType":"Currency"},{"name":"currency1","type":"address","internalType":"Currency"},{"name":"fee","type":"uint24","internalType":"uint24"},{"name":"tickSpacing","type":"int24","internalType":"int24"},{"name":"hooks","type":"address","internalType":"contract IHooks"}]},{"name":"sqrtPriceX96","type":"uint160","internalType":"uint160"}],"outputs":[{"name":"","type":"bytes4","internalType":"bytes4"}],"stateMutability":"nonpayable"},{"type":"function","name":"beforeRemoveLiquidity","inputs":[{"name":"sender","type":"address","internalType":"address"},{"name":"key","type":"tuple","internalType":"struct PoolKey","components":[{"name":"currency0","type":"address","internalType":"Currency"},{"name":"currency1","type":"address","internalType":"Currency"},{"name":"fee","type":"uint24","internalType":"uint24"},{"name":"tickSpacing","type":"int24","internalType":"int24"},{"name":"hooks","type":"address","internalType":"contract IHooks"}]},{"name":"params","type":"tuple","internalType":"struct IPoolManager.ModifyLiquidityParams","components":[{"name":"tickLower","type":"int24","internalType":"int24"},{"name":"tickUpper","type":"int24","internalType":"int24"},{"name":"liquidityDelta","type":"int256","internalType":"int256"},{"name":"salt","type":"bytes32","internalType":"bytes32"}]},{"name":"hookData","type":"bytes","internalType":"bytes"}],"outputs":[{"name":"","type":"bytes4","internalType":"bytes4"}],"stateMutability":"nonpayable"},{"type":"function","name":"beforeSwap","inputs":[{"name":"sender","type":"address","internalType":"address"},{"name":"key","type":"tuple","internalType":"struct PoolKey","components":[{"name":"currency0","type":"address","internalType":"Currency"},{"name":"currency1","type":"address","internalType":"Currency"},{"name":"fee","type":"uint24","internalType":"uint24"},{"name":"tickSpacing","type":"int24","internalType":"int24"},{"name":"hooks","type":"address","internalType":"contract IHooks"}]},{"name":"params","type":"tuple","internalType":"struct IPoolManager.SwapParams","components":[{"name":"zeroForOne","type":"bool","internalType":"bool"},{"name":"amountSpecified","type":"int256","internalType":"int256"},{"name":"sqrtPriceLimitX96","type":"uint160","internalType":"uint160"}]},{"name":"hookData","type":"bytes","internalType":"bytes"}],"outputs":[{"name":"","type":"bytes4","internalType":"bytes4"},{"name":"","type":"int256","internalType":"BeforeSwapDelta"},{"name":"","type":"uint24","internalType":"uint24"}],"stateMutability":"nonpayable"},{"type":"function","name":"clankerIsToken0","inputs":[{"name":"","type":"bytes32","internalType":"PoolId"}],"outputs":[{"name":"","type":"bool","internalType":"bool"}],"stateMutability":"view"},{"type":"function","name":"factory","inputs":[],"outputs":[{"name":"","type":"address","internalType":"address"}],"stateMutability":"view"},{"type":"function","name":"getHookPermissions","inputs":[],"outputs":[{"name":"","type":"tuple","internalType":"struct Hooks.Permissions","components":[{"name":"beforeInitialize","type":"bool","internalType":"bool"},{"name":"afterInitialize","type":"bool","internalType":"bool"},{"name":"beforeAddLiquidity","type":"bool","internalType":"bool"},{"name":"afterAddLiquidity","type":"bool","internalType":"bool"},{"name":"beforeRemoveLiquidity","type":"bool","internalType":"bool"},{"name":"afterRemoveLiquidity","type":"bool","internalType":"bool"},{"name":"beforeSwap","type":"bool","internalType":"bool"},{"name":"afterSwap","type":"bool","internalType":"bool"},{"name":"beforeDonate","type":"bool","internalType":"bool"},{"name":"afterDonate","type":"bool","internalType":"bool"},{"name":"beforeSwapReturnDelta","type":"bool","internalType":"bool"},{"name":"afterSwapReturnDelta","type":"bool","internalType":"bool"},{"name":"afterAddLiquidityReturnDelta","type":"bool","internalType":"bool"},{"name":"afterRemoveLiquidityReturnDelta","type":"bool","internalType":"bool"}]}],"stateMutability":"pure"},{"type":"function","name":"initializeMevModule","inputs":[{"name":"poolKey","type":"tuple","internalType":"struct PoolKey","components":[{"name":"currency0","type":"address","internalType":"Currency"},{"name":"currency1","type":"address","internalType":"Currency"},{"name":"fee","type":"uint24","internalType":"uint24"},{"name":"tickSpacing","type":"int24","internalType":"int24"},{"name":"hooks","type":"address","internalType":"contract IHooks"}]},{"name":"mevModuleData","type":"bytes","internalType":"bytes"}],"outputs":[],"stateMutability":"nonpayable"},{"type":"function","name":"initializePool","inputs":[{"name":"clanker","type":"address","internalType":"address"},{"name":"pairedToken","type":"address","internalType":"address"},{"name":"tickIfToken0IsClanker","type":"int24","internalType":"int24"},{"name":"tickSpacing","type":"int24","internalType":"int24"},{"name":"_locker","type":"address","internalType":"address"},{"name":"_mevModule","type":"address","internalType":"address"},{"name":"poolData","type":"bytes","internalType":"bytes"}],"outputs":[{"name":"","type":"tuple","internalType":"struct PoolKey","components":[{"name":"currency0","type":"address","internalType":"Currency"},{"name":"currency1","type":"address","internalType":"Currency"},{"name":"fee","type":"uint24","internalType":"uint24"},{"name":"tickSpacing","type":"int24","internalType":"int24"},{"name":"hooks","type":"address","internalType":"contract IHooks"}]}],"stateMutability":"nonpayable"},{"type":"function","name":"initializePoolOpen","inputs":[{"name":"clanker","type":"address","internalType":"address"},{"name":"pairedToken","type":"address","internalType":"address"},{"name":"tickIfToken0IsClanker","type":"int24","internalType":"int24"},{"name":"tickSpacing","type":"int24","internalType":"int24"},{"name":"poolData","type":"bytes","internalType":"bytes"}],"outputs":[{"name":"","type":"tuple","internalType":"struct PoolKey","components":[{"name":"currency0","type":"address","internalType":"Currency"},{"name":"currency1","type":"address","internalType":"Currency"},{"name":"fee","type":"uint24","internalType":"uint24"},{"name":"tickSpacing","type":"int24","internalType":"int24"},{"name":"hooks","type":"address","internalType":"contract IHooks"}]}],"stateMutability":"nonpayable"},{"type":"function","name":"locker","inputs":[{"name":"","type":"bytes32","internalType":"PoolId"}],"outputs":[{"name":"","type":"address","internalType":"address"}],"stateMutability":"view"},{"type":"function","name":"mevModule","inputs":[{"name":"","type":"bytes32","internalType":"PoolId"}],"outputs":[{"name":"","type":"address","internalType":"address"}],"stateMutability":"view"},{"type":"function","name":"mevModuleEnabled","inputs":[{"name":"","type":"bytes32","internalType":"PoolId"}],"outputs":[{"name":"","type":"bool","internalType":"bool"}],"stateMutability":"view"},{"type":"function","name":"mevModuleOperational","inputs":[{"name":"poolId","type":"bytes32","internalType":"PoolId"}],"outputs":[{"name":"","type":"bool","internalType":"bool"}],"stateMutability":"nonpayable"},{"type":"function","name":"mevModuleSetFee","inputs":[{"name":"poolKey","type":"tuple","internalType":"struct PoolKey","components":[{"name":"currency0","type":"address","internalType":"Currency"},{"name":"currency1","type":"address","internalType":"Currency"},{"name":"fee","type":"uint24","internalType":"uint24"},{"name":"tickSpacing","type":"int24","internalType":"int24"},{"name":"hooks","type":"address","internalType":"contract IHooks"}]},{"name":"fee","type":"uint24","internalType":"uint24"}],"outputs":[],"stateMutability":"nonpayable"},{"type":"function","name":"poolConfigVars","inputs":[{"name":"poolId","type":"bytes32","internalType":"PoolId"}],"outputs":[{"name":"","type":"tuple","internalType":"struct IClankerHookDynamicFee.PoolDynamicConfigVars","components":[{"name":"baseFee","type":"uint24","internalType":"uint24"},{"name":"maxLpFee","type":"uint24","internalType":"uint24"},{"name":"referenceTickFilterPeriod","type":"uint256","internalType":"uint256"},{"name":"resetPeriod","type":"uint256","internalType":"uint256"},{"name":"resetTickFilter","type":"int24","internalType":"int24"},{"name":"feeControlNumerator","type":"uint256","internalType":"uint256"},{"name":"decayFilterBps","type":"uint24","internalType":"uint24"}]}],"stateMutability":"view"},{"type":"function","name":"poolCreationTimestamp","inputs":[{"name":"","type":"bytes32","internalType":"PoolId"}],"outputs":[{"name":"","type":"uint256","internalType":"uint256"}],"stateMutability":"view"},{"type":"function","name":"poolExtension","inputs":[{"name":"","type":"bytes32","internalType":"PoolId"}],"outputs":[{"name":"","type":"address","internalType":"address"}],"stateMutability":"view"},{"type":"function","name":"poolFeeVars","inputs":[{"name":"poolId","type":"bytes32","internalType":"PoolId"}],"outputs":[{"name":"","type":"tuple","internalType":"struct IClankerHookDynamicFee.PoolDynamicFeeVars","components":[{"name":"referenceTick","type":"int24","internalType":"int24"},{"name":"resetTick","type":"int24","internalType":"int24"},{"name":"resetTickTimestamp","type":"uint256","internalType":"uint256"},{"name":"lastSwapTimestamp","type":"uint256","internalType":"uint256"},{"name":"appliedVR","type":"uint24","internalType":"uint24"},{"name":"prevVA","type":"uint24","internalType":"uint24"}]}],"stateMutability":"view"},{"type":"function","name":"poolManager","inputs":[],"outputs":[{"name":"","type":"address","internalType":"contract IPoolManager"}],"stateMutability":"view"},{"type":"function","name":"protocolFee","inputs":[],"outputs":[{"name":"","type":"uint24","internalType":"uint24"}],"stateMutability":"view"},{"type":"function","name":"simulateSwap","inputs":[{"name":"poolKey","type":"tuple","internalType":"struct PoolKey","components":[{"name":"currency0","type":"address","internalType":"Currency"},{"name":"currency1","type":"address","internalType":"Currency"},{"name":"fee","type":"uint24","internalType":"uint24"},{"name":"tickSpacing","type":"int24","internalType":"int24"},{"name":"hooks","type":"address","internalType":"contract IHooks"}]},{"name":"swapParams","type":"tuple","internalType":"struct IPoolManager.SwapParams","components":[{"name":"zeroForOne","type":"bool","internalType":"bool"},{"name":"amountSpecified","type":"int256","internalType":"int256"},{"name":"sqrtPriceLimitX96","type":"uint160","internalType":"uint160"}]}],"outputs":[],"stateMutability":"nonpayable"},{"type":"function","name":"supportsInterface","inputs":[{"name":"interfaceId","type":"bytes4","internalType":"bytes4"}],"outputs":[{"name":"","type":"bool","internalType":"bool"}],"stateMutability":"pure"},{"type":"function","name":"weth","inputs":[],"outputs":[{"name":"","type":"address","internalType":"address"}],"stateMutability":"view"},{"type":"event","name":"ClaimProtocolFees","inputs":[{"name":"token","type":"address","indexed":true,"internalType":"address"},{"name":"amount","type":"uint256","indexed":false,"internalType":"uint256"}],"anonymous":false},{"type":"event","name":"EstimatedTickDifference","inputs":[{"name":"beforeTick","type":"int24","indexed":false,"internalType":"int24"},{"name":"afterTick","type":"int24","indexed":false,"internalType":"int24"}],"anonymous":false},{"type":"event","name":"MevModuleDisabled","inputs":[{"name":"","type":"bytes32","indexed":false,"internalType":"PoolId"}],"anonymous":false},{"type":"event","name":"MevModuleSetFee","inputs":[{"name":"poolId","type":"bytes32","indexed":false,"internalType":"PoolId"},{"name":"fee","type":"uint24","indexed":false,"internalType":"uint24"}],"anonymous":false},{"type":"event","name":"PoolCreatedFactory","inputs":[{"name":"pairedToken","type":"address","indexed":true,"internalType":"address"},{"name":"clanker","type":"address","indexed":true,"internalType":"address"},{"name":"poolId","type":"bytes32","indexed":false,"internalType":"PoolId"},{"name":"tickIfToken0IsClanker","type":"int24","indexed":false,"internalType":"int24"},{"name":"tickSpacing","type":"int24","indexed":false,"internalType":"int24"},{"name":"locker","type":"address","indexed":false,"internalType":"address"},{"name":"mevModule","type":"address","indexed":false,"internalType":"address"}],"anonymous":false},{"type":"event","name":"PoolCreatedOpen","inputs":[{"name":"pairedToken","type":"address","indexed":true,"internalType":"address"},{"name":"clanker","type":"address","indexed":true,"internalType":"address"},{"name":"poolId","type":"bytes32","indexed":false,"internalType":"PoolId"},{"name":"tickIfToken0IsClanker","type":"int24","indexed":false,"internalType":"int24"},{"name":"tickSpacing","type":"int24","indexed":false,"internalType":"int24"}],"anonymous":false},{"type":"event","name":"PoolExtensionFailed","inputs":[{"name":"poolId","type":"bytes32","indexed":false,"internalType":"PoolId"},{"name":"swapParams","type":"tuple","indexed":false,"internalType":"struct IPoolManager.SwapParams","components":[{"name":"zeroForOne","type":"bool","internalType":"bool"},{"name":"amountSpecified","type":"int256","internalType":"int256"},{"name":"sqrtPriceLimitX96","type":"uint160","internalType":"uint160"}]}],"anonymous":false},{"type":"event","name":"PoolExtensionRegistered","inputs":[{"name":"poolId","type":"bytes32","indexed":true,"internalType":"PoolId"},{"name":"extension","type":"address","indexed":true,"internalType":"address"}],"anonymous":false},{"type":"event","name":"PoolExtensionSuccess","inputs":[{"name":"poolId","type":"bytes32","indexed":false,"internalType":"PoolId"}],"anonymous":false},{"type":"event","name":"PoolInitialized","inputs":[{"name":"poolId","type":"bytes32","indexed":false,"internalType":"PoolId"},{"name":"baseFee","type":"uint24","indexed":false,"internalType":"uint24"},{"name":"maxLpFee","type":"uint24","indexed":false,"internalType":"uint24"},{"name":"referenceTickFilterPeriod","type":"uint256","indexed":false,"internalType":"uint256"},{"name":"resetPeriod","type":"uint256","indexed":false,"internalType":"uint256"},{"name":"resetTickFilter","type":"int24","indexed":false,"internalType":"int24"},{"name":"feeControlNumerator","type":"uint256","indexed":false,"internalType":"uint256"},{"name":"decayFilterBps","type":"uint24","indexed":false,"internalType":"uint24"}],"anonymous":false},{"type":"error","name":"BaseFeeGreaterThanMaxLpFee","inputs":[]},{"type":"error","name":"BaseFeeTooLow","inputs":[]},{"type":"error","name":"ETHPoolNotAllowed","inputs":[]},{"type":"error","name":"HookNotImplemented","inputs":[]},{"type":"error","name":"MaxLpFeeTooHigh","inputs":[]},{"type":"error","name":"MevModuleEnabled","inputs":[]},{"type":"error","name":"MevModuleNotOperational","inputs":[]},{"type":"error","name":"NotPoolManager","inputs":[]},{"type":"error","name":"OnlyFactory","inputs":[]},{"type":"error","name":"OnlyFactoryPoolsCanHaveExtensions","inputs":[]},{"type":"error","name":"OnlyThis","inputs":[]},{"type":"error","name":"PastCreationTimestamp","inputs":[]},{"type":"error","name":"TickReturned","inputs":[{"name":"tick","type":"int24","internalType":"int24"}]},{"type":"error","name":"Unauthorized","inputs":[]},{"type":"error","name":"UnsupportedInitializePath","inputs":[]},{"type":"error","name":"WethCannotBeClanker","inputs":[]}],"bytecode":{"object":"0x60e06040523461030f57604051601f61505e38819003918201601f19168301916001600160401b038311848410176103135780849260609460405283398101031261030f5761004d81610347565b90610066604061005f60208401610347565b9201610347565b6001600160a01b039092166080525f6101a0610080610327565b8281528260208201528260408201528260608201528260808201528260a08201528260c08201528260e0820152826101008201528261012082015282610140820152826101608201528261018082015201525f6101a06100de610327565b60018152826020820152600160408201528260608201528260808201528260a0820152600160c0820152600160e082015282610100820152826101208201526001610140820152600161016082015282610180820152015261200030161515600114801590610302575b80156102f1575b80156102e4575b80156102d7575b80156102ca575b80156102ba575b80156102aa575b801561029e575b8015610292575b8015610282575b8015610272575b8015610266575b801561025a575b6102475760a05260c052604051614d02908161035c82396080518181816107a30152818161084301528181610d96015281816111880152818161122a015281816116510152818161190701528181611d87015281816121a00152818161220c015281816128a401528181612f9401528181613a73015261419e015260a05181818161035301528181611e3b0152818161259c01526142d6015260c05181818161096e0152610ad20152f35b630732d7b560e51b5f523060045260245ffd5b5060013016151561019c565b50600230161515610195565b506004301615156001141561018e565b5060083016151560011415610187565b50601030161515610180565b50602030161515610179565b5060403016151560011415610172565b506080301615156001141561016b565b5061010030161515610164565b506102003016151561015d565b5061040030161515610156565b50610800301615156001141561014f565b5061100030161515610148565b5f80fd5b634e487b7160e01b5f52604160045260245ffd5b604051906101c082016001600160401b0381118382101761031357604052565b51906001600160a01b038216820361030f5756fe60806040526004361015610011575f80fd5b5f3560e01c8063015e3c291461028a57806301ffc9a71461028557806307eda3da1461028057806321d0ee701461027b578063259982e5146102765780632b887e0f14610271578063334e83671461026c5780633fc48eba146102675780633fc8cef3146102625780634468979e1461025d5780634c2b2876146102585780635339b03b14610253578063564d49e71461024e578063575e24b41461024957806358f8cd541461024457806369b84eb11461023f5780636c2bbe7e146102265780636fe7e6eb1461023a5780637f5464f414610235578063844dbde614610230578063949d32e01461022b5780639f063efc14610226578063ac3e6ec914610221578063b0e21e8a1461021c578063b306651514610217578063b47b2fb114610212578063b6a8b0fa146101e0578063bdf228631461020d578063c45a015514610208578063c4e833ce14610203578063ca946313146101fe578063ccc8dc43146101f9578063d73792a9146101f4578063dc4c90d3146101ef578063dc98354e146101ea578063e1a45218146101e5578063e1b4af69146101e0578063e98a4297146101db578063ea78e61a146101d65763ee4d96cf146101d1575f80fd5b61239d565b612381565b612276565b611d5c565b61225a565b6121c4565b612174565b612157565b61213c565b61200c565b611f1a565b611e0f565b611dd5565b611898565b61158a565b611415565b6113db565b61115c565b6113be565b6112b4565b611285565b6111d6565b6110c0565b61109e565b610d2b565b610c2c565b610c0d565b610a34565b610992565b610942565b610925565b610908565b6108d5565b610819565b610779565b610699565b6105e6565b610301565b60031960a09101126102a057600490565b5f80fd5b7fffffffffffffffffffffffffffffffffffffffffffffffffffffffffffffffdc60a09101126102a057602490565b9181601f840112156102a05782359167ffffffffffffffff83116102a057602083818601950101116102a057565b346102a05760c06003193601126102a05761031b3661028f565b60a43567ffffffffffffffff81116102a05761033b9036906004016102d3565b9073ffffffffffffffffffffffffffffffffffffffff7f00000000000000000000000000000000000000000000000000000000000000001633036105be576103da6103c16103c16103a761039961039236896123c1565b60a0902090565b5f52600360205260405f2090565b5473ffffffffffffffffffffffffffffffffffffffff1690565b73ffffffffffffffffffffffffffffffffffffffff1690565b91823b156102a05761041f925f92836040518096819582947f645a15340000000000000000000000000000000000000000000000000000000084528a600485016124ee565b03925af180156105a5576105aa575b5073ffffffffffffffffffffffffffffffffffffffff6104656103a761045761039236866123c1565b5f52600660205260405f2090565b166104ba575b61048d61047f6103926104b89336906123c1565b5f52600460205260405f2090565b60017fffffffffffffffffffffffffffffffffffffffffffffffffffffffffffffff00825416179055565b005b6104d36103c16103c16103a761045761039236876123c1565b906104f56103a76104e761039236856123c1565b5f52600260205260405f2090565b61051d61051661050861039236866123c1565b5f52600160205260405f2090565b5460ff1690565b833b156102a057610561935f92836040518097819582947f99e1ebae000000000000000000000000000000000000000000000000000000008452896004850161251a565b03925af19182156105a55761039261048d9261047f926104b89561058b575b50935050505061046b565b806105995f61059f93611511565b806108fe565b5f610580565b61250f565b806105995f6105b893611511565b5f61042e565b7f0c6d42ae000000000000000000000000000000000000000000000000000000005f5260045ffd5b346102a05760206003193601126102a0576004357fffffffff0000000000000000000000000000000000000000000000000000000081168091036102a057807f1ac7941f000000000000000000000000000000000000000000000000000000006020921490811561065d575b506040519015158152f35b7f85f82179000000000000000000000000000000000000000000000000000000009150145f610652565b60031960209101126102a05760043590565b346102a0576106a736610687565b5f526001602052602060ff60405f2054166040519015158152f35b73ffffffffffffffffffffffffffffffffffffffff8116036102a057565b906101606003198301126102a0576004356106fa816106c2565b9160a07fffffffffffffffffffffffffffffffffffffffffffffffffffffffffffffffdc8201126102a05760249160807fffffffffffffffffffffffffffffffffffffffffffffffffffffffffffffff3c8301126102a05760c491610144359067ffffffffffffffff82116102a057610775916004016102d3565b9091565b346102a057610787366106e0565b505050505073ffffffffffffffffffffffffffffffffffffffff7f00000000000000000000000000000000000000000000000000000000000000001633036107f1577f0a85dc29000000000000000000000000000000000000000000000000000000005f5260045ffd5b7fae18210a000000000000000000000000000000000000000000000000000000005f5260045ffd5b346102a057610827366106e0565b505050905073ffffffffffffffffffffffffffffffffffffffff7f00000000000000000000000000000000000000000000000000000000000000001633036107f15760a061087961087f9236906123c1565b20612774565b6108ad5760206040517f259982e5000000000000000000000000000000000000000000000000000000008152f35b7f678a240e000000000000000000000000000000000000000000000000000000005f5260045ffd5b346102a0576108e336610687565b5f526004602052602060ff60405f2054166040519015158152f35b5f9103126102a057565b346102a0575f6003193601126102a057602060405162030d408152f35b346102a0575f6003193601126102a0576020604051620186a08152f35b346102a0575f6003193601126102a057602060405173ffffffffffffffffffffffffffffffffffffffff7f0000000000000000000000000000000000000000000000000000000000000000168152f35b346102a0576109a036610687565b5f526002602052602073ffffffffffffffffffffffffffffffffffffffff60405f205416604051908152f35b8060020b036102a057565b610a329092919260a081019373ffffffffffffffffffffffffffffffffffffffff6080809282815116855282602082015116602086015262ffffff6040820151166040860152606081015160020b6060860152015116910152565b565b346102a05760a06003193601126102a057600435610a51816106c2565b602435610a5d816106c2565b60443591610a6a836109cc565b60643592610a77846109cc565b60843567ffffffffffffffff81116102a057610a979036906004016102d3565b610aa2939193612551565b5073ffffffffffffffffffffffffffffffffffffffff82169373ffffffffffffffffffffffffffffffffffffffff7f0000000000000000000000000000000000000000000000000000000000000000168514610be557868487610b0495612e20565b9260a084205f52600660205273ffffffffffffffffffffffffffffffffffffffff610b4760405f2073ffffffffffffffffffffffffffffffffffffffff90541690565b16610bbd5760a0842060408051918252600293840b60208301529590920b94820194909452610bb99373ffffffffffffffffffffffffffffffffffffffff16907f09cc09ed021cf0d9112cf6d1bdc8689bfedd367df1ac5a550dfd6a07955b8d1990606090a3604051918291826109d7565b0390f35b7fdc8e26b5000000000000000000000000000000000000000000000000000000005f5260045ffd5b7f60456f43000000000000000000000000000000000000000000000000000000005f5260045ffd5b346102a0575f6003193601126102a05760206040516402540be4008152f35b346102a05760e06003193601126102a057600435610c49816106c2565b60243590610c56826106c2565b60443591610c63836109cc565b60643591610c70836109cc565b608435610c7c816106c2565b60a43590610c89826106c2565b60c4359467ffffffffffffffff86116102a057610bb996610cb1610cc19736906004016102d3565b969095610cbc612551565b61257b565b604051918291826109d7565b7fffffffffffffffffffffffffffffffffffffffffffffffffffffffffffffff3c60609101126102a05760c490565b7fffffffffffffffffffffffffffffffffffffffffffffffffffffffffffffff5c60609101126102a05760a490565b346102a0576101406003193601126102a057610d486004356106c2565b610d51366102a4565b610d5a36610ccd565b906101243567ffffffffffffffff81116102a057610d7c9036906004016102d3565b92909173ffffffffffffffffffffffffffffffffffffffff7f000000000000000000000000000000000000000000000000000000000000000016938433036107f157610de7905f94610dce8585613a3d565b610dd784614163565b610de0846143ba565b84846145a3565b610dfa61051661050861039236856123c1565b916020610e06826130b2565b910135901515831515145f82128080611096575b610f95575b159081610f8d575b50610e68575b604080517f575e24b4000000000000000000000000000000000000000000000000000000008152602081018690525f91810191909152606090f35b610edd91929350610ec9610ed7916fffffffffffffffffffffffffffffffff610ebf610e975f5462ffffff1690565b610eb9610eb1610eab62ffffff84166129e6565b92612b1c565b62ffffff1690565b90612a37565b16600f0b90612ac3565b670de0b6b3a7640000900590565b600f0b90565b90610ee88260801b90565b9215610f7c576103c16020610efd92016130bc565b833b156102a0576040517f156e29f60000000000000000000000000000000000000000000000000000000081523060048201526024810191909152600f9190910b6044820152915f908390606490829084905af19182156105a557610bb992610f68575b8080610e2d565b806105995f610f7693611511565b5f610f61565b6103c1610f88916130bc565b610efd565b90505f610e27565b9450610ff0610ed7610ec9610fea610ed76fffffffffffffffffffffffffffffffff610fe1610fc75f5462ffffff1690565b610eb9610eb1610fdb62ffffff84166129e6565b92612a20565b16600f0b612a94565b85612ac3565b94610ffb8660801b90565b958515611084576110116103c1602087016130bc565b905b883b156102a0576040517f156e29f60000000000000000000000000000000000000000000000000000000081523060048201526024810192909252600f0b60448201525f81606481838c5af180156105a557611070575b50610e1f565b806105995f61107e93611511565b5f61106a565b6110906103c1866130bc565b90611013565b508115610e1a565b346102a05760206110b66110b136610687565b612774565b6040519015158152f35b346102a0575f6003193601126102a05760206040516175308152f35b906101a06003198301126102a0576004356110f6816106c2565b9160a07fffffffffffffffffffffffffffffffffffffffffffffffffffffffffffffffdc8201126102a057602491608060c48303126102a05760c49161014435916101643591610184359067ffffffffffffffff82116102a057610775916004016102d3565b346102a05761116a366110dc565b5050505050505073ffffffffffffffffffffffffffffffffffffffff7f00000000000000000000000000000000000000000000000000000000000000001633036107f1577f0a85dc29000000000000000000000000000000000000000000000000000000005f5260045ffd5b346102a0576101006003193601126102a0576111f36004356106c2565b6111fc366102a4565b5061120860c4356106c2565b61121360e4356109cc565b73ffffffffffffffffffffffffffffffffffffffff7f00000000000000000000000000000000000000000000000000000000000000001633036107f1577f0a85dc29000000000000000000000000000000000000000000000000000000005f5260045ffd5b62ffffff8116036102a057565b346102a05760c06003193601126102a0576104b86112a23661028f565b60a435906112af82611278565b612846565b346102a0576112c236610687565b5f60a06040516112d181611463565b82815282602082015282604082015282606082015282608082015201525f526007602052610bb960405f2061136c61136060036040519361131185611463565b80548060020b865260181c60020b6020860152600181015460408601526002810154606086015201546113556113498262ffffff1690565b62ffffff166080860152565b60181c62ffffff1690565b62ffffff1660a0830152565b6040519182918291909160a062ffffff8160c0840195805160020b8552602081015160020b60208601526040810151604086015260608101516060860152826080820151166080860152015116910152565b346102a0575f6003193601126102a0576020604051620c35008152f35b346102a0576113e936610687565b5f526006602052602073ffffffffffffffffffffffffffffffffffffffff60405f205416604051908152f35b346102a0575f6003193601126102a057602062ffffff5f5416604051908152f35b7f4e487b71000000000000000000000000000000000000000000000000000000005f52604160045260245ffd5b60c0810190811067ffffffffffffffff82111761147f57604052565b611436565b6060810190811067ffffffffffffffff82111761147f57604052565b6101c0810190811067ffffffffffffffff82111761147f57604052565b60e0810190811067ffffffffffffffff82111761147f57604052565b60a0810190811067ffffffffffffffff82111761147f57604052565b6040810190811067ffffffffffffffff82111761147f57604052565b90601f7fffffffffffffffffffffffffffffffffffffffffffffffffffffffffffffffe0910116810190811067ffffffffffffffff82111761147f57604052565b60405190610a326101c083611511565b60405190610a3260a083611511565b60405190610a32604083611511565b801515036102a057565b346102a0576101006003193601126102a0576115a53661028f565b60607fffffffffffffffffffffffffffffffffffffffffffffffffffffffffffffff5c3601126102a057604051906115dc82611484565b60a4356115e881611580565b825260c435916020810192835260e435611601816106c2565b6040820152303303611813576116b79261162461051661050861039236876123c1565b8251825191151590151514905f13808061180b575b6117b3575b1590816117ab575b5061175d575b5060207f000000000000000000000000000000000000000000000000000000000000000091604051905f82526116828383611511565b60405195869283927ff3cd914c0000000000000000000000000000000000000000000000000000000084528760048501612b85565b03815f73ffffffffffffffffffffffffffffffffffffffff86165af19283156105a5576103926116fc936116f69261172d96611730575b5036906123c1565b906130c6565b50507f34ceaf9e000000000000000000000000000000000000000000000000000000005f5260020b60045250602490565b5ffd5b6117519060203d602011611756575b6117498183611511565b810190612b33565b6116ee565b503d61173f565b6117a3611797610ed7610ec9611779610e975f5462ffffff1690565b6fffffffffffffffffffffffffffffffff86519116600f0b90612ac3565b825190600f0b90612b01565b90525f61164c565b90505f611646565b6118046117f8610ed7610ec96117cf610fc75f5462ffffff1690565b6117f2610ed76fffffffffffffffffffffffffffffffff8a519316600f0b612a94565b90612ac3565b845190600f0b90612b01565b835261163e565b508115611639565b6040517f08c379a000000000000000000000000000000000000000000000000000000000815260206004820152602b60248201527f73696d756c617465537761702063616e206f6e6c792062652063616c6c65642060448201527f62792074686520686f6f6b0000000000000000000000000000000000000000006064820152608490fd5b346102a0576101606003193601126102a0576118b56004356106c2565b6118be366102a4565b6118c736610ccd565b61012435906101443567ffffffffffffffff81116102a0576118ed9036906004016102d3565b93909173ffffffffffffffffffffffffffffffffffffffff7f000000000000000000000000000000000000000000000000000000000000000016918233036107f15784925f9561194661051661050861039236876123c1565b61194f856130b2565b8115159015151480156020870135945f861294858096611ce6575b611bd2575b508415938480611bcb575b611a67575b50509183916119ad99979593610bb99c99979593611a5f575b508215611a46575b50506119e9575b50614784565b60405191829182919091602060408201937fb47b2fb1000000000000000000000000000000000000000000000000000000008352600f0b910152565b90926119fe61051661050861039236886123c1565b15611a2757608090811d901b6fffffffffffffffffffffffffffffffff90911617915b5f6119a7565b6fffffffffffffffffffffffffffffffff1660809190911b1791611a21565b90915081611a57575b505f806119a0565b90505f611a4f565b92505f611998565b9a509a9798969492909593918a5f14611bbc57611ac3611ab78b600f0b5b611ab1611aab611aa6611a9b5f5462ffffff1690565b62ffffff1660020b90565b612c52565b60020b90565b90613209565b620f424090600f0b0590565b9a15611baa57611ad86103c1602087016130bc565b9b5b803b156102a0576040517f156e29f6000000000000000000000000000000000000000000000000000000008152306004820152602481019d909d52600f8c900b60448e01528c6064815a5f948591f1998a156105a557610bb99c6119ad9b611b96575b505f8160801d600f0b125f14611b7457611b6190611b5b8d60801b90565b90614706565b965b919395979981939597999c5061197f565b611b90906fffffffffffffffffffffffffffffffff8d16611b5b565b96611b63565b806105995f611ba493611511565b5f611b3d565b611bb66103c1866130bc565b9b611ada565b611ac3611ab78b60801d611a85565b508261197a565b9a50978315611cd757611bf9611ab78c600f0b5b611ab1611aab611a9b5f5462ffffff1690565b9a8415611cc657611c0f6103c160208a016130bc565b8a3b156102a0576040517f156e29f60000000000000000000000000000000000000000000000000000000081523060048201526024810191909152600f8d900b60448201525f81606481838f5af180156105a557611cb2575b505f8160801d600f0b135f14611c8f5750611c8790611b5b8c60801b90565b975b5f61196f565b611cac91506fffffffffffffffffffffffffffffffff8c16611b5b565b97611c89565b806105995f611cc093611511565b5f611c68565b611cd26103c1896130bc565b611c0f565b611bf9611ab78c60801d611be6565b508361196a565b6101206003198201126102a057600435611d06816106c2565b9160a07fffffffffffffffffffffffffffffffffffffffffffffffffffffffffffffffdc8301126102a05760249160c4359160e43591610104359067ffffffffffffffff82116102a057610775916004016102d3565b346102a057611d6a36611ced565b50505050505073ffffffffffffffffffffffffffffffffffffffff7f00000000000000000000000000000000000000000000000000000000000000001633036107f1577f0a85dc29000000000000000000000000000000000000000000000000000000005f5260045ffd5b346102a057611de336610687565b5f526003602052602073ffffffffffffffffffffffffffffffffffffffff60405f205416604051908152f35b346102a0575f6003193601126102a057602060405173ffffffffffffffffffffffffffffffffffffffff7f0000000000000000000000000000000000000000000000000000000000000000168152f35b610a32909291926101a0806101c0830195611e7c84825115159052565b60208181015115159085015260408181015115159085015260608181015115159085015260808181015115159085015260a08181015115159085015260c08181015115159085015260e081810151151590850152610100818101511515908501526101208181015115159085015261014081810151151590850152610160818101511515908501526101808181015115159085015201511515910152565b346102a0575f6003193601126102a0575f6101a0604051611f3a816114a0565b8281528260208201528260408201528260608201528260808201528260a08201528260c08201528260e082015282610100820152826101208201528261014082015282610160820152826101808201520152610bb9611f97611552565b600181525f6020820152600160408201525f60608201525f60808201525f60a0820152611fc760c0820160019052565b600160e08201525f6101008201525f610120820152611fea610140820160019052565b60016101608201525f6101808201525f6101a082015260405191829182611e5f565b346102a05761201a36610687565b5f60c0604051612029816114bd565b8281528260208201528260408201528260608201528260808201528260a082015201525f526008602052610bb960405f206120e16120d560056040519361206f856114bd565b805462ffffff811686526120929061208690611355565b62ffffff166020870152565b60018101546040860152600281015460608601526120c16120b7600383015460020b90565b60020b6080870152565b600481015460a0860152015462ffffff1690565b62ffffff1660c0830152565b6040519182918291909160c062ffffff8160e08401958281511685528260208201511660208601526040810151604086015260608101516060860152608081015160020b608086015260a081015160a0860152015116910152565b346102a0575f6003193601126102a057602060405160788152f35b346102a0575f6003193601126102a0576020604051620f42408152f35b346102a0575f6003193601126102a057602060405173ffffffffffffffffffffffffffffffffffffffff7f0000000000000000000000000000000000000000000000000000000000000000168152f35b346102a05760e06003193601126102a0576121e06004356106c2565b6121e9366102a4565b506121f560c4356106c2565b73ffffffffffffffffffffffffffffffffffffffff7f00000000000000000000000000000000000000000000000000000000000000001633036107f1577f4a58ec19000000000000000000000000000000000000000000000000000000005f5260045ffd5b346102a0575f6003193601126102a05760206040516127108152f35b346102a0576101406003193601126102a0576122913661028f565b61229a36610cfc565b610104356101243567ffffffffffffffff81116102a0576122bf9036906004016102d3565b9092303303612359576122e16103c16103c16103a7610457610392368b6123c1565b916122f5610516610508610392368a6123c1565b95833b156102a05761233b5f96928793604051998a98899788967f4f00cb2b00000000000000000000000000000000000000000000000000000000885260048801612c14565b03925af180156105a55761234b57005b806105995f6104b893611511565b7ff8d8ab0e000000000000000000000000000000000000000000000000000000005f5260045ffd5b346102a0575f6003193601126102a05760206040516109c48152f35b346102a0576123ab36610687565b5f526005602052602060405f2054604051908152f35b91908260a09103126102a0576040516123d9816114d9565b608080829480356123e9816106c2565b845260208101356123f9816106c2565b6020850152604081013561240c81611278565b6040850152606081013561241f816109cc565b6060850152013591612430836106c2565b0152565b73ffffffffffffffffffffffffffffffffffffffff60808092828135612459816106c2565b16855282602082013561246b816106c2565b16602086015262ffffff604082013561248381611278565b1660408601526060810135612497816109cc565b60020b606086015201356124aa816106c2565b16910152565b601f82602094937fffffffffffffffffffffffffffffffffffffffffffffffffffffffffffffffe093818652868601375f8582860101520116010190565b806124ff60c09261250c9694612434565b8160a082015201916124b0565b90565b6040513d5f823e3d90fd5b919273ffffffffffffffffffffffffffffffffffffffff60c09295946125448560e0810198612434565b1660a08401521515910152565b6040519061255e826114d9565b5f6080838281528260208201528260408201528260608201520152565b5096919492969593909573ffffffffffffffffffffffffffffffffffffffff7f00000000000000000000000000000000000000000000000000000000000000001633036105be5773ffffffffffffffffffffffffffffffffffffffff60a0948180959461260e82967fc2cc0ae95873d7fa4e50998bc075ab443517931580a05c3f76d9fc983c666a5c9a8e8d8f8a612e20565b9b888d205f5260026020526126618260405f209073ffffffffffffffffffffffffffffffffffffffff167fffffffffffffffffffffffff0000000000000000000000000000000000000000825416179055565b888d205f5260036020526126b38460405f209073ffffffffffffffffffffffffffffffffffffffff167fffffffffffffffffffffffff0000000000000000000000000000000000000000825416179055565b888d209a6040519b8c5260020b60208c015260020b60408b015216606089015216608087015216941692a360a0812073ffffffffffffffffffffffffffffffffffffffff61270c6103a7835f52600660205260405f2090565b16907f5da295020d1815e72a1c7edab0a1441cc519104e4eafca359c3b01c76feadf075f80a390565b7f4e487b71000000000000000000000000000000000000000000000000000000005f52601160045260245ffd5b9190820180921161276f57565b612735565b805f52600460205260ff60405f205416155f1461279057505f90565b805f52600560205260405f20546078810180911161276f574210156127b55750600190565b612827816128176127ef7f5fd57032db0db564bdfe22ff91033c11d319a1e6b3677e723545a7ba3e304b93945f52600460205260405f2090565b7fffffffffffffffffffffffffffffffffffffffffffffffffffffffffffffff008154169055565b6040519081529081906020820190565b0390a15f90565b90929162ffffff60a0916124aa8460c0810197612434565b9061285a6103a761039961039236866123c1565b73ffffffffffffffffffffffffffffffffffffffff339116036129be5761288e61288a6110b161039236866123c1565b1590565b6129ba5762ffffff8116620c350081116129b5577f00000000000000000000000000000000000000000000000000000000000000009062ffffff6128de6128d861039236886123c1565b846130c6565b925050501610156129b55773ffffffffffffffffffffffffffffffffffffffff16803b156102a0575f60405180927f52759651000000000000000000000000000000000000000000000000000000008252818381612940888a6004840161282e565b03925af180156105a5577f05275af3b70c3443abf635099e048f0c9808e8553eb2c8d8ba5ba5e827df20959361298a92610392926129a1575b50612983846131b9565b36906123c1565b6040805191825262ffffff929092166020820152a1565b806105995f6129af93611511565b5f612979565b505050565b5050565b7f82b42900000000000000000000000000000000000000000000000000000000005f5260045ffd5b6fffffffffffffffffffffffffffffffff670de0b6b3a7640000911602906fffffffffffffffffffffffffffffffff821691820361276f57565b62ffffff16620f4240019062ffffff821161276f57565b906fffffffffffffffffffffffffffffffff16908115612a67576fffffffffffffffffffffffffffffffff160490565b7f4e487b71000000000000000000000000000000000000000000000000000000005f52601260045260245ffd5b600f0b7fffffffffffffffffffffffffffffffff80000000000000000000000000000000811461276f575f0390565b81810292915f82127f800000000000000000000000000000000000000000000000000000000000000082141661276f57818405149015171561276f57565b9190915f838201938412911290801582169115161761276f57565b62ffffff16620f4240039062ffffff821161276f57565b908160209103126102a0575190565b907fffffffffffffffffffffffffffffffffffffffffffffffffffffffffffffffe0601f602080948051918291828752018686015e5f8582860101520116010190565b73ffffffffffffffffffffffffffffffffffffffff604061250c9594612bae8461012096612434565b8051151560a0850152602081015160c085015201511660e0820152816101008201520190612b42565b73ffffffffffffffffffffffffffffffffffffffff604080928035612bfb81611580565b151585526020810135602086015201356124aa816106c2565b9192612c3661016094612c2c8561250c9a9895612434565b60a0850190612bd7565b61010083015215156101208201528161014082015201916124b0565b60020b7fffffffffffffffffffffffffffffffffffffffffffffffffffffffffff800000811461276f575f0390565b5190610a32826109cc565b908160209103126102a0575161250c816109cc565b90929173ffffffffffffffffffffffffffffffffffffffff60a0916124aa8460c081019773ffffffffffffffffffffffffffffffffffffffff6080809282815116855282602082015116602086015262ffffff6040820151166040860152606081015160020b6060860152015116910152565b67ffffffffffffffff811161147f57601f017fffffffffffffffffffffffffffffffffffffffffffffffffffffffffffffffe01660200190565b81601f820112156102a057803590612d6582612d14565b92612d736040519485611511565b828452602083830101116102a057815f926020809301838601378301015290565b6020818303126102a05780359067ffffffffffffffff82116102a057016060818303126102a05760405191612dc883611484565b8135612dd3816106c2565b8352602082013567ffffffffffffffff81116102a05781612df5918401612d4e565b6020840152604082013567ffffffffffffffff81116102a057612e189201612d4e565b604082015290565b94929094939193612e2f612551565b5073ffffffffffffffffffffffffffffffffffffffff86169485158015613094575b61306c5773ffffffffffffffffffffffffffffffffffffffff96612eed602094612eda8a86612ebd612f7a9c83612f469a161096875f1461306557825b881561305d5750915b612e9f611562565b9e8f911673ffffffffffffffffffffffffffffffffffffffff169052565b1673ffffffffffffffffffffffffffffffffffffffff16878c0152565b6280000060408b015260020b60608a0152565b306080890152612f3c81612f0c60a08b205f52600160205260405f2090565b9060ff7fffffffffffffffffffffffffffffffffffffffffffffffffffffffffffffff0083541691151516179055565b1561304f57613220565b604051809581927f6276cbbe0000000000000000000000000000000000000000000000000000000083528860048401612ca1565b03815f73ffffffffffffffffffffffffffffffffffffffff7f0000000000000000000000000000000000000000000000000000000000000000165af19182156105a55761250c93612fea93613022575b5042612fe160a087205f52600560205260405f2090565b55810190612d94565b612ff860408201518461370e565b6020613018825173ffffffffffffffffffffffffffffffffffffffff1690565b91015190836138cf565b6130439060203d602011613048575b61303b8183611511565b810190612c8c565b612fca565b503d613031565b61305890612c52565b613220565b905091612e97565b8092612e8e565b7ff4a44333000000000000000000000000000000000000000000000000000000005f5260045ffd5b5073ffffffffffffffffffffffffffffffffffffffff821615612e51565b3561250c81611580565b3561250c816106c2565b61313f60209173ffffffffffffffffffffffffffffffffffffffff94936040518481019182526006604082015260408152613102606082611511565b5190206040519586809481937f1e2eaeaf000000000000000000000000000000000000000000000000000000008352600483019190602083019252565b0392165afa9182156105a5575f92613185575b5073ffffffffffffffffffffffffffffffffffffffff8216918060a01c60020b9162ffffff808360b81c169260d01c1690565b61319f91925060203d602011611756576117498183611511565b905f613152565b8181029291811591840414171561276f57565b62ffffff1662030d4081029080820462030d40149015171561276f57620f424062ffffff9104167fffffffffffffffffffffffffffffffffffffffffffffffffffffffffff0000005f5416175f55565b90600f0b90600f0b029081600f0b91820361276f57565b60020b908160ff1d82810118620d89e881116135665763ffffffff9192600182167001fffcb933bd6fad37aa2d162d1a5940010270010000000000000000000000000000000018916002811661354a575b6004811661352e575b60088116613512575b601081166134f6575b602081166134da575b604081166134be575b608081166134a2575b6101008116613486575b610200811661346a575b610400811661344e575b6108008116613432575b6110008116613416575b61200081166133fa575b61400081166133de575b61800081166133c2575b6201000081166133a6575b62020000811661338b575b620400008116613370575b6208000016613357575b5f12613330575b0160201c90565b7fffffffffffffffffffffffffffffffffffffffffffffffffffffffffffffffff04613329565b6b048a170391f7dc42444e8fa290910260801c90613322565b6d2216e584f5fa1ea926041bedfe9890920260801c91613318565b916e5d6af8dedb81196699c329225ee6040260801c9161330d565b916f09aa508b5b7a84e1c677de54f3e99bc90260801c91613302565b916f31be135f97d08fd981231505542fcfa60260801c916132f7565b916f70d869a156d2a1b890bb3df62baf32f70260801c916132ed565b916fa9f746462d870fdf8a65dc1f90e061e50260801c916132e3565b916fd097f3bdfd2022b8845ad8f792aa58250260801c916132d9565b916fe7159475a2c29b7443b29c7fa6e889d90260801c916132cf565b916ff3392b0822b70005940c7a398e4b70f30260801c916132c5565b916ff987a7253ac413176f2b074cf7815e540260801c916132bb565b916ffcbe86c7900a88aedcffc83b479aa3a40260801c916132b1565b916ffe5dee046a99a2a811c461f1969c30530260801c916132a7565b916fff2ea16466c96a3843ec78b326b528610260801c9161329e565b916fff973b41fa98c081472e6896dfb254c00260801c91613295565b916fffcb9843d60f6159c9db58835c9266440260801c9161328c565b916fffe5caca7e10e4e61c3624eaa0941cd00260801c91613283565b916ffff2e50f5f656932ef12357cf3c7fdcc0260801c9161327a565b916ffff97272373d413259a46990580e213a0260801c91613271565b826148f6565b5190610a3282611278565b908160e09103126102a0576135e960c060405192613594846114bd565b805161359f81611278565b845260208101516135af81611278565b602085015260408101516040850152606081015160608501526135d460808201612c81565b608085015260a081015160a08501520161356c565b60c082015290565b60056136dd60c0610a329461363662ffffff825116869062ffffff167fffffffffffffffffffffffffffffffffffffffffffffffffffffffffff000000825416179055565b602081015185547fffffffffffffffffffffffffffffffffffffffffffffffffffff000000ffffff1660189190911b65ffffff0000001617855560408101516001860155606081015160028601556136c9613695608083015160020b90565b60038701907fffffffffffffffffffffffffffffffffffffffffffffffffffffffffff0000008254169062ffffff16179055565b60a08101516004860155015162ffffff1690565b91019062ffffff167fffffffffffffffffffffffffffffffffffffffffffffffffffffffffff000000825416179055565b906137229060208082518301019101613577565b6109c462ffffff613736835162ffffff1690565b16106138a7576020810191620186a062ffffff613756855162ffffff1690565b161161387f57815162ffffff1662ffffff613777610eb1865162ffffff1690565b9116116138575760a0817f432632506f74db6583b1c612fbc7f00dc5ed2b2cdb9aeb8080ce8dca32dca49d610a32958361385295206138406137c96137bf895162ffffff1690565b935162ffffff1690565b604089015190878a0151908a6137e560c082015162ffffff1690565b936137f96080606084015193015160020b90565b6040805198895262ffffff998a1660208a0152938916938801939093526060870152608086015260020b60a085015260c084015290921660e0820152908190610100820190565b0390a1205f52600860205260405f2090565b6135f1565b7f1d875955000000000000000000000000000000000000000000000000000000005f5260045ffd5b7f70f07d34000000000000000000000000000000000000000000000000000000005f5260045ffd5b7f23bba199000000000000000000000000000000000000000000000000000000005f5260045ffd5b9173ffffffffffffffffffffffffffffffffffffffff8216806138f3575b50505050565b60ff61390a60a086205f52600160205260405f2090565b5416813b156102a0575f91858360e0936139b6604051978896879586947fd513493a0000000000000000000000000000000000000000000000000000000086526139a260048701809373ffffffffffffffffffffffffffffffffffffffff6080809282815116855282602082015116602086015262ffffff6040820151166040860152606081015160020b6060860152015116910152565b151560a08201528160c08201520190612b42565b03925af180156105a557613a20936139e09260a092613a29575b50205f52600660205260405f2090565b9073ffffffffffffffffffffffffffffffffffffffff167fffffffffffffffffffffffff0000000000000000000000000000000000000000825416179055565b5f8080806138ed565b806105995f613a3793611511565b5f6139d0565b613a4a61039236836123c1565b91613a5d835f52600760205260405f2090565b90613a70845f52600860205260405f2090565b907f000000000000000000000000000000000000000000000000000000000000000094613a9d81876130c6565b50509490506002810191613ab78354600187015490612762565b421115613ea75781929394613afa87613bdd94907fffffffffffffffffffffffffffffffffffffffffffffffffffffffffff0000008254169062ffffff16179055565b83547fffffffffffffffffffffffffffffffffffffffffffffffffffff000000ffffff16601888901b65ffffff000000161784554260018501558454613b464291600284015490612762565b1115613e7757613b8c613b846003860192613b7e610eb16005613b73610eb1885462ffffff9060181c1690565b93015462ffffff1690565b906131a6565b612710900490565b9062ffffff821115613e3b5780547fffffffffffffffffffffffffffffffffffffffffffffffffffffffffff0000001662ffffff179055505b613bd8610eb1600385015462ffffff1690565b614a0f565b613be6816131b9565b73ffffffffffffffffffffffffffffffffffffffff8716803b156102a057613c425f929183926040519485809481937f527596510000000000000000000000000000000000000000000000000000000083528d6004840161282e565b03925af19485156105a557613ca0613d6495613d51957f98185ee38983c6cdd0d24b51d3401877d4098922144329a08d2ce3cbd38e49a39473ffffffffffffffffffffffffffffffffffffffff99613e27575b505b42905588614b52565b90613cf26003613cb1865460020b90565b845f613cbd8284614924565b60020b1315613e1457610eb190613cd392614924565b955b019462ffffff613ceb610eb1885462ffffff1690565b9116612762565b62ffffff811115613dd2575083547fffffffffffffffffffffffffffffffffffffffffffffffffffff000000ffffff1665ffffff0000001790935562ffffff925b60408051600292830b81529290910b602083015290a162ffffff1690565b613d5e61039236866123c1565b90614a0f565b92613d6e846131b9565b1691823b156102a057613db3925f92836040518096819582947f527596510000000000000000000000000000000000000000000000000000000084526004840161282e565b03925af180156105a557613dc45750565b806105995f610a3293611511565b84547fffffffffffffffffffffffffffffffffffffffffffffffffffff000000ffffff16601882901b65ffffff000000161790945562ffffff90931692613d33565b613e2191610eb191614924565b95613cd5565b806105995f613e3593611511565b5f613c95565b62ffffff613e72921662ffffff167fffffffffffffffffffffffffffffffffffffffffffffffffffffffffff000000825416179055565b613bc5565b50613e72600384017fffffffffffffffffffffffffffffffffffffffffffffffffffffffffff0000008154169055565b509260018401908154613ec04291600284015490612762565b10613f10575b5050917f98185ee38983c6cdd0d24b51d3401877d4098922144329a08d2ce3cbd38e49a373ffffffffffffffffffffffffffffffffffffffff94613ca0613d5194613d6496613c97565b845460181c60020b86818160020b135f146141555790613f2f91614924565b613f40611aab600384015460020b90565b9060020b135f14613fd8575083547fffffffffffffffffffffffffffffffffffffffffffffffffffff000000ffffff16601886901b65ffffff0000001617845573ffffffffffffffffffffffffffffffffffffffff94613d6494613d519490937f98185ee38983c6cdd0d24b51d3401877d4098922144329a08d2ce3cbd38e49a393613ca09291904290555b94965094505094613ec6565b614083916140148787959697907fffffffffffffffffffffffffffffffffffffffffffffffffffffffffff0000008254169062ffffff16179055565b83547fffffffffffffffffffffffffffffffffffffffffffffffffffff000000ffffff16601888901b65ffffff0000001617845542905561407a600384017fffffffffffffffffffffffffffffffffffffffffffffffffffffffffff0000008154169055565b5462ffffff1690565b61408c816131b9565b73ffffffffffffffffffffffffffffffffffffffff8716803b156102a0576140e85f929183926040519485809481937f527596510000000000000000000000000000000000000000000000000000000083528d6004840161282e565b03925af19485156105a557613ca0613d6495613d51957f98185ee38983c6cdd0d24b51d3401877d4098922144329a08d2ce3cbd38e49a39473ffffffffffffffffffffffffffffffffffffffff99614141575b50613fcc565b806105995f61414f93611511565b5f61413b565b61415e91614924565b613f2f565b61417661051661050861039236856123c1565b156143ac57602061418791016130bc565b73ffffffffffffffffffffffffffffffffffffffff7f0000000000000000000000000000000000000000000000000000000000000000166141e16103c16103c18473ffffffffffffffffffffffffffffffffffffffff1690565b6040517efdd58e000000000000000000000000000000000000000000000000000000008152306004820152602481018290529290602084604481865afa9384156105a5575f9461438b575b5083156138ed57823b156102a0576040517ff5298aca0000000000000000000000000000000000000000000000000000000081523060048201526024810191909152604481018490525f8160648183875af180156105a557614377575b50813b156102a0576040517f0b0d9c0900000000000000000000000000000000000000000000000000000000815273ffffffffffffffffffffffffffffffffffffffff82811660048301527f000000000000000000000000000000000000000000000000000000000000000016602482015260448101849052915f908390606490829084905af19081156105a5577f175b790d44599ca70432cc8d1406504cb3a28fc13ff995c06dde6663412b211a9273ffffffffffffffffffffffffffffffffffffffff92614363575b506040519384521691602090a2565b806105995f61437193611511565b5f614354565b806105995f61438593611511565b5f614289565b6143a591945060203d602011611756576117498183611511565b925f61422c565b6143b5906130bc565b614187565b73ffffffffffffffffffffffffffffffffffffffff6143e26103a76104e761039236866123c1565b16156144a7576143fb61051661050861039236856123c1565b15614480576144266103c16103c16103a76104e761039261441e6103c1886130bc565b9636906123c1565b803b156102a0576040517f86b0c83f00000000000000000000000000000000000000000000000000000000815273ffffffffffffffffffffffffffffffffffffffff90921660048301525f90829081838160248101613db3565b6144266103c16103c16103a76104e76103926144a16103c1602089016130bc565b96612983565b50565b604051906144b7826114f5565b60606020838281520152565b604051906144d2602083611511565b5f808352366020840137565b6020818303126102a05780359067ffffffffffffffff82116102a057016040818303126102a05760405191614512836114f5565b813567ffffffffffffffff81116102a0578161452f918401612d4e565b8352602082013567ffffffffffffffff81116102a05761454f9201612d4e565b602082015290565b908160209103126102a0575161250c81611580565b909261458d610140936145838461250c9897612434565b60a0840190612bd7565b1515610100820152816101208201520190612b42565b9291906145b66110b161039236876123c1565b6145c05750505050565b61464a926020926145cf6144aa565b5081156146e0576145e2918101906144de565b6145fb6103c16103c16103a7610399610392368b6123c1565b905f614610610516610508610392368b6123c1565b915193604051968795869485937f831d7dd20000000000000000000000000000000000000000000000000000000085528b6004860161456c565b03925af19081156105a5575f916146b1575b5061466a575b8080806138ed565b6146a86128176103927f5fd57032db0db564bdfe22ff91033c11d319a1e6b3677e723545a7ba3e304b93936129836127ef61047f61039236856123c1565b0390a15f614662565b6146d3915060203d6020116146d9575b6146cb8183611511565b810190614557565b5f61465c565b503d6146c1565b50506146ea6144c3565b6146f26144c3565b6146fa611571565b918252838201526145e2565b6147299061471b8360801d8260801d03614a64565b92600f0b90600f0b03614a64565b6fffffffffffffffffffffffffffffffff169060801b1790565b909261475a610140936145838461250c9897612434565b610100820152816101208201520190612b42565b908152608081019291610a329160200190612bd7565b9392909273ffffffffffffffffffffffffffffffffffffffff6147b06103a7610457610392368a6123c1565b166147bd575b5050505050565b6147c56144aa565b5080156148ce57816147db9160209301906144de565b015190303b156102a057614821915f9160405193849283927fe98a4297000000000000000000000000000000000000000000000000000000008452878960048601614743565b038183305af190816148ba575b5061487f576148626103927f1ed105724e1c937013022b0f3e0fd03e1d6e10fc55a253b385fdc849b5996dca9336906123c1565b6148716040519283928361476e565b0390a15b5f808080806147b6565b506148b26128176103927f3aa5ddf1cdba33927c6f6efe9f23b36d189d8534f7ef5fd9453b89eb8a8889c09336906123c1565b0390a1614875565b806105995f6148c893611511565b5f61482e565b505060206148da6144c3565b6148e26144c3565b6148ea611571565b918252828201526147db565b7f8b86327a000000000000000000000000000000000000000000000000000000005f5260020b60045260245ffd5b9060020b9060020b0390627fffff82137fffffffffffffffffffffffffffffffffffffffffffffffffffffffffff80000083121761276f57565b5f8115614a09578180600114614a01576002146149fa5760016101338310166001600b841016176149ed575060017fffffffffffffffffffffffffffffffffffffffffffffffffffffffffffffffff60025b600181116149c65750829004811161276f570290565b92808204811161276f57600184166149e4575b80029260011c6149b0565b809202916149d9565b91906002900a9161276f57565b5050600490565b505050600190565b50505f90565b905f5260086020526402540be400614a3360405f2092613b7e60048501549161495e565b0490549062ffffff8216810180911161276f5762ffffff9160181c82169081811115614a5e57501690565b90501690565b9081600f0b918203614a7257565b7f93dafdf1000000000000000000000000000000000000000000000000000000005f5260045ffd5b9160a0610a32929493614ab281610100810197612434565b0190612bd7565b3d15614ae3573d90614aca82612d14565b91614ad86040519384611511565b82523d5f602084013e565b606090565b90602082519201517fffffffff0000000000000000000000000000000000000000000000000000000081169260048110614b20575050565b7fffffffff00000000000000000000000000000000000000000000000000000000929350829060040360031b1b161690565b303b156102a057614b93915f9160405193849283927fb306651500000000000000000000000000000000000000000000000000000000845260048401614a9a565b038183305af19081614cee575b50614c8f57614bad614ab9565b7f34ceaf9e000000000000000000000000000000000000000000000000000000007fffffffff00000000000000000000000000000000000000000000000000000000614bf883614ae8565b1603614c0a578051015162ffffff1690565b6040517f08c379a000000000000000000000000000000000000000000000000000000000815260206004820152602860248201527f72657475726e65642073656c6563746f722073686f756c64206265205469636b60448201527f52657475726e65640000000000000000000000000000000000000000000000006064820152608490fd5b6040517f08c379a000000000000000000000000000000000000000000000000000000000815260206004820152601960248201527f73696d756c61746520737761702073686f756c64206661696c000000000000006044820152606490fd5b806105995f614cfc93611511565b5f614ba056","linkReferences":{}},"methodIdentifiers":{"BPS_DENOMINATOR()":"e1a45218","FEE_CONTROL_DENOMINATOR()":"5339b03b","FEE_DENOMINATOR()":"d73792a9","MAX_DECAY_FILTER_BPS()":"69b84eb1","MAX_LP_FEE()":"3fc48eba","MAX_MEV_LP_FEE()":"949d32e0","MAX_MEV_MODULE_DELAY()":"ccc8dc43","MIN_BASE_FEE()":"ea78e61a","PROTOCOL_FEE_NUMERATOR()":"334e8367","_runPoolExtensionHelper((address,address,uint24,int24,address),(bool,int256,uint160),int256,bytes)":"e98a4297","afterAddLiquidity(address,(address,address,uint24,int24,address),(int24,int24,int256,bytes32),int256,int256,bytes)":"9f063efc","afterDonate(address,(address,address,uint24,int24,address),uint256,uint256,bytes)":"e1b4af69","afterInitialize(address,(address,address,uint24,int24,address),uint160,int24)":"6fe7e6eb","afterRemoveLiquidity(address,(address,address,uint24,int24,address),(int24,int24,int256,bytes32),int256,int256,bytes)":"6c2bbe7e","afterSwap(address,(address,address,uint24,int24,address),(bool,int256,uint160),int256,bytes)":"b47b2fb1","beforeAddLiquidity(address,(address,address,uint24,int24,address),(int24,int24,int256,bytes32),bytes)":"259982e5","beforeDonate(address,(address,address,uint24,int24,address),uint256,uint256,bytes)":"b6a8b0fa","beforeInitialize(address,(address,address,uint24,int24,address),uint160)":"dc98354e","beforeRemoveLiquidity(address,(address,address,uint24,int24,address),(int24,int24,int256,bytes32),bytes)":"21d0ee70","beforeSwap(address,(address,address,uint24,int24,address),(bool,int256,uint160),bytes)":"575e24b4","clankerIsToken0(bytes32)":"07eda3da","factory()":"c45a0155","getHookPermissions()":"c4e833ce","initializeMevModule((address,address,uint24,int24,address),bytes)":"015e3c29","initializePool(address,address,int24,int24,address,address,bytes)":"564d49e7","initializePoolOpen(address,address,int24,int24,bytes)":"4c2b2876","locker(bytes32)":"4468979e","mevModule(bytes32)":"bdf22863","mevModuleEnabled(bytes32)":"2b887e0f","mevModuleOperational(bytes32)":"58f8cd54","mevModuleSetFee((address,address,uint24,int24,address),uint24)":"7f5464f4","poolConfigVars(bytes32)":"ca946313","poolCreationTimestamp(bytes32)":"ee4d96cf","poolExtension(bytes32)":"ac3e6ec9","poolFeeVars(bytes32)":"844dbde6","poolManager()":"dc4c90d3","protocolFee()":"b0e21e8a","simulateSwap((address,address,uint24,int24,address),(bool,int256,uint160))":"b3066515","supportsInterface(bytes4)":"01ffc9a7","weth()":"3fc8cef3"},"id":128}