{"abi":[{"type":"constructor","inputs":[{"name":"owner_","type":"address","internalType":"address"},{"name":"factory_","type":"address","internalType":"address"},{"name":"feeLocker_","type":"address","internalType":"address"},{"name":"positionManager_","type":"address","internalType":"address"},{"name":"permit2_","type":"address","internalType":"address"}],"stateMutability":"nonpayable"},{"type":"function","name":"BASIS_POINTS","inputs":[],"outputs":[{"name":"","type":"uint256","internalType":"uint256"}],"stateMutability":"view"},{"type":"function","name":"MAX_LP_POSITIONS","inputs":[],"outputs":[{"name":"","type":"uint256","internalType":"uint256"}],"stateMutability":"view"},{"type":"function","name":"MAX_REWARD_PARTICIPANTS","inputs":[],"outputs":[{"name":"","type":"uint256","internalType":"uint256"}],"stateMutability":"view"},{"type":"function","name":"_tokenRewards","inputs":[{"name":"token","type":"address","internalType":"address"}],"outputs":[{"name":"token","type":"address","internalType":"address"},{"name":"poolKey","type":"tuple","internalType":"struct PoolKey","components":[{"name":"currency0","type":"address","internalType":"Currency"},{"name":"currency1","type":"address","internalType":"Currency"},{"name":"fee","type":"uint24","internalType":"uint24"},{"name":"tickSpacing","type":"int24","internalType":"int24"},{"name":"hooks","type":"address","internalType":"contract IHooks"}]},{"name":"positionId","type":"uint256","internalType":"uint256"},{"name":"numPositions","type":"uint256","internalType":"uint256"}],"stateMutability":"view"},{"type":"function","name":"collectRewards","inputs":[{"name":"token","type":"address","internalType":"address"}],"outputs":[],"stateMutability":"nonpayable"},{"type":"function","name":"collectRewardsWithoutUnlock","inputs":[{"name":"token","type":"address","internalType":"address"}],"outputs":[],"stateMutability":"nonpayable"},{"type":"function","name":"factory","inputs":[],"outputs":[{"name":"","type":"address","internalType":"address"}],"stateMutability":"view"},{"type":"function","name":"feeLocker","inputs":[],"outputs":[{"name":"","type":"address","internalType":"contract IClankerFeeLocker"}],"stateMutability":"view"},{"type":"function","name":"onERC721Received","inputs":[{"name":"","type":"address","internalType":"address"},{"name":"from","type":"address","internalType":"address"},{"name":"id","type":"uint256","internalType":"uint256"},{"name":"","type":"bytes","internalType":"bytes"}],"outputs":[{"name":"","type":"bytes4","internalType":"bytes4"}],"stateMutability":"nonpayable"},{"type":"function","name":"owner","inputs":[],"outputs":[{"name":"","type":"address","internalType":"address"}],"stateMutability":"view"},{"type":"function","name":"permit2","inputs":[],"outputs":[{"name":"","type":"address","internalType":"contract IPermit2"}],"stateMutability":"view"},{"type":"function","name":"placeLiquidity","inputs":[{"name":"lockerConfig","type":"tuple","internalType":"struct IClanker.LockerConfig","components":[{"name":"locker","type":"address","internalType":"address"},{"name":"rewardAdmins","type":"address[]","internalType":"address[]"},{"name":"rewardRecipients","type":"address[]","internalType":"address[]"},{"name":"rewardBps","type":"uint16[]","internalType":"uint16[]"},{"name":"tickLower","type":"int24[]","internalType":"int24[]"},{"name":"tickUpper","type":"int24[]","internalType":"int24[]"},{"name":"positionBps","type":"uint16[]","internalType":"uint16[]"},{"name":"lockerData","type":"bytes","internalType":"bytes"}]},{"name":"poolConfig","type":"tuple","internalType":"struct IClanker.PoolConfig","components":[{"name":"hook","type":"address","internalType":"address"},{"name":"pairedToken","type":"address","internalType":"address"},{"name":"tickIfToken0IsClanker","type":"int24","internalType":"int24"},{"name":"tickSpacing","type":"int24","internalType":"int24"},{"name":"poolData","type":"bytes","internalType":"bytes"}]},{"name":"poolKey","type":"tuple","internalType":"struct PoolKey","components":[{"name":"currency0","type":"address","internalType":"Currency"},{"name":"currency1","type":"address","internalType":"Currency"},{"name":"fee","type":"uint24","internalType":"uint24"},{"name":"tickSpacing","type":"int24","internalType":"int24"},{"name":"hooks","type":"address","internalType":"contract IHooks"}]},{"name":"poolSupply","type":"uint256","internalType":"uint256"},{"name":"token","type":"address","internalType":"address"}],"outputs":[{"name":"positionId","type":"uint256","internalType":"uint256"}],"stateMutability":"nonpayable"},{"type":"function","name":"positionManager","inputs":[],"outputs":[{"name":"","type":"address","internalType":"contract IPositionManager"}],"stateMutability":"view"},{"type":"function","name":"renounceOwnership","inputs":[],"outputs":[],"stateMutability":"nonpayable"},{"type":"function","name":"supportsInterface","inputs":[{"name":"interfaceId","type":"bytes4","internalType":"bytes4"}],"outputs":[{"name":"","type":"bool","internalType":"bool"}],"stateMutability":"pure"},{"type":"function","name":"tokenRewards","inputs":[{"name":"token","type":"address","internalType":"address"}],"outputs":[{"name":"","type":"tuple","internalType":"struct IClankerLpLocker.TokenRewardInfo","components":[{"name":"token","type":"address","internalType":"address"},{"name":"poolKey","type":"tuple","internalType":"struct PoolKey","components":[{"name":"currency0","type":"address","internalType":"Currency"},{"name":"currency1","type":"address","internalType":"Currency"},{"name":"fee","type":"uint24","internalType":"uint24"},{"name":"tickSpacing","type":"int24","internalType":"int24"},{"name":"hooks","type":"address","internalType":"contract IHooks"}]},{"name":"positionId","type":"uint256","internalType":"uint256"},{"name":"numPositions","type":"uint256","internalType":"uint256"},{"name":"rewardBps","type":"uint16[]","internalType":"uint16[]"},{"name":"rewardAdmins","type":"address[]","internalType":"address[]"},{"name":"rewardRecipients","type":"address[]","internalType":"address[]"}]}],"stateMutability":"view"},{"type":"function","name":"transferOwnership","inputs":[{"name":"newOwner","type":"address","internalType":"address"}],"outputs":[],"stateMutability":"nonpayable"},{"type":"function","name":"updateRewardAdmin","inputs":[{"name":"token","type":"address","internalType":"address"},{"name":"rewardIndex","type":"uint256","internalType":"uint256"},{"name":"newAdmin","type":"address","internalType":"address"}],"outputs":[],"stateMutability":"nonpayable"},{"type":"function","name":"updateRewardRecipient","inputs":[{"name":"token","type":"address","internalType":"address"},{"name":"rewardIndex","type":"uint256","internalType":"uint256"},{"name":"newRecipient","type":"address","internalType":"address"}],"outputs":[],"stateMutability":"nonpayable"},{"type":"function","name":"version","inputs":[],"outputs":[{"name":"","type":"string","internalType":"string"}],"stateMutability":"view"},{"type":"function","name":"withdrawERC20","inputs":[{"name":"token","type":"address","internalType":"address"},{"name":"recipient","type":"address","internalType":"address"}],"outputs":[],"stateMutability":"nonpayable"},{"type":"function","name":"withdrawETH","inputs":[{"name":"recipient","type":"address","internalType":"address"}],"outputs":[],"stateMutability":"nonpayable"},{"type":"event","name":"ClaimedRewards","inputs":[{"name":"token","type":"address","indexed":false,"internalType":"address"},{"name":"amount0","type":"uint256","indexed":false,"internalType":"uint256"},{"name":"amount1","type":"uint256","indexed":false,"internalType":"uint256"},{"name":"rewards0","type":"uint256[]","indexed":false,"internalType":"uint256[]"},{"name":"rewards1","type":"uint256[]","indexed":false,"internalType":"uint256[]"}],"anonymous":false},{"type":"event","name":"OwnershipTransferred","inputs":[{"name":"previousOwner","type":"address","indexed":true,"internalType":"address"},{"name":"newOwner","type":"address","indexed":true,"internalType":"address"}],"anonymous":false},{"type":"event","name":"Received","inputs":[{"name":"from","type":"address","indexed":true,"internalType":"address"},{"name":"positionId","type":"uint256","indexed":false,"internalType":"uint256"}],"anonymous":false},{"type":"event","name":"RewardAdminUpdated","inputs":[{"name":"token","type":"address","indexed":false,"internalType":"address"},{"name":"rewardIndex","type":"uint256","indexed":false,"internalType":"uint256"},{"name":"oldAdmin","type":"address","indexed":false,"internalType":"address"},{"name":"newAdmin","type":"address","indexed":false,"internalType":"address"}],"anonymous":false},{"type":"event","name":"RewardRecipientUpdated","inputs":[{"name":"token","type":"address","indexed":false,"internalType":"address"},{"name":"rewardIndex","type":"uint256","indexed":false,"internalType":"uint256"},{"name":"oldRecipient","type":"address","indexed":false,"internalType":"address"},{"name":"newRecipient","type":"address","indexed":false,"internalType":"address"}],"anonymous":false},{"type":"event","name":"TokenRewardAdded","inputs":[{"name":"token","type":"address","indexed":false,"internalType":"address"},{"name":"poolKey","type":"tuple","indexed":false,"internalType":"struct PoolKey","components":[{"name":"currency0","type":"address","internalType":"Currency"},{"name":"currency1","type":"address","internalType":"Currency"},{"name":"fee","type":"uint24","internalType":"uint24"},{"name":"tickSpacing","type":"int24","internalType":"int24"},{"name":"hooks","type":"address","internalType":"contract IHooks"}]},{"name":"poolSupply","type":"uint256","indexed":false,"internalType":"uint256"},{"name":"positionId","type":"uint256","indexed":false,"internalType":"uint256"},{"name":"numPositions","type":"uint256","indexed":false,"internalType":"uint256"},{"name":"rewardBps","type":"uint16[]","indexed":false,"internalType":"uint16[]"},{"name":"rewardAdmins","type":"address[]","indexed":false,"internalType":"address[]"},{"name":"rewardRecipients","type":"address[]","indexed":false,"internalType":"address[]"},{"name":"tickLower","type":"int24[]","indexed":false,"internalType":"int24[]"},{"name":"tickUpper","type":"int24[]","indexed":false,"internalType":"int24[]"},{"name":"positionBps","type":"uint16[]","indexed":false,"internalType":"uint16[]"}],"anonymous":false},{"type":"error","name":"InvalidPositionBps","inputs":[]},{"type":"error","name":"InvalidRewardBps","inputs":[]},{"type":"error","name":"MismatchedPositionInfos","inputs":[]},{"type":"error","name":"MismatchedRewardArrays","inputs":[]},{"type":"error","name":"NoPositions","inputs":[]},{"type":"error","name":"NoRewardRecipients","inputs":[]},{"type":"error","name":"OwnableInvalidOwner","inputs":[{"name":"owner","type":"address","internalType":"address"}]},{"type":"error","name":"OwnableUnauthorizedAccount","inputs":[{"name":"account","type":"address","internalType":"address"}]},{"type":"error","name":"ReentrancyGuardReentrantCall","inputs":[]},{"type":"error","name":"SafeERC20FailedOperation","inputs":[{"name":"token","type":"address","internalType":"address"}]},{"type":"error","name":"TickRangeLowerThanStartingTick","inputs":[]},{"type":"error","name":"TicksBackwards","inputs":[]},{"type":"error","name":"TicksNotMultipleOfTickSpacing","inputs":[]},{"type":"error","name":"TicksOutOfTickBounds","inputs":[]},{"type":"error","name":"TokenAlreadyHasRewards","inputs":[]},{"type":"error","name":"TooManyPositions","inputs":[]},{"type":"error","name":"TooManyRewardParticipants","inputs":[]},{"type":"error","name":"Unauthorized","inputs":[]},{"type":"error","name":"ZeroRewardAddress","inputs":[]},{"type":"error","name":"ZeroRewardAmount","inputs":[]}],"bytecode":{"object":"0x6101003461019c57601f614b2e38819003918201601f19168301916001600160401b038311848410176101a05780849260a09460405283398101031261019c57610048816101b4565b610054602083016101b4565b91610061604082016101b4565b6100796080610072606085016101b4565b93016101b4565b60015f556001600160a01b0390931693841561018957600180546001600160a01b03198116871790915560405195906001600160a01b03167f8be0079c531659141344cd1fd0a4f28419497f9722a3daafe3b4186f6b6457e05f80a360e0526001600160a01b0390811660c0529081166080521660a05261496590816101c98239608051818181610dd001528181610e8d01528181610ede01528181610f4b01528181611d5e015281816126980152612a63015260a051818181610d0901528181610d6b01528181610e240152613906015260c051818181611fd7015281816120c70152818161274f01528181612cbe0152612d97015260e0518181816104a50152818161184b01526138430152f35b631e4fbdf760e01b5f525f60045260245ffd5b5f80fd5b634e487b7160e01b5f52604160045260245ffd5b51906001600160a01b038216820361019c5756fe60806040526004361015610011575f80fd5b5f5f3560e01c80630150a98614613a7b57806301ffc9a7146139da5780631105d9331461392a57806312261ee7146138e757806314a7f403146132d1578063150b7a02146137d257806330bd3eeb146132d657806352db242f146132d157806354fd4d501461326e5780635763dbd0146127d9578063690d83201461277357806370e9d2441461272f578063715018a6146126bc578063791b98bc1461267857806386b0c83f14611acb5780638da5cb5b14611aa4578063911573b31461198a5780639456fbcc1461186f578063c45a01551461182b578063e1f1c4a71461180e578063ea289263146101c65763f2fde38b1461010c575f80fd5b346101c35760206003193601126101c3576001600160a01b0361012d613b07565b61013561408e565b168015610197576001600160a01b03600154827fffffffffffffffffffffffff0000000000000000000000000000000000000000821617600155167f8be0079c531659141344cd1fd0a4f28419497f9722a3daafe3b4186f6b6457e08380a380f35b6024827f1e4fbdf700000000000000000000000000000000000000000000000000000000815280600452fd5b80fd5b50346101c3576101206003193601126101c3576004359067ffffffffffffffff82116101c35761010060031983360301126101c35760405191610100830183811067ffffffffffffffff8211176117e15760405261022681600401613b33565b8352602481013567ffffffffffffffff81116117dd5761024c9060043691840101613ceb565b60208401908152604482013567ffffffffffffffff8111611524576102779060043691850101613ceb565b9360408101948552606483013567ffffffffffffffff8111611533576102a39060043691860101613d50565b9260608201938452608481013567ffffffffffffffff81116117d9576102cf9060043691840101613dc7565b608083015260a481013567ffffffffffffffff81116117d9576102f89060043691840101613dc7565b60a083015260c481013567ffffffffffffffff81116117d9576103219060043691840101613d50565b60c083015260e481013567ffffffffffffffff81116117d95761034991369101600401613e2c565b60e082015260243567ffffffffffffffff81116115335760a06003198236030112611533576040519061037b82613bca565b61038781600401613b33565b825261039560248201613b33565b60208301526103a660448201613db9565b60408301526103b760648201613db9565b6060830152608481013567ffffffffffffffff81116117d5576103df91369101600401613e2c565b608082015260a07fffffffffffffffffffffffffffffffffffffffffffffffffffffffffffffffbc360112611533576040519261041b84613bca565b6044356001600160a01b03811681036117d55784526064356001600160a01b03811681036117d557602085015260843562ffffff811681036117d557604085015260a4358060020b81036117d557606085015260c4356001600160a01b03811681036117d557608085015261010435966001600160a01b03881688036117d5576001600160a01b037f00000000000000000000000000000000000000000000000000000000000000001633036117ad576104d3613fd9565b6001600160a01b03881687526002602052600460408820015461178557608084015151955191519051916040519661050a88613b81565b6001600160a01b038a16885286602089015288604089015260608801528060808801528160a08801528260c0880152519051811491821592611779575b5050611751576007608085015151116117295760808401515115611701578492835b6080860151805186101561060a5761ffff610585878293613f17565b511691160161ffff81116105dd579361ffff6105a5826080890151613f17565b5116156105b55760010193610569565b6004877fea1083a7000000000000000000000000000000000000000000000000000000008152fd5b6024877f4e487b710000000000000000000000000000000000000000000000000000000081526011600452fd5b508691888561271061ffff8a9516036116d957845b60808501515181101561069f576001600160a01b036106428260a0880151613f17565b5116158015610680575b6106585760010161061f565b6004867f444593dc000000000000000000000000000000000000000000000000000000008152fd5b506001600160a01b036106978260c0880151613f17565b51161561064c565b506040517f23b872dd00000000000000000000000000000000000000000000000000000000815233600482015230602482015260e4356044820152859087908690602081606481876001600160a01b038b165af180156116ce576116b1575b5060808401515160a0850151518114908115916116a1575b5061167957608084015151156116515760076080850151511161162957829583965b608086015180518910156108fc578861075091613f17565b5160020b6107628960a0890151613f17565b5160020b126108d4577ffffffffffffffffffffffffffffffffffffffffffffffffffffffffffff2761861079a896080890151613f17565b5160020b1280156108b7575b61088f576107cd6107bb896080890151613f17565b5160020b606086015160020b906140ce565b60020b15801590610873575b61084b576107eb886080880151613f17565b5160020b604085015160020b136108235761081b60019161ffff6108138b60c08b0151613f17565b51169061404e565b970196610738565b6004857fb7e8c5be000000000000000000000000000000000000000000000000000000008152fd5b6004857f9c79bb26000000000000000000000000000000000000000000000000000000008152fd5b506108856107bb8960a0890151613f17565b60020b15156107d9565b6004857fbae28335000000000000000000000000000000000000000000000000000000008152fd5b50620d89e86108ca8960a0890151613f17565b5160020b136107a6565b6004857f65ebf187000000000000000000000000000000000000000000000000000000008152fd5b5061271091975094929403611601576001600160a01b036020850151166001600160a01b03861610926080830151516001810181116115d4576001610941910161410d565b9460609085156115be576040015160020b925b82915b608086015151831015610c425760206109b360018093836040519485928051918291018385015e8201017f020000000000000000000000000000000000000000000000000000000000000081520301601f198101835282613be6565b92610b13610b5d8c610b4f8b8b6127106109e161ffff6109d78a60c0860151613f17565b511660e435613f43565b048215610c3b57805b8d8d838615610c23576fffffffffffffffffffffffffffffffff935081955b8c8815610c0c57610a1e906080830151613f17565b5160020b905b8d8915610bec5760a0610a38920151613f17565b5160020b905b8815610be55780985b15610bdd5750925b610a58886143dc565b9287610a6c610a66876143dc565b936143dc565b83866001600160a01b0382166001600160a01b03821611610bd1575b50506001600160a01b038181169087168111610b7a5750505050610aab92614762565b905b6040519530602088015260208752610ac6604088613be6565b6040519a8b9960208b01906001600160a01b036080809282815116855282602082015116602086015262ffffff6040820151166040860152606081015160020b6060860152015116910152565b60020b60c089015260020b60e08801521661010086015261012085015261014084015230610160840152610180808401526101a0830190613cae565b03601f198101835282613be6565b610b67828b613f17565b52610b72818a613f17565b500191610957565b6001600160a01b0385929496939516115f14610bc3578291610ba091610ba69594614762565b9461472f565b90508381168285161015610bbc57505b90610aad565b9050610bb6565b9293505050610bb69261472f565b90965093505f80610a88565b905092610a4f565b8198610a47565b610bfd9060a0610c06930151613f17565b5160020b614155565b90610a3e565b610bfd610c1d916080840151613f17565b90610a24565b6fffffffffffffffffffffffffffffffff9395610a09565b8b906109ea565b856020928a8a610ce08e610c9960018b988a6040519b8c928051918291018385015e8201017f0d0000000000000000000000000000000000000000000000000000000000000081520301601f1981018a5289613be6565b6001600160a01b0360208183511692015116604051916020830152604082015260408152610cc8606082613be6565b60808601515190610cd98285613f17565b5282613f17565b506040517f095ea7b30000000000000000000000000000000000000000000000000000000081527f00000000000000000000000000000000000000000000000000000000000000006001600160a01b0316600482015260e435602482015260208180604481010381896001600160a01b0388165af1801561157157611591575b506001600160a01b037f0000000000000000000000000000000000000000000000000000000000000000163b15611533576040517f87517c450000000000000000000000000000000000000000000000000000000081526001600160a01b03831660048201526001600160a01b037f00000000000000000000000000000000000000000000000000000000000000001660248201526001600160a01b0360e43516604482015265ffffffffffff421660648201528581608481836001600160a01b037f0000000000000000000000000000000000000000000000000000000000000000165af180156115715790869161157c575b5050604051957f75794a3c0000000000000000000000000000000000000000000000000000000087526020876004816001600160a01b037f0000000000000000000000000000000000000000000000000000000000000000165afa968715611571578697611537575b50610ed490610b4f604051938492602084016141f0565b6001600160a01b037f0000000000000000000000000000000000000000000000000000000000000000163b156115335784610f3e91604051809381927fdd46508f000000000000000000000000000000000000000000000000000000008352429060048401614262565b0381836001600160a01b037f0000000000000000000000000000000000000000000000000000000000000000165af180156115285790859161150f575b50506001600160a01b03908560408401521683526002602052604083206001600160a01b0380835116167fffffffffffffffffffffffff00000000000000000000000000000000000000008254161781556001600160a01b036080602084015182815116836001860191167fffffffffffffffffffffffff0000000000000000000000000000000000000000825416179055600284018380602084015116167fffffffffffffffffffffffff0000000000000000000000000000000000000000825416178155604082015181547fffffffffffff000000000000ffffffffffffffffffffffffffffffffffffffff76ffffff0000000000000000000000000000000000000000606086015160b81b79ffffff0000000000000000000000000000000000000000000000169360a01b169116171790550151166001600160a01b036003830191167fffffffffffffffffffffffff0000000000000000000000000000000000000000825416179055604082015160048201556060820151600582015560068101608083015180519067ffffffffffffffff8211611405576801000000000000000082116114055760209083548385558084106114c2575b50019186526020862090865b8160041c811061148257507ffffffffffffffffffffffffffffffffffffffffffffffffffffffffffffffff08116810380611432575b505050506007810160a08301519081519167ffffffffffffffff8311611405576801000000000000000083116114055760209082548484558085106113eb575b500190865260208620865b8381106113ce575050505060080160c08201519081519167ffffffffffffffff83116113a1576801000000000000000083116113a1576020908254848455808510611387575b500190855260208520855b83811061136a575050505080516001600160a01b03169060208101519260408201519160608101519060808101519060a08101519060c001519160808501519360a08601519560c0015196604051998a998a5260208a016112b2916001600160a01b036080809282815116855282602082015116602086015262ffffff6040820151166040860152606081015160020b6060860152015116910152565b60e43560c08a015260e089015261010088015261012087016101e090526101e087016112dd91613f6c565b8681036101408801526112ef91613c72565b85810361016087015261130191613c72565b84810361018086015261131391613fa3565b8381036101a085015261132591613fa3565b8281036101c084015261133791613f6c565b037fc9b03d1b68674b3ca5738b69c14e4dbcfcb7f474303edd540b1d7dfa785d27ff91a160019055604051908152602090f35b60019060206001600160a01b038551169401938184015501611215565b83885282882061139b918101908601613f56565b8861120a565b6024867f4e487b710000000000000000000000000000000000000000000000000000000081526041600452fd5b60019060206001600160a01b0385511694019381840155016111c4565b8389528289206113ff918101908601613f56565b896111b9565b6024877f4e487b710000000000000000000000000000000000000000000000000000000081526041600452fd5b928793885b81811061144f5750505060041c015585808080611179565b909194602061147860019261ffff8951169085851b61ffff809160031b9316831b921b19161790565b9601929101611437565b87885b6010811061149a575083820155600101611143565b855190959160019160209161ffff60048a901b81811b199092169216901b1792019501611485565b6114f090858a52838a20600f80870160041c820192601e8860011b16806114f6575b500160041c0190613f56565b89611137565b5f198501905f198254918a0360031b1c1690558e6114e4565b8161151991613be6565b611524578386610f7b565b8380fd5b6040513d87823e3d90fd5b8480fd5b9096506020813d602011611569575b8161155360209383613be6565b81010312611565575195610ed4610ebd565b5f80fd5b3d9150611546565b6040513d88823e3d90fd5b8161158691613be6565b611533578487610e54565b6115b29060203d6020116115b7575b6115aa8183613be6565b810190613f2b565b610d60565b503d6115a0565b60406115ce91015160020b614155565b92610954565b6024827f4e487b710000000000000000000000000000000000000000000000000000000081526011600452fd5b6004837fd255d1bb000000000000000000000000000000000000000000000000000000008152fd5b6004837f8431a15a000000000000000000000000000000000000000000000000000000008152fd5b6004837ff1efabcb000000000000000000000000000000000000000000000000000000008152fd5b6004837ffceb8ecc000000000000000000000000000000000000000000000000000000008152fd5b905060c085015151141587610716565b6116c99060203d6020116115b7576115aa8183613be6565b6106fe565b6040513d86823e3d90fd5b6004857f7f496ed8000000000000000000000000000000000000000000000000000000008152fd5b6004857f3e794990000000000000000000000000000000000000000000000000000000008152fd5b6004857fdee5eac1000000000000000000000000000000000000000000000000000000008152fd5b6004857fb3e27d4c000000000000000000000000000000000000000000000000000000008152fd5b51141590505f80610547565b6004877fe67f17ea000000000000000000000000000000000000000000000000000000008152fd5b6004877f82b42900000000000000000000000000000000000000000000000000000000008152fd5b8680fd5b8580fd5b8280fd5b6024837f4e487b710000000000000000000000000000000000000000000000000000000081526041600452fd5b50346101c357806003193601126101c35760206040516127108152f35b50346101c357806003193601126101c35760206040516001600160a01b037f0000000000000000000000000000000000000000000000000000000000000000168152f35b50346101c35760406003193601126101c357611889613b07565b6001600160a01b03611899613b1d565b916118a261408e565b6118aa613fd9565b16604051907f70a08231000000000000000000000000000000000000000000000000000000008252306004830152602082602481845afa9182156116ce578492611952575b506040517fa9059cbb0000000000000000000000000000000000000000000000000000000060208201526001600160a01b0393909316602484015260448084019290925290825261194b9190611946606483613be6565b61436f565b6001815580f35b9291506020833d602011611982575b8161196e60209383613be6565b8101031261156557915190916119466118ef565b3d9150611961565b50346101c35761199936613b47565b92916001600160a01b03811683526002602052604083206001600160a01b036119c58460078401613e82565b90549060031b1c163303611a7c577f189a28a3be2ec38788a4a7ff2146b2d9f4f852de2353c9287fed2564845a05d893946008611a769201611a4482611a25876001600160a01b03611a178287613e82565b90549060031b1c1694613e82565b9091906001600160a01b038084549260031b9316831b921b1916179055565b6040519485948592936001600160a01b0380929695606094826080880199168752602087015216604085015216910152565b0390a180f35b6004847f82b42900000000000000000000000000000000000000000000000000000000008152fd5b50346101c357806003193601126101c35760206001600160a01b0360015416604051908152f35b50346101c35760206003193601126101c3576001600160a01b03611aed613b07565b611af5613fd9565b168152600260205260408120604051611b0d81613b81565b6001600160a01b038254168152611b2660018301613c09565b602082019081526004830154936040830194855260058401549160608401928352600685019460405180968791602082549182815201918652602086209086915b81600f8401106125905792611c079260089592611c259795549181811061257b575b818110612563575b81811061254c575b818110612534575b81811061251c575b818110612504575b8181106124ec575b8181106124d4575b8181106124bc575b8181106124a4575b81811061248c575b818110612474575b81811061245c575b818110612444575b81811061242c575b1061241e575b500389613be6565b60808701978852611c1a60078201613ec4565b60a088015201613ec4565b9260c085019384528151965190516060906001810180821161226b57611c4b8a9161410d565b9386905b838210612395575050611c86939291611c946001600160a01b03602081611cc99551169d01511693604051968791602083016141ba565b03601f198101875286613be6565b6040518b602082015283604082015230606082015260608152611cb8608082613be6565b611cc28286613f17565b5283613f17565b50604051917f70a082310000000000000000000000000000000000000000000000000000000083523060048401526020836024818d5afa928315611571578693612361575b50604051937f70a08231000000000000000000000000000000000000000000000000000000008552306004860152602085602481865afa948515612356578795612322575b506001600160a01b037f00000000000000000000000000000000000000000000000000000000000000001690813b1561231e57918791611dc393836040518096819582947f4afe393c000000000000000000000000000000000000000000000000000000008452600484016141f0565b03925af1801561157157612309575b5060206024979899604051988980927f70a082310000000000000000000000000000000000000000000000000000000082523060048301525afa9687156115285785976122d4575b50956020602497604051988980927f70a082310000000000000000000000000000000000000000000000000000000082523060048301525afa968715611528578597612298575b50611e7a9291611e749198979698614041565b94614041565b9051956001600160a01b036020818951169801511693611e9b825151614010565b93611ea7835151614010565b958198829a839a5b8651515f19810190811161226b578c1015611f4357611f398c9d611f2c8e8d9e9f6001958f8f928f938f928f83612710611f1f611f339961ffff611f06858b86611f0d611f269a611f2c9f611f0686899251613f17565b5116613f43565b04611f18838d613f17565b5251613f17565b0492613f17565b52613f17565b519061404e565b9d613f17565b9c019a9998611eaf565b89949695888c8f611f558d9585614041565b8a51515f19810190811161223e5790611f72611f79939288613f17565b5283614041565b8951515f1981019081116122115790611f988c9796959493928b613f17565b52855b8a515181101561219e57611faf8186613f17565b516120bd575b611fbf818b613f17565b51611fcd575b600101611f9b565b6001600160a01b037f00000000000000000000000000000000000000000000000000000000000000001661200c612004838d613f17565b51828c61427e565b6001600160a01b0361201f838b51613f17565b511661202b838d613f17565b51823b156120b9576040517f42237c360000000000000000000000000000000000000000000000000000000081526001600160a01b039283166004820152918c16602483015260448201529088908290606490829084905af19081156120ae578891612099575b5050611fc5565b816120a391613be6565b6117d557868d612092565b6040513d8a823e3d90fd5b8980fd5b6001600160a01b037f0000000000000000000000000000000000000000000000000000000000000000166120fc6120f48388613f17565b51828961427e565b6001600160a01b0361210f838b51613f17565b511661211b8388613f17565b51823b156120b9576040517f42237c360000000000000000000000000000000000000000000000000000000081526001600160a01b039283166004820152918916602483015260448201529088908290606490829084905af19081156120ae578891612189575b5050611fb5565b8161219391613be6565b6117d557868d612182565b867f21d15f71483b597e8f0009e83b90b2117f6f98c185d7173857dddcae5eb8546a85856122078e6121f98b6001600160a01b038a51169460405196879687526020870152604086015260a0606086015260a085019061405b565b90838203608085015261405b565b0390a16001815580f35b60248c7f4e487b710000000000000000000000000000000000000000000000000000000081526011600452fd5b60248d7f4e487b710000000000000000000000000000000000000000000000000000000081526011600452fd5b6024867f4e487b710000000000000000000000000000000000000000000000000000000081526011600452fd5b9096506020929192813d6020116122cc575b816122b760209383613be6565b81010312611565575195909190611e7a611e61565b3d91506122aa565b96506020873d602011612301575b816122ef60209383613be6565b81010312611565579551956020611e1a565b3d91506122e2565b612314868092613be6565b611533575f611dd2565b8780fd5b9094506020813d60201161234e575b8161233e60209383613be6565b810103126115655751935f611d53565b3d9150612331565b6040513d89823e3d90fd5b9092506020813d60201161238d575b8161237d60209383613be6565b810103126115655751915f611d0e565b3d9150612370565b915092610b4f6123b060019260405192839160208301614184565b936123bb818461404e565b612400604051918a83526123d0602084613be6565b610b4f60405193849260208401528c60408401528c60608401528c608084015260a08084015260c0830190613cae565b61240a8288613f17565b526124158187613f17565b50018a91611c4f565b60f01c81526020015f611bff565b92602060019161ffff8560e01c168152019301611bf9565b92602060019161ffff8560d01c168152019301611bf1565b92602060019161ffff8560c01c168152019301611be9565b92602060019161ffff8560b01c168152019301611be1565b92602060019161ffff8560a01c168152019301611bd9565b92602060019161ffff8560901c168152019301611bd1565b92602060019161ffff8560801c168152019301611bc9565b92602060019161ffff8560701c168152019301611bc1565b92602060019161ffff8560601c168152019301611bb9565b92602060019161ffff8560501c168152019301611bb1565b92602060019161ffff8560401c168152019301611ba9565b92602060019161ffff8560301c168152019301611ba1565b92602060019161ffff85831c168152019301611b99565b92602060019161ffff8560101c168152019301611b91565b92602060019161ffff85168152019301611b89565b935090916001610200601092865461ffff8116825261ffff81861c16602083015261ffff8160201c16604083015261ffff8160301c16606083015261ffff8160401c16608083015261ffff8160501c1660a083015261ffff8160601c1660c083015261ffff8160701c1660e083015261ffff8160801c1661010083015261ffff8160901c1661012083015261ffff8160a01c1661014083015261ffff8160b01c1661016083015261ffff8160c01c1661018083015261ffff8160d01c166101a083015261ffff8160e01c166101c083015260f01c6101e0820152019401920190899392611b67565b50346101c357806003193601126101c35760206040516001600160a01b037f0000000000000000000000000000000000000000000000000000000000000000168152f35b50346101c357806003193601126101c3576126d561408e565b806001600160a01b036001547fffffffffffffffffffffffff00000000000000000000000000000000000000008116600155167f8be0079c531659141344cd1fd0a4f28419497f9722a3daafe3b4186f6b6457e08280a380f35b50346101c357806003193601126101c35760206040516001600160a01b037f0000000000000000000000000000000000000000000000000000000000000000168152f35b50346101c35760206003193601126101c35780808080612791613b07565b61279961408e565b6127a1613fd9565b4790829082156127cf575b6001600160a01b031690f1156127c3576001815580f35b604051903d90823e3d90fd5b6108fc91506127ac565b5034611565576020600319360112611565576001600160a01b036127fb613b07565b612803613fd9565b165f52600260205260405f20906040519061281d82613b81565b6001600160a01b03835416825261283660018401613c09565b90602083019182526004840154906040840191825260058501549260608501938452600686019560405180978891602082549182815201915f5260205f20905f915b81600f8401106131865792612918926008959261293697955491818110613171575b818110613159575b818110613142575b81811061312a575b818110613112575b8181106130fa575b8181106130e2575b8181106130ca575b8181106130b2575b81811061309a575b818110613082575b81811061306a575b818110613052575b81811061303a575b818110613022575b10613014575b50038a613be6565b6080880198895261292b60078201613ec4565b60a089015201613ec4565b9260c0860193845281519051945160609060018101808211612fe75761295b9061410d565b965f905b828210612f60575050906129cb83926129966001600160a01b03602081611c869851169601511693604051968791602083016141ba565b604051846020820152836040820152306060820152606081526129ba608082613be6565b6129c4828b613f17565b5288613f17565b50604051917f70a08231000000000000000000000000000000000000000000000000000000008352306004840152602083602481845afa928315612eed575f93612f2c575b50604051937f70a08231000000000000000000000000000000000000000000000000000000008552306004860152602085602481865afa948515612eed575f95612ef8575b50612aa46001600160a01b037f00000000000000000000000000000000000000000000000000000000000000001691612a966040519b8c92602084016141f0565b03601f1981018b528a613be6565b803b1561156557612aea5f99918a926040519b8c809481937fdd46508f000000000000000000000000000000000000000000000000000000008352429060048401614262565b03925af1978815612eed57602498612ed7575b50602090604051988980927f70a082310000000000000000000000000000000000000000000000000000000082523060048301525afa968715611528578597612ea2575b50956020602497604051988980927f70a082310000000000000000000000000000000000000000000000000000000082523060048301525afa968715611528578597612e66575b50612b9b9291611e749198979698614041565b9051956001600160a01b036020818951169801511693612bbc825151614010565b93612bc8835151614010565b958198829a839a5b8651515f19810190811161226b578c1015612c3157612c278c9d611f2c8e8d9e9f6001958f8f928f938f928f83612710611f1f611f339961ffff611f06858b86611f0d611f269a611f2c9f611f0686899251613f17565b9c019a9998612bd0565b89949695888c8f612c438d9585614041565b8a51515f19810190811161223e5790611f72612c60939288613f17565b8951515f1981019081116122115790612c7f8c9796959493928b613f17565b52855b8a515181101561219e57612c968186613f17565b51612d8d575b612ca6818b613f17565b51612cb4575b600101612c82565b6001600160a01b037f000000000000000000000000000000000000000000000000000000000000000016612ceb612004838d613f17565b6001600160a01b03612cfe838b51613f17565b5116612d0a838d613f17565b51823b156120b9576040517f42237c360000000000000000000000000000000000000000000000000000000081526001600160a01b039283166004820152918c16602483015260448201529088908290606490829084905af19081156120ae578891612d78575b5050612cac565b81612d8291613be6565b6117d557868d612d71565b6001600160a01b037f000000000000000000000000000000000000000000000000000000000000000016612dc46120f48388613f17565b6001600160a01b03612dd7838b51613f17565b5116612de38388613f17565b51823b156120b9576040517f42237c360000000000000000000000000000000000000000000000000000000081526001600160a01b039283166004820152918916602483015260448201529088908290606490829084905af19081156120ae578891612e51575b5050612c9c565b81612e5b91613be6565b6117d557868d612e4a565b9096506020929192813d602011612e9a575b81612e8560209383613be6565b81010312611565575195909190612b9b612b88565b3d9150612e78565b96506020873d602011612ecf575b81612ebd60209383613be6565b81010312611565579551956020612b41565b3d9150612eb0565b612ee49196505f90613be6565b5f946020612afd565b6040513d5f823e3d90fd5b9094506020813d602011612f24575b81612f1460209383613be6565b810103126115655751935f612a55565b3d9150612f07565b9092506020813d602011612f58575b81612f4860209383613be6565b810103126115655751915f612a10565b3d9150612f3b565b9092610b4f612f7a60019260405192839160208301614184565b93612f85818461404e565b612fca604051915f8352612f9a602084613be6565b610b4f60405193849260208401525f60408401525f60608401525f608084015260a08084015260c0830190613cae565b612fd4828c613f17565b52612fdf818b613f17565b50019061295f565b7f4e487b71000000000000000000000000000000000000000000000000000000005f52601160045260245ffd5b60f01c81526020015f612910565b92602060019161ffff8560e01c16815201930161290a565b92602060019161ffff8560d01c168152019301612902565b92602060019161ffff8560c01c1681520193016128fa565b92602060019161ffff8560b01c1681520193016128f2565b92602060019161ffff8560a01c1681520193016128ea565b92602060019161ffff8560901c1681520193016128e2565b92602060019161ffff8560801c1681520193016128da565b92602060019161ffff8560701c1681520193016128d2565b92602060019161ffff8560601c1681520193016128ca565b92602060019161ffff8560501c1681520193016128c2565b92602060019161ffff8560401c1681520193016128ba565b92602060019161ffff8560301c1681520193016128b2565b92602060019161ffff85831c1681520193016128aa565b92602060019161ffff8560101c1681520193016128a2565b92602060019161ffff8516815201930161289a565b935090916001610200601092865461ffff8116825261ffff81861c16602083015261ffff8160201c16604083015261ffff8160301c16606083015261ffff8160401c16608083015261ffff8160501c1660a083015261ffff8160601c1660c083015261ffff8160701c1660e083015261ffff8160801c1661010083015261ffff8160901c1661012083015261ffff8160a01c1661014083015261ffff8160b01c1661016083015261ffff8160c01c1661018083015261ffff8160d01c166101a083015261ffff8160e01c166101c083015260f01c6101e08201520194019201908a9392612878565b34611565575f600319360112611565576132cd60405161328f604082613be6565b600181527f31000000000000000000000000000000000000000000000000000000000000006020820152604051918291602083526020830190613cae565b0390f35b613c57565b34611565576020600319360112611565576001600160a01b036132f7613b07565b606060c060405161330781613b81565b5f815260405161331681613bca565b5f81525f60208201525f60408201525f848201525f608082015260208201525f60408201525f838201528260808201528260a08201520152165f52600260205260405f206040519061336782613b81565b6001600160a01b03815416825261338060018201613c09565b9160208101928352600482015491604082019283526005810154606083019081526006820190604051808360208295549384815201905f5260205f20925f905b80600f8301106136ea576134639454918181106136d5575b8181106136bd575b8181106136a6575b81811061368e575b818110613676575b81811061365e575b818110613646575b81811061362e575b818110613616575b8181106135fe575b8181106135e6575b8181106135ce575b8181106135b6575b81811061359e575b818110613586575b10613578575b50936134f89897969594939291930383613be6565b60808401918252613489600861347b60078601613ec4565b9460a0870195865201613ec4565b9460c08501958652604051978897602089526001600160a01b036101808a0197511660208a01525160408901906001600160a01b036080809282815116855282602082015116602086015262ffffff6040820151166040860152606081015160020b6060860152015116910152565b5160e0870152516101008601525191610160610120860152825180915260206101a086019301905f5b81811061355b575050506132cd92916135479151601f1986830301610140870152613c72565b9051601f1984830301610160850152613c72565b825161ffff16855287965060209485019490920191600101613521565b60f01c81526020018961344e565b92602060019161ffff8560e01c168152019301613448565b92602060019161ffff8560d01c168152019301613440565b92602060019161ffff8560c01c168152019301613438565b92602060019161ffff8560b01c168152019301613430565b92602060019161ffff8560a01c168152019301613428565b92602060019161ffff8560901c168152019301613420565b92602060019161ffff8560801c168152019301613418565b92602060019161ffff8560701c168152019301613410565b92602060019161ffff8560601c168152019301613408565b92602060019161ffff8560501c168152019301613400565b92602060019161ffff8560401c1681520193016133f8565b92602060019161ffff8560301c1681520193016133f0565b92602060019161ffff85831c1681520193016133e8565b92602060019161ffff8560101c1681520193016133e0565b92602060019161ffff851681520193016133d8565b916010919350610200600191865461ffff8116825261ffff81861c16602083015261ffff8160201c16604083015261ffff8160301c16606083015261ffff8160401c16608083015261ffff8160501c1660a083015261ffff8160601c1660c083015261ffff8160701c1660e083015261ffff8160801c1661010083015261ffff8160901c1661012083015261ffff8160a01c1661014083015261ffff8160b01c1661016083015261ffff8160c01c1661018083015261ffff8160d01c166101a083015261ffff8160e01c166101c083015260f01c6101e08201520194019201859293916133c0565b34611565576080600319360112611565576137eb613b07565b506137f4613b1d565b60643567ffffffffffffffff8111611565573660238201121561156557806004013567ffffffffffffffff81116115655736910160240111611565576001600160a01b03166001600160a01b037f00000000000000000000000000000000000000000000000000000000000000001681036138bf577f88a5966d370b9919b20f3e2c13ff65706f196a4e32cc2c12bf57088f8852587460206040516044358152a260206040517f150b7a02000000000000000000000000000000000000000000000000000000008152f35b7f82b42900000000000000000000000000000000000000000000000000000000005f5260045ffd5b34611565575f6003193601126115655760206040516001600160a01b037f0000000000000000000000000000000000000000000000000000000000000000168152f35b34611565576020600319360112611565576001600160a01b0361394b613b07565b165f52600260205261010060405f206001600160a01b038154169061397260018201613c09565b906139ce600560048301549201549260405194855260208501906001600160a01b036080809282815116855282602082015116602086015262ffffff6040820151166040860152606081015160020b6060860152015116910152565b60c083015260e0820152f35b34611565576020600319360112611565576004357fffffffff00000000000000000000000000000000000000000000000000000000811680910361156557807f150b7a020000000000000000000000000000000000000000000000000000000060209214908115613a51575b506040519015158152f35b7f0ab976c00000000000000000000000000000000000000000000000000000000091501482613a46565b3461156557613a8936613b47565b916001600160a01b0381165f526002602052600760405f20016001600160a01b03613ab48483613e82565b90549060031b1c1633036138bf578381611a447f2aad5ba8634f3d476ba298c3c089253d053106f0dd2caac6bae480ed9db420bf96611a25876001600160a01b03611a1782613b0299613e82565b0390a1005b600435906001600160a01b038216820361156557565b602435906001600160a01b038216820361156557565b35906001600160a01b038216820361156557565b6003196060910112611565576004356001600160a01b03811681036115655790602435906044356001600160a01b03811681036115655790565b60e0810190811067ffffffffffffffff821117613b9d57604052565b7f4e487b71000000000000000000000000000000000000000000000000000000005f52604160045260245ffd5b60a0810190811067ffffffffffffffff821117613b9d57604052565b90601f601f19910116810190811067ffffffffffffffff821117613b9d57604052565b90604051613c1681613bca565b60806001600160a01b03600283958281541685526001810154838116602087015262ffffff8160a01c16604087015260b81c820b6060860152015416910152565b34611565575f60031936011261156557602060405160078152f35b90602080835192838152019201905f5b818110613c8f5750505090565b82516001600160a01b0316845260209384019390920191600101613c82565b90601f19601f602080948051918291828752018686015e5f8582860101520116010190565b67ffffffffffffffff8111613b9d5760051b60200190565b9080601f83011215611565578135613d0281613cd3565b92613d106040519485613be6565b81845260208085019260051b82010192831161156557602001905b828210613d385750505090565b60208091613d4584613b33565b815201910190613d2b565b9080601f8301121561156557813590613d6882613cd3565b92613d766040519485613be6565b82845260208085019360051b82010191821161156557602001915b818310613d9e5750505090565b823561ffff8116810361156557815260209283019201613d91565b35908160020b820361156557565b9080601f83011215611565578135613dde81613cd3565b92613dec6040519485613be6565b81845260208085019260051b82010192831161156557602001905b828210613e145750505090565b60208091613e2184613db9565b815201910190613e07565b81601f820112156115655780359067ffffffffffffffff8211613b9d5760405192613e61601f8401601f191660200185613be6565b8284526020838301011161156557815f926020809301838601378301015290565b8054821015613e97575f5260205f2001905f90565b7f4e487b71000000000000000000000000000000000000000000000000000000005f52603260045260245ffd5b90604051918281549182825260208201905f5260205f20925f5b818110613ef5575050613ef392500383613be6565b565b84546001600160a01b0316835260019485019487945060209093019201613ede565b8051821015613e975760209160051b010190565b90816020910312611565575180151581036115655790565b81810292918115918404141715612fe757565b818110613f61575050565b5f8155600101613f56565b90602080835192838152019201905f5b818110613f895750505090565b825161ffff16845260209384019390920191600101613f7c565b90602080835192838152019201905f5b818110613fc05750505090565b825160020b845260209384019390920191600101613fb3565b60025f5414613fe85760025f55565b7f3ee5aeb5000000000000000000000000000000000000000000000000000000005f5260045ffd5b9061401a82613cd3565b6140276040519182613be6565b828152601f196140378294613cd3565b0190602036910137565b91908203918211612fe757565b91908201809211612fe757565b90602080835192838152019201905f5b8181106140785750505090565b825184526020938401939092019160010161406b565b6001600160a01b036001541633036140a257565b7f118cdaa7000000000000000000000000000000000000000000000000000000005f523360045260245ffd5b9060020b9081156140e05760020b0790565b7f4e487b71000000000000000000000000000000000000000000000000000000005f52601260045260245ffd5b9061411782613cd3565b6141246040519182613be6565b828152601f196141348294613cd3565b01905f5b82811061414457505050565b806060602080938501015201614138565b60020b7fffffffffffffffffffffffffffffffffffffffffffffffffffffffffff8000008114612fe7575f0390565b602090600192805192839101825e017f010000000000000000000000000000000000000000000000000000000000000081520190565b602090600192805192839101825e017f110000000000000000000000000000000000000000000000000000000000000081520190565b9061420390604083526040830190613cae565b906020818303910152815180825260208201916020808360051b8301019401925f915b83831061423557505050505090565b909192939460208061425383601f1986600196030187528951613cae565b97019301930191939290614226565b929190614279602091604086526040860190613cae565b930152565b6040517f095ea7b30000000000000000000000000000000000000000000000000000000060208281019182526001600160a01b03851660248401526044830195909552929390925f906142d48560648101611c86565b84519082855af15f513d8261434a575b5050156142f057505050565b611946613ef3936001600160a01b03604051917f095ea7b30000000000000000000000000000000000000000000000000000000060208401521660248201525f604482015260448152614344606482613be6565b8261436f565b90915061436757506001600160a01b0381163b15155b5f806142e4565b600114614360565b905f602091828151910182855af115612eed575f513d6143d357506001600160a01b0381163b155b61439e5750565b6001600160a01b03907f5274afe7000000000000000000000000000000000000000000000000000000005f521660045260245ffd5b60011415614397565b60020b908160ff1d82810118620d89e881116147035763ffffffff9192600182167001fffcb933bd6fad37aa2d162d1a594001027001000000000000000000000000000000001891600281166146e7575b600481166146cb575b600881166146af575b60108116614693575b60208116614677575b6040811661465b575b6080811661463f575b6101008116614623575b6102008116614607575b61040081166145eb575b61080081166145cf575b61100081166145b3575b6120008116614597575b614000811661457b575b618000811661455f575b620100008116614543575b620200008116614528575b62040000811661450d575b62080000166144f4575b5f126144ec575b0160201c90565b5f19046144e5565b6b048a170391f7dc42444e8fa290910260801c906144de565b6d2216e584f5fa1ea926041bedfe9890920260801c916144d4565b916e5d6af8dedb81196699c329225ee6040260801c916144c9565b916f09aa508b5b7a84e1c677de54f3e99bc90260801c916144be565b916f31be135f97d08fd981231505542fcfa60260801c916144b3565b916f70d869a156d2a1b890bb3df62baf32f70260801c916144a9565b916fa9f746462d870fdf8a65dc1f90e061e50260801c9161449f565b916fd097f3bdfd2022b8845ad8f792aa58250260801c91614495565b916fe7159475a2c29b7443b29c7fa6e889d90260801c9161448b565b916ff3392b0822b70005940c7a398e4b70f30260801c91614481565b916ff987a7253ac413176f2b074cf7815e540260801c91614477565b916ffcbe86c7900a88aedcffc83b479aa3a40260801c9161446d565b916ffe5dee046a99a2a811c461f1969c30530260801c91614463565b916fff2ea16466c96a3843ec78b326b528610260801c9161445a565b916fff973b41fa98c081472e6896dfb254c00260801c91614451565b916fffcb9843d60f6159c9db58835c9266440260801c91614448565b916fffe5caca7e10e4e61c3624eaa0941cd00260801c9161443f565b916ffff2e50f5f656932ef12357cf3c7fdcc0260801c91614436565b916ffff97272373d413259a46990580e213a0260801c9161442d565b827f8b86327a000000000000000000000000000000000000000000000000000000005f5260045260245ffd5b916001600160a01b0361475993614754938281168383161161475c575b0316906147ab565b614920565b90565b9061474c565b9161475491614759936001600160a01b0382166001600160a01b038216116147a5575b6001600160a01b039061479c828416838316614845565b920316916148a0565b90614785565b908160601b905f196c01000000000000000000000000840992828085109403938085039485841115611565571461483e576c0100000000000000000000000082910981805f03168092046002816003021880820260020302808202600203028082026002030280820260020302808202600203028091026002030293600183805f03040190848311900302920304170290565b5091500490565b90808202915f19828209918380841093039280840393846c0100000000000000000000000011156115655714614897576c01000000000000000000000000910990828211900360a01b910360601c1790565b50505060601c90565b91818302915f19818509938380861095039480860395868511156115655714614918579082910981805f03168092046002816003021880820260020302808202600203028082026002030280820260020302808202600203028091026002030293600183805f03040190848311900302920304170290565b505091500490565b906fffffffffffffffffffffffffffffffff821680920361493d57565b7f93dafdf1000000000000000000000000000000000000000000000000000000005f5260045ffd","linkReferences":{}},"methodIdentifiers":{"BASIS_POINTS()":"e1f1c4a7","MAX_LP_POSITIONS()":"52db242f","MAX_REWARD_PARTICIPANTS()":"14a7f403","_tokenRewards(address)":"1105d933","collectRewards(address)":"5763dbd0","collectRewardsWithoutUnlock(address)":"86b0c83f","factory()":"c45a0155","feeLocker()":"70e9d244","onERC721Received(address,address,uint256,bytes)":"150b7a02","owner()":"8da5cb5b","permit2()":"12261ee7","placeLiquidity((address,address[],address[],uint16[],int24[],int24[],uint16[],bytes),(address,address,int24,int24,bytes),(address,address,uint24,int24,address),uint256,address)":"ea289263","positionManager()":"791b98bc","renounceOwnership()":"715018a6","supportsInterface(bytes4)":"01ffc9a7","tokenRewards(address)":"30bd3eeb","transferOwnership(address)":"f2fde38b","updateRewardAdmin(address,uint256,address)":"0150a986","updateRewardRecipient(address,uint256,address)":"911573b3","version()":"54fd4d50","withdrawERC20(address,address)":"9456fbcc","withdrawETH(address)":"690d8320"},"id":117}