{"abi":[{"type":"constructor","inputs":[{"name":"owner_","type":"address","internalType":"address"},{"name":"factory_","type":"address","internalType":"address"},{"name":"feeLocker_","type":"address","internalType":"address"},{"name":"positionManager_","type":"address","internalType":"address"},{"name":"permit2_","type":"address","internalType":"address"}],"stateMutability":"nonpayable"},{"type":"function","name":"BASIS_POINTS","inputs":[],"outputs":[{"name":"","type":"uint256","internalType":"uint256"}],"stateMutability":"view"},{"type":"function","name":"MAX_LP_POSITIONS","inputs":[],"outputs":[{"name":"","type":"uint256","internalType":"uint256"}],"stateMutability":"view"},{"type":"function","name":"MAX_REWARD_PARTICIPANTS","inputs":[],"outputs":[{"name":"","type":"uint256","internalType":"uint256"}],"stateMutability":"view"},{"type":"function","name":"collectRewards","inputs":[{"name":"token","type":"address","internalType":"address"}],"outputs":[],"stateMutability":"nonpayable"},{"type":"function","name":"collectRewardsWithoutUnlock","inputs":[{"name":"token","type":"address","internalType":"address"}],"outputs":[],"stateMutability":"nonpayable"},{"type":"function","name":"factory","inputs":[],"outputs":[{"name":"","type":"address","internalType":"address"}],"stateMutability":"view"},{"type":"function","name":"feeLocker","inputs":[],"outputs":[{"name":"","type":"address","internalType":"contract IClankerFeeLocker"}],"stateMutability":"view"},{"type":"function","name":"onERC721Received","inputs":[{"name":"","type":"address","internalType":"address"},{"name":"from","type":"address","internalType":"address"},{"name":"id","type":"uint256","internalType":"uint256"},{"name":"","type":"bytes","internalType":"bytes"}],"outputs":[{"name":"","type":"bytes4","internalType":"bytes4"}],"stateMutability":"nonpayable"},{"type":"function","name":"owner","inputs":[],"outputs":[{"name":"","type":"address","internalType":"address"}],"stateMutability":"view"},{"type":"function","name":"permit2","inputs":[],"outputs":[{"name":"","type":"address","internalType":"contract IPermit2"}],"stateMutability":"view"},{"type":"function","name":"placeLiquidity","inputs":[{"name":"lockerConfig","type":"tuple","internalType":"struct IClanker.LockerConfig","components":[{"name":"rewardAdmins","type":"address[]","internalType":"address[]"},{"name":"rewardRecipients","type":"address[]","internalType":"address[]"},{"name":"rewardBps","type":"uint16[]","internalType":"uint16[]"},{"name":"tickLower","type":"int24[]","internalType":"int24[]"},{"name":"tickUpper","type":"int24[]","internalType":"int24[]"},{"name":"positionBps","type":"uint16[]","internalType":"uint16[]"}]},{"name":"poolConfig","type":"tuple","internalType":"struct IClanker.PoolConfig","components":[{"name":"hook","type":"address","internalType":"address"},{"name":"pairedToken","type":"address","internalType":"address"},{"name":"tickIfToken0IsClanker","type":"int24","internalType":"int24"},{"name":"tickSpacing","type":"int24","internalType":"int24"},{"name":"poolData","type":"bytes","internalType":"bytes"}]},{"name":"poolKey","type":"tuple","internalType":"struct PoolKey","components":[{"name":"currency0","type":"address","internalType":"Currency"},{"name":"currency1","type":"address","internalType":"Currency"},{"name":"fee","type":"uint24","internalType":"uint24"},{"name":"tickSpacing","type":"int24","internalType":"int24"},{"name":"hooks","type":"address","internalType":"contract IHooks"}]},{"name":"poolSupply","type":"uint256","internalType":"uint256"},{"name":"token","type":"address","internalType":"address"}],"outputs":[{"name":"positionId","type":"uint256","internalType":"uint256"}],"stateMutability":"nonpayable"},{"type":"function","name":"positionManager","inputs":[],"outputs":[{"name":"","type":"address","internalType":"contract IPositionManager"}],"stateMutability":"view"},{"type":"function","name":"renounceOwnership","inputs":[],"outputs":[],"stateMutability":"nonpayable"},{"type":"function","name":"supportsInterface","inputs":[{"name":"interfaceId","type":"bytes4","internalType":"bytes4"}],"outputs":[{"name":"","type":"bool","internalType":"bool"}],"stateMutability":"pure"},{"type":"function","name":"tokenRewards","inputs":[{"name":"token","type":"address","internalType":"address"}],"outputs":[{"name":"token","type":"address","internalType":"address"},{"name":"poolKey","type":"tuple","internalType":"struct PoolKey","components":[{"name":"currency0","type":"address","internalType":"Currency"},{"name":"currency1","type":"address","internalType":"Currency"},{"name":"fee","type":"uint24","internalType":"uint24"},{"name":"tickSpacing","type":"int24","internalType":"int24"},{"name":"hooks","type":"address","internalType":"contract IHooks"}]},{"name":"positionId","type":"uint256","internalType":"uint256"},{"name":"numPositions","type":"uint256","internalType":"uint256"}],"stateMutability":"view"},{"type":"function","name":"transferOwnership","inputs":[{"name":"newOwner","type":"address","internalType":"address"}],"outputs":[],"stateMutability":"nonpayable"},{"type":"function","name":"updateRewardAdmin","inputs":[{"name":"token","type":"address","internalType":"address"},{"name":"rewardIndex","type":"uint256","internalType":"uint256"},{"name":"newAdmin","type":"address","internalType":"address"}],"outputs":[],"stateMutability":"nonpayable"},{"type":"function","name":"updateRewardRecipient","inputs":[{"name":"token","type":"address","internalType":"address"},{"name":"rewardIndex","type":"uint256","internalType":"uint256"},{"name":"newRecipient","type":"address","internalType":"address"}],"outputs":[],"stateMutability":"nonpayable"},{"type":"function","name":"version","inputs":[],"outputs":[{"name":"","type":"string","internalType":"string"}],"stateMutability":"view"},{"type":"function","name":"withdrawERC20","inputs":[{"name":"token","type":"address","internalType":"address"},{"name":"recipient","type":"address","internalType":"address"}],"outputs":[],"stateMutability":"nonpayable"},{"type":"function","name":"withdrawETH","inputs":[{"name":"recipient","type":"address","internalType":"address"}],"outputs":[],"stateMutability":"nonpayable"},{"type":"event","name":"ClaimedRewards","inputs":[{"name":"token","type":"address","indexed":false,"internalType":"address"},{"name":"amount0","type":"uint256","indexed":false,"internalType":"uint256"},{"name":"amount1","type":"uint256","indexed":false,"internalType":"uint256"},{"name":"rewards0","type":"uint256[]","indexed":false,"internalType":"uint256[]"},{"name":"rewards1","type":"uint256[]","indexed":false,"internalType":"uint256[]"}],"anonymous":false},{"type":"event","name":"OwnershipTransferred","inputs":[{"name":"previousOwner","type":"address","indexed":true,"internalType":"address"},{"name":"newOwner","type":"address","indexed":true,"internalType":"address"}],"anonymous":false},{"type":"event","name":"Received","inputs":[{"name":"from","type":"address","indexed":true,"internalType":"address"},{"name":"positionId","type":"uint256","indexed":false,"internalType":"uint256"}],"anonymous":false},{"type":"event","name":"RewardAdminUpdated","inputs":[{"name":"token","type":"address","indexed":false,"internalType":"address"},{"name":"rewardIndex","type":"uint256","indexed":false,"internalType":"uint256"},{"name":"oldAdmin","type":"address","indexed":false,"internalType":"address"},{"name":"newAdmin","type":"address","indexed":false,"internalType":"address"}],"anonymous":false},{"type":"event","name":"RewardRecipientUpdated","inputs":[{"name":"token","type":"address","indexed":false,"internalType":"address"},{"name":"rewardIndex","type":"uint256","indexed":false,"internalType":"uint256"},{"name":"oldRecipient","type":"address","indexed":false,"internalType":"address"},{"name":"newRecipient","type":"address","indexed":false,"internalType":"address"}],"anonymous":false},{"type":"event","name":"TokenRewardAdded","inputs":[{"name":"token","type":"address","indexed":false,"internalType":"address"},{"name":"poolKey","type":"tuple","indexed":false,"internalType":"struct PoolKey","components":[{"name":"currency0","type":"address","internalType":"Currency"},{"name":"currency1","type":"address","internalType":"Currency"},{"name":"fee","type":"uint24","internalType":"uint24"},{"name":"tickSpacing","type":"int24","internalType":"int24"},{"name":"hooks","type":"address","internalType":"contract IHooks"}]},{"name":"positionId","type":"uint256","indexed":false,"internalType":"uint256"},{"name":"numPositions","type":"uint256","indexed":false,"internalType":"uint256"},{"name":"rewardBps","type":"uint16[]","indexed":false,"internalType":"uint16[]"},{"name":"rewardAdmins","type":"address[]","indexed":false,"internalType":"address[]"},{"name":"rewardRecipients","type":"address[]","indexed":false,"internalType":"address[]"},{"name":"tickLower","type":"int24[]","indexed":false,"internalType":"int24[]"},{"name":"tickUpper","type":"int24[]","indexed":false,"internalType":"int24[]"},{"name":"positionBps","type":"uint16[]","indexed":false,"internalType":"uint16[]"}],"anonymous":false},{"type":"error","name":"InvalidPositionBps","inputs":[]},{"type":"error","name":"InvalidRewardBps","inputs":[]},{"type":"error","name":"MismatchedPositionInfos","inputs":[]},{"type":"error","name":"MismatchedRewardArrays","inputs":[]},{"type":"error","name":"NoPositions","inputs":[]},{"type":"error","name":"NoRewardRecipients","inputs":[]},{"type":"error","name":"OwnableInvalidOwner","inputs":[{"name":"owner","type":"address","internalType":"address"}]},{"type":"error","name":"OwnableUnauthorizedAccount","inputs":[{"name":"account","type":"address","internalType":"address"}]},{"type":"error","name":"ReentrancyGuardReentrantCall","inputs":[]},{"type":"error","name":"TickRangeLowerThanStartingTick","inputs":[]},{"type":"error","name":"TicksBackwards","inputs":[]},{"type":"error","name":"TicksNotMultipleOfTickSpacing","inputs":[]},{"type":"error","name":"TicksOutOfTickBounds","inputs":[]},{"type":"error","name":"TokenAlreadyHasRewards","inputs":[]},{"type":"error","name":"TooManyPositions","inputs":[]},{"type":"error","name":"TooManyRewardParticipants","inputs":[]},{"type":"error","name":"Unauthorized","inputs":[]},{"type":"error","name":"ZeroRewardAddress","inputs":[]},{"type":"error","name":"ZeroRewardAmount","inputs":[]}],"bytecode":{"object":"0x6101003461018057601f61423b38819003918201601f19168301916001600160401b038311848410176101845780849260a0946040528339810103126101805761004881610198565b61005460208301610198565b9161006160408201610198565b610079608061007260608501610198565b9301610198565b60015f556001600160a01b0390931693841561016d57600180546001600160a01b03198116871790915560405195906001600160a01b03167f8be0079c531659141344cd1fd0a4f28419497f9722a3daafe3b4186f6b6457e05f80a360e0526001600160a01b0390811660c0529081166080521660a05261408e90816101ad82396080518181816107450152818161115d015281816114fa0152818161280d01528181612896015281816128e70152612954015260a05181818161276301526132b3015260c051818181610977015281816112140152611704015260e0518181816101f801528181611f0d01526132180152f35b631e4fbdf760e01b5f525f60045260245ffd5b5f80fd5b634e487b7160e01b5f52604160045260245ffd5b51906001600160a01b03821682036101805756fe60806040526004361015610011575f80fd5b5f5f3560e01c80630150a9861461337857806301ffc9a7146132d757806312261ee71461329457806314a7f40314611b6c578063150b7a02146131a757806322135faa14611c2257806330bd3eeb14611b7157806352db242f14611b6c57806354fd4d5014611b075780635763dbd014611292578063690d83201461123857806370e9d244146111f4578063715018a614611181578063791b98bc1461113d57806386b0c83f146104b15780638da5cb5b1461048a578063911573b3146103705780639456fbcc1461021c578063c45a0155146101d8578063e1f1c4a7146101bb5763f2fde38b14610101575f80fd5b346101b85760206003193601126101b8576001600160a01b03610122613404565b61012a613ac5565b16801561018c576001600160a01b03600154827fffffffffffffffffffffffff0000000000000000000000000000000000000000821617600155167f8be0079c531659141344cd1fd0a4f28419497f9722a3daafe3b4186f6b6457e08380a380f35b6024827f1e4fbdf700000000000000000000000000000000000000000000000000000000815280600452fd5b80fd5b50346101b857806003193601126101b85760206040516127108152f35b50346101b857806003193601126101b85760206040516001600160a01b037f0000000000000000000000000000000000000000000000000000000000000000168152f35b50346101b85760406003193601126101b857610236613404565b6001600160a01b0361024661341a565b9161024f613ac5565b1690604051907f70a08231000000000000000000000000000000000000000000000000000000008252306004830152602082602481865afa91821561036557849261032b575b506040517fa9059cbb0000000000000000000000000000000000000000000000000000000081526001600160a01b0390911660048201526024810191909152906020908290818581604481015b03925af18015610320576102f4575080f35b6103159060203d602011610319575b61030d81836134d1565b810190613723565b5080f35b503d610303565b6040513d84823e3d90fd5b91506020823d60201161035d575b81610346602093836134d1565b81010312610359579051906102e2610295565b5f80fd5b3d9150610339565b6040513d86823e3d90fd5b50346101b85761037f36613444565b92916001600160a01b03811683526002602052604083206001600160a01b036103ab84600784016136c0565b90549060031b1c163303610462577f189a28a3be2ec38788a4a7ff2146b2d9f4f852de2353c9287fed2564845a05d89394600861045c920161042a8261040b876001600160a01b036103fd82876136c0565b90549060031b1c16946136c0565b9091906001600160a01b038084549260031b9316831b921b1916179055565b6040519485948592936001600160a01b0380929695606094826080880199168752602087015216604085015216910152565b0390a180f35b6004847f82b42900000000000000000000000000000000000000000000000000000000008152fd5b50346101b857806003193601126101b85760206001600160a01b0360015416604051908152f35b50346101b85760206003193601126101b8576001600160a01b036104d3613404565b6104db61380d565b168152600260205260408120604051916104f4836134b5565b6001600160a01b03825416835261050d6001830161364d565b926020810193845260048301546040820190815260058401549260608301938452600685019460405180968791602082549182815201918552602085209085915b81600f84011061105557926105ee926008959261060c97955491818110611040575b818110611028575b818110611011575b818110610ff9575b818110610fe1575b818110610fc9575b818110610fb1575b818110610f99575b818110610f81575b818110610f69575b818110610f51575b818110610f39575b818110610f21575b818110610f09575b818110610ef1575b10610ee3575b5003896134d1565b6080860197885261060160078201613a01565b60a087015201613a01565b9360c084019485528651925190519260609360018101808211610eb65761063290613890565b9284905b828210610e21575050906106b061066d939261067b6001600160a01b0360208186511695015116976040519687916020830161393d565b03601f1981018752866134d1565b6040518360208201528760408201523060608201526060815261069f6080826134d1565b6106a9828661370f565b528361370f565b50604051917f70a08231000000000000000000000000000000000000000000000000000000008352306004840152602083602481855afa928315610d9f578593610ded575b50604051937f70a082310000000000000000000000000000000000000000000000000000000085523060048601526020856024818a5afa948515610de2578695610dae575b506001600160a01b037f00000000000000000000000000000000000000000000000000000000000000001690813b15610daa579186916107aa93836040518096819582947f4afe393c00000000000000000000000000000000000000000000000000000000845260048401613973565b03925af18015610d9f57610d86575b509060206024949392604051958680927f70a082310000000000000000000000000000000000000000000000000000000082523060048301525afa938415610d46578394610d51575b50602060249495604051958680927f70a082310000000000000000000000000000000000000000000000000000000082523060048301525afa938415610d46578394610d0e575b5061085a9061086093949795613a85565b95613a85565b9551946001600160a01b036020818851169701511694610881825151613a54565b9261088d835151613a54565b958197829683995b8651515f198101908111610ce1578d908c101561091e5761090a6001926109038e8e6108fc828f8f8f9961ffff6108e78584612710966109159f83896108ee6108f593896108e7856108ee9e5161370f565b511661373b565b049261370f565b525161370f565b528c61370f565b5190613883565b996109038d8d61370f565b9a019997610895565b978a95979394968a6109318f9483613a85565b8651515f198101908111610cb4579061094e61095593928661370f565b528b613a85565b998551519a5f198c019b8c11610c87576109748b9c8a9b989c9a61370f565b527f00000000000000000000000000000000000000000000000000000000000000006001600160a01b031695885b8b5151811015610c1457610a0960206109bb838861370f565b518c8b6040518095819482937f095ea7b300000000000000000000000000000000000000000000000000000000845260048401602090939291936001600160a01b0360408201951681520152565b03918b5af1908115610bb9578b8b8b8f86610a3091602096610a7a98610bf9575b5061370f565b516040517f095ea7b30000000000000000000000000000000000000000000000000000000081526001600160a01b0390921660048301526024820152938492839182906044820190565b03925af18015610bb957610bdd575b506001600160a01b03610a9d82895161370f565b5116610aa9828761370f565b5190893b15610bc4576040517f42237c360000000000000000000000000000000000000000000000000000000081526001600160a01b039182166004820152908816602482015260448101919091528a81606481838d5af1908115610bb9578b91610bc8575b50506001600160a01b03610b2482895161370f565b5116610b30828d61370f565b5190893b15610bc4576040517f42237c360000000000000000000000000000000000000000000000000000000081526001600160a01b039182166004820152908b16602482015260448101919091528a81606481838d5af1908115610bb9578b91610ba0575b50506001016109a2565b81610baa916134d1565b610bb557898e610b96565b8980fd5b6040513d8d823e3d90fd5b8b80fd5b81610bd2916134d1565b610bb557898e610b0f565b610bf49060203d81116103195761030d81836134d1565b610a89565b610c0f90883d81116103195761030d81836134d1565b610a2a565b897f21d15f71483b597e8f0009e83b90b2117f6f98c185d7173857dddcae5eb8546a8585610c7d8f610c6f8b6001600160a01b038a51169460405196879687526020870152604086015260a0606086015260a0850190613a92565b908382036080850152613a92565b0390a16001815580f35b60248b7f4e487b710000000000000000000000000000000000000000000000000000000081526011600452fd5b60248c7f4e487b710000000000000000000000000000000000000000000000000000000081526011600452fd5b6024867f4e487b710000000000000000000000000000000000000000000000000000000081526011600452fd5b909293506020813d602011610d3e575b81610d2b602093836134d1565b810103126103595751929161085a610849565b3d9150610d1e565b6040513d85823e3d90fd5b93506020843d602011610d7e575b81610d6c602093836134d1565b81010312610359579251926020610802565b3d9150610d5f565b610d918580926134d1565b610d9b575f6107b9565b8380fd5b6040513d87823e3d90fd5b8680fd5b9094506020813d602011610dda575b81610dca602093836134d1565b810103126103595751935f61073a565b3d9150610dbd565b6040513d88823e3d90fd5b9092506020813d602011610e19575b81610e09602093836134d1565b810103126103595751915f6106f5565b3d9150610dfc565b9095610e3b610e4960019260405192839160208301613907565b03601f1981018352826134d1565b96610e548184613883565b610e9960405191898352610e696020846134d1565b610e3b60405193849260208401528b60408401528b60608401528b608084015260a08084015260c083019061369b565b610ea3828861370f565b52610eae818761370f565b500190610636565b6024857f4e487b710000000000000000000000000000000000000000000000000000000081526011600452fd5b60f01c81526020015f6105e6565b92602060019161ffff8560e01c1681520193016105e0565b92602060019161ffff8560d01c1681520193016105d8565b92602060019161ffff8560c01c1681520193016105d0565b92602060019161ffff8560b01c1681520193016105c8565b92602060019161ffff8560a01c1681520193016105c0565b92602060019161ffff8560901c1681520193016105b8565b92602060019161ffff8560801c1681520193016105b0565b92602060019161ffff8560701c1681520193016105a8565b92602060019161ffff8560601c1681520193016105a0565b92602060019161ffff8560501c168152019301610598565b92602060019161ffff8560401c168152019301610590565b92602060019161ffff8560301c168152019301610588565b92602060019161ffff85831c168152019301610580565b92602060019161ffff8560101c168152019301610578565b92602060019161ffff85168152019301610570565b935090916001610200601092865461ffff8116825261ffff81861c16602083015261ffff8160201c16604083015261ffff8160301c16606083015261ffff8160401c16608083015261ffff8160501c1660a083015261ffff8160601c1660c083015261ffff8160701c1660e083015261ffff8160801c1661010083015261ffff8160901c1661012083015261ffff8160a01c1661014083015261ffff8160b01c1661016083015261ffff8160c01c1661018083015261ffff8160d01c166101a083015261ffff8160e01c166101c083015260f01c6101e082015201940192019089939261054e565b50346101b857806003193601126101b85760206040516001600160a01b037f0000000000000000000000000000000000000000000000000000000000000000168152f35b50346101b857806003193601126101b85761119a613ac5565b806001600160a01b036001547fffffffffffffffffffffffff00000000000000000000000000000000000000008116600155167f8be0079c531659141344cd1fd0a4f28419497f9722a3daafe3b4186f6b6457e08280a380f35b50346101b857806003193601126101b85760206040516001600160a01b037f0000000000000000000000000000000000000000000000000000000000000000168152f35b50346101b85760206003193601126101b85780808080611256613404565b61125e613ac5565b479082908215611288575b6001600160a01b031690f11561127c5780f35b604051903d90823e3d90fd5b6108fc9150611269565b50346101b85760206003193601126101b8576001600160a01b036112b4613404565b6112bc61380d565b168152600260205260408120604051916112d5836134b5565b6001600160a01b0382541683526112ee6001830161364d565b926020810193845260048301546040820190815260058401549260608301938452600685019460405180968791602082549182815201918552602085209085915b81600f840110611a1f57926105ee92600895926113bf97955491818110611040578181106110285781811061101157818110610ff957818110610fe157818110610fc957818110610fb157818110610f9957818110610f8157818110610f6957818110610f5157818110610f3957818110610f2157818110610f0957818110610ef15710610ee3575003896134d1565b9360c084019485528651925190519260609360018101808211610eb6576113e590613890565b9284905b8282106119c85750509061146261141f9261142d6001600160a01b0360208186511695015116976040519586916020830161393d565b03601f1981018652856134d1565b604051836020820152876040820152306060820152606081526114516080826134d1565b61145b828761370f565b528461370f565b50604051917f70a08231000000000000000000000000000000000000000000000000000000008352306004840152602083602481855afa928315610d9f578593611994575b50604051937f70a082310000000000000000000000000000000000000000000000000000000085523060048601526020856024818a5afa948515610de2578695611960575b5061152d6001600160a01b037f00000000000000000000000000000000000000000000000000000000000000001692610e3b60405193849260208401613973565b813b1561195c57611572869283926040519485809481937fdd46508f0000000000000000000000000000000000000000000000000000000083524290600484016139e5565b03925af18015610d9f57611947575b509060206024949392604051958680927f70a082310000000000000000000000000000000000000000000000000000000082523060048301525afa938415610d46578394611912575b50602060249495604051958680927f70a082310000000000000000000000000000000000000000000000000000000082523060048301525afa938415610d465783946118da575b5061085a9061162293949795613a85565b9551946001600160a01b036020818851169701511694611643825151613a54565b9261164f835151613a54565b958197829683995b8651515f198101908111610ce1578d908c10156116b25761090a6001926109038e8e6108fc828f8f8f9961ffff6108e78584612710966116a99f83896108ee6108f593896108e7856108ee9e5161370f565b9a019997611657565b978a95979394968a6116c58f9483613a85565b8651515f198101908111610cb4579061094e6116e293928661370f565b998551519a5f198c019b8c11610c87576117018b9c8a9b989c9a61370f565b527f00000000000000000000000000000000000000000000000000000000000000006001600160a01b031695885b8b5151811015610c145761174860206109bb838861370f565b03918b5af1908115610bb9578b8b8b8f86610a309160209661176e98610bf9575061370f565b03925af18015610bb9576118be575b506001600160a01b0361179182895161370f565b511661179d828761370f565b5190893b15610bc4576040517f42237c360000000000000000000000000000000000000000000000000000000081526001600160a01b039182166004820152908816602482015260448101919091528a81606481838d5af1908115610bb9578b916118a9575b50506001600160a01b0361181882895161370f565b5116611824828d61370f565b5190893b15610bc4576040517f42237c360000000000000000000000000000000000000000000000000000000081526001600160a01b039182166004820152908b16602482015260448101919091528a81606481838d5af1908115610bb9578b91611894575b505060010161172f565b8161189e916134d1565b610bb557898e61188a565b816118b3916134d1565b610bb557898e611803565b6118d59060203d81116103195761030d81836134d1565b61177d565b909293506020813d60201161190a575b816118f7602093836134d1565b810103126103595751929161085a611611565b3d91506118ea565b93506020843d60201161193f575b8161192d602093836134d1565b810103126103595792519260206115ca565b3d9150611920565b6119528580926134d1565b610d9b575f611581565b8580fd5b9094506020813d60201161198c575b8161197c602093836134d1565b810103126103595751935f6114ec565b3d915061196f565b9092506020813d6020116119c0575b816119b0602093836134d1565b810103126103595751915f6114a7565b3d91506119a3565b9095610e3b6119e260019260405192839160208301613907565b966119ed8184613883565b611a0260405191898352610e696020846134d1565b611a0c828861370f565b52611a17818761370f565b5001906113e9565b935090916001610200601092865461ffff8116825261ffff81861c16602083015261ffff8160201c16604083015261ffff8160301c16606083015261ffff8160401c16608083015261ffff8160501c1660a083015261ffff8160601c1660c083015261ffff8160701c1660e083015261ffff8160801c1661010083015261ffff8160901c1661012083015261ffff8160a01c1661014083015261ffff8160b01c1661016083015261ffff8160c01c1661018083015261ffff8160d01c166101a083015261ffff8160e01c166101c083015260f01c6101e082015201940192019089939261132f565b50346101b857806003193601126101b85750611b68604051611b2a6040826134d1565b600181527f3100000000000000000000000000000000000000000000000000000000000000602082015260405191829160208352602083019061369b565b0390f35b61347e565b50346101b85760206003193601126101b8576040610100916001600160a01b03611b99613404565b1681526002602052206001600160a01b0381541690611bba6001820161364d565b90611c16600560048301549201549260405194855260208501906001600160a01b036080809282815116855282602082015116602086015262ffffff6040820151166040860152606081015160020b6060860152015116910152565b60c083015260e0820152f35b5034610359576101206003193601126103595760043567ffffffffffffffff81116103595760c06003198236030112610359576040519160c0830183811067ffffffffffffffff82111761317a57604052816004013567ffffffffffffffff811161035957611c97906004369185010161350c565b8352602482013567ffffffffffffffff811161035957611cbd906004369185010161350c565b60208401908152604483013567ffffffffffffffff811161035957611ce89060043691860101613571565b9260408501938452606481013567ffffffffffffffff811161035957611d1490600436918401016135e8565b6060860152608481013567ffffffffffffffff811161035957611d3d90600436918401016135e8565b608086015260a48101359067ffffffffffffffff8211610359576004611d669236920101613571565b60a08501526024359067ffffffffffffffff82116103595760a060031983360301126103595760405191611d9983613499565b611da581600401613430565b8352611db360248201613430565b6020840152611dc4604482016135da565b6040840152611dd5606482016135da565b606084015260848101359067ffffffffffffffff821161035957013660238201121561035957600481013567ffffffffffffffff811161317a5760405191611e27601f8301601f1916602001846134d1565b818352366024828401011161035957815f926024602093018386013783010152608083015260a07fffffffffffffffffffffffffffffffffffffffffffffffffffffffffffffffbc3601126103595760405190611e8382613499565b6044356001600160a01b03811681036103595782526064356001600160a01b038116810361035957602083015260843562ffffff8116810361035957604083015260a4358060020b810361035957606083015260c4356001600160a01b038116810361035957608083015261010435906001600160a01b0382168203610359576001600160a01b037f000000000000000000000000000000000000000000000000000000000000000016330361315257611f3b61380d565b6001600160a01b0382165f526002602052600460405f20015461312a57606087015151955190875190519160405197611f73896134b5565b6001600160a01b03851689528560208a01525f60408a015260608901528060808901528160a08901528260c089015251905181149182159261311e575b50506130f6576007608086015151116130ce57608085015151156130a6575f93845b608087015180518710156120735761ffff611fee88829361370f565b511691160161ffff8111612046579461ffff61200e8260808a015161370f565b51161561201e5760010194611fd2565b7fea1083a7000000000000000000000000000000000000000000000000000000005f5260045ffd5b7f4e487b71000000000000000000000000000000000000000000000000000000005f52601160045260245ffd5b5086939461271061ffff8a93160361307e575f5b608086015151811015612107576001600160a01b036120aa8260a089015161370f565b51161580156120e8575b6120c057600101612087565b7f444593dc000000000000000000000000000000000000000000000000000000005f5260045ffd5b506001600160a01b036120ff8260c089015161370f565b5116156120b4565b506040517f23b872dd00000000000000000000000000000000000000000000000000000000815233600482015230602482015260e4356044820152859087906020816064815f6001600160a01b038c165af18015612f7357613061575b50606084015151608085015151811490811591613051575b50613029576060840151511561300157600760608501515111612fd9575f95865b6060860151805189101561236157886121b59161370f565b5160020b6121c789608089015161370f565b5160020b12612339577ffffffffffffffffffffffffffffffffffffffffffffffffffffffffffff276186121ff89606089015161370f565b5160020b12801561231c575b6122f45761223261222089606089015161370f565b5160020b606087015160020b90613844565b60020b158015906122d8575b6122b05761225088606088015161370f565b5160020b604086015160020b136122885761228060019161ffff6122788b60a08b015161370f565b511690613883565b97019661219d565b7fb7e8c5be000000000000000000000000000000000000000000000000000000005f5260045ffd5b7f9c79bb26000000000000000000000000000000000000000000000000000000005f5260045ffd5b506122ea61222089608089015161370f565b60020b151561223e565b7fbae28335000000000000000000000000000000000000000000000000000000005f5260045ffd5b50620d89e861232f89608089015161370f565b5160020b1361220b565b7f65ebf187000000000000000000000000000000000000000000000000000000005f5260045ffd5b508386866127108a9403612fb15760206001600160a01b03910151166001600160a01b03851610916060820151516001810181116120465760016123a59101613890565b936060908415612f9b576123bc6060850151613702565b5160020b925b5f925b60608601515184101561269c57602061242160018093836040519485928051918291018385015e8201017f020000000000000000000000000000000000000000000000000000000000000081520301601f1981018352826134d1565b936125806125bc8c610e3b8b8b61271061244f61ffff6124458a60a086015161370f565b511660e43561373b565b04821561269557805b8d841561267d576fffffffffffffffffffffffffffffffff91505f935b8515612666576124898b606083015161370f565b5160020b905b8b87156126465760806124a392015161370f565b5160020b905b861561263f5780965b156126375750905b836124c487613b05565b916124d76124d185613b05565b91613b05565b9281816001600160a01b0382166001600160a01b0382161161262c575b50506001600160a01b03848116948991831686116125d95750506125189350613e8b565b905b60405195306020880152602087526125336040886134d1565b6040519a8b9960208b01906001600160a01b036080809282815116855282602082015116602086015262ffffff6040820151166040860152606081015160020b6060860152015116910152565b60020b60c089015260020b60e08801521661010086015261012085015261014084015230610160840152610180808401526101a083019061369b565b6125c6828b61370f565b526125d1818a61370f565b5001926123c5565b92909391946001600160a01b038216115f146126205782916125ff916126059594613e8b565b93613e58565b808416828516101561261957505b9061251a565b9050612613565b91505061261392613e58565b925090505f806124f4565b9050906124ba565b81966124b2565b61265790608061266093015161370f565b5160020b6138d8565b906124a9565b6126776126578c606084015161370f565b9061248f565b6fffffffffffffffffffffffffffffffff9193612475565b5f90612458565b60209291898961273a8d6126f360018c978a6040519b8c928051918291018385015e8201017f0d0000000000000000000000000000000000000000000000000000000000000081520301601f1981018a52896134d1565b6001600160a01b03602081835116920151166040519160208301526040820152604081526127226060826134d1565b60608601515190612733828561370f565b528261370f565b506040517f095ea7b30000000000000000000000000000000000000000000000000000000081527f00000000000000000000000000000000000000000000000000000000000000006001600160a01b03166004820181905260e435602483015290602081806044810103815f6001600160a01b0389165af18015612f7357612f7e575b50803b15610359575f80916084604051809481937f87517c450000000000000000000000000000000000000000000000000000000083526001600160a01b03891660048401526001600160a01b037f00000000000000000000000000000000000000000000000000000000000000001660248401526001600160a01b0360e43516604484015265ffffffffffff421660648401525af18015612f7357612f5e575b50604051957f75794a3c0000000000000000000000000000000000000000000000000000000087526020876004816001600160a01b037f0000000000000000000000000000000000000000000000000000000000000000165afa968715610de2578697612f28575b506128dd90610e3b60405193849260208401613973565b6001600160a01b037f0000000000000000000000000000000000000000000000000000000000000000163b15612f24578461294791604051809381927fdd46508f0000000000000000000000000000000000000000000000000000000083524290600484016139e5565b0381836001600160a01b037f0000000000000000000000000000000000000000000000000000000000000000165af18015610d9f57908591612f0f575b50506001600160a01b03908560408401521683526002602052604083206001600160a01b0380835116167fffffffffffffffffffffffff00000000000000000000000000000000000000008254161781556001600160a01b036080602084015182815116836001860191167fffffffffffffffffffffffff0000000000000000000000000000000000000000825416179055600284018380602084015116167fffffffffffffffffffffffff0000000000000000000000000000000000000000825416178155604082015181547fffffffffffff000000000000ffffffffffffffffffffffffffffffffffffffff76ffffff0000000000000000000000000000000000000000606086015160b81b79ffffff0000000000000000000000000000000000000000000000169360a01b169116171790550151166001600160a01b036003830191167fffffffffffffffffffffffff0000000000000000000000000000000000000000825416179055604082015160048201556060820151600582015560068101608083015180519067ffffffffffffffff8211612e0557680100000000000000008211612e05576020908354838555808410612ec2575b50019186526020862090865b8160041c8110612e8257507ffffffffffffffffffffffffffffffffffffffffffffffffffffffffffffffff08116810380612e32575b505050506007810160a08301519081519167ffffffffffffffff8311612e0557680100000000000000008311612e05576020908254848455808510612deb575b500190865260208620865b838110612dce575050505060080160c08201519081519167ffffffffffffffff8311612da157680100000000000000008311612da1576020908254848455808510612d87575b500190855260208520855b838110612d6a575050505080516001600160a01b03169060208101519260408201519160608101519060808101519060a08101519060c001519160608501519360808601519560a0015196604051998a998a5260208a01612cbb916001600160a01b036080809282815116855282602082015116602086015262ffffff6040820151166040860152606081015160020b6060860152015116910152565b60c089015260e088015261010087016101c090526101c08701612cdd91613764565b868103610120880152612cef9161379b565b858103610140870152612d019161379b565b848103610160860152612d13916137d7565b838103610180850152612d25916137d7565b8281036101a0840152612d3791613764565b037feae198a4c31228a2ea55249c19fcba6383ae8d06386f4ba2edacfd1283abb24191a160019055604051908152602090f35b60019060206001600160a01b038551169401938184015501612c1e565b838852828820612d9b91810190860161374e565b88612c13565b6024867f4e487b710000000000000000000000000000000000000000000000000000000081526041600452fd5b60019060206001600160a01b038551169401938184015501612bcd565b838952828920612dff91810190860161374e565b89612bc2565b6024877f4e487b710000000000000000000000000000000000000000000000000000000081526041600452fd5b928793885b818110612e4f5750505060041c015585808080612b82565b9091946020612e7860019261ffff8951169085851b61ffff809160031b9316831b921b19161790565b9601929101612e37565b87885b60108110612e9a575083820155600101612b4c565b855190959160019160209161ffff60048a901b81811b199092169216901b1792019501612e85565b612ef090858a52838a20600f80870160041c820192601e8860011b1680612ef6575b500160041c019061374e565b89612b40565b5f198501905f198254918a0360031b1c1690558e612ee4565b81612f19916134d1565b610d9b578386612984565b8480fd5b9096506020813d602011612f56575b81612f44602093836134d1565b810103126103595751956128dd6128c6565b3d9150612f37565b612f6b9195505f906134d1565b5f938661285e565b6040513d5f823e3d90fd5b612f969060203d6020116103195761030d81836134d1565b6127bd565b612fab6126576060860151613702565b926123c2565b7fd255d1bb000000000000000000000000000000000000000000000000000000005f5260045ffd5b7f8431a15a000000000000000000000000000000000000000000000000000000005f5260045ffd5b7ff1efabcb000000000000000000000000000000000000000000000000000000005f5260045ffd5b7ffceb8ecc000000000000000000000000000000000000000000000000000000005f5260045ffd5b905060a08501515114158761217c565b6130799060203d6020116103195761030d81836134d1565b612164565b7f7f496ed8000000000000000000000000000000000000000000000000000000005f5260045ffd5b7f3e794990000000000000000000000000000000000000000000000000000000005f5260045ffd5b7fdee5eac1000000000000000000000000000000000000000000000000000000005f5260045ffd5b7fb3e27d4c000000000000000000000000000000000000000000000000000000005f5260045ffd5b51141590505f80611fb0565b7fe67f17ea000000000000000000000000000000000000000000000000000000005f5260045ffd5b7f82b42900000000000000000000000000000000000000000000000000000000005f5260045ffd5b7f4e487b71000000000000000000000000000000000000000000000000000000005f52604160045260245ffd5b34610359576080600319360112610359576131c0613404565b506131c961341a565b60643567ffffffffffffffff8111610359573660238201121561035957806004013567ffffffffffffffff81116103595736910160240111610359576001600160a01b03166001600160a01b037f0000000000000000000000000000000000000000000000000000000000000000168103613152577f88a5966d370b9919b20f3e2c13ff65706f196a4e32cc2c12bf57088f8852587460206040516044358152a260206040517f150b7a02000000000000000000000000000000000000000000000000000000008152f35b34610359575f6003193601126103595760206040516001600160a01b037f0000000000000000000000000000000000000000000000000000000000000000168152f35b34610359576020600319360112610359576004357fffffffff00000000000000000000000000000000000000000000000000000000811680910361035957807f150b7a02000000000000000000000000000000000000000000000000000000006020921490811561334e575b506040519015158152f35b7ff23f85e20000000000000000000000000000000000000000000000000000000091501482613343565b346103595761338636613444565b916001600160a01b0381165f526002602052600760405f20016001600160a01b036133b184836136c0565b90549060031b1c16330361315257838161042a7f2aad5ba8634f3d476ba298c3c089253d053106f0dd2caac6bae480ed9db420bf9661040b876001600160a01b036103fd826133ff996136c0565b0390a1005b600435906001600160a01b038216820361035957565b602435906001600160a01b038216820361035957565b35906001600160a01b038216820361035957565b6003196060910112610359576004356001600160a01b03811681036103595790602435906044356001600160a01b03811681036103595790565b34610359575f60031936011261035957602060405160078152f35b60a0810190811067ffffffffffffffff82111761317a57604052565b60e0810190811067ffffffffffffffff82111761317a57604052565b90601f601f19910116810190811067ffffffffffffffff82111761317a57604052565b67ffffffffffffffff811161317a5760051b60200190565b9080601f83011215610359578135613523816134f4565b9261353160405194856134d1565b81845260208085019260051b82010192831161035957602001905b8282106135595750505090565b6020809161356684613430565b81520191019061354c565b9080601f8301121561035957813590613589826134f4565b9261359760405194856134d1565b82845260208085019360051b82010191821161035957602001915b8183106135bf5750505090565b823561ffff81168103610359578152602092830192016135b2565b35908160020b820361035957565b9080601f830112156103595781356135ff816134f4565b9261360d60405194856134d1565b81845260208085019260051b82010192831161035957602001905b8282106136355750505090565b60208091613642846135da565b815201910190613628565b9060405161365a81613499565b60806001600160a01b03600283958281541685526001810154838116602087015262ffffff8160a01c16604087015260b81c820b6060860152015416910152565b90601f19601f602080948051918291828752018686015e5f8582860101520116010190565b80548210156136d5575f5260205f2001905f90565b7f4e487b71000000000000000000000000000000000000000000000000000000005f52603260045260245ffd5b8051156136d55760200190565b80518210156136d55760209160051b010190565b90816020910312610359575180151581036103595790565b8181029291811591840414171561204657565b818110613759575050565b5f815560010161374e565b90602080835192838152019201905f5b8181106137815750505090565b825161ffff16845260209384019390920191600101613774565b90602080835192838152019201905f5b8181106137b85750505090565b82516001600160a01b03168452602093840193909201916001016137ab565b90602080835192838152019201905f5b8181106137f45750505090565b825160020b8452602093840193909201916001016137e7565b60025f541461381c5760025f55565b7f3ee5aeb5000000000000000000000000000000000000000000000000000000005f5260045ffd5b9060020b9081156138565760020b0790565b7f4e487b71000000000000000000000000000000000000000000000000000000005f52601260045260245ffd5b9190820180921161204657565b9061389a826134f4565b6138a760405191826134d1565b828152601f196138b782946134f4565b01905f5b8281106138c757505050565b8060606020809385010152016138bb565b60020b7fffffffffffffffffffffffffffffffffffffffffffffffffffffffffff8000008114612046575f0390565b602090600192805192839101825e017f010000000000000000000000000000000000000000000000000000000000000081520190565b602090600192805192839101825e017f110000000000000000000000000000000000000000000000000000000000000081520190565b906139869060408352604083019061369b565b906020818303910152815180825260208201916020808360051b8301019401925f915b8383106139b857505050505090565b90919293946020806139d683601f198660019603018752895161369b565b970193019301919392906139a9565b9291906139fc60209160408652604086019061369b565b930152565b90604051918281549182825260208201905f5260205f20925f5b818110613a32575050613a30925003836134d1565b565b84546001600160a01b0316835260019485019487945060209093019201613a1b565b90613a5e826134f4565b613a6b60405191826134d1565b828152601f19613a7b82946134f4565b0190602036910137565b9190820391821161204657565b90602080835192838152019201905f5b818110613aaf5750505090565b8251845260209384019390920191600101613aa2565b6001600160a01b03600154163303613ad957565b7f118cdaa7000000000000000000000000000000000000000000000000000000005f523360045260245ffd5b60020b908160ff1d82810118620d89e88111613e2c5763ffffffff9192600182167001fffcb933bd6fad37aa2d162d1a59400102700100000000000000000000000000000000189160028116613e10575b60048116613df4575b60088116613dd8575b60108116613dbc575b60208116613da0575b60408116613d84575b60808116613d68575b6101008116613d4c575b6102008116613d30575b6104008116613d14575b6108008116613cf8575b6110008116613cdc575b6120008116613cc0575b6140008116613ca4575b6180008116613c88575b620100008116613c6c575b620200008116613c51575b620400008116613c36575b6208000016613c1d575b5f12613c15575b0160201c90565b5f1904613c0e565b6b048a170391f7dc42444e8fa290910260801c90613c07565b6d2216e584f5fa1ea926041bedfe9890920260801c91613bfd565b916e5d6af8dedb81196699c329225ee6040260801c91613bf2565b916f09aa508b5b7a84e1c677de54f3e99bc90260801c91613be7565b916f31be135f97d08fd981231505542fcfa60260801c91613bdc565b916f70d869a156d2a1b890bb3df62baf32f70260801c91613bd2565b916fa9f746462d870fdf8a65dc1f90e061e50260801c91613bc8565b916fd097f3bdfd2022b8845ad8f792aa58250260801c91613bbe565b916fe7159475a2c29b7443b29c7fa6e889d90260801c91613bb4565b916ff3392b0822b70005940c7a398e4b70f30260801c91613baa565b916ff987a7253ac413176f2b074cf7815e540260801c91613ba0565b916ffcbe86c7900a88aedcffc83b479aa3a40260801c91613b96565b916ffe5dee046a99a2a811c461f1969c30530260801c91613b8c565b916fff2ea16466c96a3843ec78b326b528610260801c91613b83565b916fff973b41fa98c081472e6896dfb254c00260801c91613b7a565b916fffcb9843d60f6159c9db58835c9266440260801c91613b71565b916fffe5caca7e10e4e61c3624eaa0941cd00260801c91613b68565b916ffff2e50f5f656932ef12357cf3c7fdcc0260801c91613b5f565b916ffff97272373d413259a46990580e213a0260801c91613b56565b827f8b86327a000000000000000000000000000000000000000000000000000000005f5260045260245ffd5b916001600160a01b03613e8293613e7d9382811683831611613e85575b031690613ed4565b614049565b90565b90613e75565b91613e7d91613e82936001600160a01b0382166001600160a01b03821611613ece575b6001600160a01b0390613ec5828416838316613f6e565b92031691613fc9565b90613eae565b908160601b905f196c010000000000000000000000008409928280851094039380850394858411156103595714613f67576c0100000000000000000000000082910981805f03168092046002816003021880820260020302808202600203028082026002030280820260020302808202600203028091026002030293600183805f03040190848311900302920304170290565b5091500490565b90808202915f19828209918380841093039280840393846c0100000000000000000000000011156103595714613fc0576c01000000000000000000000000910990828211900360a01b910360601c1790565b50505060601c90565b91818302915f19818509938380861095039480860395868511156103595714614041579082910981805f03168092046002816003021880820260020302808202600203028082026002030280820260020302808202600203028091026002030293600183805f03040190848311900302920304170290565b505091500490565b906fffffffffffffffffffffffffffffffff821680920361406657565b7f93dafdf1000000000000000000000000000000000000000000000000000000005f5260045ffd","linkReferences":{}},"methodIdentifiers":{"BASIS_POINTS()":"e1f1c4a7","MAX_LP_POSITIONS()":"52db242f","MAX_REWARD_PARTICIPANTS()":"14a7f403","collectRewards(address)":"5763dbd0","collectRewardsWithoutUnlock(address)":"86b0c83f","factory()":"c45a0155","feeLocker()":"70e9d244","onERC721Received(address,address,uint256,bytes)":"150b7a02","owner()":"8da5cb5b","permit2()":"12261ee7","placeLiquidity((address[],address[],uint16[],int24[],int24[],uint16[]),(address,address,int24,int24,bytes),(address,address,uint24,int24,address),uint256,address)":"22135faa","positionManager()":"791b98bc","renounceOwnership()":"715018a6","supportsInterface(bytes4)":"01ffc9a7","tokenRewards(address)":"30bd3eeb","transferOwnership(address)":"f2fde38b","updateRewardAdmin(address,uint256,address)":"0150a986","updateRewardRecipient(address,uint256,address)":"911573b3","version()":"54fd4d50","withdrawERC20(address,address)":"9456fbcc","withdrawETH(address)":"690d8320"},"id":114}