{"abi":[{"type":"constructor","inputs":[{"name":"name_","type":"string","internalType":"string"},{"name":"symbol_","type":"string","internalType":"string"},{"name":"maxSupply_","type":"uint256","internalType":"uint256"},{"name":"admin_","type":"address","internalType":"address"},{"name":"image_","type":"string","internalType":"string"},{"name":"metadata_","type":"string","internalType":"string"},{"name":"context_","type":"string","internalType":"string"},{"name":"initialSupplyChainId_","type":"uint256","internalType":"uint256"}],"stateMutability":"nonpayable"},{"type":"function","name":"CLOCK_MODE","inputs":[],"outputs":[{"name":"","type":"string","internalType":"string"}],"stateMutability":"view"},{"type":"function","name":"DOMAIN_SEPARATOR","inputs":[],"outputs":[{"name":"","type":"bytes32","internalType":"bytes32"}],"stateMutability":"view"},{"type":"function","name":"admin","inputs":[],"outputs":[{"name":"","type":"address","internalType":"address"}],"stateMutability":"view"},{"type":"function","name":"allowance","inputs":[{"name":"owner","type":"address","internalType":"address"},{"name":"spender","type":"address","internalType":"address"}],"outputs":[{"name":"","type":"uint256","internalType":"uint256"}],"stateMutability":"view"},{"type":"function","name":"approve","inputs":[{"name":"spender","type":"address","internalType":"address"},{"name":"value","type":"uint256","internalType":"uint256"}],"outputs":[{"name":"","type":"bool","internalType":"bool"}],"stateMutability":"nonpayable"},{"type":"function","name":"balanceOf","inputs":[{"name":"account","type":"address","internalType":"address"}],"outputs":[{"name":"","type":"uint256","internalType":"uint256"}],"stateMutability":"view"},{"type":"function","name":"burn","inputs":[{"name":"value","type":"uint256","internalType":"uint256"}],"outputs":[],"stateMutability":"nonpayable"},{"type":"function","name":"burnFrom","inputs":[{"name":"account","type":"address","internalType":"address"},{"name":"value","type":"uint256","internalType":"uint256"}],"outputs":[],"stateMutability":"nonpayable"},{"type":"function","name":"checkpoints","inputs":[{"name":"account","type":"address","internalType":"address"},{"name":"pos","type":"uint32","internalType":"uint32"}],"outputs":[{"name":"","type":"tuple","internalType":"struct Checkpoints.Checkpoint208","components":[{"name":"_key","type":"uint48","internalType":"uint48"},{"name":"_value","type":"uint208","internalType":"uint208"}]}],"stateMutability":"view"},{"type":"function","name":"clock","inputs":[],"outputs":[{"name":"","type":"uint48","internalType":"uint48"}],"stateMutability":"view"},{"type":"function","name":"context","inputs":[],"outputs":[{"name":"","type":"string","internalType":"string"}],"stateMutability":"view"},{"type":"function","name":"crosschainBurn","inputs":[{"name":"_from","type":"address","internalType":"address"},{"name":"_amount","type":"uint256","internalType":"uint256"}],"outputs":[],"stateMutability":"nonpayable"},{"type":"function","name":"crosschainMint","inputs":[{"name":"_to","type":"address","internalType":"address"},{"name":"_amount","type":"uint256","internalType":"uint256"}],"outputs":[],"stateMutability":"nonpayable"},{"type":"function","name":"decimals","inputs":[],"outputs":[{"name":"","type":"uint8","internalType":"uint8"}],"stateMutability":"view"},{"type":"function","name":"delegate","inputs":[{"name":"delegatee","type":"address","internalType":"address"}],"outputs":[],"stateMutability":"nonpayable"},{"type":"function","name":"delegateBySig","inputs":[{"name":"delegatee","type":"address","internalType":"address"},{"name":"nonce","type":"uint256","internalType":"uint256"},{"name":"expiry","type":"uint256","internalType":"uint256"},{"name":"v","type":"uint8","internalType":"uint8"},{"name":"r","type":"bytes32","internalType":"bytes32"},{"name":"s","type":"bytes32","internalType":"bytes32"}],"outputs":[],"stateMutability":"nonpayable"},{"type":"function","name":"delegates","inputs":[{"name":"account","type":"address","internalType":"address"}],"outputs":[{"name":"","type":"address","internalType":"address"}],"stateMutability":"view"},{"type":"function","name":"eip712Domain","inputs":[],"outputs":[{"name":"fields","type":"bytes1","internalType":"bytes1"},{"name":"name","type":"string","internalType":"string"},{"name":"version","type":"string","internalType":"string"},{"name":"chainId","type":"uint256","internalType":"uint256"},{"name":"verifyingContract","type":"address","internalType":"address"},{"name":"salt","type":"bytes32","internalType":"bytes32"},{"name":"extensions","type":"uint256[]","internalType":"uint256[]"}],"stateMutability":"view"},{"type":"function","name":"getPastTotalSupply","inputs":[{"name":"timepoint","type":"uint256","internalType":"uint256"}],"outputs":[{"name":"","type":"uint256","internalType":"uint256"}],"stateMutability":"view"},{"type":"function","name":"getPastVotes","inputs":[{"name":"account","type":"address","internalType":"address"},{"name":"timepoint","type":"uint256","internalType":"uint256"}],"outputs":[{"name":"","type":"uint256","internalType":"uint256"}],"stateMutability":"view"},{"type":"function","name":"getVotes","inputs":[{"name":"account","type":"address","internalType":"address"}],"outputs":[{"name":"","type":"uint256","internalType":"uint256"}],"stateMutability":"view"},{"type":"function","name":"imageUrl","inputs":[],"outputs":[{"name":"","type":"string","internalType":"string"}],"stateMutability":"view"},{"type":"function","name":"isVerified","inputs":[],"outputs":[{"name":"","type":"bool","internalType":"bool"}],"stateMutability":"view"},{"type":"function","name":"metadata","inputs":[],"outputs":[{"name":"","type":"string","internalType":"string"}],"stateMutability":"view"},{"type":"function","name":"name","inputs":[],"outputs":[{"name":"","type":"string","internalType":"string"}],"stateMutability":"view"},{"type":"function","name":"nonces","inputs":[{"name":"owner","type":"address","internalType":"address"}],"outputs":[{"name":"","type":"uint256","internalType":"uint256"}],"stateMutability":"view"},{"type":"function","name":"numCheckpoints","inputs":[{"name":"account","type":"address","internalType":"address"}],"outputs":[{"name":"","type":"uint32","internalType":"uint32"}],"stateMutability":"view"},{"type":"function","name":"permit","inputs":[{"name":"owner","type":"address","internalType":"address"},{"name":"spender","type":"address","internalType":"address"},{"name":"value","type":"uint256","internalType":"uint256"},{"name":"deadline","type":"uint256","internalType":"uint256"},{"name":"v","type":"uint8","internalType":"uint8"},{"name":"r","type":"bytes32","internalType":"bytes32"},{"name":"s","type":"bytes32","internalType":"bytes32"}],"outputs":[],"stateMutability":"nonpayable"},{"type":"function","name":"supportsInterface","inputs":[{"name":"_interfaceId","type":"bytes4","internalType":"bytes4"}],"outputs":[{"name":"","type":"bool","internalType":"bool"}],"stateMutability":"pure"},{"type":"function","name":"symbol","inputs":[],"outputs":[{"name":"","type":"string","internalType":"string"}],"stateMutability":"view"},{"type":"function","name":"totalSupply","inputs":[],"outputs":[{"name":"","type":"uint256","internalType":"uint256"}],"stateMutability":"view"},{"type":"function","name":"transfer","inputs":[{"name":"to","type":"address","internalType":"address"},{"name":"value","type":"uint256","internalType":"uint256"}],"outputs":[{"name":"","type":"bool","internalType":"bool"}],"stateMutability":"nonpayable"},{"type":"function","name":"transferFrom","inputs":[{"name":"from","type":"address","internalType":"address"},{"name":"to","type":"address","internalType":"address"},{"name":"value","type":"uint256","internalType":"uint256"}],"outputs":[{"name":"","type":"bool","internalType":"bool"}],"stateMutability":"nonpayable"},{"type":"function","name":"updateImage","inputs":[{"name":"image_","type":"string","internalType":"string"}],"outputs":[],"stateMutability":"nonpayable"},{"type":"function","name":"updateMetadata","inputs":[{"name":"metadata_","type":"string","internalType":"string"}],"outputs":[],"stateMutability":"nonpayable"},{"type":"function","name":"verify","inputs":[],"outputs":[],"stateMutability":"nonpayable"},{"type":"event","name":"Approval","inputs":[{"name":"owner","type":"address","indexed":true,"internalType":"address"},{"name":"spender","type":"address","indexed":true,"internalType":"address"},{"name":"value","type":"uint256","indexed":false,"internalType":"uint256"}],"anonymous":false},{"type":"event","name":"CrosschainBurn","inputs":[{"name":"from","type":"address","indexed":true,"internalType":"address"},{"name":"amount","type":"uint256","indexed":false,"internalType":"uint256"},{"name":"sender","type":"address","indexed":true,"internalType":"address"}],"anonymous":false},{"type":"event","name":"CrosschainMint","inputs":[{"name":"to","type":"address","indexed":true,"internalType":"address"},{"name":"amount","type":"uint256","indexed":false,"internalType":"uint256"},{"name":"sender","type":"address","indexed":true,"internalType":"address"}],"anonymous":false},{"type":"event","name":"DelegateChanged","inputs":[{"name":"delegator","type":"address","indexed":true,"internalType":"address"},{"name":"fromDelegate","type":"address","indexed":true,"internalType":"address"},{"name":"toDelegate","type":"address","indexed":true,"internalType":"address"}],"anonymous":false},{"type":"event","name":"DelegateVotesChanged","inputs":[{"name":"delegate","type":"address","indexed":true,"internalType":"address"},{"name":"previousVotes","type":"uint256","indexed":false,"internalType":"uint256"},{"name":"newVotes","type":"uint256","indexed":false,"internalType":"uint256"}],"anonymous":false},{"type":"event","name":"EIP712DomainChanged","inputs":[],"anonymous":false},{"type":"event","name":"Transfer","inputs":[{"name":"from","type":"address","indexed":true,"internalType":"address"},{"name":"to","type":"address","indexed":true,"internalType":"address"},{"name":"value","type":"uint256","indexed":false,"internalType":"uint256"}],"anonymous":false},{"type":"event","name":"UpdateImage","inputs":[{"name":"image","type":"string","indexed":false,"internalType":"string"}],"anonymous":false},{"type":"event","name":"UpdateMetadata","inputs":[{"name":"metadata","type":"string","indexed":false,"internalType":"string"}],"anonymous":false},{"type":"event","name":"Verified","inputs":[{"name":"admin","type":"address","indexed":true,"internalType":"address"},{"name":"token","type":"address","indexed":true,"internalType":"address"}],"anonymous":false},{"type":"error","name":"AlreadyVerified","inputs":[]},{"type":"error","name":"CheckpointUnorderedInsertion","inputs":[]},{"type":"error","name":"ECDSAInvalidSignature","inputs":[]},{"type":"error","name":"ECDSAInvalidSignatureLength","inputs":[{"name":"length","type":"uint256","internalType":"uint256"}]},{"type":"error","name":"ECDSAInvalidSignatureS","inputs":[{"name":"s","type":"bytes32","internalType":"bytes32"}]},{"type":"error","name":"ERC20ExceededSafeSupply","inputs":[{"name":"increasedSupply","type":"uint256","internalType":"uint256"},{"name":"cap","type":"uint256","internalType":"uint256"}]},{"type":"error","name":"ERC20InsufficientAllowance","inputs":[{"name":"spender","type":"address","internalType":"address"},{"name":"allowance","type":"uint256","internalType":"uint256"},{"name":"needed","type":"uint256","internalType":"uint256"}]},{"type":"error","name":"ERC20InsufficientBalance","inputs":[{"name":"sender","type":"address","internalType":"address"},{"name":"balance","type":"uint256","internalType":"uint256"},{"name":"needed","type":"uint256","internalType":"uint256"}]},{"type":"error","name":"ERC20InvalidApprover","inputs":[{"name":"approver","type":"address","internalType":"address"}]},{"type":"error","name":"ERC20InvalidReceiver","inputs":[{"name":"receiver","type":"address","internalType":"address"}]},{"type":"error","name":"ERC20InvalidSender","inputs":[{"name":"sender","type":"address","internalType":"address"}]},{"type":"error","name":"ERC20InvalidSpender","inputs":[{"name":"spender","type":"address","internalType":"address"}]},{"type":"error","name":"ERC2612ExpiredSignature","inputs":[{"name":"deadline","type":"uint256","internalType":"uint256"}]},{"type":"error","name":"ERC2612InvalidSigner","inputs":[{"name":"signer","type":"address","internalType":"address"},{"name":"owner","type":"address","internalType":"address"}]},{"type":"error","name":"ERC5805FutureLookup","inputs":[{"name":"timepoint","type":"uint256","internalType":"uint256"},{"name":"clock","type":"uint48","internalType":"uint48"}]},{"type":"error","name":"ERC6372InconsistentClock","inputs":[]},{"type":"error","name":"InvalidAccountNonce","inputs":[{"name":"account","type":"address","internalType":"address"},{"name":"currentNonce","type":"uint256","internalType":"uint256"}]},{"type":"error","name":"InvalidShortString","inputs":[]},{"type":"error","name":"NotAdmin","inputs":[]},{"type":"error","name":"SafeCastOverflowedUintDowncast","inputs":[{"name":"bits","type":"uint8","internalType":"uint8"},{"name":"value","type":"uint256","internalType":"uint256"}]},{"type":"error","name":"StringTooLong","inputs":[{"name":"str","type":"string","internalType":"string"}]},{"type":"error","name":"Unauthorized","inputs":[]},{"type":"error","name":"VotesExpiredSignature","inputs":[{"name":"expiry","type":"uint256","internalType":"uint256"}]}],"bytecode":{"object":"0x610180604052346100945761002461001561014e565b96959095949194939293610681565b604051612fd3908161105c823960805181612158015260a05181612215015260c05181612129015260e051816121a7015261010051816121cd01526101205181610c3301526101405181610c5c015261016051818181610f6c0152818161177b015281816119ea0152611a350152f35b5f80fd5b634e487b7160e01b5f52604160045260245ffd5b601f909101601f19168101906001600160401b038211908210176100cf57604052565b610098565b604051906100e36040836100ac565b565b81601f82011215610094578051906001600160401b0382116100cf5760405192610119601f8401601f1916602001856100ac565b8284526020838301011161009457815f9260208093018386015e8301015290565b51906001600160a01b038216820361009457565b61406f803803806040519261016382856100ac565b8339810191610100828403126100945781516001600160401b038111610094578361018f9184016100e5565b60208301519091906001600160401b03811161009457846101b19185016100e5565b936040840151936101c46060820161013a565b60808201519094906001600160401b03811161009457836101e69184016100e5565b60a08301519094906001600160401b03811161009457846102089185016100e5565b60c08401519094906001600160401b0381116100945760e09161022c9186016100e5565b930151919796959493929190565b90600182811c92168015610268575b602083101461025457565b634e487b7160e01b5f52602260045260245ffd5b91607f1691610249565b601f811161027e575050565b60035f5260205f20906020601f840160051c830193106102b8575b601f0160051c01905b8181106102ad575050565b5f81556001016102a2565b9091508190610299565b601f82116102cf57505050565b5f5260205f20906020601f840160051c83019310610307575b601f0160051c01905b8181106102fc575050565b5f81556001016102f1565b90915081906102e8565b80519091906001600160401b0381116100cf5761033a8161033360045461023a565b60046102c2565b602092601f821160011461037a5761036a929382915f9261036f575b50508160011b915f199060031b1c19161790565b600455565b015190505f80610356565b60045f52601f198216937f8a35acfbc15ff81a39ae7d344fd709f28e8600b4aa8c65c6b64bfe7fe36bd19b915f5b8681106103de57508360019596106103c6575b505050811b01600455565b01515f1960f88460031b161c191690555f80806103bb565b919260206001819286850151815501940192016103a8565b80519091906001600160401b0381116100cf5761041f81610418600d5461023a565b600d6102c2565b602092601f82116001146104535761044e929382915f9261036f5750508160011b915f199060031b1c19161790565b600d55565b600d5f52601f198216937fd7b6990105719101dabeb77144f2a3385c8033acd3af97e9423a695e81ad1eb5915f5b8681106104b7575083600195961061049f575b505050811b01600d55565b01515f1960f88460031b161c191690555f8080610494565b91926020600181928685015181550194019201610481565b80519091906001600160401b0381116100cf576104f8816104f1600b5461023a565b600b6102c2565b602092601f821160011461052c57610527929382915f9261036f5750508160011b915f199060031b1c19161790565b600b55565b600b5f52601f198216937f0175b7a638427703f0dbe7bb9bbf987a2551717b34e79f33b5b1008d1fa01db9915f5b8681106105905750836001959610610578575b505050811b01600b55565b01515f1960f88460031b161c191690555f808061056d565b9192602060018192868501518155019401920161055a565b80519091906001600160401b0381116100cf576105d1816105ca600c5461023a565b600c6102c2565b602092601f821160011461060557610600929382915f9261036f5750508160011b915f199060031b1c19161790565b600c55565b600c5f52601f198216937fdf6966c971051c3d54ec59162606531493a51404a002842f56009d7e5cf4a8c7915f5b8681106106695750836001959610610651575b505050811b01600c55565b01515f1960f88460031b161c191690555f8080610646565b91926020600181928685015181550194019201610633565b96959493929196604051906106976040836100ac565b60018252603160f81b6020830190815281519093906001600160401b0381116100cf576106ce816106c960035461023a565b610272565b6020601f8211600114610786579261071761075e969361070f846107639b98956107689e9d9b985f9161077b575b508160011b915f199060031b1c19161790565b600355610311565b610720816108c6565b6101205261072d826109bb565b610140526020815191012060e052519020610100524660a05261074e610aad565b6080523060c052610160526103f6565b6104cf565b6105a8565b46146107715750565b6100e3903361081a565b90508501515f6106fc565b60035f52601f198216907fc2575a0e9e593c00f959f8c92f12db2869c3395a3b0502d05e2516446f71f85b915f5b8181106108025750936001846107689d9c9a9794610717946107639d9a9761075e9c99106107ea575b5050811b01600355610311565b8601515f1960f88460031b161c191690555f806107dd565b9192602060018192868a0151815501940192016107b4565b91906001600160a01b03831680156108b3576002548281018091116108ae576002555f81815260208181526040808320805486019055518481527fddf252ad1be2c89b69c2b068fc378daa952ba7f163c4a11628f55a4df523b3ef9190a3600254926001600160d01b0380851161089757506100e3929350610b8a565b630e58ae9360e11b5f52600485905260245260445ffd5b610b76565b63ec442f0560e01b5f525f60045260245ffd5b908151602081105f146108e15750906108de90610b0b565b90565b6001600160401b0381116100cf57610905816108fe60055461023a565b60056102c2565b602092601f821160011461093c57610934929382915f9261036f5750508160011b915f199060031b1c19161790565b60055560ff90565b60055f52601f198216937f036b6384b5eca791c62761152d0c79bb0604c104a5fb6f4eb0703f3154bb3db0915f5b8681106109a3575083600195961061098b575b505050811b0160055560ff90565b01515f1960f88460031b161c191690555f808061097d565b9192602060018192868501518155019401920161096a565b908151602081105f146109d35750906108de90610b0b565b6001600160401b0381116100cf576109f7816109f060065461023a565b60066102c2565b602092601f8211600114610a2e57610a26929382915f9261036f5750508160011b915f199060031b1c19161790565b60065560ff90565b60065f52601f198216937ff652222313e28459528d920b65115c16c04f3efc82aaedc97be59f3f377c0d3f915f5b868110610a955750836001959610610a7d575b505050811b0160065560ff90565b01515f1960f88460031b161c191690555f8080610a6f565b91926020600181928685015181550194019201610a5c565b60e051610100516040519060208201927f8b73c3c69bb8fe3d512ecc4cf759cc79239f7b179b0ffacaa9a75d522b39400f8452604083015260608201524660808201523060a082015260a08152610b0560c0826100ac565b51902090565b601f815111610b36576020815191015160208210610b27571790565b5f198260200360031b1b161790565b604460209160405192839163305a27a960e01b83528160048401528051918291826024860152018484015e5f828201840152601f01601f19168101030190fd5b634e487b7160e01b5f52601160045260245ffd5b90610b9481610c89565b9165ffffffffffff4311610c7157600a5480610c3b5750610bce610bbe6100e3945f5b6001610fff565b65ffffffffffff4316600a610f29565b50506001600160a01b03168015610c23575b60086020527f5eff886ea0ce6ca488a3d6e336d6c0f75f46d19b42c06ce5ee98e42c96d256c7545f9182526040909120546001600160a01b039081169116610db8565b610c34610c2f83610c89565b610cba565b5050610be0565b92835f198101116108ae57600a5f525f51602061402f5f395f51905f52909301546100e393610bce91610bbe919060301c610bb7565b6306dfcc6560e41b5f5260306004524360245260445ffd5b6001600160d01b038111610ca3576001600160d01b031690565b6306dfcc6560e41b5f5260d060045260245260445ffd5b65ffffffffffff4311610c7157600a5480610ce45750610bbe610ce0915f5b6002610fff565b9091565b805f198101116108ae57600a5f525f51602061402f5f395f51905f520154610ce091610bbe9160301c610cd9565b65ffffffffffff4311610c7157805480610d465750610d36610ce0925f6002610fff565b9065ffffffffffff431690610f29565b805f198101116108ae575f82815260209020015f190154610ce092610d369160301c610cd9565b65ffffffffffff4311610c7157805480610d915750610d36610ce0925f6001610fff565b805f198101116108ae575f82815260209020015f190154610ce092610d369160301c610bb7565b6001600160a01b03808316939291908116908185141580610eab575b610de0575b5050505050565b81610e51575b505082610df5575b8080610dd9565b6001600160a01b03165f9081526009602052604090205f51602061404f5f395f51905f5291610e2e91610e289091610c89565b90610d6d565b604080516001600160d01b039384168152919092166020820152a25f8080610dee565b6001600160a01b03165f9081526009602052604090205f51602061404f5f395f51905f5290610e8990610e8386610c89565b90610d12565b604080516001600160d01b039384168152919092166020820152a25f80610de6565b50831515610dd4565b5f198101919082116108ae57565b908154680100000000000000008110156100cf5760018101808455811015610f15575f9283526020928390208251929093015160301b65ffffffffffff191665ffffffffffff9290921691909117910155565b634e487b7160e01b5f52603260045260245ffd5b80549293928015610fd557610f40610f4b91610eb4565b825f5260205f200190565b8054603081901c9365ffffffffffff91821692918116808411610fc657879303610f925750610f8e92509065ffffffffffff82549181199060301b169116179055565b9190565b915050610f8e91610fb2610fa46100d4565b65ffffffffffff9093168352565b6001600160d01b0386166020830152610ec2565b632520601d60e01b5f5260045ffd5b5090610ffa91610fe6610fa46100d4565b6001600160d01b0385166020830152610ec2565b5f9190565b919091806001146110415760021461102557634e487b7160e01b5f52605160045260245ffd5b6001600160d01b03908116918116919091039081116108ae5790565b506001600160d01b03918216908216019081116108ae579056fe60806040526004361015610011575f80fd5b5f3560e01c806301ffc9a71461025457806306fdde031461024f578063095ea7b31461024a57806318160ddd1461024557806318bf50771461024057806323b872dd1461023b5780632b8c49e314610236578063313ce567146102315780633644e5151461022c578063392f37e9146102275780633a46b1a81461022257806342966c681461021d5780634bf5d7e914610218578063587cde1e146102135780635c19a95c1461020e5780636fcfff451461020957806370a082311461020457806379cc6790146101ff5780637ecebe00146101fa57806380007e83146101f557806384b0196e146101f05780638e539e8c146101eb578063918b5be1146101e657806391ddadf4146101e157806395d89b41146101dc5780639ab24eb0146101d7578063a9059cbb146101d2578063aba83150146101cd578063c3cda520146101c8578063d0496d6a146101c3578063d505accf146101be578063dd62ed3e146101b9578063eb3d68e7146101b4578063f1127ed8146101af578063f851a440146101aa5763fc735e99146101a5575f80fd5b611a0e565b6119be565b6118e8565b611756565b6116e3565b611548565b6114a3565b611335565b611270565b61124a565b6111e2565b61113d565b611112565b610f47565b610d52565b610c1b565b610bf9565b610bb4565b610b84565b610b42565b610aba565b610a98565b610a3d565b610994565b610975565b610871565b6107cc565b6107aa565b61078f565b610709565b6106d1565b61051d565b610500565b6104cf565b610391565b34610336576020600319360112610336576004357fffffffff000000000000000000000000000000000000000000000000000000008116809103610336577f3333199400000000000000000000000000000000000000000000000000000000811490811561030c575b81156102e2575b81156102d9575b506040519015158152602090f35b9050155f6102cb565b7f01ffc9a700000000000000000000000000000000000000000000000000000000811491506102c4565b7f36372b0700000000000000000000000000000000000000000000000000000000811491506102bd565b5f80fd5b907fffffffffffffffffffffffffffffffffffffffffffffffffffffffffffffffe0601f602080948051918291828752018686015e5f8582860101520116010190565b90602061038e92818152019061033a565b90565b34610336575f600319360112610336576040515f6003546103b181611b0b565b808452906001811690811561044757506001146103e9575b6103e5836103d981850382610e5f565b6040519182918261037d565b0390f35b60035f9081527fc2575a0e9e593c00f959f8c92f12db2869c3395a3b0502d05e2516446f71f85b939250905b80821061042d575090915081016020016103d96103c9565b919260018160209254838588010152019101909291610415565b7fffffffffffffffffffffffffffffffffffffffffffffffffffffffffffffff001660208086019190915291151560051b840190910191506103d990506103c9565b6004359073ffffffffffffffffffffffffffffffffffffffff8216820361033657565b6024359073ffffffffffffffffffffffffffffffffffffffff8216820361033657565b34610336576040600319360112610336576104f56104eb610489565b60243590336123df565b602060405160018152f35b34610336575f600319360112610336576020600254604051908152f35b3461033657604060031936011261033657610536610489565b6024359073420000000000000000000000000000000000002833036106a95773ffffffffffffffffffffffffffffffffffffffff811690811561067d57610587610582846002546122a9565b600255565b6105ae8173ffffffffffffffffffffffffffffffffffffffff165f525f60205260405f2090565b838154019055815f7fddf252ad1be2c89b69c2b068fc378daa952ba7f163c4a11628f55a4df523b3ef604051806105ea88829190602083019252565b0390a360025479ffffffffffffffffffffffffffffffffffffffffffffffffffff9081811161064f5750508261061f91612cdb565b60405191825233917fde22baff038e3a3e08407cbdf617deed74e869a7ba517df611e33131c6e6ea0490602090a3005b7f1cb15d26000000000000000000000000000000000000000000000000000000005f5260045260245260445ffd5b7fec442f05000000000000000000000000000000000000000000000000000000005f525f60045260245ffd5b7f82b42900000000000000000000000000000000000000000000000000000000005f5260045ffd5b34610336576060600319360112610336576104f56106ed610489565b6106f56104ac565b60443591610704833383611cb4565b611e19565b3461033657604060031936011261033657610722610489565b60243573420000000000000000000000000000000000002833036106a95761074a8183611f8c565b6040519081527fb90795a66650155983e242cac3e1ac1a4dc26f8ed2987f3ce416a34e00111fd4602073ffffffffffffffffffffffffffffffffffffffff33941692a3005b34610336575f60031936011261033657602060405160128152f35b34610336575f6003193601126103365760206107c4612112565b604051908152f35b34610336575f600319360112610336576040515f600b546107ec81611b0b565b80845290600181169081156104475750600114610813576103e5836103d981850382610e5f565b600b5f9081527f0175b7a638427703f0dbe7bb9bbf987a2551717b34e79f33b5b1008d1fa01db9939250905b808210610857575090915081016020016103d96103c9565b91926001816020925483858801015201910190929161083f565b346103365760406003193601126103365761088a610489565b73ffffffffffffffffffffffffffffffffffffffff60243591165f5260096020526108b860405f209161223b565b8154905f82916005841161091d575b6108d2935084612670565b908161090257505060205f5b79ffffffffffffffffffffffffffffffffffffffffffffffffffff60405191168152f35b61090d60209261228d565b905f52815f20015460301c6108de565b9192610928816124fb565b8103908111610970576108d293855f5265ffffffffffff8260205f2001541665ffffffffffff8516105f1461095e5750916108c7565b92915061096a9061229b565b906108c7565b611ade565b346103365760206003193601126103365761099260043533611f8c565b005b34610336575f600319360112610336576109ad4361247c565b65ffffffffffff806109be4361247c565b16911603610a15576103e56040516109d7604082610e5f565b601d81527f6d6f64653d626c6f636b6e756d6265722666726f6d3d64656661756c74000000602082015260405191829160208352602083019061033a565b7f6ff07140000000000000000000000000000000000000000000000000000000005f5260045ffd5b346103365760206003193601126103365773ffffffffffffffffffffffffffffffffffffffff610a6b610489565b165f526008602052602073ffffffffffffffffffffffffffffffffffffffff60405f205416604051908152f35b3461033657602060031936011261033657610992610ab4610489565b336122b6565b346103365760206003193601126103365773ffffffffffffffffffffffffffffffffffffffff610ae8610489565b165f52600960205260405f205463ffffffff8111610b125760405163ffffffff9091168152602090f35b7f6dfcc650000000000000000000000000000000000000000000000000000000005f52602060045260245260445ffd5b346103365760206003193601126103365760206107c4610b60610489565b73ffffffffffffffffffffffffffffffffffffffff165f525f60205260405f205490565b3461033657604060031936011261033657610992610ba0610489565b60243590610baf823383611cb4565b611f8c565b346103365760206003193601126103365773ffffffffffffffffffffffffffffffffffffffff610be2610489565b165f526007602052602060405f2054604051908152f35b34610336575f60031936011261033657602060ff600e54166040519015158152f35b34610336575f60031936011261033657610cf9610c577f000000000000000000000000000000000000000000000000000000000000000061285b565b610c807f00000000000000000000000000000000000000000000000000000000000000006128d4565b6020604051610c8f8282610e5f565b5f815281610d07818301947fffffffffffffffffffffffffffffffffffffffffffffffffffffffffffffffe083013687376040519788977f0f00000000000000000000000000000000000000000000000000000000000000895260e0858a015260e089019061033a565b90878203604089015261033a565b914660608701523060808701525f60a087015285830360c087015251918281520192915f5b828110610d3b57505050500390f35b835185528695509381019392810192600101610d2c565b3461033657602060031936011261033657610d6e60043561223b565b600a54905f829160058411610dbd575b610d8a9350600a612670565b80610d9b57506040515f8152602090f35b610db8610da960209261228d565b600a5f52825f20015460301c90565b6108de565b9192610dc8816124fb565b810390811161097057610d8a93600a5f5265ffffffffffff8260205f2001541665ffffffffffff8516105f14610dff575091610d7e565b929150610e0b9061229b565b90610d7e565b7f4e487b71000000000000000000000000000000000000000000000000000000005f52604160045260245ffd5b6040810190811067ffffffffffffffff821117610e5a57604052565b610e11565b90601f7fffffffffffffffffffffffffffffffffffffffffffffffffffffffffffffffe0910116810190811067ffffffffffffffff821117610e5a57604052565b60405190610eaf604083610e5f565b565b60206003198201126103365760043567ffffffffffffffff811161033657816023820112156103365780600401359067ffffffffffffffff8211610e5a5760405192610f25601f84017fffffffffffffffffffffffffffffffffffffffffffffffffffffffffffffffe01660200185610e5f565b8284526024838301011161033657815f92602460209301838601378301015290565b3461033657610f5536610eb1565b73ffffffffffffffffffffffffffffffffffffffff7f00000000000000000000000000000000000000000000000000000000000000001633036110ea57805167ffffffffffffffff8111610e5a57610fb781610fb2600b54611b0b565b611bfc565b6020601f8211600114611027579161100882611017937ff26c33166d6eefdac067b052550e7713b98ff0ffc4abb3caf719a1de36b651f4955f9161101c575b505f198260011b9260031b1c19161790565b600b556040519182918261037d565b0390a1005b90508301515f610ff6565b600b5f527fffffffffffffffffffffffffffffffffffffffffffffffffffffffffffffffe08216907f0175b7a638427703f0dbe7bb9bbf987a2551717b34e79f33b5b1008d1fa01db9915f5b8181106110d25750927ff26c33166d6eefdac067b052550e7713b98ff0ffc4abb3caf719a1de36b651f494926001928261101796106110ba575b5050811b01600b556103d9565b8401515f1960f88460031b161c191690555f806110ad565b91926020600181928689015181550194019201611073565b7f7bfa4b9f000000000000000000000000000000000000000000000000000000005f5260045ffd5b34610336575f60031936011261033657602061112d4361247c565b65ffffffffffff60405191168152f35b34610336575f600319360112610336576040515f60045461115d81611b0b565b80845290600181169081156104475750600114611184576103e5836103d981850382610e5f565b60045f9081527f8a35acfbc15ff81a39ae7d344fd709f28e8600b4aa8c65c6b64bfe7fe36bd19b939250905b8082106111c8575090915081016020016103d96103c9565b9192600181602092548385880101520191019092916111b0565b346103365760206003193601126103365773ffffffffffffffffffffffffffffffffffffffff611210610489565b165f526009602052602079ffffffffffffffffffffffffffffffffffffffffffffffffffff61124160405f20612366565b16604051908152f35b34610336576040600319360112610336576104f5611266610489565b6024359033611e19565b34610336575f600319360112610336576040515f600d5461129081611b0b565b808452906001811690811561044757506001146112b7576103e5836103d981850382610e5f565b600d5f9081527fd7b6990105719101dabeb77144f2a3385c8033acd3af97e9423a695e81ad1eb5939250905b8082106112fb575090915081016020016103d96103c9565b9192600181602092548385880101520191019092916112e3565b6064359060ff8216820361033657565b6084359060ff8216820361033657565b346103365760c06003193601126103365761134e610489565b6024359060443561135d611315565b6084359060a4359280421161147857916113f093916113e26113e79460405160208101917fe48329057bfd03d55e49b547132e39cffd9c1820ad7b9d4c5307691425d15adf835273ffffffffffffffffffffffffffffffffffffffff8a1660408301528a60608301526080820152608081526113da60a082610e5f565b51902061238f565b61290b565b909291926129dc565b6114218173ffffffffffffffffffffffffffffffffffffffff165f52600760205260405f2080549060018201905590565b8093036114325761099292506122b6565b73ffffffffffffffffffffffffffffffffffffffff91507f752d88c0000000000000000000000000000000000000000000000000000000005f521660045260245260445ffd5b7f4683af0e000000000000000000000000000000000000000000000000000000005f5260045260245ffd5b34610336575f600319360112610336576040515f600c546114c381611b0b565b808452906001811690811561044757506001146114ea576103e5836103d981850382610e5f565b600c5f9081527fdf6966c971051c3d54ec59162606531493a51404a002842f56009d7e5cf4a8c7939250905b80821061152e575090915081016020016103d96103c9565b919260018160209254838588010152019101909291611516565b346103365760e060031936011261033657611561610489565b6115696104ac565b6044359060643592611579611325565b60a43560c435908642116116b757611649926116446115bf8673ffffffffffffffffffffffffffffffffffffffff165f52600760205260405f2080549060018201905590565b9860405160208101917f6e71edae12b1b97f4d1f60370fef10105fa2faae0126114a169c64845d6126c9835273ffffffffffffffffffffffffffffffffffffffff89169b8c604084015273ffffffffffffffffffffffffffffffffffffffff8b1660608401528b608084015260a083015260c082015260c081526113da60e082610e5f565b6123d0565b9373ffffffffffffffffffffffffffffffffffffffff8516036116705761099293506123df565b7f4b800e46000000000000000000000000000000000000000000000000000000005f5273ffffffffffffffffffffffffffffffffffffffff8085166004521660245260445ffd5b867f62791302000000000000000000000000000000000000000000000000000000005f5260045260245ffd5b3461033657604060031936011261033657602061174d611701610489565b73ffffffffffffffffffffffffffffffffffffffff61171e6104ac565b91165f526001835260405f209073ffffffffffffffffffffffffffffffffffffffff165f5260205260405f2090565b54604051908152f35b346103365761176436610eb1565b73ffffffffffffffffffffffffffffffffffffffff7f00000000000000000000000000000000000000000000000000000000000000001633036110ea57805167ffffffffffffffff8111610e5a576117c6816117c1600d54611b0b565b611c4c565b6020601f8211600114611825579161181682611017937fa27234ca678ebcb3cd33e8325c5563cd8d9ff626cc44a58b6ea2bf4b55524216955f9161101c57505f198260011b9260031b1c19161790565b600d556040519182918261037d565b600d5f527fffffffffffffffffffffffffffffffffffffffffffffffffffffffffffffffe08216907fd7b6990105719101dabeb77144f2a3385c8033acd3af97e9423a695e81ad1eb5915f5b8181106118d05750927fa27234ca678ebcb3cd33e8325c5563cd8d9ff626cc44a58b6ea2bf4b5552421694926001928261101796106118b8575b5050811b01600d556103d9565b8401515f1960f88460031b161c191690555f806118ab565b91926020600181928689015181550194019201611871565b3461033657604060031936011261033657611901610489565b6024359063ffffffff82168203610336576103e59173ffffffffffffffffffffffffffffffffffffffff61195b92611937611c9c565b50611940611c9c565b50165f52600960205260405f20611955611c9c565b50612aa3565b506040519061196982610e3e565b5465ffffffffffff8116825260301c602082015260405191829182919091602079ffffffffffffffffffffffffffffffffffffffffffffffffffff81604084019565ffffffffffff8151168552015116910152565b34610336575f60031936011261033657602060405173ffffffffffffffffffffffffffffffffffffffff7f0000000000000000000000000000000000000000000000000000000000000000168152f35b34610336575f6003193601126103365773ffffffffffffffffffffffffffffffffffffffff7f00000000000000000000000000000000000000000000000000000000000000001633036110ea57600e5460ff8116611ab6577fffffffffffffffffffffffffffffffffffffffffffffffffffffffffffffff0016600117600e5530337f78a953f3f0d92abc078a34e5d4fedf8708e788e1b29300b3d6170e97f88a13fc5f80a3005b7f118fd7b8000000000000000000000000000000000000000000000000000000005f5260045ffd5b7f4e487b71000000000000000000000000000000000000000000000000000000005f52601160045260245ffd5b90600182811c92168015611b52575b6020831014611b2557565b7f4e487b71000000000000000000000000000000000000000000000000000000005f52602260045260245ffd5b91607f1691611b1a565b5f9291815491611b6b83611b0b565b8083529260018116908115611bc05750600114611b8757505050565b5f9081526020812093945091925b838310611ba6575060209250010190565b600181602092949394548385870101520191019190611b95565b905060209495507fffffffffffffffffffffffffffffffffffffffffffffffffffffffffffffff0091509291921683830152151560051b010190565b601f8111611c08575050565b600b5f5260205f20906020601f840160051c83019310611c42575b601f0160051c01905b818110611c37575050565b5f8155600101611c2c565b9091508190611c23565b601f8111611c58575050565b600d5f5260205f20906020601f840160051c83019310611c92575b601f0160051c01905b818110611c87575050565b5f8155600101611c7c565b9091508190611c73565b60405190611ca982610e3e565b5f6020838281520152565b73ffffffffffffffffffffffffffffffffffffffff909291921690815f526001602052611d028360405f209073ffffffffffffffffffffffffffffffffffffffff165f5260205260405f2090565b545f198110611d12575b50505050565b818110611dd1578215611da55773ffffffffffffffffffffffffffffffffffffffff841615611d7957611d6f925f526001602052039160405f209073ffffffffffffffffffffffffffffffffffffffff165f5260205260405f2090565b555f808080611d0c565b7f94280d62000000000000000000000000000000000000000000000000000000005f525f60045260245ffd5b7fe602df05000000000000000000000000000000000000000000000000000000005f525f60045260245ffd5b73ffffffffffffffffffffffffffffffffffffffff847ffb8f41b2000000000000000000000000000000000000000000000000000000005f521660045260245260445260645ffd5b92919073ffffffffffffffffffffffffffffffffffffffff8416938415611f605773ffffffffffffffffffffffffffffffffffffffff8216801561067d57611e7e8273ffffffffffffffffffffffffffffffffffffffff165f525f60205260405f2090565b5495848710611f145784610eaf969703611eb58473ffffffffffffffffffffffffffffffffffffffff165f525f60205260405f2090565b55611edd8473ffffffffffffffffffffffffffffffffffffffff165f525f60205260405f2090565b8054860190556040518581527fddf252ad1be2c89b69c2b068fc378daa952ba7f163c4a11628f55a4df523b3ef90602090a3612d6e565b7fe450d38c000000000000000000000000000000000000000000000000000000005f5273ffffffffffffffffffffffffffffffffffffffff83166004526024879052604485905260645ffd5b7f96c6fd1e000000000000000000000000000000000000000000000000000000005f525f60045260245ffd5b73ffffffffffffffffffffffffffffffffffffffff8116908115611f6057611fd18173ffffffffffffffffffffffffffffffffffffffff165f525f60205260405f2090565b548381106120c7579061200984610eaf959493039173ffffffffffffffffffffffffffffffffffffffff165f525f60205260405f2090565b5581600254036002555f817fddf252ad1be2c89b69c2b068fc378daa952ba7f163c4a11628f55a4df523b3ef60405180602081018782520390a380156120af575b61205b61205683612ae5565b612c7a565b50505f908152600860205260408120549080527f5eff886ea0ce6ca488a3d6e336d6c0f75f46d19b42c06ce5ee98e42c96d256c75473ffffffffffffffffffffffffffffffffffffffff90811691166126d4565b6120c06120bb83612ae5565b612c19565b505061204a565b7fe450d38c000000000000000000000000000000000000000000000000000000005f5273ffffffffffffffffffffffffffffffffffffffff909116600452602452604482905260645ffd5b73ffffffffffffffffffffffffffffffffffffffff7f000000000000000000000000000000000000000000000000000000000000000016301480612212575b1561217a577f000000000000000000000000000000000000000000000000000000000000000090565b60405160208101907f8b73c3c69bb8fe3d512ecc4cf759cc79239f7b179b0ffacaa9a75d522b39400f82527f000000000000000000000000000000000000000000000000000000000000000060408201527f000000000000000000000000000000000000000000000000000000000000000060608201524660808201523060a082015260a0815261220c60c082610e5f565b51902090565b507f00000000000000000000000000000000000000000000000000000000000000004614612151565b65ffffffffffff61224b4361247c565b168082101561225e575061038e9061247c565b907fecd3f81e000000000000000000000000000000000000000000000000000000005f5260045260245260445ffd5b905f19820191821161097057565b906001820180921161097057565b9190820180921161097057565b73ffffffffffffffffffffffffffffffffffffffff8181165f81815260086020526040812080548685167fffffffffffffffffffffffff000000000000000000000000000000000000000082168117909255610eaf969416946123609390928691907f3134e8a2e6d97e929a7e54011ea5485d7d196dd5f0ba4d4ef95803e8e3fc257f9080a473ffffffffffffffffffffffffffffffffffffffff165f525f60205260405f205490565b916126d4565b8054806123735750505f90565b805f19810111610970575f19915f5260205f2001015460301c90565b60429061239a612112565b90604051917f19010000000000000000000000000000000000000000000000000000000000008352600283015260228201522090565b9161038e93916113e79361290b565b73ffffffffffffffffffffffffffffffffffffffff16908115611da55773ffffffffffffffffffffffffffffffffffffffff8116928315611d79578061246f7f8c5be1e5ebec7d5bd14f71427d1e84f3dd0314c0f7b2291e5b200ac8c7c3b92593855f52600160205260405f209073ffffffffffffffffffffffffffffffffffffffff165f5260205260405f2090565b55604051908152602090a3565b65ffffffffffff81116124945765ffffffffffff1690565b7f6dfcc650000000000000000000000000000000000000000000000000000000005f52603060045260245260445ffd5b81156124ce570490565b7f4e487b71000000000000000000000000000000000000000000000000000000005f52601260045260245ffd5b600181111561038e5780600170010000000000000000000000000000000083101561262e575b6125d46125ca6125c06125b66125ac6125a26125916125db9760048a680100000000000000006125e09c1015612621575b640100000000811015612614575b62010000811015612607575b6101008110156125fa575b60108110156125ed575b10156125e5575b60030260011c90565b61259b818b6124c4565b0160011c90565b61259b818a6124c4565b61259b81896124c4565b61259b81886124c4565b61259b81876124c4565b61259b81866124c4565b80936124c4565b821190565b900390565b60011b612588565b60041c9160021b91612581565b60081c9160041b91612577565b60101c9160081b9161256c565b60201c9160101b91612560565b60401c9160201b91612552565b50506125e06125db6125d46125ca6125c06125b66125ac6125a26125916126558a60801c90565b98506801000000000000000097506125219650505050505050565b91905b8382106126805750505090565b9091928083169080841860011c820180921161097057845f5265ffffffffffff8260205f2001541665ffffffffffff8416105f146126c25750925b9190612673565b9392506126ce9061229b565b916126bb565b919073ffffffffffffffffffffffffffffffffffffffff81169273ffffffffffffffffffffffffffffffffffffffff8116908482141580612852575b61271c575b5050505050565b816127cf575b505082612731575b8080612715565b6127c46127ab7fdec2bacdd2f05b59de34da9b523dff8be42e5e38e818c82fdb0bae774387a724936127a561279f79ffffffffffffffffffffffffffffffffffffffffffffffffffff9573ffffffffffffffffffffffffffffffffffffffff165f52600960205260405f2090565b91612ae5565b90612bb9565b6040805192851683529316602082015291829190820190565b0390a25f808061272a565b79ffffffffffffffffffffffffffffffffffffffffffffffffffff6128486127ab6128397fdec2bacdd2f05b59de34da9b523dff8be42e5e38e818c82fdb0bae774387a7249473ffffffffffffffffffffffffffffffffffffffff165f52600960205260405f2090565b61284288612ae5565b90612b55565b0390a25f80612722565b50831515612710565b60ff81146128ba5760ff811690601f8211612892576040519161287f604084610e5f565b6020808452838101919036833783525290565b7fb3512b0c000000000000000000000000000000000000000000000000000000005f5260045ffd5b5060405161038e816128cd816005611b5c565b0382610e5f565b60ff81146128f85760ff811690601f8211612892576040519161287f604084610e5f565b5060405161038e816128cd816006611b5c565b91907f7fffffffffffffffffffffffffffffff5d576e7357a4501ddfe92f46681b20a0841161299a579160209360809260ff5f9560405194855216868401526040830152606082015282805260015afa1561298f575f5173ffffffffffffffffffffffffffffffffffffffff81161561298557905f905f90565b505f906001905f90565b6040513d5f823e3d90fd5b5050505f9160039190565b600411156129af57565b7f4e487b71000000000000000000000000000000000000000000000000000000005f52602160045260245ffd5b6129e5816129a5565b806129ee575050565b6129f7816129a5565b60018103612a27577ff645eedf000000000000000000000000000000000000000000000000000000005f5260045ffd5b612a30816129a5565b60028103612a6457507ffce698f7000000000000000000000000000000000000000000000000000000005f5260045260245ffd5b80612a706003926129a5565b14612a785750565b7fd78bce0c000000000000000000000000000000000000000000000000000000005f5260045260245ffd5b8054821015612ab8575f5260205f2001905f90565b7f4e487b71000000000000000000000000000000000000000000000000000000005f52603260045260245ffd5b79ffffffffffffffffffffffffffffffffffffffffffffffffffff8111612b255779ffffffffffffffffffffffffffffffffffffffffffffffffffff1690565b7f6dfcc650000000000000000000000000000000000000000000000000000000005f5260d060045260245260445ffd5b90612b5f4361247c565b9079ffffffffffffffffffffffffffffffffffffffffffffffffffff80612b8585612366565b92169116039079ffffffffffffffffffffffffffffffffffffffffffffffffffff821161097057612bb592612ea0565b9091565b90612bc34361247c565b9079ffffffffffffffffffffffffffffffffffffffffffffffffffff80612be985612366565b92169116019079ffffffffffffffffffffffffffffffffffffffffffffffffffff821161097057612bb592612ea0565b612c224361247c565b9079ffffffffffffffffffffffffffffffffffffffffffffffffffff80612c49600a612366565b921691160179ffffffffffffffffffffffffffffffffffffffffffffffffffff811161097057612bb591600a612ea0565b612c834361247c565b9079ffffffffffffffffffffffffffffffffffffffffffffffffffff80612caa600a612366565b921691160379ffffffffffffffffffffffffffffffffffffffffffffffffffff811161097057612bb591600a612ea0565b9073ffffffffffffffffffffffffffffffffffffffff610eaf92612d016120bb84612ae5565b5050168015612d5b575b60086020527f5eff886ea0ce6ca488a3d6e336d6c0f75f46d19b42c06ce5ee98e42c96d256c7545f91825260409091205473ffffffffffffffffffffffffffffffffffffffff90811691166126d4565b612d6761205683612ae5565b5050612d0b565b9073ffffffffffffffffffffffffffffffffffffffff80610eaf949316918215612dfa575b16908115612de7575b5f52600860205273ffffffffffffffffffffffffffffffffffffffff60405f205416905f52600860205273ffffffffffffffffffffffffffffffffffffffff60405f205416906126d4565b612df361205684612ae5565b5050612d9c565b612e066120bb85612ae5565b5050612d93565b805468010000000000000000811015610e5a57612e2f91600182018155612aa3565b612e745781516020929092015160301b7fffffffffffffffffffffffffffffffffffffffffffffffffffff0000000000001665ffffffffffff92909216919091179055565b7f4e487b71000000000000000000000000000000000000000000000000000000005f525f60045260245ffd5b80549293928015612f9657612eb7612ec29161228d565b825f5260205f200190565b8054603081901c9365ffffffffffff91821692918116808411612f6e57879303612f275750612f2392509065ffffffffffff7fffffffffffffffffffffffffffffffffffffffffffffffffffff00000000000083549260301b169116179055565b9190565b915050612f2391612f47612f39610ea0565b65ffffffffffff9093168352565b79ffffffffffffffffffffffffffffffffffffffffffffffffffff86166020830152612e0d565b7f2520601d000000000000000000000000000000000000000000000000000000005f5260045ffd5b5090612fce91612fa7612f39610ea0565b79ffffffffffffffffffffffffffffffffffffffffffffffffffff85166020830152612e0d565b5f919056c65a7bb8d6351c1cf70c95a316cc6a92839c986682d98bc35f958f4883f9d2a7dec2bacdd2f05b59de34da9b523dff8be42e5e38e818c82fdb0bae774387a724","linkReferences":{}},"methodIdentifiers":{"CLOCK_MODE()":"4bf5d7e9","DOMAIN_SEPARATOR()":"3644e515","admin()":"f851a440","allowance(address,address)":"dd62ed3e","approve(address,uint256)":"095ea7b3","balanceOf(address)":"70a08231","burn(uint256)":"42966c68","burnFrom(address,uint256)":"79cc6790","checkpoints(address,uint32)":"f1127ed8","clock()":"91ddadf4","context()":"d0496d6a","crosschainBurn(address,uint256)":"2b8c49e3","crosschainMint(address,uint256)":"18bf5077","decimals()":"313ce567","delegate(address)":"5c19a95c","delegateBySig(address,uint256,uint256,uint8,bytes32,bytes32)":"c3cda520","delegates(address)":"587cde1e","eip712Domain()":"84b0196e","getPastTotalSupply(uint256)":"8e539e8c","getPastVotes(address,uint256)":"3a46b1a8","getVotes(address)":"9ab24eb0","imageUrl()":"aba83150","isVerified()":"80007e83","metadata()":"392f37e9","name()":"06fdde03","nonces(address)":"7ecebe00","numCheckpoints(address)":"6fcfff45","permit(address,address,uint256,uint256,uint8,bytes32,bytes32)":"d505accf","supportsInterface(bytes4)":"01ffc9a7","symbol()":"95d89b41","totalSupply()":"18160ddd","transfer(address,uint256)":"a9059cbb","transferFrom(address,address,uint256)":"23b872dd","updateImage(string)":"eb3d68e7","updateMetadata(string)":"918b5be1","verify()":"fc735e99"},"id":118}