{"abi":[{"type":"constructor","inputs":[{"name":"_poolManager","type":"address","internalType":"address"},{"name":"_factory","type":"address","internalType":"address"},{"name":"_locker","type":"address","internalType":"address"},{"name":"_weth","type":"address","internalType":"address"}],"stateMutability":"nonpayable"},{"type":"function","name":"FEE_DENOMINATOR","inputs":[],"outputs":[{"name":"","type":"int128","internalType":"int128"}],"stateMutability":"view"},{"type":"function","name":"MAX_LP_FEE","inputs":[],"outputs":[{"name":"","type":"uint24","internalType":"uint24"}],"stateMutability":"view"},{"type":"function","name":"MAX_MEV_MODULE_DELAY","inputs":[],"outputs":[{"name":"","type":"uint256","internalType":"uint256"}],"stateMutability":"view"},{"type":"function","name":"PROTOCOL_FEE_NUMERATOR","inputs":[],"outputs":[{"name":"","type":"uint256","internalType":"uint256"}],"stateMutability":"view"},{"type":"function","name":"afterAddLiquidity","inputs":[{"name":"sender","type":"address","internalType":"address"},{"name":"key","type":"tuple","internalType":"struct PoolKey","components":[{"name":"currency0","type":"address","internalType":"Currency"},{"name":"currency1","type":"address","internalType":"Currency"},{"name":"fee","type":"uint24","internalType":"uint24"},{"name":"tickSpacing","type":"int24","internalType":"int24"},{"name":"hooks","type":"address","internalType":"contract IHooks"}]},{"name":"params","type":"tuple","internalType":"struct IPoolManager.ModifyLiquidityParams","components":[{"name":"tickLower","type":"int24","internalType":"int24"},{"name":"tickUpper","type":"int24","internalType":"int24"},{"name":"liquidityDelta","type":"int256","internalType":"int256"},{"name":"salt","type":"bytes32","internalType":"bytes32"}]},{"name":"delta","type":"int256","internalType":"BalanceDelta"},{"name":"feesAccrued","type":"int256","internalType":"BalanceDelta"},{"name":"hookData","type":"bytes","internalType":"bytes"}],"outputs":[{"name":"","type":"bytes4","internalType":"bytes4"},{"name":"","type":"int256","internalType":"BalanceDelta"}],"stateMutability":"nonpayable"},{"type":"function","name":"afterDonate","inputs":[{"name":"sender","type":"address","internalType":"address"},{"name":"key","type":"tuple","internalType":"struct PoolKey","components":[{"name":"currency0","type":"address","internalType":"Currency"},{"name":"currency1","type":"address","internalType":"Currency"},{"name":"fee","type":"uint24","internalType":"uint24"},{"name":"tickSpacing","type":"int24","internalType":"int24"},{"name":"hooks","type":"address","internalType":"contract IHooks"}]},{"name":"amount0","type":"uint256","internalType":"uint256"},{"name":"amount1","type":"uint256","internalType":"uint256"},{"name":"hookData","type":"bytes","internalType":"bytes"}],"outputs":[{"name":"","type":"bytes4","internalType":"bytes4"}],"stateMutability":"nonpayable"},{"type":"function","name":"afterInitialize","inputs":[{"name":"sender","type":"address","internalType":"address"},{"name":"key","type":"tuple","internalType":"struct PoolKey","components":[{"name":"currency0","type":"address","internalType":"Currency"},{"name":"currency1","type":"address","internalType":"Currency"},{"name":"fee","type":"uint24","internalType":"uint24"},{"name":"tickSpacing","type":"int24","internalType":"int24"},{"name":"hooks","type":"address","internalType":"contract IHooks"}]},{"name":"sqrtPriceX96","type":"uint160","internalType":"uint160"},{"name":"tick","type":"int24","internalType":"int24"}],"outputs":[{"name":"","type":"bytes4","internalType":"bytes4"}],"stateMutability":"nonpayable"},{"type":"function","name":"afterRemoveLiquidity","inputs":[{"name":"sender","type":"address","internalType":"address"},{"name":"key","type":"tuple","internalType":"struct PoolKey","components":[{"name":"currency0","type":"address","internalType":"Currency"},{"name":"currency1","type":"address","internalType":"Currency"},{"name":"fee","type":"uint24","internalType":"uint24"},{"name":"tickSpacing","type":"int24","internalType":"int24"},{"name":"hooks","type":"address","internalType":"contract IHooks"}]},{"name":"params","type":"tuple","internalType":"struct IPoolManager.ModifyLiquidityParams","components":[{"name":"tickLower","type":"int24","internalType":"int24"},{"name":"tickUpper","type":"int24","internalType":"int24"},{"name":"liquidityDelta","type":"int256","internalType":"int256"},{"name":"salt","type":"bytes32","internalType":"bytes32"}]},{"name":"delta","type":"int256","internalType":"BalanceDelta"},{"name":"feesAccrued","type":"int256","internalType":"BalanceDelta"},{"name":"hookData","type":"bytes","internalType":"bytes"}],"outputs":[{"name":"","type":"bytes4","internalType":"bytes4"},{"name":"","type":"int256","internalType":"BalanceDelta"}],"stateMutability":"nonpayable"},{"type":"function","name":"afterSwap","inputs":[{"name":"sender","type":"address","internalType":"address"},{"name":"key","type":"tuple","internalType":"struct PoolKey","components":[{"name":"currency0","type":"address","internalType":"Currency"},{"name":"currency1","type":"address","internalType":"Currency"},{"name":"fee","type":"uint24","internalType":"uint24"},{"name":"tickSpacing","type":"int24","internalType":"int24"},{"name":"hooks","type":"address","internalType":"contract IHooks"}]},{"name":"params","type":"tuple","internalType":"struct IPoolManager.SwapParams","components":[{"name":"zeroForOne","type":"bool","internalType":"bool"},{"name":"amountSpecified","type":"int256","internalType":"int256"},{"name":"sqrtPriceLimitX96","type":"uint160","internalType":"uint160"}]},{"name":"delta","type":"int256","internalType":"BalanceDelta"},{"name":"hookData","type":"bytes","internalType":"bytes"}],"outputs":[{"name":"","type":"bytes4","internalType":"bytes4"},{"name":"","type":"int128","internalType":"int128"}],"stateMutability":"nonpayable"},{"type":"function","name":"beforeAddLiquidity","inputs":[{"name":"sender","type":"address","internalType":"address"},{"name":"key","type":"tuple","internalType":"struct PoolKey","components":[{"name":"currency0","type":"address","internalType":"Currency"},{"name":"currency1","type":"address","internalType":"Currency"},{"name":"fee","type":"uint24","internalType":"uint24"},{"name":"tickSpacing","type":"int24","internalType":"int24"},{"name":"hooks","type":"address","internalType":"contract IHooks"}]},{"name":"params","type":"tuple","internalType":"struct IPoolManager.ModifyLiquidityParams","components":[{"name":"tickLower","type":"int24","internalType":"int24"},{"name":"tickUpper","type":"int24","internalType":"int24"},{"name":"liquidityDelta","type":"int256","internalType":"int256"},{"name":"salt","type":"bytes32","internalType":"bytes32"}]},{"name":"hookData","type":"bytes","internalType":"bytes"}],"outputs":[{"name":"","type":"bytes4","internalType":"bytes4"}],"stateMutability":"nonpayable"},{"type":"function","name":"beforeDonate","inputs":[{"name":"sender","type":"address","internalType":"address"},{"name":"key","type":"tuple","internalType":"struct PoolKey","components":[{"name":"currency0","type":"address","internalType":"Currency"},{"name":"currency1","type":"address","internalType":"Currency"},{"name":"fee","type":"uint24","internalType":"uint24"},{"name":"tickSpacing","type":"int24","internalType":"int24"},{"name":"hooks","type":"address","internalType":"contract IHooks"}]},{"name":"amount0","type":"uint256","internalType":"uint256"},{"name":"amount1","type":"uint256","internalType":"uint256"},{"name":"hookData","type":"bytes","internalType":"bytes"}],"outputs":[{"name":"","type":"bytes4","internalType":"bytes4"}],"stateMutability":"nonpayable"},{"type":"function","name":"beforeInitialize","inputs":[{"name":"sender","type":"address","internalType":"address"},{"name":"key","type":"tuple","internalType":"struct PoolKey","components":[{"name":"currency0","type":"address","internalType":"Currency"},{"name":"currency1","type":"address","internalType":"Currency"},{"name":"fee","type":"uint24","internalType":"uint24"},{"name":"tickSpacing","type":"int24","internalType":"int24"},{"name":"hooks","type":"address","internalType":"contract IHooks"}]},{"name":"sqrtPriceX96","type":"uint160","internalType":"uint160"}],"outputs":[{"name":"","type":"bytes4","internalType":"bytes4"}],"stateMutability":"nonpayable"},{"type":"function","name":"beforeRemoveLiquidity","inputs":[{"name":"sender","type":"address","internalType":"address"},{"name":"key","type":"tuple","internalType":"struct PoolKey","components":[{"name":"currency0","type":"address","internalType":"Currency"},{"name":"currency1","type":"address","internalType":"Currency"},{"name":"fee","type":"uint24","internalType":"uint24"},{"name":"tickSpacing","type":"int24","internalType":"int24"},{"name":"hooks","type":"address","internalType":"contract IHooks"}]},{"name":"params","type":"tuple","internalType":"struct IPoolManager.ModifyLiquidityParams","components":[{"name":"tickLower","type":"int24","internalType":"int24"},{"name":"tickUpper","type":"int24","internalType":"int24"},{"name":"liquidityDelta","type":"int256","internalType":"int256"},{"name":"salt","type":"bytes32","internalType":"bytes32"}]},{"name":"hookData","type":"bytes","internalType":"bytes"}],"outputs":[{"name":"","type":"bytes4","internalType":"bytes4"}],"stateMutability":"nonpayable"},{"type":"function","name":"beforeSwap","inputs":[{"name":"sender","type":"address","internalType":"address"},{"name":"key","type":"tuple","internalType":"struct PoolKey","components":[{"name":"currency0","type":"address","internalType":"Currency"},{"name":"currency1","type":"address","internalType":"Currency"},{"name":"fee","type":"uint24","internalType":"uint24"},{"name":"tickSpacing","type":"int24","internalType":"int24"},{"name":"hooks","type":"address","internalType":"contract IHooks"}]},{"name":"params","type":"tuple","internalType":"struct IPoolManager.SwapParams","components":[{"name":"zeroForOne","type":"bool","internalType":"bool"},{"name":"amountSpecified","type":"int256","internalType":"int256"},{"name":"sqrtPriceLimitX96","type":"uint160","internalType":"uint160"}]},{"name":"hookData","type":"bytes","internalType":"bytes"}],"outputs":[{"name":"","type":"bytes4","internalType":"bytes4"},{"name":"","type":"int256","internalType":"BeforeSwapDelta"},{"name":"","type":"uint24","internalType":"uint24"}],"stateMutability":"nonpayable"},{"type":"function","name":"clankerFee","inputs":[{"name":"","type":"bytes32","internalType":"PoolId"}],"outputs":[{"name":"","type":"uint24","internalType":"uint24"}],"stateMutability":"view"},{"type":"function","name":"factory","inputs":[],"outputs":[{"name":"","type":"address","internalType":"address"}],"stateMutability":"view"},{"type":"function","name":"getHookPermissions","inputs":[],"outputs":[{"name":"","type":"tuple","internalType":"struct Hooks.Permissions","components":[{"name":"beforeInitialize","type":"bool","internalType":"bool"},{"name":"afterInitialize","type":"bool","internalType":"bool"},{"name":"beforeAddLiquidity","type":"bool","internalType":"bool"},{"name":"afterAddLiquidity","type":"bool","internalType":"bool"},{"name":"beforeRemoveLiquidity","type":"bool","internalType":"bool"},{"name":"afterRemoveLiquidity","type":"bool","internalType":"bool"},{"name":"beforeSwap","type":"bool","internalType":"bool"},{"name":"afterSwap","type":"bool","internalType":"bool"},{"name":"beforeDonate","type":"bool","internalType":"bool"},{"name":"afterDonate","type":"bool","internalType":"bool"},{"name":"beforeSwapReturnDelta","type":"bool","internalType":"bool"},{"name":"afterSwapReturnDelta","type":"bool","internalType":"bool"},{"name":"afterAddLiquidityReturnDelta","type":"bool","internalType":"bool"},{"name":"afterRemoveLiquidityReturnDelta","type":"bool","internalType":"bool"}]}],"stateMutability":"pure"},{"type":"function","name":"initializeMevModule","inputs":[{"name":"poolKey","type":"tuple","internalType":"struct PoolKey","components":[{"name":"currency0","type":"address","internalType":"Currency"},{"name":"currency1","type":"address","internalType":"Currency"},{"name":"fee","type":"uint24","internalType":"uint24"},{"name":"tickSpacing","type":"int24","internalType":"int24"},{"name":"hooks","type":"address","internalType":"contract IHooks"}]},{"name":"mevModuleData","type":"bytes","internalType":"bytes"}],"outputs":[],"stateMutability":"nonpayable"},{"type":"function","name":"initializePool","inputs":[{"name":"clanker","type":"address","internalType":"address"},{"name":"pairedToken","type":"address","internalType":"address"},{"name":"tickIfToken0IsClanker","type":"int24","internalType":"int24"},{"name":"tickSpacing","type":"int24","internalType":"int24"},{"name":"_mevModule","type":"address","internalType":"address"},{"name":"poolData","type":"bytes","internalType":"bytes"}],"outputs":[{"name":"","type":"tuple","internalType":"struct PoolKey","components":[{"name":"currency0","type":"address","internalType":"Currency"},{"name":"currency1","type":"address","internalType":"Currency"},{"name":"fee","type":"uint24","internalType":"uint24"},{"name":"tickSpacing","type":"int24","internalType":"int24"},{"name":"hooks","type":"address","internalType":"contract IHooks"}]}],"stateMutability":"nonpayable"},{"type":"function","name":"initializePoolOpen","inputs":[{"name":"clanker","type":"address","internalType":"address"},{"name":"pairedToken","type":"address","internalType":"address"},{"name":"tickIfToken0IsClanker","type":"int24","internalType":"int24"},{"name":"tickSpacing","type":"int24","internalType":"int24"},{"name":"poolData","type":"bytes","internalType":"bytes"}],"outputs":[{"name":"","type":"tuple","internalType":"struct PoolKey","components":[{"name":"currency0","type":"address","internalType":"Currency"},{"name":"currency1","type":"address","internalType":"Currency"},{"name":"fee","type":"uint24","internalType":"uint24"},{"name":"tickSpacing","type":"int24","internalType":"int24"},{"name":"hooks","type":"address","internalType":"contract IHooks"}]}],"stateMutability":"nonpayable"},{"type":"function","name":"locker","inputs":[],"outputs":[{"name":"","type":"address","internalType":"contract IClankerLpLocker"}],"stateMutability":"view"},{"type":"function","name":"mevModule","inputs":[{"name":"","type":"bytes32","internalType":"PoolId"}],"outputs":[{"name":"","type":"address","internalType":"address"}],"stateMutability":"view"},{"type":"function","name":"mevModuleEnabled","inputs":[{"name":"","type":"bytes32","internalType":"PoolId"}],"outputs":[{"name":"","type":"bool","internalType":"bool"}],"stateMutability":"view"},{"type":"function","name":"owner","inputs":[],"outputs":[{"name":"","type":"address","internalType":"address"}],"stateMutability":"view"},{"type":"function","name":"pairedFee","inputs":[{"name":"","type":"bytes32","internalType":"PoolId"}],"outputs":[{"name":"","type":"uint24","internalType":"uint24"}],"stateMutability":"view"},{"type":"function","name":"poolCreationTimestamp","inputs":[{"name":"","type":"bytes32","internalType":"PoolId"}],"outputs":[{"name":"","type":"uint256","internalType":"uint256"}],"stateMutability":"view"},{"type":"function","name":"poolManager","inputs":[],"outputs":[{"name":"","type":"address","internalType":"contract IPoolManager"}],"stateMutability":"view"},{"type":"function","name":"protocolFee","inputs":[],"outputs":[{"name":"","type":"uint24","internalType":"uint24"}],"stateMutability":"view"},{"type":"function","name":"renounceOwnership","inputs":[],"outputs":[],"stateMutability":"nonpayable"},{"type":"function","name":"supportsInterface","inputs":[{"name":"interfaceId","type":"bytes4","internalType":"bytes4"}],"outputs":[{"name":"","type":"bool","internalType":"bool"}],"stateMutability":"pure"},{"type":"function","name":"transferOwnership","inputs":[{"name":"newOwner","type":"address","internalType":"address"}],"outputs":[],"stateMutability":"nonpayable"},{"type":"function","name":"weth","inputs":[],"outputs":[{"name":"","type":"address","internalType":"address"}],"stateMutability":"view"},{"type":"event","name":"ClaimProtocolFees","inputs":[{"name":"token","type":"address","indexed":true,"internalType":"address"},{"name":"amount","type":"uint256","indexed":false,"internalType":"uint256"}],"anonymous":false},{"type":"event","name":"MevModuleDisabled","inputs":[{"name":"","type":"bytes32","indexed":false,"internalType":"PoolId"}],"anonymous":false},{"type":"event","name":"OwnershipTransferred","inputs":[{"name":"previousOwner","type":"address","indexed":true,"internalType":"address"},{"name":"newOwner","type":"address","indexed":true,"internalType":"address"}],"anonymous":false},{"type":"event","name":"PoolCreatedFactory","inputs":[{"name":"pairedToken","type":"address","indexed":true,"internalType":"address"},{"name":"clanker","type":"address","indexed":true,"internalType":"address"},{"name":"poolId","type":"bytes32","indexed":false,"internalType":"PoolId"},{"name":"tickIfToken0IsClanker","type":"int24","indexed":false,"internalType":"int24"},{"name":"tickSpacing","type":"int24","indexed":false,"internalType":"int24"},{"name":"mevModule","type":"address","indexed":false,"internalType":"address"}],"anonymous":false},{"type":"event","name":"PoolCreatedOpen","inputs":[{"name":"pairedToken","type":"address","indexed":true,"internalType":"address"},{"name":"clanker","type":"address","indexed":true,"internalType":"address"},{"name":"poolId","type":"bytes32","indexed":false,"internalType":"PoolId"},{"name":"tickIfToken0IsClanker","type":"int24","indexed":false,"internalType":"int24"},{"name":"tickSpacing","type":"int24","indexed":false,"internalType":"int24"}],"anonymous":false},{"type":"event","name":"PoolInitialized","inputs":[{"name":"poolId","type":"bytes32","indexed":false,"internalType":"PoolId"},{"name":"clankerFee","type":"uint24","indexed":false,"internalType":"uint24"},{"name":"pairedFee","type":"uint24","indexed":false,"internalType":"uint24"}],"anonymous":false},{"type":"error","name":"ClankerFeeTooHigh","inputs":[]},{"type":"error","name":"ETHPoolNotAllowed","inputs":[]},{"type":"error","name":"HookNotImplemented","inputs":[]},{"type":"error","name":"MevModuleEnabled","inputs":[]},{"type":"error","name":"NotPoolManager","inputs":[]},{"type":"error","name":"OnlyFactory","inputs":[]},{"type":"error","name":"OwnableInvalidOwner","inputs":[{"name":"owner","type":"address","internalType":"address"}]},{"type":"error","name":"OwnableUnauthorizedAccount","inputs":[{"name":"account","type":"address","internalType":"address"}]},{"type":"error","name":"PairedFeeTooHigh","inputs":[]},{"type":"error","name":"PastCreationTimestamp","inputs":[]},{"type":"error","name":"UnsupportedInitializePath","inputs":[]},{"type":"error","name":"WethCannotBeClanker","inputs":[]}],"bytecode":{"object":"0x6101006040523461037a57604051601f61346c38819003918201601f19168301916001600160401b0383118484101761037e5780849260809460405283398101031261037a5761004e816103b2565b61005a602083016103b2565b91610073606061006c604084016103b2565b92016103b2565b6001600160a01b039092166080525f6101a061008d610392565b8281528260208201528260408201528260608201528260808201528260a08201528260c08201528260e0820152826101008201528261012082015282610140820152826101608201528261018082015201525f6101a06100eb610392565b60018152826020820152600160408201528260608201528260808201528260a0820152600160c0820152600160e08201528261010082015282610120820152600161014082015260016101608201528261018082015201526120003016151560011480159061036d575b801561035c575b801561034f575b8015610342575b8015610335575b8015610325575b8015610315575b8015610309575b80156102fd575b80156102ed575b80156102dd575b80156102d1575b80156102c5575b6102b257331561029f575f8054336001600160a01b0319821681178355604051959290916001600160a01b0316907f8be0079c531659141344cd1fd0a4f28419497f9722a3daafe3b4186f6b6457e09080a360c0526001600160a01b031660a05260e0526130a590816103c782396080518181816102d4015281816103ac015281816104240152818161077d01528181610ad501528181610e6501528181610f5801528181611bb601528181611d080152612930015260a0518181816104750152612fef015260c05181818161066b01528181610bb6015281816111b40152611e11015260e0518181816119930152611acd0152f35b631e4fbdf760e01b5f525f60045260245ffd5b630732d7b560e51b5f523060045260245ffd5b506001301615156101a9565b506002301615156101a2565b506004301615156001141561019b565b5060083016151560011415610194565b5060103016151561018d565b50602030161515610186565b506040301615156001141561017f565b5060803016151560011415610178565b5061010030161515610171565b506102003016151561016a565b5061040030161515610163565b50610800301615156001141561015c565b5061100030161515610155565b5f80fd5b634e487b7160e01b5f52604160045260245ffd5b604051906101c082016001600160401b0381118382101761037e57604052565b51906001600160a01b038216820361037a5756fe60806040526004361015610011575f80fd5b5f5f3560e01c8063015e3c2914611dbf57806301ffc9a714611d5357806321d0ee7014611cda578063259982e514611b8b5780632b887e0f14611b5c5780632c78f49314611b2d578063334e836714611b0f5780633fc48eba14611af15780633fc8cef314611aa05780634c2b287614611906578063575e24b414610eb05780636c2bbe7e14610aa55780636fe7e6eb14610df3578063715018a614610d755780638da5cb5b14610d4257806394191b6314610b205780639f063efc14610aa5578063b0e21e8a14610a80578063b47b2fb1146106cf578063b6a8b0fa146102a5578063bdf228631461068f578063c45a01551461063e578063c4e833ce146104d3578063ccc8dc43146104b7578063d73792a914610499578063d7b96d4e14610448578063dc4c90d3146103f7578063dc98354e14610344578063e1b4af69146102a5578063ee4d96cf1461027b578063f2fde38b146101ab5763f732b64e1461017a575f80fd5b346101a85760206003193601126101a85762ffffff6040602092600435815260078452205416604051908152f35b80fd5b50346101a85760206003193601126101a85773ffffffffffffffffffffffffffffffffffffffff6101da612015565b6101e2612efc565b16801561024f5773ffffffffffffffffffffffffffffffffffffffff8254827fffffffffffffffffffffffff00000000000000000000000000000000000000008216178455167f8be0079c531659141344cd1fd0a4f28419497f9722a3daafe3b4186f6b6457e08380a380f35b6024827f1e4fbdf700000000000000000000000000000000000000000000000000000000815280600452fd5b50346101a85760206003193601126101a85760406020916004358152600583522054604051908152f35b50346101a8576004906102b73661222f565b50505050505073ffffffffffffffffffffffffffffffffffffffff7f000000000000000000000000000000000000000000000000000000000000000016330361031f577f0a85dc29000000000000000000000000000000000000000000000000000000008152fd5b7fae18210a000000000000000000000000000000000000000000000000000000008152fd5b50346101a85760e06003193601126101a85761035e612015565b5060a07fffffffffffffffffffffffffffffffffffffffffffffffffffffffffffffffdc3601126101a85760049061039461220c565b5073ffffffffffffffffffffffffffffffffffffffff7f000000000000000000000000000000000000000000000000000000000000000016330361031f577f4a58ec19000000000000000000000000000000000000000000000000000000008152fd5b50346101a857806003193601126101a857602060405173ffffffffffffffffffffffffffffffffffffffff7f0000000000000000000000000000000000000000000000000000000000000000168152f35b50346101a857806003193601126101a857602060405173ffffffffffffffffffffffffffffffffffffffff7f0000000000000000000000000000000000000000000000000000000000000000168152f35b50346101a857806003193601126101a8576020604051620f42408152f35b50346101a857806003193601126101a857602060405160788152f35b50346101a857806003193601126101a8576020816101c0926101a06040516104fa816122b2565b82815282858201528260408201528260608201528260808201528260a08201528260c08201528260e08201528261010082015282610120820152826101408201528261016082015282610180820152015280604051610558816122b2565b600181528381018281526040820160018152606083018481526080840185815260a0850186815260c08601906001825260e0870192600184526101008801948986526101208901968a88526101408a019860018a526101a06101608c019b60018d5261018081019d8e52019c8d526040519d8e916001835251151591015251151560408d015251151560608c015251151560808b015251151560a08a015251151560c089015251151560e08801525115156101008701525115156101208601525115156101408501525115156101608401525115156101808301525115156101a0820152f35b50346101a857806003193601126101a857602060405173ffffffffffffffffffffffffffffffffffffffff7f0000000000000000000000000000000000000000000000000000000000000000168152f35b50346101a85760206003193601126101a85773ffffffffffffffffffffffffffffffffffffffff6040602092600435815260038452205416604051908152f35b50346101a8576101606003193601126101a8576106ea612015565b5060a07fffffffffffffffffffffffffffffffffffffffffffffffffffffffffffffffdc3601126101a85760607fffffffffffffffffffffffffffffffffffffffffffffffffffffffffffffff3c3601126101a857610124356101443567ffffffffffffffff811161090e57610764903690600401611fe7565b505073ffffffffffffffffffffffffffffffffffffffff7f00000000000000000000000000000000000000000000000000000000000000001690813303610a5857829160a06107b236612407565b208452600160205260ff604085205416916107cb612e56565b15158315151460e43586138080610a51575b610947575b15908161093e575b50610823575b6040848151907fb47b2fb1000000000000000000000000000000000000000000000000000000008252600f0b6020820152f35b8491929350610859620f424091855f1461093657600f0b5b61085062ffffff855460a01c1660020b612648565b60020b90612f48565b600f0b059182935f146109125773ffffffffffffffffffffffffffffffffffffffff610883612ed9565b16905b803b1561090e576040517f156e29f60000000000000000000000000000000000000000000000000000000081523060048201526024810192909252600f9390930b6044820152918290606490829084905af18015610903576108ea575b80806107f0565b6108f5838092612318565b6108ff57816108e3565b5080fd5b6040513d85823e3d90fd5b8280fd5b73ffffffffffffffffffffffffffffffffffffffff61092f612eb6565b1690610886565b60801d61083b565b9050155f6107ea565b94508315610a4157620f424061096e83600f0b5b62ffffff895460a01c1660020b90612f48565b600f0b059486868615610a1d5773ffffffffffffffffffffffffffffffffffffffff610998612ed9565b16905b863b1561090e576040517f156e29f60000000000000000000000000000000000000000000000000000000081523060048201526024810192909252600f0b60448201528181606481838a5af18015610a12576109f9575b50506107e2565b81610a0391612318565b610a0e57865f6109f2565b8680fd5b6040513d84823e3d90fd5b73ffffffffffffffffffffffffffffffffffffffff610a3a612eb6565b169061099b565b620f424061096e8360801d61095b565b50816107dd565b6004837fae18210a000000000000000000000000000000000000000000000000000000008152fd5b50346101a857806003193601126101a85762ffffff6020915460a01c16604051908152f35b50346101a857600490610ab736612159565b5050505050505073ffffffffffffffffffffffffffffffffffffffff7f000000000000000000000000000000000000000000000000000000000000000016330361031f577f0a85dc29000000000000000000000000000000000000000000000000000000008152fd5b50346101a85760c06003193601126101a857610b3a612015565b90610b43612038565b610b4b612129565b610b53612139565b6084359073ffffffffffffffffffffffffffffffffffffffff8216809203610d3e5760a43567ffffffffffffffff8111610d3a57610b95903690600401611fe7565b90610b9e61261e565b5073ffffffffffffffffffffffffffffffffffffffff7f0000000000000000000000000000000000000000000000000000000000000000163303610d1257877fe43fa691fff173f5bc7acd795055b455311869649e1c9dae49411d4f3272177294846040610c2b73ffffffffffffffffffffffffffffffffffffffff96879660809960a09f8e8e916126a4565b9a8c8c208152600260205281812060017fffffffffffffffffffffffffffffffffffffffffffffffffffffffffffffff008254161790558c8c208152600360205220827fffffffffffffffffffffffff00000000000000000000000000000000000000008254161790558a8a209760405198895260020b602089015260020b6040880152606087015216941692a3610d10604051809273ffffffffffffffffffffffffffffffffffffffff6080809282815116855282602082015116602086015262ffffff6040820151166040860152606081015160020b6060860152015116910152565bf35b6004877f0c6d42ae000000000000000000000000000000000000000000000000000000008152fd5b8580fd5b8480fd5b50346101a857806003193601126101a85773ffffffffffffffffffffffffffffffffffffffff6020915416604051908152f35b50346101a857806003193601126101a857610d8e612efc565b8073ffffffffffffffffffffffffffffffffffffffff81547fffffffffffffffffffffffff000000000000000000000000000000000000000081168355167f8be0079c531659141344cd1fd0a4f28419497f9722a3daafe3b4186f6b6457e08280a380f35b50346101a8576101006003193601126101a857610e0e612015565b5060a07fffffffffffffffffffffffffffffffffffffffffffffffffffffffffffffffdc3601126101a857600490610e4461220c565b50610e4d612149565b5073ffffffffffffffffffffffffffffffffffffffff7f000000000000000000000000000000000000000000000000000000000000000016330361031f577f0a85dc29000000000000000000000000000000000000000000000000000000008152fd5b50346101a8576101406003193601126101a857610ecb612015565b5060a07fffffffffffffffffffffffffffffffffffffffffffffffffffffffffffffffdc3601126101a85760607fffffffffffffffffffffffffffffffffffffffffffffffffffffffffffffff3c3601126101a8576101243567ffffffffffffffff81116108ff57610f41903690600401611fe7565b73ffffffffffffffffffffffffffffffffffffffff7f000000000000000000000000000000000000000000000000000000000000000016908133036118de578392610f8a612e56565b60a0610f9536612407565b208652600160205260ff604087205416151590151514155f146118bb5760a0610fbd36612407565b208552600760205262ffffff806040872054165b1662030d40810281810462030d40148215171561142f5786547fffffffffffffffffff000000ffffffffffffffffffffffffffffffffffffffff16620f424090910460a01b76ffffff0000000000000000000000000000000000000000161786558590843b156108ff57604051907f5275965100000000000000000000000000000000000000000000000000000000825261106e60048301612547565b60a4820152818160c48183895af18015610a12576118a6575b505060a061109436612407565b2085526001602052604085205460ff16156118845773ffffffffffffffffffffffffffffffffffffffff6110c6612ed9565b166040517efdd58e000000000000000000000000000000000000000000000000000000008152306004820152816024820152602081604481885afa908115611879578791611847575b50843b15610a0e576040517ff5298aca000000000000000000000000000000000000000000000000000000008152306004820152602481018390526044810182905287908181606481838b5af18015610a1257611832575b5050843b15610a0e57866040517f0b0d9c0900000000000000000000000000000000000000000000000000000000815283600482015273ffffffffffffffffffffffffffffffffffffffff7f00000000000000000000000000000000000000000000000000000000000000001660248201528260448201528181606481838b5af18015610a125761181d575b505060207f175b790d44599ca70432cc8d1406504cb3a28fc13ff995c06dde6663412b211a91604051908152a2611228612f6f565b60a061123336612407565b208552600460205260ff604086205416806117c5575b6115f7575b505060a061125b36612407565b208352600160205260ff60408420541690611274612e56565b60e4359015158315151485821280806115ef575b611464575b15908161145c575b506112d2575b60608486604051917f575e24b400000000000000000000000000000000000000000000000000000000835260208301526040820152f35b90919250835462ffffff8160a01c16606481046127100190816127101161142f579262ffffff620f4240937fffffffffffffffffff000000ffffffffffffffffffffffffffffffffffffffff76ffffff000000000000000000000000000000000000000061271061134761135f978d9a612e65565b0460a01b1691161780865560a01c1660020b90612e78565b600f0b600f0b05918260801b935f1461140b5773ffffffffffffffffffffffffffffffffffffffff61138f612ed9565b16905b803b1561090e576040517f156e29f60000000000000000000000000000000000000000000000000000000081523060048201526024810192909252600f9390930b6044820152918290606490829084905af18015610903576113f6575b808061129b565b611401838092612318565b6108ff575f6113ef565b73ffffffffffffffffffffffffffffffffffffffff611428612eb6565b1690611392565b6024877f4e487b710000000000000000000000000000000000000000000000000000000081526011600452fd5b90505f611295565b9450855462ffffff8160a01c1660648104612710039061271082116115c25762ffffff620f4240937fffffffffffffffffff000000ffffffffffffffffffffffffffffffffffffffff76ffffff00000000000000000000000000000000000000006127106114d86114f8976114ef97612e65565b0460a01b16911617808b5560a01c1660020b612648565b60020b84612e78565b600f0b05608081901b95908790861561159e5773ffffffffffffffffffffffffffffffffffffffff611528612ed9565b16905b863b1561090e576040517f156e29f60000000000000000000000000000000000000000000000000000000081523060048201526024810192909252600f0b60448201528181606481838a5af18015610a1257611589575b505061128d565b8161159391612318565b610a0e57865f611582565b73ffffffffffffffffffffffffffffffffffffffff6115bb612eb6565b169061152b565b6024897f4e487b710000000000000000000000000000000000000000000000000000000081526011600452fd5b508115611288565b60a061160236612407565b208552600360205273ffffffffffffffffffffffffffffffffffffffff6040862054169060a061163136612407565b208652600160205260ff60408720541691604051937f831d7dd200000000000000000000000000000000000000000000000000000000855261167560048601612547565b60c4358015158091036117c15760a486015260e43560c486015287610104359473ffffffffffffffffffffffffffffffffffffffff86168096036108ff576116e087958694859360209960e486015215156101048501526101406101248501526101448401916125e0565b03925af19081156117b6578491611777575b506116ff575b5f8061124e565b60a061170a36612407565b2083526004602052604083207fffffffffffffffffffffffffffffffffffffffffffffffffffffffffffffff0081541690557f5fd57032db0db564bdfe22ff91033c11d319a1e6b3677e723545a7ba3e304b93602060a061176a36612407565b20604051908152a16116f8565b90506020813d6020116117ae575b8161179260209383612318565b810103126117aa575180151581036117aa575f6116f2565b8380fd5b3d9150611785565b6040513d86823e3d90fd5b8880fd5b5060a06117d136612407565b20855260056020526040852054607881018091116117f0574210611249565b6024867f4e487b710000000000000000000000000000000000000000000000000000000081526011600452fd5b8161182791612318565b610a0e57865f6111f3565b8161183c91612318565b610a0e57865f611167565b90506020813d602011611871575b8161186260209383612318565b81010312610a0e57515f61110f565b3d9150611855565b6040513d89823e3d90fd5b73ffffffffffffffffffffffffffffffffffffffff6118a1612eb6565b6110c6565b816118b091612318565b610d3e57845f611087565b60a06118c636612407565b208552600660205262ffffff80604087205416610fd1565b6004847fae18210a000000000000000000000000000000000000000000000000000000008152fd5b50346101a85760a06003193601126101a857611920612015565b611928612038565b91611931612129565b611939612139565b9260843567ffffffffffffffff81116117aa5761195a903690600401611fe7565b9161196361261e565b5073ffffffffffffffffffffffffffffffffffffffff81169473ffffffffffffffffffffffffffffffffffffffff7f0000000000000000000000000000000000000000000000000000000000000000168614611a78575086611a037f09cc09ed021cf0d9112cf6d1bdc8689bfedd367df1ac5a550dfd6a07955b8d1994606094898860a09c73ffffffffffffffffffffffffffffffffffffffff976126a4565b968888209560405196875260020b602087015260020b60408601521692a3610d10604051809273ffffffffffffffffffffffffffffffffffffffff6080809282815116855282602082015116602086015262ffffff6040820151166040860152606081015160020b6060860152015116910152565b807f60456f430000000000000000000000000000000000000000000000000000000060049252fd5b50346101a857806003193601126101a857602060405173ffffffffffffffffffffffffffffffffffffffff7f0000000000000000000000000000000000000000000000000000000000000000168152f35b50346101a857806003193601126101a8576020604051620c35008152f35b50346101a857806003193601126101a857602060405162030d408152f35b50346101a85760206003193601126101a85762ffffff6040602092600435815260068452205416604051908152f35b50346101a85760206003193601126101a85760ff60406020926004358152600484522054166040519015158152f35b50346101a857611b9a3661207c565b505050905073ffffffffffffffffffffffffffffffffffffffff7f0000000000000000000000000000000000000000000000000000000000000000163303611cb25760a0611be836836124d3565b208252600460205260ff6040832054169081611c56575b50611c2e5760206040517f259982e5000000000000000000000000000000000000000000000000000000008152f35b807f678a240e0000000000000000000000000000000000000000000000000000000060049252fd5b60a09150611c659036906124d3565b2081526005602052604081205460788101809111611c855742105f611bff565b6024827f4e487b710000000000000000000000000000000000000000000000000000000081526011600452fd5b6004827fae18210a000000000000000000000000000000000000000000000000000000008152fd5b50346101a857600490611cec3661207c565b505050505073ffffffffffffffffffffffffffffffffffffffff7f000000000000000000000000000000000000000000000000000000000000000016330361031f577f0a85dc29000000000000000000000000000000000000000000000000000000008152fd5b50346101a85760206003193601126101a8576004357fffffffff0000000000000000000000000000000000000000000000000000000081168091036108ff576020907fd893c69b0000000000000000000000000000000000000000000000000000000060405191148152f35b5034611fbb57600319360160c08112611fbb5760a013611fbb5760a43567ffffffffffffffff8111611fbb57611df9903690600401611fe7565b9073ffffffffffffffffffffffffffffffffffffffff7f0000000000000000000000000000000000000000000000000000000000000000163303611fbf5760a0611e4236612359565b205f52600360205273ffffffffffffffffffffffffffffffffffffffff60405f20541691823b15611fbb57604051927f645a153400000000000000000000000000000000000000000000000000000000845260043573ffffffffffffffffffffffffffffffffffffffff8116809103611fbb57600485015260243573ffffffffffffffffffffffffffffffffffffffff8116809103611fbb57602485015260443562ffffff8116809103611fbb5760448501526064358060020b809103611fbb57606485015260843573ffffffffffffffffffffffffffffffffffffffff8116809103611fbb575f85611f4a829682968395608485015260c060a485015260c48401916125e0565b03925af18015611fb057611f9d575b5060a0611f6536612359565b20815260046020526040812060017fffffffffffffffffffffffffffffffffffffffffffffffffffffffffffffff0082541617905580f35b611fa991505f90612318565b5f5f611f59565b6040513d5f823e3d90fd5b5f80fd5b7f0c6d42ae000000000000000000000000000000000000000000000000000000005f5260045ffd5b9181601f84011215611fbb5782359167ffffffffffffffff8311611fbb5760208381860195010111611fbb57565b6004359073ffffffffffffffffffffffffffffffffffffffff82168203611fbb57565b6024359073ffffffffffffffffffffffffffffffffffffffff82168203611fbb57565b359073ffffffffffffffffffffffffffffffffffffffff82168203611fbb57565b90610160600319830112611fbb5760043573ffffffffffffffffffffffffffffffffffffffff81168103611fbb579160a07fffffffffffffffffffffffffffffffffffffffffffffffffffffffffffffffdc820112611fbb5760249160807fffffffffffffffffffffffffffffffffffffffffffffffffffffffffffffff3c830112611fbb5760c491610144359067ffffffffffffffff8211611fbb5761212591600401611fe7565b9091565b604435908160020b8203611fbb57565b606435908160020b8203611fbb57565b60e435908160020b8203611fbb57565b906101a0600319830112611fbb5760043573ffffffffffffffffffffffffffffffffffffffff81168103611fbb579160a07fffffffffffffffffffffffffffffffffffffffffffffffffffffffffffffffdc820112611fbb5760249160807fffffffffffffffffffffffffffffffffffffffffffffffffffffffffffffff3c830112611fbb5760c49161014435916101643591610184359067ffffffffffffffff8211611fbb5761212591600401611fe7565b60c4359073ffffffffffffffffffffffffffffffffffffffff82168203611fbb57565b610120600319820112611fbb5760043573ffffffffffffffffffffffffffffffffffffffff81168103611fbb579160a07fffffffffffffffffffffffffffffffffffffffffffffffffffffffffffffffdc830112611fbb5760249160c4359160e43591610104359067ffffffffffffffff8211611fbb5761212591600401611fe7565b6101c0810190811067ffffffffffffffff8211176122cf57604052565b7f4e487b71000000000000000000000000000000000000000000000000000000005f52604160045260245ffd5b60a0810190811067ffffffffffffffff8211176122cf57604052565b90601f7fffffffffffffffffffffffffffffffffffffffffffffffffffffffffffffffe0910116810190811067ffffffffffffffff8211176122cf57604052565b60031960a0910112611fbb5760405190612372826122fc565b8160043573ffffffffffffffffffffffffffffffffffffffff81168103611fbb57815260243573ffffffffffffffffffffffffffffffffffffffff81168103611fbb57602082015260443562ffffff81168103611fbb5760408201526064358060020b8103611fbb5760608201526084359073ffffffffffffffffffffffffffffffffffffffff82168203611fbb5760800152565b7fffffffffffffffffffffffffffffffffffffffffffffffffffffffffffffffdc60a0910112611fbb576040519061243e826122fc565b8160243573ffffffffffffffffffffffffffffffffffffffff81168103611fbb57815260443573ffffffffffffffffffffffffffffffffffffffff81168103611fbb57602082015260643562ffffff81168103611fbb5760408201526084358060020b8103611fbb57606082015260a4359073ffffffffffffffffffffffffffffffffffffffff82168203611fbb5760800152565b91908260a0910312611fbb576040516124eb816122fc565b80926124f68161205b565b82526125046020820161205b565b6020830152604081013562ffffff81168103611fbb5760408301526060810135908160020b8203611fbb57608061254291819360608601520161205b565b910152565b60243573ffffffffffffffffffffffffffffffffffffffff8116809103611fbb57815260443573ffffffffffffffffffffffffffffffffffffffff8116809103611fbb57602082015260643562ffffff8116809103611fbb5760408201526084358060020b809103611fbb57606082015260a4359073ffffffffffffffffffffffffffffffffffffffff8216809203611fbb5760800152565b601f82602094937fffffffffffffffffffffffffffffffffffffffffffffffffffffffffffffffe093818652868601375f8582860101520116010190565b6040519061262b826122fc565b5f6080838281528260208201528260408201528260608201520152565b60020b7fffffffffffffffffffffffffffffffffffffffffffffffffffffffffff8000008114612677575f0390565b7f4e487b71000000000000000000000000000000000000000000000000000000005f52601160045260245ffd5b94926126ae61261e565b5073ffffffffffffffffffffffffffffffffffffffff821680158015612e38575b612e105773ffffffffffffffffffffffffffffffffffffffff908188161092835f14612e0957875b8415612e0257505b816040519861270d8a6122fc565b16885216602087015262800000604087015260020b606086015230608086015260a085205f52600160205260405f207fffffffffffffffffffffffffffffffffffffffffffffffffffffffffffffff0081541660ff83161790555f14612df4575b60020b8060ff1d8181011890620d89e88211612dc957600182167001fffcb933bd6fad37aa2d162d1a59400102700100000000000000000000000000000000189160028116612dad575b60048116612d91575b60088116612d75575b60108116612d59575b60208116612d3d575b60408116612d21575b60808116612d05575b6101008116612ce9575b6102008116612ccd575b6104008116612cb1575b6108008116612c95575b6110008116612c79575b6120008116612c5d575b6140008116612c41575b6180008116612c25575b620100008116612c09575b620200008116612bee575b620400008116612bd3575b6208000016612bba575b5f12612b93575b73ffffffffffffffffffffffffffffffffffffffff63ffffffff604051927f6276cbbe000000000000000000000000000000000000000000000000000000008452612908600485018873ffffffffffffffffffffffffffffffffffffffff6080809282815116855282602082015116602086015262ffffff6040820151166040860152606081015160020b6060860152015116910152565b0160201c1660a482015260208160c4815f73ffffffffffffffffffffffffffffffffffffffff7f0000000000000000000000000000000000000000000000000000000000000000165af18015611fb057612b5a575b5060a083205f5260056020524260405f205567ffffffffffffffff81116122cf57604051906129b460207fffffffffffffffffffffffffffffffffffffffffffffffffffffffffffffffe0601f8401160183612318565b80825260208201923682820111611fbb57815f92602092863783010152604081805181010312611fbb5760405191604083019083821067ffffffffffffffff8311176122cf57612a1d6040612a1362ffffff93620c3500958352612f5f565b9485875201612f5f565b92602085019384521611612b3257620c350062ffffff82511611612b0a578160609162ffffff7fde0cc41485843685947cd8856be361f8038580ba3916da280a9e36d8cc49998294511660a086205f52600660205262ffffff60405f2091167fffffffffffffffffffffffffffffffffffffffffffffffffffffffffff00000082541617905562ffffff81511660a086205f52600760205262ffffff60405f2091167fffffffffffffffffffffffffffffffffffffffffffffffffffffffffff00000082541617905562ffffff8060a087209351169151169060405192835260208301526040820152a190565b7fb2bb455f000000000000000000000000000000000000000000000000000000005f5260045ffd5b7f3cb6e333000000000000000000000000000000000000000000000000000000005f5260045ffd5b6020813d602011612b8b575b81612b7360209383612318565b81010312611fbb57518060020b81031561295d575f80fd5b3d9150612b66565b7fffffffffffffffffffffffffffffffffffffffffffffffffffffffffffffffff04612870565b6b048a170391f7dc42444e8fa290910260801c90612869565b6d2216e584f5fa1ea926041bedfe9890920260801c9161285f565b916e5d6af8dedb81196699c329225ee6040260801c91612854565b916f09aa508b5b7a84e1c677de54f3e99bc90260801c91612849565b916f31be135f97d08fd981231505542fcfa60260801c9161283e565b916f70d869a156d2a1b890bb3df62baf32f70260801c91612834565b916fa9f746462d870fdf8a65dc1f90e061e50260801c9161282a565b916fd097f3bdfd2022b8845ad8f792aa58250260801c91612820565b916fe7159475a2c29b7443b29c7fa6e889d90260801c91612816565b916ff3392b0822b70005940c7a398e4b70f30260801c9161280c565b916ff987a7253ac413176f2b074cf7815e540260801c91612802565b916ffcbe86c7900a88aedcffc83b479aa3a40260801c916127f8565b916ffe5dee046a99a2a811c461f1969c30530260801c916127ee565b916fff2ea16466c96a3843ec78b326b528610260801c916127e5565b916fff973b41fa98c081472e6896dfb254c00260801c916127dc565b916fffcb9843d60f6159c9db58835c9266440260801c916127d3565b916fffe5caca7e10e4e61c3624eaa0941cd00260801c916127ca565b916ffff2e50f5f656932ef12357cf3c7fdcc0260801c916127c1565b916ffff97272373d413259a46990580e213a0260801c916127b8565b7f8b86327a000000000000000000000000000000000000000000000000000000005f5260045260245ffd5b612dfd90612648565b61276e565b90506126ff565b80976126f7565b7ff4a44333000000000000000000000000000000000000000000000000000000005f5260045ffd5b5073ffffffffffffffffffffffffffffffffffffffff8716156126cf565b60c4358015158103611fbb5790565b8181029291811591840414171561267757565b81810292915f82127f800000000000000000000000000000000000000000000000000000000000000082141661267757818405149015171561267757565b60243573ffffffffffffffffffffffffffffffffffffffff81168103611fbb5790565b60443573ffffffffffffffffffffffffffffffffffffffff81168103611fbb5790565b73ffffffffffffffffffffffffffffffffffffffff5f54163303612f1c57565b7f118cdaa7000000000000000000000000000000000000000000000000000000005f523360045260245ffd5b90600f0b90600f0b029081600f0b91820361267757565b519062ffffff82168203611fbb57565b60a0612f7c3660246124d3565b205f52600260205260ff60405f2054161561307b5760a0612f9e3660246124d3565b205f52600160205260ff60405f2054165f1461307d5760243573ffffffffffffffffffffffffffffffffffffffff811690818103611fbb57505b73ffffffffffffffffffffffffffffffffffffffff7f00000000000000000000000000000000000000000000000000000000000000001690813b15611fbb5773ffffffffffffffffffffffffffffffffffffffff60245f928360405195869485937f86b0c83f0000000000000000000000000000000000000000000000000000000085521660048401525af18015611fb0576130715750565b5f61307b91612318565b565b60443573ffffffffffffffffffffffffffffffffffffffff811690818103611fbb5750612fd856","linkReferences":{}},"methodIdentifiers":{"FEE_DENOMINATOR()":"d73792a9","MAX_LP_FEE()":"3fc48eba","MAX_MEV_MODULE_DELAY()":"ccc8dc43","PROTOCOL_FEE_NUMERATOR()":"334e8367","afterAddLiquidity(address,(address,address,uint24,int24,address),(int24,int24,int256,bytes32),int256,int256,bytes)":"9f063efc","afterDonate(address,(address,address,uint24,int24,address),uint256,uint256,bytes)":"e1b4af69","afterInitialize(address,(address,address,uint24,int24,address),uint160,int24)":"6fe7e6eb","afterRemoveLiquidity(address,(address,address,uint24,int24,address),(int24,int24,int256,bytes32),int256,int256,bytes)":"6c2bbe7e","afterSwap(address,(address,address,uint24,int24,address),(bool,int256,uint160),int256,bytes)":"b47b2fb1","beforeAddLiquidity(address,(address,address,uint24,int24,address),(int24,int24,int256,bytes32),bytes)":"259982e5","beforeDonate(address,(address,address,uint24,int24,address),uint256,uint256,bytes)":"b6a8b0fa","beforeInitialize(address,(address,address,uint24,int24,address),uint160)":"dc98354e","beforeRemoveLiquidity(address,(address,address,uint24,int24,address),(int24,int24,int256,bytes32),bytes)":"21d0ee70","beforeSwap(address,(address,address,uint24,int24,address),(bool,int256,uint160),bytes)":"575e24b4","clankerFee(bytes32)":"2c78f493","factory()":"c45a0155","getHookPermissions()":"c4e833ce","initializeMevModule((address,address,uint24,int24,address),bytes)":"015e3c29","initializePool(address,address,int24,int24,address,bytes)":"94191b63","initializePoolOpen(address,address,int24,int24,bytes)":"4c2b2876","locker()":"d7b96d4e","mevModule(bytes32)":"bdf22863","mevModuleEnabled(bytes32)":"2b887e0f","owner()":"8da5cb5b","pairedFee(bytes32)":"f732b64e","poolCreationTimestamp(bytes32)":"ee4d96cf","poolManager()":"dc4c90d3","protocolFee()":"b0e21e8a","renounceOwnership()":"715018a6","supportsInterface(bytes4)":"01ffc9a7","transferOwnership(address)":"f2fde38b","weth()":"3fc8cef3"},"id":126}