{"abi":[{"type":"constructor","inputs":[{"name":"factory_","type":"address","internalType":"address"}],"stateMutability":"nonpayable"},{"type":"function","name":"MIN_LOCKUP_DURATION","inputs":[],"outputs":[{"name":"","type":"uint256","internalType":"uint256"}],"stateMutability":"view"},{"type":"function","name":"allocation","inputs":[{"name":"","type":"address","internalType":"address"}],"outputs":[{"name":"token","type":"address","internalType":"address"},{"name":"amountTotal","type":"uint256","internalType":"uint256"},{"name":"amountClaimed","type":"uint256","internalType":"uint256"},{"name":"lockupEndTime","type":"uint256","internalType":"uint256"},{"name":"vestingEndTime","type":"uint256","internalType":"uint256"},{"name":"admin","type":"address","internalType":"address"}],"stateMutability":"view"},{"type":"function","name":"amountAvailableToClaim","inputs":[{"name":"token","type":"address","internalType":"address"}],"outputs":[{"name":"","type":"uint256","internalType":"uint256"}],"stateMutability":"view"},{"type":"function","name":"claim","inputs":[{"name":"token","type":"address","internalType":"address"}],"outputs":[],"stateMutability":"nonpayable"},{"type":"function","name":"editAllocationAdmin","inputs":[{"name":"token","type":"address","internalType":"address"},{"name":"newAdmin","type":"address","internalType":"address"}],"outputs":[],"stateMutability":"nonpayable"},{"type":"function","name":"factory","inputs":[],"outputs":[{"name":"","type":"address","internalType":"address"}],"stateMutability":"view"},{"type":"function","name":"receiveTokens","inputs":[{"name":"deploymentConfig","type":"tuple","internalType":"struct IClanker.DeploymentConfig","components":[{"name":"tokenConfig","type":"tuple","internalType":"struct IClanker.TokenConfig","components":[{"name":"tokenAdmin","type":"address","internalType":"address"},{"name":"name","type":"string","internalType":"string"},{"name":"symbol","type":"string","internalType":"string"},{"name":"salt","type":"bytes32","internalType":"bytes32"},{"name":"image","type":"string","internalType":"string"},{"name":"metadata","type":"string","internalType":"string"},{"name":"context","type":"string","internalType":"string"},{"name":"originatingChainId","type":"uint256","internalType":"uint256"}]},{"name":"poolConfig","type":"tuple","internalType":"struct IClanker.PoolConfig","components":[{"name":"hook","type":"address","internalType":"address"},{"name":"pairedToken","type":"address","internalType":"address"},{"name":"tickIfToken0IsClanker","type":"int24","internalType":"int24"},{"name":"tickSpacing","type":"int24","internalType":"int24"},{"name":"poolData","type":"bytes","internalType":"bytes"}]},{"name":"lockerConfig","type":"tuple","internalType":"struct IClanker.LockerConfig","components":[{"name":"locker","type":"address","internalType":"address"},{"name":"rewardAdmins","type":"address[]","internalType":"address[]"},{"name":"rewardRecipients","type":"address[]","internalType":"address[]"},{"name":"rewardBps","type":"uint16[]","internalType":"uint16[]"},{"name":"tickLower","type":"int24[]","internalType":"int24[]"},{"name":"tickUpper","type":"int24[]","internalType":"int24[]"},{"name":"positionBps","type":"uint16[]","internalType":"uint16[]"},{"name":"lockerData","type":"bytes","internalType":"bytes"}]},{"name":"mevModuleConfig","type":"tuple","internalType":"struct IClanker.MevModuleConfig","components":[{"name":"mevModule","type":"address","internalType":"address"},{"name":"mevModuleData","type":"bytes","internalType":"bytes"}]},{"name":"extensionConfigs","type":"tuple[]","internalType":"struct IClanker.ExtensionConfig[]","components":[{"name":"extension","type":"address","internalType":"address"},{"name":"msgValue","type":"uint256","internalType":"uint256"},{"name":"extensionBps","type":"uint16","internalType":"uint16"},{"name":"extensionData","type":"bytes","internalType":"bytes"}]}]},{"name":"","type":"tuple","internalType":"struct PoolKey","components":[{"name":"currency0","type":"address","internalType":"Currency"},{"name":"currency1","type":"address","internalType":"Currency"},{"name":"fee","type":"uint24","internalType":"uint24"},{"name":"tickSpacing","type":"int24","internalType":"int24"},{"name":"hooks","type":"address","internalType":"contract IHooks"}]},{"name":"token","type":"address","internalType":"address"},{"name":"extensionSupply","type":"uint256","internalType":"uint256"},{"name":"extensionIndex","type":"uint256","internalType":"uint256"}],"outputs":[],"stateMutability":"payable"},{"type":"function","name":"supportsInterface","inputs":[{"name":"interfaceId","type":"bytes4","internalType":"bytes4"}],"outputs":[{"name":"","type":"bool","internalType":"bool"}],"stateMutability":"pure"},{"type":"event","name":"AllocationAdminUpdated","inputs":[{"name":"token","type":"address","indexed":true,"internalType":"address"},{"name":"oldAdmin","type":"address","indexed":true,"internalType":"address"},{"name":"newAdmin","type":"address","indexed":true,"internalType":"address"}],"anonymous":false},{"type":"event","name":"AllocationClaimed","inputs":[{"name":"token","type":"address","indexed":true,"internalType":"address"},{"name":"amount","type":"uint256","indexed":false,"internalType":"uint256"},{"name":"remainingAmount","type":"uint256","indexed":false,"internalType":"uint256"}],"anonymous":false},{"type":"event","name":"AllocationCreated","inputs":[{"name":"token","type":"address","indexed":true,"internalType":"address"},{"name":"admin","type":"address","indexed":true,"internalType":"address"},{"name":"supply","type":"uint256","indexed":false,"internalType":"uint256"},{"name":"lockupDuration","type":"uint256","indexed":false,"internalType":"uint256"},{"name":"vestingDuration","type":"uint256","indexed":false,"internalType":"uint256"}],"anonymous":false},{"type":"error","name":"AllocationAlreadyExists","inputs":[]},{"type":"error","name":"AllocationNotUnlocked","inputs":[]},{"type":"error","name":"InvalidMsgValue","inputs":[]},{"type":"error","name":"InvalidVaultAdmin","inputs":[]},{"type":"error","name":"InvalidVaultBps","inputs":[]},{"type":"error","name":"NoBalanceToClaim","inputs":[]},{"type":"error","name":"ReentrancyGuardReentrantCall","inputs":[]},{"type":"error","name":"TransferFailed","inputs":[]},{"type":"error","name":"Unauthorized","inputs":[]},{"type":"error","name":"VaultLockupDurationTooShort","inputs":[]}],"bytecode":{"object":"0x60a034607157601f610f1338819003918201601f19168301916001600160401b03831184841017607557808492602094604052833981010312607157516001600160a01b038116810360715760015f55608052604051610e89908161008a82396080518181816101ec01526106de0152f35b5f80fd5b634e487b7160e01b5f52604160045260245ffdfe6080806040526004361015610012575f80fd5b5f3560e01c90816301ffc9a714610b12575080631e83409a1461094857806346c966331461084c578063482501ba1461080357806368e97513146107c8578063b81b863014610702578063c45a0155146106945763f7fdb28014610074575f80fd5b6101207ffffffffffffffffffffffffffffffffffffffffffffffffffffffffffffffffc3601126106405760043567ffffffffffffffff8111610640578060040160a07ffffffffffffffffffffffffffffffffffffffffffffffffffffffffffffffffc83360301126106405760a07fffffffffffffffffffffffffffffffffffffffffffffffffffffffffffffffdc3601126106405760405160a0810181811067ffffffffffffffff82111761057357604052610130610bbb565b815260443573ffffffffffffffffffffffffffffffffffffffff8116810361064057602082015260643562ffffff811681036106405760408201526084358060020b810361064057606082015260a4359073ffffffffffffffffffffffffffffffffffffffff82168203610640576080015260c4359073ffffffffffffffffffffffffffffffffffffffff82168092036106405760e4359261010435906101d5610d3f565b73ffffffffffffffffffffffffffffffffffffffff7f000000000000000000000000000000000000000000000000000000000000000016330361066c576084019361022a826102248786610c7e565b90610cd2565b6060810135907fffffffffffffffffffffffffffffffffffffffffffffffffffffffffffffffe18136030182121561064057019283359267ffffffffffffffff841161064057602085019380360385136106405760609086018690031261064057604051936060850185811067ffffffffffffffff821117610573576040523573ffffffffffffffffffffffffffffffffffffffff81168103610640578452602084019660408601358852606060408601960135865260206102f0836102248487610c7e565b0135610644576040916102246103119261030b8b5142610c1f565b95610c7e565b013561ffff811680910361064057156106185762093a808651106105f05773ffffffffffffffffffffffffffffffffffffffff835116156105c857845f526001602052600360405f2001546105a05761036b845182610c1f565b73ffffffffffffffffffffffffffffffffffffffff845116916040519260c084019084821067ffffffffffffffff8311176105735773ffffffffffffffffffffffffffffffffffffffff9360059385936040528a87526020870188815260408801905f8252606089019283526080890193845260a089019485528c5f526001602052858060405f209a5116167fffffffffffffffffffffffff00000000000000000000000000000000000000008a54161789555160018901555160028801555160038701555160048601555116920191167fffffffffffffffffffffffff00000000000000000000000000000000000000008254161790556040517f23b872dd0000000000000000000000000000000000000000000000000000000081523360048201523060248201528160448201526020816064815f895af1908115610568575f91610539575b5015610511577f7090ec2ef3719d9bf817463bcacd6d90bc8f956cafa66eb86763eec0628f19f89273ffffffffffffffffffffffffffffffffffffffff6060935116955190519060405192835260208301526040820152a360015f55005b7f90b8ec18000000000000000000000000000000000000000000000000000000005f5260045ffd5b61055b915060203d602011610561575b6105538183610bde565b810190610c59565b5f6104b3565b503d610549565b6040513d5f823e3d90fd5b7f4e487b71000000000000000000000000000000000000000000000000000000005f52604160045260245ffd5b7f89ac0f21000000000000000000000000000000000000000000000000000000005f5260045ffd5b7f3b7dc713000000000000000000000000000000000000000000000000000000005f5260045ffd5b7f0c68b114000000000000000000000000000000000000000000000000000000005f5260045ffd5b7f1426b247000000000000000000000000000000000000000000000000000000005f5260045ffd5b5f80fd5b7f1841b4e1000000000000000000000000000000000000000000000000000000005f5260045ffd5b7f82b42900000000000000000000000000000000000000000000000000000000005f5260045ffd5b34610640575f7ffffffffffffffffffffffffffffffffffffffffffffffffffffffffffffffffc36011261064057602060405173ffffffffffffffffffffffffffffffffffffffff7f0000000000000000000000000000000000000000000000000000000000000000168152f35b346106405760207ffffffffffffffffffffffffffffffffffffffffffffffffffffffffffffffffc3601126106405773ffffffffffffffffffffffffffffffffffffffff61074e610b98565b165f52600160205260c060405f2073ffffffffffffffffffffffffffffffffffffffff81541690600181015490600281015460038201549073ffffffffffffffffffffffffffffffffffffffff600560048501549401541693604051958652602086015260408501526060840152608083015260a0820152f35b34610640575f7ffffffffffffffffffffffffffffffffffffffffffffffffffffffffffffffffc36011261064057602060405162093a808152f35b346106405760207ffffffffffffffffffffffffffffffffffffffffffffffffffffffffffffffffc36011261064057602061084461083f610b98565b610d76565b604051908152f35b346106405760407ffffffffffffffffffffffffffffffffffffffffffffffffffffffffffffffffc36011261064057610883610b98565b73ffffffffffffffffffffffffffffffffffffffff6108a0610bbb565b911690815f52600160205273ffffffffffffffffffffffffffffffffffffffff600560405f20015416330361066c5773ffffffffffffffffffffffffffffffffffffffff90825f526001602052600560405f20018282167fffffffffffffffffffffffff0000000000000000000000000000000000000000825416179055169033907f30ebdb166313f0bb748f7403e32cfba783dd777b721dd102e1693f3ecda1ae5b5f80a4005b346106405760207ffffffffffffffffffffffffffffffffffffffffffffffffffffffffffffffffc3601126106405761097f610b98565b610987610d3f565b73ffffffffffffffffffffffffffffffffffffffff811690815f526001602052600360405f2001544210610aea576109be90610d76565b8015610ac257815f526001602052600260405f20016109de828254610c1f565b9055815f52600160205273ffffffffffffffffffffffffffffffffffffffff600560405f20015416604051907fa9059cbb00000000000000000000000000000000000000000000000000000000825260048201528160248201526020816044815f875af1908115610568575f91610aa3575b50156105115760407f2ab4392cda0fd42f52cf96615f7267094b2da30a49c57e995b59317097bc463e91835f526001602052610a92816001845f200154610c71565b82519182526020820152a260015f55005b610abc915060203d602011610561576105538183610bde565b83610a50565b7fa39f474a000000000000000000000000000000000000000000000000000000005f5260045ffd5b7fcc57c490000000000000000000000000000000000000000000000000000000005f5260045ffd5b346106405760207ffffffffffffffffffffffffffffffffffffffffffffffffffffffffffffffffc36011261064057600435907fffffffff000000000000000000000000000000000000000000000000000000008216809203610640577ff7fdb28000000000000000000000000000000000000000000000000000000000602092148152f35b6004359073ffffffffffffffffffffffffffffffffffffffff8216820361064057565b6024359073ffffffffffffffffffffffffffffffffffffffff8216820361064057565b90601f7fffffffffffffffffffffffffffffffffffffffffffffffffffffffffffffffe0910116810190811067ffffffffffffffff82111761057357604052565b91908201809211610c2c57565b7f4e487b71000000000000000000000000000000000000000000000000000000005f52601160045260245ffd5b90816020910312610640575180151581036106405790565b91908203918211610c2c57565b9035907fffffffffffffffffffffffffffffffffffffffffffffffffffffffffffffffe181360301821215610640570180359067ffffffffffffffff821161064057602001918160051b3603831361064057565b9190811015610d125760051b810135907fffffffffffffffffffffffffffffffffffffffffffffffffffffffffffffff8181360301821215610640570190565b7f4e487b71000000000000000000000000000000000000000000000000000000005f52603260045260245ffd5b60025f5414610d4e5760025f55565b7f3ee5aeb5000000000000000000000000000000000000000000000000000000005f5260045ffd5b73ffffffffffffffffffffffffffffffffffffffff16805f526001602052600360405f20015442105f14610da957505f90565b5f818152600160205260409020600401544210610de6575f90815260016020819052604090912090810154600290910154610de391610c71565b90565b5f81815260016020819052604090912090810154600390910154610e0a9042610c71565b90818102918183041490151715610c2c575f8281526001602052604090206004810154600390910154610e3c91610c71565b8015610e5c57610de3925f526001602052600260405f2001549104610c71565b7f4e487b71000000000000000000000000000000000000000000000000000000005f52601260045260245ffd","linkReferences":{}},"methodIdentifiers":{"MIN_LOCKUP_DURATION()":"68e97513","allocation(address)":"b81b8630","amountAvailableToClaim(address)":"482501ba","claim(address)":"1e83409a","editAllocationAdmin(address,address)":"46c96633","factory()":"c45a0155","receiveTokens(((address,string,string,bytes32,string,string,string,uint256),(address,address,int24,int24,bytes),(address,address[],address[],uint16[],int24[],int24[],uint16[],bytes),(address,bytes),(address,uint256,uint16,bytes)[]),(address,address,uint24,int24,address),address,uint256,uint256)":"f7fdb280","supportsInterface(bytes4)":"01ffc9a7"},"id":122}