{"abi":[{"type":"constructor","inputs":[{"name":"factory_","type":"address","internalType":"address"}],"stateMutability":"nonpayable"},{"type":"function","name":"allocation","inputs":[{"name":"","type":"address","internalType":"address"}],"outputs":[{"name":"token","type":"address","internalType":"address"},{"name":"amountTotal","type":"uint256","internalType":"uint256"},{"name":"amountClaimed","type":"uint256","internalType":"uint256"},{"name":"lockupEndTime","type":"uint256","internalType":"uint256"},{"name":"vestingEndTime","type":"uint256","internalType":"uint256"},{"name":"admin","type":"address","internalType":"address"}],"stateMutability":"view"},{"type":"function","name":"amountAvailableToClaim","inputs":[{"name":"token","type":"address","internalType":"address"}],"outputs":[{"name":"","type":"uint256","internalType":"uint256"}],"stateMutability":"view"},{"type":"function","name":"claim","inputs":[{"name":"token","type":"address","internalType":"address"}],"outputs":[],"stateMutability":"nonpayable"},{"type":"function","name":"editAllocationAdmin","inputs":[{"name":"token","type":"address","internalType":"address"},{"name":"newAdmin","type":"address","internalType":"address"}],"outputs":[],"stateMutability":"nonpayable"},{"type":"function","name":"factory","inputs":[],"outputs":[{"name":"","type":"address","internalType":"address"}],"stateMutability":"view"},{"type":"function","name":"receiveTokens","inputs":[{"name":"deploymentConfig","type":"tuple","internalType":"struct IClanker.DeploymentConfig","components":[{"name":"tokenConfig","type":"tuple","internalType":"struct IClanker.TokenConfig","components":[{"name":"tokenAdmin","type":"address","internalType":"address"},{"name":"name","type":"string","internalType":"string"},{"name":"symbol","type":"string","internalType":"string"},{"name":"salt","type":"bytes32","internalType":"bytes32"},{"name":"image","type":"string","internalType":"string"},{"name":"metadata","type":"string","internalType":"string"},{"name":"context","type":"string","internalType":"string"},{"name":"originatingChainId","type":"uint256","internalType":"uint256"}]},{"name":"poolConfig","type":"tuple","internalType":"struct IClanker.PoolConfig","components":[{"name":"hook","type":"address","internalType":"address"},{"name":"pairedToken","type":"address","internalType":"address"},{"name":"tickIfToken0IsClanker","type":"int24","internalType":"int24"},{"name":"tickSpacing","type":"int24","internalType":"int24"},{"name":"poolData","type":"bytes","internalType":"bytes"}]},{"name":"lockerConfig","type":"tuple","internalType":"struct IClanker.LockerConfig","components":[{"name":"rewardAdmins","type":"address[]","internalType":"address[]"},{"name":"rewardRecipients","type":"address[]","internalType":"address[]"},{"name":"rewardBps","type":"uint16[]","internalType":"uint16[]"},{"name":"tickLower","type":"int24[]","internalType":"int24[]"},{"name":"tickUpper","type":"int24[]","internalType":"int24[]"},{"name":"positionBps","type":"uint16[]","internalType":"uint16[]"}]},{"name":"mevModuleConfig","type":"tuple","internalType":"struct IClanker.MevModuleConfig","components":[{"name":"mevModule","type":"address","internalType":"address"},{"name":"mevModuleData","type":"bytes","internalType":"bytes"}]},{"name":"extensionConfigs","type":"tuple[]","internalType":"struct IClanker.ExtensionConfig[]","components":[{"name":"extension","type":"address","internalType":"address"},{"name":"msgValue","type":"uint256","internalType":"uint256"},{"name":"extensionBps","type":"uint16","internalType":"uint16"},{"name":"extensionData","type":"bytes","internalType":"bytes"}]}]},{"name":"","type":"tuple","internalType":"struct PoolKey","components":[{"name":"currency0","type":"address","internalType":"Currency"},{"name":"currency1","type":"address","internalType":"Currency"},{"name":"fee","type":"uint24","internalType":"uint24"},{"name":"tickSpacing","type":"int24","internalType":"int24"},{"name":"hooks","type":"address","internalType":"contract IHooks"}]},{"name":"token","type":"address","internalType":"address"},{"name":"extensionSupply","type":"uint256","internalType":"uint256"},{"name":"extensionIndex","type":"uint256","internalType":"uint256"}],"outputs":[],"stateMutability":"payable"},{"type":"function","name":"supportsInterface","inputs":[{"name":"interfaceId","type":"bytes4","internalType":"bytes4"}],"outputs":[{"name":"","type":"bool","internalType":"bool"}],"stateMutability":"pure"},{"type":"event","name":"AllocationAdminUpdated","inputs":[{"name":"token","type":"address","indexed":true,"internalType":"address"},{"name":"oldAdmin","type":"address","indexed":true,"internalType":"address"},{"name":"newAdmin","type":"address","indexed":true,"internalType":"address"}],"anonymous":false},{"type":"event","name":"AllocationClaimed","inputs":[{"name":"token","type":"address","indexed":true,"internalType":"address"},{"name":"amount","type":"uint256","indexed":false,"internalType":"uint256"},{"name":"remainingAmount","type":"uint256","indexed":false,"internalType":"uint256"}],"anonymous":false},{"type":"event","name":"AllocationCreated","inputs":[{"name":"token","type":"address","indexed":true,"internalType":"address"},{"name":"admin","type":"address","indexed":true,"internalType":"address"},{"name":"lockupDuration","type":"uint256","indexed":false,"internalType":"uint256"},{"name":"vestingDuration","type":"uint256","indexed":false,"internalType":"uint256"},{"name":"unlockTime","type":"uint256","indexed":false,"internalType":"uint256"},{"name":"extensionBps","type":"uint16","indexed":false,"internalType":"uint16"}],"anonymous":false},{"type":"error","name":"AllocationAlreadyExists","inputs":[]},{"type":"error","name":"AllocationNotUnlocked","inputs":[]},{"type":"error","name":"InvalidMsgValue","inputs":[]},{"type":"error","name":"InvalidVaultAdmin","inputs":[]},{"type":"error","name":"InvalidVaultBps","inputs":[]},{"type":"error","name":"NoBalanceToClaim","inputs":[]},{"type":"error","name":"ReentrancyGuardReentrantCall","inputs":[]},{"type":"error","name":"TransferFailed","inputs":[]},{"type":"error","name":"Unauthorized","inputs":[]}],"bytecode":{"object":"0x60a034607057601f610ec238819003918201601f19168301916001600160401b03831184841017607457808492602094604052833981010312607057516001600160a01b038116810360705760015f55608052604051610e399081610089823960805181818160b301526106940152f35b5f80fd5b634e487b7160e01b5f52604160045260245ffdfe6080806040526004361015610012575f80fd5b5f3560e01c90816301ffc9a714610ab35750806316f6d76b1461051b5780631e83409a1461030e57806346c96633146101ea578063482501ba146101a1578063b81b8630146100db5763c45a015514610069575f80fd5b346100d7575f7ffffffffffffffffffffffffffffffffffffffffffffffffffffffffffffffffc3601126100d757602060405173ffffffffffffffffffffffffffffffffffffffff7f0000000000000000000000000000000000000000000000000000000000000000168152f35b5f80fd5b346100d75760207ffffffffffffffffffffffffffffffffffffffffffffffffffffffffffffffffc3601126100d75773ffffffffffffffffffffffffffffffffffffffff610127610b9d565b165f52600160205260c060405f2073ffffffffffffffffffffffffffffffffffffffff81541690600181015490600281015460038201549073ffffffffffffffffffffffffffffffffffffffff600560048501549401541693604051958652602086015260408501526060840152608083015260a0820152f35b346100d75760207ffffffffffffffffffffffffffffffffffffffffffffffffffffffffffffffffc3601126100d75760206101e26101dd610b9d565b610d26565b604051908152f35b346100d75760407ffffffffffffffffffffffffffffffffffffffffffffffffffffffffffffffffc3601126100d757610221610b9d565b73ffffffffffffffffffffffffffffffffffffffff61023e610b7a565b911690815f52600160205273ffffffffffffffffffffffffffffffffffffffff600560405f2001541633036102e65773ffffffffffffffffffffffffffffffffffffffff90825f526001602052600560405f20018282167fffffffffffffffffffffffff0000000000000000000000000000000000000000825416179055169033907f30ebdb166313f0bb748f7403e32cfba783dd777b721dd102e1693f3ecda1ae5b5f80a4005b7f82b42900000000000000000000000000000000000000000000000000000000005f5260045ffd5b346100d75760207ffffffffffffffffffffffffffffffffffffffffffffffffffffffffffffffffc3601126100d757610345610b9d565b61034d610cef565b73ffffffffffffffffffffffffffffffffffffffff811690815f526001602052600360405f20015442106104f35761038490610d26565b80156104cb57815f526001602052600260405f20016103a4828254610c81565b9055815f52600160205273ffffffffffffffffffffffffffffffffffffffff600560405f20015416604051907fa9059cbb00000000000000000000000000000000000000000000000000000000825260048201528160248201526020816044815f875af19081156104c0575f91610491575b50156104695760407f2ab4392cda0fd42f52cf96615f7267094b2da30a49c57e995b59317097bc463e91835f526001602052610458816001845f200154610ce2565b82519182526020820152a260015f55005b7f90b8ec18000000000000000000000000000000000000000000000000000000005f5260045ffd5b6104b3915060203d6020116104b9575b6104ab8183610b39565b810190610cca565b83610416565b503d6104a1565b6040513d5f823e3d90fd5b7fa39f474a000000000000000000000000000000000000000000000000000000005f5260045ffd5b7fcc57c490000000000000000000000000000000000000000000000000000000005f5260045ffd5b6101207ffffffffffffffffffffffffffffffffffffffffffffffffffffffffffffffffc3601126100d75760043567ffffffffffffffff81116100d757806004019060a07ffffffffffffffffffffffffffffffffffffffffffffffffffffffffffffffffc82360301126100d75760a07fffffffffffffffffffffffffffffffffffffffffffffffffffffffffffffffdc3601126100d75760405160a0810181811067ffffffffffffffff8211176109e6576040526105d8610b7a565b815260443573ffffffffffffffffffffffffffffffffffffffff811681036100d757602082015260643562ffffff811681036100d75760408201526084358060020b81036100d757606082015260a4359073ffffffffffffffffffffffffffffffffffffffff821682036100d7576080015260c4359073ffffffffffffffffffffffffffffffffffffffff82168092036100d75760e43592610104359161067d610cef565b73ffffffffffffffffffffffffffffffffffffffff7f00000000000000000000000000000000000000000000000000000000000000001633036102e6576084016106d1836106cb8385610bc0565b90610c14565b6060810135907fffffffffffffffffffffffffffffffffffffffffffffffffffffffffffffffe1813603018212156100d757019081359267ffffffffffffffff84116100d757602083019380360385136100d7576060908401849003126100d757604051936060850185811067ffffffffffffffff8211176109e6576040523573ffffffffffffffffffffffffffffffffffffffff811681036100d757845260208401966040840135885260606040860194013584526020610797876106cb8686610bc0565b0135610a8b576107a8885142610c81565b9061ffff6107c560406107bf8a6106cb8989610bc0565b01610cbb565b1615610a635773ffffffffffffffffffffffffffffffffffffffff86511615610a3b57875f526001602052600360405f200154610a1357610807855183610c81565b73ffffffffffffffffffffffffffffffffffffffff8751166040519160c0830183811067ffffffffffffffff8211176109e65773ffffffffffffffffffffffffffffffffffffffff9260059284926040528d86528d6020870188815260408801905f825260608901928b845260808a0194855260a08a019586525f526001602052858060405f209a5116167fffffffffffffffffffffffff00000000000000000000000000000000000000008a54161789555160018901555160028801555160038701555160048601555116920191167fffffffffffffffffffffffff0000000000000000000000000000000000000000825416179055604051907f23b872dd00000000000000000000000000000000000000000000000000000000825233600483015230602483015260448201526020816064815f8c5af19081156104c0575f916109c7575b5015610469576109a960406107bf7fa747e291a1798e94019b24c7bc3d184708a3d4f1a8d8b752b3f6543111eb6532986106cb61ffff9773ffffffffffffffffffffffffffffffffffffffff60809b51169d51995197610bc0565b9160405194855260208501526040840152166060820152a360015f55005b6109e0915060203d6020116104b9576104ab8183610b39565b8961094e565b7f4e487b71000000000000000000000000000000000000000000000000000000005f52604160045260245ffd5b7f89ac0f21000000000000000000000000000000000000000000000000000000005f5260045ffd5b7f3b7dc713000000000000000000000000000000000000000000000000000000005f5260045ffd5b7f1426b247000000000000000000000000000000000000000000000000000000005f5260045ffd5b7f1841b4e1000000000000000000000000000000000000000000000000000000005f5260045ffd5b346100d75760207ffffffffffffffffffffffffffffffffffffffffffffffffffffffffffffffffc3601126100d757600435907fffffffff0000000000000000000000000000000000000000000000000000000082168092036100d7577f16f6d76b00000000000000000000000000000000000000000000000000000000602092148152f35b90601f7fffffffffffffffffffffffffffffffffffffffffffffffffffffffffffffffe0910116810190811067ffffffffffffffff8211176109e657604052565b6024359073ffffffffffffffffffffffffffffffffffffffff821682036100d757565b6004359073ffffffffffffffffffffffffffffffffffffffff821682036100d757565b9035907fffffffffffffffffffffffffffffffffffffffffffffffffffffffffffffffe1813603018212156100d7570180359067ffffffffffffffff82116100d757602001918160051b360383136100d757565b9190811015610c545760051b810135907fffffffffffffffffffffffffffffffffffffffffffffffffffffffffffffff81813603018212156100d7570190565b7f4e487b71000000000000000000000000000000000000000000000000000000005f52603260045260245ffd5b91908201809211610c8e57565b7f4e487b71000000000000000000000000000000000000000000000000000000005f52601160045260245ffd5b3561ffff811681036100d75790565b908160209103126100d7575180151581036100d75790565b91908203918211610c8e57565b60025f5414610cfe5760025f55565b7f3ee5aeb5000000000000000000000000000000000000000000000000000000005f5260045ffd5b73ffffffffffffffffffffffffffffffffffffffff16805f526001602052600360405f20015442105f14610d5957505f90565b5f818152600160205260409020600401544210610d96575f90815260016020819052604090912090810154600290910154610d9391610ce2565b90565b5f81815260016020819052604090912090810154600390910154610dba9042610ce2565b90818102918183041490151715610c8e575f8281526001602052604090206004810154600390910154610dec91610ce2565b8015610e0c57610d93925f526001602052600260405f2001549104610ce2565b7f4e487b71000000000000000000000000000000000000000000000000000000005f52601260045260245ffd","linkReferences":{}},"methodIdentifiers":{"allocation(address)":"b81b8630","amountAvailableToClaim(address)":"482501ba","claim(address)":"1e83409a","editAllocationAdmin(address,address)":"46c96633","factory()":"c45a0155","receiveTokens(((address,string,string,bytes32,string,string,string,uint256),(address,address,int24,int24,bytes),(address[],address[],uint16[],int24[],int24[],uint16[]),(address,bytes),(address,uint256,uint16,bytes)[]),(address,address,uint24,int24,address),address,uint256,uint256)":"16f6d76b","supportsInterface(bytes4)":"01ffc9a7"},"id":119}