{"abi":[{"type":"constructor","inputs":[{"name":"factory_","type":"address","internalType":"address"}],"stateMutability":"nonpayable"},{"type":"function","name":"MIN_LOCKUP_DURATION","inputs":[],"outputs":[{"name":"","type":"uint256","internalType":"uint256"}],"stateMutability":"view"},{"type":"function","name":"airdrops","inputs":[{"name":"token","type":"address","internalType":"address"}],"outputs":[{"name":"merkleRoot","type":"bytes32","internalType":"bytes32"},{"name":"totalSupply","type":"uint256","internalType":"uint256"},{"name":"totalClaimed","type":"uint256","internalType":"uint256"},{"name":"lockupEndTime","type":"uint256","internalType":"uint256"},{"name":"vestingEndTime","type":"uint256","internalType":"uint256"}],"stateMutability":"view"},{"type":"function","name":"amountAvailableToClaim","inputs":[{"name":"token","type":"address","internalType":"address"},{"name":"recipient","type":"address","internalType":"address"},{"name":"allocatedAmount","type":"uint256","internalType":"uint256"}],"outputs":[{"name":"","type":"uint256","internalType":"uint256"}],"stateMutability":"view"},{"type":"function","name":"claim","inputs":[{"name":"token","type":"address","internalType":"address"},{"name":"recipient","type":"address","internalType":"address"},{"name":"allocatedAmount","type":"uint256","internalType":"uint256"},{"name":"proof","type":"bytes32[]","internalType":"bytes32[]"}],"outputs":[],"stateMutability":"nonpayable"},{"type":"function","name":"factory","inputs":[],"outputs":[{"name":"","type":"address","internalType":"address"}],"stateMutability":"view"},{"type":"function","name":"receiveTokens","inputs":[{"name":"deploymentConfig","type":"tuple","internalType":"struct IClanker.DeploymentConfig","components":[{"name":"tokenConfig","type":"tuple","internalType":"struct IClanker.TokenConfig","components":[{"name":"tokenAdmin","type":"address","internalType":"address"},{"name":"name","type":"string","internalType":"string"},{"name":"symbol","type":"string","internalType":"string"},{"name":"salt","type":"bytes32","internalType":"bytes32"},{"name":"image","type":"string","internalType":"string"},{"name":"metadata","type":"string","internalType":"string"},{"name":"context","type":"string","internalType":"string"},{"name":"originatingChainId","type":"uint256","internalType":"uint256"}]},{"name":"poolConfig","type":"tuple","internalType":"struct IClanker.PoolConfig","components":[{"name":"hook","type":"address","internalType":"address"},{"name":"pairedToken","type":"address","internalType":"address"},{"name":"tickIfToken0IsClanker","type":"int24","internalType":"int24"},{"name":"tickSpacing","type":"int24","internalType":"int24"},{"name":"poolData","type":"bytes","internalType":"bytes"}]},{"name":"lockerConfig","type":"tuple","internalType":"struct IClanker.LockerConfig","components":[{"name":"locker","type":"address","internalType":"address"},{"name":"rewardAdmins","type":"address[]","internalType":"address[]"},{"name":"rewardRecipients","type":"address[]","internalType":"address[]"},{"name":"rewardBps","type":"uint16[]","internalType":"uint16[]"},{"name":"tickLower","type":"int24[]","internalType":"int24[]"},{"name":"tickUpper","type":"int24[]","internalType":"int24[]"},{"name":"positionBps","type":"uint16[]","internalType":"uint16[]"},{"name":"lockerData","type":"bytes","internalType":"bytes"}]},{"name":"mevModuleConfig","type":"tuple","internalType":"struct IClanker.MevModuleConfig","components":[{"name":"mevModule","type":"address","internalType":"address"},{"name":"mevModuleData","type":"bytes","internalType":"bytes"}]},{"name":"extensionConfigs","type":"tuple[]","internalType":"struct IClanker.ExtensionConfig[]","components":[{"name":"extension","type":"address","internalType":"address"},{"name":"msgValue","type":"uint256","internalType":"uint256"},{"name":"extensionBps","type":"uint16","internalType":"uint16"},{"name":"extensionData","type":"bytes","internalType":"bytes"}]}]},{"name":"","type":"tuple","internalType":"struct PoolKey","components":[{"name":"currency0","type":"address","internalType":"Currency"},{"name":"currency1","type":"address","internalType":"Currency"},{"name":"fee","type":"uint24","internalType":"uint24"},{"name":"tickSpacing","type":"int24","internalType":"int24"},{"name":"hooks","type":"address","internalType":"contract IHooks"}]},{"name":"token","type":"address","internalType":"address"},{"name":"extensionSupply","type":"uint256","internalType":"uint256"},{"name":"extensionIndex","type":"uint256","internalType":"uint256"}],"outputs":[],"stateMutability":"payable"},{"type":"function","name":"supportsInterface","inputs":[{"name":"interfaceId","type":"bytes4","internalType":"bytes4"}],"outputs":[{"name":"","type":"bool","internalType":"bool"}],"stateMutability":"pure"},{"type":"event","name":"AirdropClaimed","inputs":[{"name":"token","type":"address","indexed":true,"internalType":"address"},{"name":"user","type":"address","indexed":true,"internalType":"address"},{"name":"totalUserAmountClaimed","type":"uint256","indexed":false,"internalType":"uint256"},{"name":"userAmountStillLocked","type":"uint256","indexed":false,"internalType":"uint256"}],"anonymous":false},{"type":"event","name":"AirdropCreated","inputs":[{"name":"token","type":"address","indexed":true,"internalType":"address"},{"name":"merkleRoot","type":"bytes32","indexed":false,"internalType":"bytes32"},{"name":"supply","type":"uint256","indexed":false,"internalType":"uint256"},{"name":"lockupDuration","type":"uint256","indexed":false,"internalType":"uint256"},{"name":"vestingDuration","type":"uint256","indexed":false,"internalType":"uint256"}],"anonymous":false},{"type":"error","name":"AirdropAlreadyExists","inputs":[]},{"type":"error","name":"AirdropLockupDurationTooShort","inputs":[]},{"type":"error","name":"AirdropNotUnlocked","inputs":[]},{"type":"error","name":"InvalidAirdropPercentage","inputs":[]},{"type":"error","name":"InvalidMerkleRoot","inputs":[]},{"type":"error","name":"InvalidMsgValue","inputs":[]},{"type":"error","name":"InvalidProof","inputs":[]},{"type":"error","name":"ReentrancyGuardReentrantCall","inputs":[]},{"type":"error","name":"TotalMaxClaimed","inputs":[]},{"type":"error","name":"Unauthorized","inputs":[]},{"type":"error","name":"UserMaxClaimed","inputs":[]},{"type":"error","name":"ZeroClaim","inputs":[]},{"type":"error","name":"ZeroToClaim","inputs":[]}],"bytecode":{"object":"0x60a034607157601f610f2838819003918201601f19168301916001600160401b03831184841017607557808492602094604052833981010312607157516001600160a01b038116810360715760015f55608052604051610e9e908161008a823960805181818161060201526109c10152f35b5f80fd5b634e487b7160e01b5f52604160045260245ffdfe6080806040526004361015610012575f80fd5b5f3560e01c90816301ffc9a714610b04575080632c7eb5a314610aaf57806368e9751314610a745780638c86f0a7146109e5578063c45a015514610977578063f7fdb2801461048a5763fabed41214610069575f80fd5b346104865760807ffffffffffffffffffffffffffffffffffffffffffffffffffffffffffffffffc360112610486576100a0610b8a565b6100a8610bad565b604435916064359067ffffffffffffffff821161048657366023830112156104865781600401359267ffffffffffffffff8411610486573660248560051b85010111610486576100f6610e67565b73ffffffffffffffffffffffffffffffffffffffff821690815f52600160205260405f20956003870154421061045e57801561043657600287018054906001890154918281101561040e5789546040805173ffffffffffffffffffffffffffffffffffffffff881660208201908152818301889052918152919b9161017c606082610bd0565b5190206040516020810191825260208152610198604082610bd0565b5190209a5f9b5b8b8d10156101e05760248d60051b8c010135908181105f146101cf575f52602052600160405f205b9c019b61019f565b905f52602052600160405f206101c7565b036103e6576005019673ffffffffffffffffffffffffffffffffffffffff86165f528760205260405f20548581146103be578561021c92610da5565b92806102288584610d46565b10156103ab575b50508115610384576102ce9160209173ffffffffffffffffffffffffffffffffffffffff86165f5287835260405f20610269838254610d46565b9055610276828254610d46565b90556040517fa9059cbb00000000000000000000000000000000000000000000000000000000815273ffffffffffffffffffffffffffffffffffffffff86166004820152602481019190915291829081906044820190565b03815f885af19283156103795761033960409373ffffffffffffffffffffffffffffffffffffffff937fd399c6e7fad358fc300beda3f056717c94a04c7233ce92683de6500ba509022e9661034c575b508284165f9081526020989098529684902054968790610d98565b835196875260208701521693a360015f55005b61036d9060203d602011610372575b6103658183610bd0565b810190610d80565b61031e565b503d61035b565b6040513d5f823e3d90fd5b7e01549d000000000000000000000000000000000000000000000000000000005f5260045ffd5b6103b6929350610d98565b90868061022f565b7f5ce73c66000000000000000000000000000000000000000000000000000000005f5260045ffd5b7f09bde339000000000000000000000000000000000000000000000000000000005f5260045ffd5b7fed78e047000000000000000000000000000000000000000000000000000000005f5260045ffd5b7f47e789c2000000000000000000000000000000000000000000000000000000005f5260045ffd5b7fb8d22dea000000000000000000000000000000000000000000000000000000005f5260045ffd5b5f80fd5b6101207ffffffffffffffffffffffffffffffffffffffffffffffffffffffffffffffffc3601126104865760043567ffffffffffffffff8111610486578060040160a07ffffffffffffffffffffffffffffffffffffffffffffffffffffffffffffffffc83360301126104865760a07fffffffffffffffffffffffffffffffffffffffffffffffffffffffffffffffdc3601126104865760405160a0810181811067ffffffffffffffff82111761092257604052610546610bad565b815260443573ffffffffffffffffffffffffffffffffffffffff8116810361048657602082015260643562ffffff811681036104865760408201526084358060020b810361048657606082015260a4359073ffffffffffffffffffffffffffffffffffffffff82168203610486576080015260c4359173ffffffffffffffffffffffffffffffffffffffff83168093036104865760e4359061010435906105eb610e67565b73ffffffffffffffffffffffffffffffffffffffff7f000000000000000000000000000000000000000000000000000000000000000016330361094f57608401916106408261063a8587610c85565b90610cd9565b6060810135907fffffffffffffffffffffffffffffffffffffffffffffffffffffffffffffffe18136030182121561048657019384359367ffffffffffffffff851161048657602086019480360386136104865760609087018790031261048657604051946060860186811067ffffffffffffffff821117610922576040523585526020850193604087013585526060604087019701358752875f52600160205260405f20546108fa5760206106fa8261063a8587610c85565b0135158015906108f1575b6108c9578551156108a15761063a61071f92604094610c85565b013561ffff81168091036104865715610879576201518082511061085157610748825142610d46565b855f526001602052600360405f20015561076e610766835142610d46565b855190610d46565b5f868152600160208181526040808420600481810196909655885181556002810185905590920185905590517f23b872dd00000000000000000000000000000000000000000000000000000000815233938101939093523060248401526044830184905291959190869060649082908a5af1938415610379577f9794eb668650e78abd5f1c3a03934de180ef7542028ada1c7478d2416d986fab95608095610834575b50519251905191604051938452602084015260408301526060820152a260015f55005b61084c9060203d602011610372576103658183610bd0565b610811565b7f8a5ab644000000000000000000000000000000000000000000000000000000005f5260045ffd5b7f52abc7c3000000000000000000000000000000000000000000000000000000005f5260045ffd5b7f9dd854d3000000000000000000000000000000000000000000000000000000005f5260045ffd5b7f1841b4e1000000000000000000000000000000000000000000000000000000005f5260045ffd5b50341515610705565b7fecdf558e000000000000000000000000000000000000000000000000000000005f5260045ffd5b7f4e487b71000000000000000000000000000000000000000000000000000000005f52604160045260245ffd5b7f82b42900000000000000000000000000000000000000000000000000000000005f5260045ffd5b34610486575f7ffffffffffffffffffffffffffffffffffffffffffffffffffffffffffffffffc36011261048657602060405173ffffffffffffffffffffffffffffffffffffffff7f0000000000000000000000000000000000000000000000000000000000000000168152f35b346104865760207ffffffffffffffffffffffffffffffffffffffffffffffffffffffffffffffffc3601126104865773ffffffffffffffffffffffffffffffffffffffff610a31610b8a565b165f52600160205260a060405f20805490600181015490600281015460046003830154920154926040519485526020850152604084015260608301526080820152f35b34610486575f7ffffffffffffffffffffffffffffffffffffffffffffffffffffffffffffffffc360112610486576020604051620151808152f35b346104865760607ffffffffffffffffffffffffffffffffffffffffffffffffffffffffffffffffc360112610486576020610afc610aeb610b8a565b610af3610bad565b60443591610c11565b604051908152f35b346104865760207ffffffffffffffffffffffffffffffffffffffffffffffffffffffffffffffffc36011261048657600435907fffffffff000000000000000000000000000000000000000000000000000000008216809203610486577ff7fdb28000000000000000000000000000000000000000000000000000000000602092148152f35b6004359073ffffffffffffffffffffffffffffffffffffffff8216820361048657565b6024359073ffffffffffffffffffffffffffffffffffffffff8216820361048657565b90601f7fffffffffffffffffffffffffffffffffffffffffffffffffffffffffffffffe0910116810190811067ffffffffffffffff82111761092257604052565b909173ffffffffffffffffffffffffffffffffffffffff821692835f526001602052600360405f2001544210610c7d57610c7a935f52600160205273ffffffffffffffffffffffffffffffffffffffff600560405f200191165f5260205260405f205491610da5565b90565b505050505f90565b9035907fffffffffffffffffffffffffffffffffffffffffffffffffffffffffffffffe181360301821215610486570180359067ffffffffffffffff821161048657602001918160051b3603831361048657565b9190811015610d195760051b810135907fffffffffffffffffffffffffffffffffffffffffffffffffffffffffffffff8181360301821215610486570190565b7f4e487b71000000000000000000000000000000000000000000000000000000005f52603260045260245ffd5b91908201809211610d5357565b7f4e487b71000000000000000000000000000000000000000000000000000000005f52601160045260245ffd5b90816020910312610486575180151581036104865790565b91908203918211610d5357565b73ffffffffffffffffffffffffffffffffffffffff165f818152600160205260409020600401549192914210610ddf5750610c7a91610d98565b805f526001602052610df8600360405f20015442610d98565b92838102938185041490151715610d53575f9081526001602052604090206004810154600390910154610e2a91610d98565b8015610e3a57610c7a9204610d98565b7f4e487b71000000000000000000000000000000000000000000000000000000005f52601260045260245ffd5b60025f5414610e765760025f55565b7f3ee5aeb5000000000000000000000000000000000000000000000000000000005f5260045ffd","linkReferences":{}},"methodIdentifiers":{"MIN_LOCKUP_DURATION()":"68e97513","airdrops(address)":"8c86f0a7","amountAvailableToClaim(address,address,uint256)":"2c7eb5a3","claim(address,address,uint256,bytes32[])":"fabed412","factory()":"c45a0155","receiveTokens(((address,string,string,bytes32,string,string,string,uint256),(address,address,int24,int24,bytes),(address,address[],address[],uint16[],int24[],int24[],uint16[],bytes),(address,bytes),(address,uint256,uint16,bytes)[]),(address,address,uint24,int24,address),address,uint256,uint256)":"f7fdb280","supportsInterface(bytes4)":"01ffc9a7"},"id":119}