{"abi":[{"type":"constructor","inputs":[{"name":"factory_","type":"address","internalType":"address"}],"stateMutability":"nonpayable"},{"type":"function","name":"airdrops","inputs":[{"name":"token","type":"address","internalType":"address"}],"outputs":[{"name":"merkleRoot","type":"bytes32","internalType":"bytes32"},{"name":"totalSupply","type":"uint256","internalType":"uint256"},{"name":"totalClaimed","type":"uint256","internalType":"uint256"},{"name":"lockupEndTime","type":"uint256","internalType":"uint256"},{"name":"vestingEndTime","type":"uint256","internalType":"uint256"}],"stateMutability":"view"},{"type":"function","name":"amountAvailableToClaim","inputs":[{"name":"token","type":"address","internalType":"address"},{"name":"recipient","type":"address","internalType":"address"},{"name":"allocatedAmount","type":"uint256","internalType":"uint256"}],"outputs":[{"name":"","type":"uint256","internalType":"uint256"}],"stateMutability":"view"},{"type":"function","name":"claim","inputs":[{"name":"token","type":"address","internalType":"address"},{"name":"recipient","type":"address","internalType":"address"},{"name":"allocatedAmount","type":"uint256","internalType":"uint256"},{"name":"proof","type":"bytes32[]","internalType":"bytes32[]"}],"outputs":[],"stateMutability":"nonpayable"},{"type":"function","name":"factory","inputs":[],"outputs":[{"name":"","type":"address","internalType":"address"}],"stateMutability":"view"},{"type":"function","name":"receiveTokens","inputs":[{"name":"deploymentConfig","type":"tuple","internalType":"struct IClanker.DeploymentConfig","components":[{"name":"tokenConfig","type":"tuple","internalType":"struct IClanker.TokenConfig","components":[{"name":"tokenAdmin","type":"address","internalType":"address"},{"name":"name","type":"string","internalType":"string"},{"name":"symbol","type":"string","internalType":"string"},{"name":"salt","type":"bytes32","internalType":"bytes32"},{"name":"image","type":"string","internalType":"string"},{"name":"metadata","type":"string","internalType":"string"},{"name":"context","type":"string","internalType":"string"},{"name":"originatingChainId","type":"uint256","internalType":"uint256"}]},{"name":"poolConfig","type":"tuple","internalType":"struct IClanker.PoolConfig","components":[{"name":"hook","type":"address","internalType":"address"},{"name":"pairedToken","type":"address","internalType":"address"},{"name":"tickIfToken0IsClanker","type":"int24","internalType":"int24"},{"name":"tickSpacing","type":"int24","internalType":"int24"},{"name":"poolData","type":"bytes","internalType":"bytes"}]},{"name":"lockerConfig","type":"tuple","internalType":"struct IClanker.LockerConfig","components":[{"name":"rewardAdmins","type":"address[]","internalType":"address[]"},{"name":"rewardRecipients","type":"address[]","internalType":"address[]"},{"name":"rewardBps","type":"uint16[]","internalType":"uint16[]"},{"name":"tickLower","type":"int24[]","internalType":"int24[]"},{"name":"tickUpper","type":"int24[]","internalType":"int24[]"},{"name":"positionBps","type":"uint16[]","internalType":"uint16[]"}]},{"name":"mevModuleConfig","type":"tuple","internalType":"struct IClanker.MevModuleConfig","components":[{"name":"mevModule","type":"address","internalType":"address"},{"name":"mevModuleData","type":"bytes","internalType":"bytes"}]},{"name":"extensionConfigs","type":"tuple[]","internalType":"struct IClanker.ExtensionConfig[]","components":[{"name":"extension","type":"address","internalType":"address"},{"name":"msgValue","type":"uint256","internalType":"uint256"},{"name":"extensionBps","type":"uint16","internalType":"uint16"},{"name":"extensionData","type":"bytes","internalType":"bytes"}]}]},{"name":"","type":"tuple","internalType":"struct PoolKey","components":[{"name":"currency0","type":"address","internalType":"Currency"},{"name":"currency1","type":"address","internalType":"Currency"},{"name":"fee","type":"uint24","internalType":"uint24"},{"name":"tickSpacing","type":"int24","internalType":"int24"},{"name":"hooks","type":"address","internalType":"contract IHooks"}]},{"name":"token","type":"address","internalType":"address"},{"name":"extensionSupply","type":"uint256","internalType":"uint256"},{"name":"extensionIndex","type":"uint256","internalType":"uint256"}],"outputs":[],"stateMutability":"payable"},{"type":"function","name":"supportsInterface","inputs":[{"name":"interfaceId","type":"bytes4","internalType":"bytes4"}],"outputs":[{"name":"","type":"bool","internalType":"bool"}],"stateMutability":"pure"},{"type":"event","name":"AirdropClaimed","inputs":[{"name":"token","type":"address","indexed":true,"internalType":"address"},{"name":"user","type":"address","indexed":true,"internalType":"address"},{"name":"totalUserAmountClaimed","type":"uint256","indexed":false,"internalType":"uint256"},{"name":"userAmountStillLocked","type":"uint256","indexed":false,"internalType":"uint256"}],"anonymous":false},{"type":"event","name":"AirdropCreated","inputs":[{"name":"token","type":"address","indexed":true,"internalType":"address"},{"name":"merkleRoot","type":"bytes32","indexed":false,"internalType":"bytes32"},{"name":"supply","type":"uint256","indexed":false,"internalType":"uint256"}],"anonymous":false},{"type":"error","name":"AirdropAlreadyExists","inputs":[]},{"type":"error","name":"AirdropNotUnlocked","inputs":[]},{"type":"error","name":"InvalidAirdropPercentage","inputs":[]},{"type":"error","name":"InvalidMerkleRoot","inputs":[]},{"type":"error","name":"InvalidMsgValue","inputs":[]},{"type":"error","name":"InvalidProof","inputs":[]},{"type":"error","name":"ReentrancyGuardReentrantCall","inputs":[]},{"type":"error","name":"TotalMaxClaimed","inputs":[]},{"type":"error","name":"Unauthorized","inputs":[]},{"type":"error","name":"UserMaxClaimed","inputs":[]},{"type":"error","name":"ZeroClaim","inputs":[]},{"type":"error","name":"ZeroToClaim","inputs":[]}],"bytecode":{"object":"0x60a034607157601f610eae38819003918201601f19168301916001600160401b03831184841017607557808492602094604052833981010312607157516001600160a01b038116810360715760015f55608052604051610e24908161008a82396080518181816104d601526107570152f35b5f80fd5b634e487b7160e01b5f52604160045260245ffdfe6080806040526004361015610012575f80fd5b5f3560e01c90816301ffc9a714610a8a5750806316f6d76b146105de5780632c7eb5a3146105895780638c86f0a7146104fa578063c45a01551461048c5763fabed4121461005e575f80fd5b346104885760807ffffffffffffffffffffffffffffffffffffffffffffffffffffffffffffffffc36011261048857610095610b74565b61009d610b51565b90604435906064359067ffffffffffffffff821161048857366023830112156104885781600401359267ffffffffffffffff8411610488573660248560051b85010111610488576100ec610d2b565b73ffffffffffffffffffffffffffffffffffffffff821690815f52600160205260405f209560038701544210610460578115610438576002870193845494600189015495868110156104105789549960405160208101906101a88161017c8a898b8773ffffffffffffffffffffffffffffffffffffffff6040929594938160608401971683521660208201520152565b037fffffffffffffffffffffffffffffffffffffffffffffffffffffffffffffffe08101835282610b10565b51902060405160208101918252602081526101c4604082610b10565b5190209a5f9b5b8b8d101561020c5760248d60051b8c010135908181105f146101fb575f52602052600160405f205b9c019b6101cb565b905f52602052600160405f206101f3565b036103e8576005019273ffffffffffffffffffffffffffffffffffffffff85165f528360205260405f20548681146103c0578661024892610d62565b96806102548984610c58565b10156103ad575b505085156103865773ffffffffffffffffffffffffffffffffffffffff83165f528160205260405f2061028f878254610c58565b905561029c868254610c58565b905573ffffffffffffffffffffffffffffffffffffffff604051927fa9059cbb000000000000000000000000000000000000000000000000000000008452169485600484015260248301526020826044815f885af1801561037b577fd399c6e7fad358fc300beda3f056717c94a04c7233ce92683de6500ba509022e9360409361033d9261034e575b505f8781526020939093529183902054918290610d1e565b82519182526020820152a360015f55005b61036f9060203d602011610374575b6103678183610b10565b810190610c92565b610325565b503d61035d565b6040513d5f823e3d90fd5b7e01549d000000000000000000000000000000000000000000000000000000005f5260045ffd5b6103b8929750610d1e565b94868061025b565b7f5ce73c66000000000000000000000000000000000000000000000000000000005f5260045ffd5b7f09bde339000000000000000000000000000000000000000000000000000000005f5260045ffd5b7fed78e047000000000000000000000000000000000000000000000000000000005f5260045ffd5b7f47e789c2000000000000000000000000000000000000000000000000000000005f5260045ffd5b7fb8d22dea000000000000000000000000000000000000000000000000000000005f5260045ffd5b5f80fd5b34610488575f7ffffffffffffffffffffffffffffffffffffffffffffffffffffffffffffffffc36011261048857602060405173ffffffffffffffffffffffffffffffffffffffff7f0000000000000000000000000000000000000000000000000000000000000000168152f35b346104885760207ffffffffffffffffffffffffffffffffffffffffffffffffffffffffffffffffc3601126104885773ffffffffffffffffffffffffffffffffffffffff610546610b74565b165f52600160205260a060405f20805490600181015490600281015460046003830154920154926040519485526020850152604084015260608301526080820152f35b346104885760607ffffffffffffffffffffffffffffffffffffffffffffffffffffffffffffffffc3601126104885760206105d66105c5610b74565b6105cd610b51565b60443591610caa565b604051908152f35b6101207ffffffffffffffffffffffffffffffffffffffffffffffffffffffffffffffffc3601126104885760043567ffffffffffffffff811161048857806004019060a07ffffffffffffffffffffffffffffffffffffffffffffffffffffffffffffffffc82360301126104885760a07fffffffffffffffffffffffffffffffffffffffffffffffffffffffffffffffdc3601126104885760405160a0810181811067ffffffffffffffff821117610a355760405261069b610b51565b815260443573ffffffffffffffffffffffffffffffffffffffff8116810361048857602082015260643562ffffff811681036104885760408201526084358060020b810361048857606082015260a4359073ffffffffffffffffffffffffffffffffffffffff82168203610488576080015260c4359173ffffffffffffffffffffffffffffffffffffffff83168093036104885760e435916101043590610740610d2b565b73ffffffffffffffffffffffffffffffffffffffff7f0000000000000000000000000000000000000000000000000000000000000000163303610a6257608401916107958261078f8584610b97565b90610beb565b6060810135907fffffffffffffffffffffffffffffffffffffffffffffffffffffffffffffffe18136030182121561048857019081359367ffffffffffffffff851161048857602083019480360386136104885760609084018490031261048857604051946060860186811067ffffffffffffffff821117610a35576040523585526020850193604084013585526060604087019401358452875f52600160205260405f2054610a0d57602061084f8261078f8587610b97565b013515801590610a04575b6109dc578551156109b45761078f61087492604094610b97565b013561ffff8116809103610488571561098c576108b0826108996108b8945142610c58565b875f526001602052600360405f2001555142610c58565b905190610c58565b5f848152600160208181526040808420600480820196909655865181556002810185905590920186905590517f23b872dd0000000000000000000000000000000000000000000000000000000081523393810193909352306024840152604483018590529193919084906064908290885af191821561037b577fda3bd2fdd4e18911e99bdbf7a20af15a6a1144d0c991f963b02b177406419b8c9360409361096f575b50519082519182526020820152a260015f55005b6109879060203d602011610374576103678183610b10565b61095b565b7f52abc7c3000000000000000000000000000000000000000000000000000000005f5260045ffd5b7f9dd854d3000000000000000000000000000000000000000000000000000000005f5260045ffd5b7f1841b4e1000000000000000000000000000000000000000000000000000000005f5260045ffd5b5034151561085a565b7fecdf558e000000000000000000000000000000000000000000000000000000005f5260045ffd5b7f4e487b71000000000000000000000000000000000000000000000000000000005f52604160045260245ffd5b7f82b42900000000000000000000000000000000000000000000000000000000005f5260045ffd5b346104885760207ffffffffffffffffffffffffffffffffffffffffffffffffffffffffffffffffc36011261048857600435907fffffffff000000000000000000000000000000000000000000000000000000008216809203610488577f16f6d76b00000000000000000000000000000000000000000000000000000000602092148152f35b90601f7fffffffffffffffffffffffffffffffffffffffffffffffffffffffffffffffe0910116810190811067ffffffffffffffff821117610a3557604052565b6024359073ffffffffffffffffffffffffffffffffffffffff8216820361048857565b6004359073ffffffffffffffffffffffffffffffffffffffff8216820361048857565b9035907fffffffffffffffffffffffffffffffffffffffffffffffffffffffffffffffe181360301821215610488570180359067ffffffffffffffff821161048857602001918160051b3603831361048857565b9190811015610c2b5760051b810135907fffffffffffffffffffffffffffffffffffffffffffffffffffffffffffffff8181360301821215610488570190565b7f4e487b71000000000000000000000000000000000000000000000000000000005f52603260045260245ffd5b91908201809211610c6557565b7f4e487b71000000000000000000000000000000000000000000000000000000005f52601160045260245ffd5b90816020910312610488575180151581036104885790565b909173ffffffffffffffffffffffffffffffffffffffff821692835f526001602052600360405f2001544210610d1657610d13935f52600160205273ffffffffffffffffffffffffffffffffffffffff600560405f200191165f5260205260405f205491610d62565b90565b505050505f90565b91908203918211610c6557565b60025f5414610d3a5760025f55565b7f3ee5aeb5000000000000000000000000000000000000000000000000000000005f5260045ffd5b73ffffffffffffffffffffffffffffffffffffffff165f818152600160205260409020600401549192914210610d9c5750610d1391610d1e565b805f526001602052610db5600360405f20015442610d1e565b92838102938185041490151715610c65575f9081526001602052604090206004810154600390910154610de791610d1e565b8015610df757610d139204610d1e565b7f4e487b71000000000000000000000000000000000000000000000000000000005f52601260045260245ffd","linkReferences":{}},"methodIdentifiers":{"airdrops(address)":"8c86f0a7","amountAvailableToClaim(address,address,uint256)":"2c7eb5a3","claim(address,address,uint256,bytes32[])":"fabed412","factory()":"c45a0155","receiveTokens(((address,string,string,bytes32,string,string,string,uint256),(address,address,int24,int24,bytes),(address[],address[],uint16[],int24[],int24[],uint16[]),(address,bytes),(address,uint256,uint16,bytes)[]),(address,address,uint24,int24,address),address,uint256,uint256)":"16f6d76b","supportsInterface(bytes4)":"01ffc9a7"},"id":116}