{"abi":[{"type":"constructor","inputs":[{"name":"factory_","type":"address","internalType":"address"},{"name":"weth_","type":"address","internalType":"address"},{"name":"universalRouter_","type":"address","internalType":"address"},{"name":"permit2_","type":"address","internalType":"address"}],"stateMutability":"nonpayable"},{"type":"function","name":"factory","inputs":[],"outputs":[{"name":"","type":"address","internalType":"contract IClanker"}],"stateMutability":"view"},{"type":"function","name":"permit2","inputs":[],"outputs":[{"name":"","type":"address","internalType":"contract IPermit2"}],"stateMutability":"view"},{"type":"function","name":"receiveTokens","inputs":[{"name":"deploymentConfig","type":"tuple","internalType":"struct IClanker.DeploymentConfig","components":[{"name":"tokenConfig","type":"tuple","internalType":"struct IClanker.TokenConfig","components":[{"name":"tokenAdmin","type":"address","internalType":"address"},{"name":"name","type":"string","internalType":"string"},{"name":"symbol","type":"string","internalType":"string"},{"name":"salt","type":"bytes32","internalType":"bytes32"},{"name":"image","type":"string","internalType":"string"},{"name":"metadata","type":"string","internalType":"string"},{"name":"context","type":"string","internalType":"string"},{"name":"originatingChainId","type":"uint256","internalType":"uint256"}]},{"name":"poolConfig","type":"tuple","internalType":"struct IClanker.PoolConfig","components":[{"name":"hook","type":"address","internalType":"address"},{"name":"pairedToken","type":"address","internalType":"address"},{"name":"tickIfToken0IsClanker","type":"int24","internalType":"int24"},{"name":"tickSpacing","type":"int24","internalType":"int24"},{"name":"poolData","type":"bytes","internalType":"bytes"}]},{"name":"lockerConfig","type":"tuple","internalType":"struct IClanker.LockerConfig","components":[{"name":"rewardAdmins","type":"address[]","internalType":"address[]"},{"name":"rewardRecipients","type":"address[]","internalType":"address[]"},{"name":"rewardBps","type":"uint16[]","internalType":"uint16[]"},{"name":"tickLower","type":"int24[]","internalType":"int24[]"},{"name":"tickUpper","type":"int24[]","internalType":"int24[]"},{"name":"positionBps","type":"uint16[]","internalType":"uint16[]"}]},{"name":"mevModuleConfig","type":"tuple","internalType":"struct IClanker.MevModuleConfig","components":[{"name":"mevModule","type":"address","internalType":"address"},{"name":"mevModuleData","type":"bytes","internalType":"bytes"}]},{"name":"extensionConfigs","type":"tuple[]","internalType":"struct IClanker.ExtensionConfig[]","components":[{"name":"extension","type":"address","internalType":"address"},{"name":"msgValue","type":"uint256","internalType":"uint256"},{"name":"extensionBps","type":"uint16","internalType":"uint16"},{"name":"extensionData","type":"bytes","internalType":"bytes"}]}]},{"name":"tokenPoolKey","type":"tuple","internalType":"struct PoolKey","components":[{"name":"currency0","type":"address","internalType":"Currency"},{"name":"currency1","type":"address","internalType":"Currency"},{"name":"fee","type":"uint24","internalType":"uint24"},{"name":"tickSpacing","type":"int24","internalType":"int24"},{"name":"hooks","type":"address","internalType":"contract IHooks"}]},{"name":"token","type":"address","internalType":"address"},{"name":"extensionSupply","type":"uint256","internalType":"uint256"},{"name":"extensionIndex","type":"uint256","internalType":"uint256"}],"outputs":[],"stateMutability":"payable"},{"type":"function","name":"supportsInterface","inputs":[{"name":"interfaceId","type":"bytes4","internalType":"bytes4"}],"outputs":[{"name":"","type":"bool","internalType":"bool"}],"stateMutability":"pure"},{"type":"function","name":"universalRouter","inputs":[],"outputs":[{"name":"","type":"address","internalType":"contract IUniversalRouter"}],"stateMutability":"view"},{"type":"function","name":"weth","inputs":[],"outputs":[{"name":"","type":"address","internalType":"contract IWETH9"}],"stateMutability":"view"},{"type":"event","name":"EthDevBuy","inputs":[{"name":"token","type":"address","indexed":true,"internalType":"address"},{"name":"user","type":"address","indexed":true,"internalType":"address"},{"name":"ethAmount","type":"uint256","indexed":false,"internalType":"uint256"},{"name":"tokenAmount","type":"uint256","indexed":false,"internalType":"uint256"}],"anonymous":false},{"type":"error","name":"InvalidEthDevBuyPercentage","inputs":[]},{"type":"error","name":"InvalidMsgValue","inputs":[]},{"type":"error","name":"InvalidPairedTokenPoolKey","inputs":[]},{"type":"error","name":"ReentrancyGuardReentrantCall","inputs":[]},{"type":"error","name":"Unauthorized","inputs":[]}],"bytecode":{"object":"0x610100346100f257601f611b9c38819003918201601f19168301916001600160401b038311848410176100f6578084926080946040528339810103126100f2576100488161010a565b906100556020820161010a565b61006d60606100666040850161010a565b930161010a565b60015f556001600160a01b0393841660805290831660a05290821660c0521660e052604051611a7d908161011f823960805181818160aa0152610332015260a05181818161011c015261057d015260c05181818161018b0152818161065d01528181611147015261145f015260e0518181816105ef015281816113b801526116ca0152f35b5f80fd5b634e487b7160e01b5f52604160045260245ffd5b51906001600160a01b03821682036100f25756fe6080806040526004361015610012575f80fd5b5f905f3560e01c90816301ffc9a7146116ee5750806312261ee71461168057806316f6d76b146101af57806335a9e4df146101405780633fc8cef3146100d15763c45a015514610060575f80fd5b346100ce57807ffffffffffffffffffffffffffffffffffffffffffffffffffffffffffffffffc3601126100ce57602060405173ffffffffffffffffffffffffffffffffffffffff7f0000000000000000000000000000000000000000000000000000000000000000168152f35b80fd5b50346100ce57807ffffffffffffffffffffffffffffffffffffffffffffffffffffffffffffffffc3601126100ce57602060405173ffffffffffffffffffffffffffffffffffffffff7f0000000000000000000000000000000000000000000000000000000000000000168152f35b50346100ce57807ffffffffffffffffffffffffffffffffffffffffffffffffffffffffffffffffc3601126100ce57602060405173ffffffffffffffffffffffffffffffffffffffff7f0000000000000000000000000000000000000000000000000000000000000000168152f35b506101207ffffffffffffffffffffffffffffffffffffffffffffffffffffffffffffffffc360112610ca75760043567ffffffffffffffff8111610ca757806004018136039160a07ffffffffffffffffffffffffffffffffffffffffffffffffffffffffffffffffc840112610ca75760a07fffffffffffffffffffffffffffffffffffffffffffffffffffffffffffffffdc360112610ca7576040519261025684611774565b60243573ffffffffffffffffffffffffffffffffffffffff81168103610ca757845260443573ffffffffffffffffffffffffffffffffffffffff81168103610ca757602085015260643562ffffff81168103610ca75760408501526084358060020b8103610ca757606085015260a43573ffffffffffffffffffffffffffffffffffffffff81168103610ca757608085015260c4359273ffffffffffffffffffffffffffffffffffffffff8416809403610ca7576101043560025f54146116585760025f5573ffffffffffffffffffffffffffffffffffffffff7f000000000000000000000000000000000000000000000000000000000000000016330361163057608484019160206103738361036d868561180e565b90611862565b01353414801590611617575b6115ef5760406103938361036d868561180e565b013561ffff8116809103610ca757158015906115e4575b6115bc576103bb9261036d9161180e565b6060810135907fffffffffffffffffffffffffffffffffffffffffffffffffffffffffffffffe181360301821215610ca7570180359067ffffffffffffffff8211610ca75760208101918036038313610ca75781019360e082860312610ca757604051946060860186811067ffffffffffffffff82111761158f5760405260a09083900312610ca7576104596040519361045485611774565b6117ed565b8352610467604083016117ed565b9360208401948552606083013562ffffff81168103610ca757604085015260808301358060020b8103610ca757606085015260a083013573ffffffffffffffffffffffffffffffffffffffff81168103610ca757608085015283865260c08301356fffffffffffffffffffffffffffffffff811693848203610ca75760e06104f79160409360208b0152016117ed565b96019586527fffffffffffffffffffffffffffffffffffffffffffffffffffffffffffffff5d60248301359101811215610ca75701602401359173ffffffffffffffffffffffffffffffffffffffff831690818403610ca75788946fffffffffffffffffffffffffffffffff34169373ffffffffffffffffffffffffffffffffffffffff7f00000000000000000000000000000000000000000000000000000000000000001692838514928315610dfd575b505050610d89575b506040517f095ea7b300000000000000000000000000000000000000000000000000000000815273ffffffffffffffffffffffffffffffffffffffff7f000000000000000000000000000000000000000000000000000000000000000016600482018190526fffffffffffffffffffffffffffffffff84166024830152929060208160448189875af18015610d2e57610d6c575b5073ffffffffffffffffffffffffffffffffffffffff7f00000000000000000000000000000000000000000000000000000000000000001692803b15610d68576040517f87517c4500000000000000000000000000000000000000000000000000000000815273ffffffffffffffffffffffffffffffffffffffff8681166004830152851660248201526fffffffffffffffffffffffffffffffff8316604482015265ffffffffffff421660648201529086908290608490829084905af18015610d2e5786918a91610d50575b50818361095e60219860806109196109f8966109c898506107606040519d8e7f10000000000000000000000000000000000000000000000000000000000000006020820152600181526117ac565b6108ed604051977f060000000000000000000000000000000000000000000000000000000000000060208a01527f0c0000000000000000000000000000000000000000000000000000000000000060218a01527f0f0000000000000000000000000000000000000000000000000000000000000060228a0152600389526107e860238a6117ac565b6107f06118e7565b9c73ffffffffffffffffffffffffffffffffffffffff845116145f14610d39576fffffffffffffffffffffffffffffffff60015b6040519261083184611790565b83526040519461084086611774565b85526020850190151581528180604087019b169a8b815260608701926001845289880195865273ffffffffffffffffffffffffffffffffffffffff6040519a8b996020808c0152518281511660408c01528260208201511660608c015262ffffff604082015116828c0152606081015160020b60a08c015201511660c089015251151560e08801525116610100860152511661012084015251610120610140840152610160830190611997565b037fffffffffffffffffffffffffffffffffffffffffffffffffffffffffffffffe081018352826117ac565b610922896119da565b5261092c886119da565b506040805173ffffffffffffffffffffffffffffffffffffffff909216602083015281019290925281606081016108ed565b610967866119e7565b52610971856119e7565b506040518a602082015260016040820152604081526109916060826117ac565b61099a866119f7565b526109a4856119f7565b506108ed6109b061193f565b95604051948593604060208601526060850190611997565b907fffffffffffffffffffffffffffffffffffffffffffffffffffffffffffffffe0848303016040850152611a07565b610a01836119da565b52610a0b826119da565b50604051977f70a082310000000000000000000000000000000000000000000000000000000089523060048a01526020896024818b5afa988915610d2e578699610ce2575b505173ffffffffffffffffffffffffffffffffffffffff16610cdb575b823b15610cd757610acc85936fffffffffffffffffffffffffffffffff610afc96604051978896879586937f3593564c000000000000000000000000000000000000000000000000000000008552606060048601526064850190611997565b907ffffffffffffffffffffffffffffffffffffffffffffffffffffffffffffffffc848303016024850152611a07565b426044830152039316905af18015610ccc57610cb3575b5050604051927f70a08231000000000000000000000000000000000000000000000000000000008452306004850152602084602481865afa938415610c43578594610c7b575b508303928311610c4e5780516040517fa9059cbb00000000000000000000000000000000000000000000000000000000815273ffffffffffffffffffffffffffffffffffffffff90911660048201526024810184905260208160448188875af18015610c43577f74dba82203a486f524dc5d1931f82939c29eee6baf03b53fef9dc5a3031f9f3d9260409273ffffffffffffffffffffffffffffffffffffffff92610c16575b505116938151903482526020820152a36001815580f35b610c379060203d602011610c3c575b610c2f81836117ac565b8101906118cf565b610bff565b503d610c25565b6040513d87823e3d90fd5b6024847f4e487b710000000000000000000000000000000000000000000000000000000081526011600452fd5b9093506020813d602011610cab575b81610c97602093836117ac565b81010312610ca75751925f610b59565b5f80fd5b3d9150610c8a565b81610cbd916117ac565b610cc857835f610b13565b8380fd5b6040513d84823e3d90fd5b8480fd5b5083610a6d565b955097506020853d602011610d26575b81610cff602093836117ac565b81010312610ca75773ffffffffffffffffffffffffffffffffffffffff8995519890610a50565b3d9150610cf2565b6040513d88823e3d90fd5b6fffffffffffffffffffffffffffffffff81610824565b610d5c915082906117ac565b610cd75784885f610712565b8580fd5b610d849060203d602011610c3c57610c2f81836117ac565b610645565b803b15610cd75784600491604051928380927fd0e30db00000000000000000000000000000000000000000000000000000000082526fffffffffffffffffffffffffffffffff8816905af1908115610c43578591610de8575b506105b1565b81610df2916117ac565b610cc857835f610de2565b90919394959296975073ffffffffffffffffffffffffffffffffffffffff808351169151169186821491825f1461156057868403611538578d935b8315611530578781145b611334575b831561132d5780935b156113255750945b6109c86110d6604051947f1000000000000000000000000000000000000000000000000000000000000000602087015260018652610e976021876117ac565b87611054604051927f060000000000000000000000000000000000000000000000000000000000000060208501527f0c0000000000000000000000000000000000000000000000000000000000000060218501527f0f00000000000000000000000000000000000000000000000000000000000000602285015260038452610f206023856117ac565b6080611041896108ed8d6fffffffffffffffffffffffffffffffff610f436118e7565b9c73ffffffffffffffffffffffffffffffffffffffff85511673ffffffffffffffffffffffffffffffffffffffff8916145f1461131e578160015b60405194610f8b86611790565b855260405196610f9a88611774565b875260208701901515815260408701908c82526060880193845289880195865273ffffffffffffffffffffffffffffffffffffffff6040519a8b996020808c0152518281511660408c01528260208201511660608c015262ffffff604082015116828c0152606081015160020b60a08c015201511660c089015251151560e08801525116610100860152511661012084015251610120610140840152610160830190611997565b61104a886119da565b5261092c876119da565b61105d856119e7565b52611067846119e7565b5073ffffffffffffffffffffffffffffffffffffffff604051991698896020820152600160408201526040815261109f6060826117ac565b6110a8856119f7565b526110b2846119f7565b506108ed6110be61193f565b94604051948593604060208601526060850190611997565b6110df826119da565b526110e9816119da565b50604051947f70a082310000000000000000000000000000000000000000000000000000000086523060048701526020866024818a5afa958615610c435785966112e7575b5073ffffffffffffffffffffffffffffffffffffffff807f000000000000000000000000000000000000000000000000000000000000000016935116155f146112e0575b823b15610cd757610acc85936fffffffffffffffffffffffffffffffff6111d196604051978896879586937f3593564c000000000000000000000000000000000000000000000000000000008552606060048601526064850190611997565b426044830152039316905af18015610ccc576112c7575b50506020602492604051938480927f70a082310000000000000000000000000000000000000000000000000000000082523060048301525afa9182156112bc578a92611288575b50810390811161125b578894936fffffffffffffffffffffffffffffffff9091169291905f80806105a9565b6024897f4e487b710000000000000000000000000000000000000000000000000000000081526011600452fd5b9091506020813d6020116112b4575b816112a4602093836117ac565b81010312610ca75751905f61122f565b3d9150611297565b6040513d8c823e3d90fd5b816112d1916117ac565b6112dc57895f6111e8565b8980fd5b5083611172565b945094506020843d602011611316575b81611304602093836117ac565b81010312610ca7578d9351945f61112e565b3d91506112f7565b8183610f7e565b905094610e58565b8193610e50565b9091929350863b15610ca7576040517fd0e30db00000000000000000000000000000000000000000000000000000000081525f81600481898c5af180156115255761150a575b506040517f095ea7b300000000000000000000000000000000000000000000000000000000815273ffffffffffffffffffffffffffffffffffffffff7f000000000000000000000000000000000000000000000000000000000000000016600482018190526fffffffffffffffffffffffffffffffff871660248301528f95949392916020816044818a8e5af180156114ff576114e2575b50803b15610d68576040517f87517c4500000000000000000000000000000000000000000000000000000000815273ffffffffffffffffffffffffffffffffffffffff8a811660048301527f00000000000000000000000000000000000000000000000000000000000000001660248201526fffffffffffffffffffffffffffffffff8816604482015265ffffffffffff421660648201529086908290608490829084905af1908115610d2e5786916114cd575b5050610e47565b816114d7916117ac565b610cd757845f6114c6565b6114fa9060203d602011610c3c57610c2f81836117ac565b611412565b6040513d89823e3d90fd5b61151a919493929e505f906117ac565b5f9c9091925f61137a565b6040513d5f823e3d90fd5b878214610e42565b7fd8164a5b000000000000000000000000000000000000000000000000000000005f5260045ffd5b8681141580611586575b801561157c575b611538578d93610e38565b5087841415611571565b5080151561156a565b7f4e487b71000000000000000000000000000000000000000000000000000000005f52604160045260245ffd5b7f1f832079000000000000000000000000000000000000000000000000000000005f5260045ffd5b5060e43515156103aa565b7f1841b4e1000000000000000000000000000000000000000000000000000000005f5260045ffd5b5060206116288361036d868561180e565b01351561037f565b7f82b42900000000000000000000000000000000000000000000000000000000005f5260045ffd5b7f3ee5aeb5000000000000000000000000000000000000000000000000000000005f5260045ffd5b34610ca7575f7ffffffffffffffffffffffffffffffffffffffffffffffffffffffffffffffffc360112610ca757602060405173ffffffffffffffffffffffffffffffffffffffff7f0000000000000000000000000000000000000000000000000000000000000000168152f35b34610ca75760207ffffffffffffffffffffffffffffffffffffffffffffffffffffffffffffffffc360112610ca757600435907fffffffff000000000000000000000000000000000000000000000000000000008216809203610ca7577f16f6d76b00000000000000000000000000000000000000000000000000000000602092148152f35b60a0810190811067ffffffffffffffff82111761158f57604052565b6020810190811067ffffffffffffffff82111761158f57604052565b90601f7fffffffffffffffffffffffffffffffffffffffffffffffffffffffffffffffe0910116810190811067ffffffffffffffff82111761158f57604052565b359073ffffffffffffffffffffffffffffffffffffffff82168203610ca757565b9035907fffffffffffffffffffffffffffffffffffffffffffffffffffffffffffffffe181360301821215610ca7570180359067ffffffffffffffff8211610ca757602001918160051b36038313610ca757565b91908110156118a25760051b810135907fffffffffffffffffffffffffffffffffffffffffffffffffffffffffffffff8181360301821215610ca7570190565b7f4e487b71000000000000000000000000000000000000000000000000000000005f52603260045260245ffd5b90816020910312610ca757518015158103610ca75790565b604051608091906118f883826117ac565b60038152917fffffffffffffffffffffffffffffffffffffffffffffffffffffffffffffffe001825f5b82811061192e57505050565b806060602080938501015201611922565b6040805190919061195083826117ac565b60018152917fffffffffffffffffffffffffffffffffffffffffffffffffffffffffffffffe001825f5b82811061198657505050565b80606060208093850101520161197a565b907fffffffffffffffffffffffffffffffffffffffffffffffffffffffffffffffe0601f602080948051918291828752018686015e5f8582860101520116010190565b8051156118a25760200190565b8051600110156118a25760400190565b8051600210156118a25760600190565b9080602083519182815201916020808360051b8301019401925f915b838310611a3257505050505090565b9091929394602080611a6e837fffffffffffffffffffffffffffffffffffffffffffffffffffffffffffffffe086600196030187528951611997565b97019301930191939290611a2356","linkReferences":{}},"methodIdentifiers":{"factory()":"c45a0155","permit2()":"12261ee7","receiveTokens(((address,string,string,bytes32,string,string,string,uint256),(address,address,int24,int24,bytes),(address[],address[],uint16[],int24[],int24[],uint16[]),(address,bytes),(address,uint256,uint16,bytes)[]),(address,address,uint24,int24,address),address,uint256,uint256)":"16f6d76b","supportsInterface(bytes4)":"01ffc9a7","universalRouter()":"35a9e4df","weth()":"3fc8cef3"},"id":118}